:020000040002F8
:10600000205F0020C1630200C9630200CB6302006D
:10601000CD630200CF630200D163020000000000E4
:10602000000000000000000000000000D363020038
:10603000D563020000000000D7630200D9630200AC
:10604000E59A0200DB630200019F0200DB630200AD
:10605000DB6302001D990200B9970200DB630200B6
:10606000DB630200DB630200DB630200DB63020030
:10607000DB6302003D9B0200DB630200DB63020086
:10608000DB630200659B0200DB630200DB6302004E
:10609000DB630200DB630200759B0200DB6302002E
:1060A000DB630200DB630200DB630200B19E0200DF
:1060B000DB630200DB630200000000000000000060
:1060C000DB630200DB630200DB630200DB630200D0
:1060D000DB630200DB630200DB6302000000000000
:1060E00000000000000000000000000000000000B0
:1060F00000000000000000000000000000000000A0
:10610000000000000000000000000000000000008F
:10611000000000000000000000000000000000007F
:10612000000000000000000000000000000000006F
:10613000000000000000000000000000000000005F
:10614000000000000000000000000000000000004F
:10615000000000000000000000000000000000003F
:10616000000000000000000000000000000000002F
:10617000000000000000000000000000000000001F
:10618000000000000000000000000000000000000F
:1061900000000000000000000000000000000000FF
:1061A00000000000000000000000000000000000EF
:1061B00000000000000000000000000000000000DF
:1061C00000000000000000000000000000000000CF
:1061D00000000000000000000000000000000000BF
:1061E00000000000000000000000000000000000AF
:1061F000000000000000000000000000000000009F
:10620000DFF80CD001F0B0FB0048004755F3020066
:10621000205F002030B450E8012F93B2C48923449A
:106220008489A34228BF1B1B0489A34202BFBFF37A
:106230002F8F002007E0C3EA020340E80134002C5E
:10624000E9D14FF001000A6030BC704750E8012FDF
:10625000C2EA024240E801210029F7D1704730B478
:1062600050E8022F1FFAA2F3C488A34202BFBFF373
:106270002F8F00200DE0C48923448489A34228BFC6
:106280001B1BC2EA034340E80234002CE8D14FF064
:1062900001000A6030BC704750E8022FC2EA224277
:1062A00040E802210029F7D17047034653E8022F46
:1062B000D988B2EB324F4FF0000017BF92B241EADB
:1062C000014142EA014104E05A68B2EB324F08BF93
:1062D000012043E80212002AE8D1704730B4044696
:1062E00054E8000F0D4644E80053002BF8D1156028
:1062F00030BC704730B4044654E8000F40EA010552
:1063000044E80053002BF7D1156030BC704730B41F
:10631000044654E8000F00EA010544E80053002B4E
:10632000F7D1156030BC704730B4044654E8000F14
:1063300080EA010544E80053002BF7D1156030BC1A
:10634000704730B4044654E8000F00EB010544E800
:106350000053002BF7D1156030BC704730B40446B1
:1063600054E8000FA0EB010544E80053002BF7D1DF
:10637000156030BC704770B404464FF0000054E81C
:10638000006F0D68AE4207BF44E80023012044E8D7
:1063900000630E60002B1CBF0020F0E770BC70474C
:1063A00030B4044654E8000F88422CBF451A054615
:1063B00044E80053002BF5D1156030BC7047000055
:1063C0000648804706480047FEE7FEE7FEE7FEE78F
:1063D000FEE7FEE7FEE7FEE7FEE7FEE7959B02002D
:1063E0000162020070B491E87800B2E802105B1814
:1063F00054EB0C04B2E802104D4156EB0C0680E859
:1064000078008041013070BC704770B491E878002A
:10641000B2E802105B1A74EB0C04B2E802108D4172
:1064200076EB0C0680E878008041404270BC7047F3
:106430002DE9F00791E8F807B2E802105B1854EB79
:106440000C04B2E802104D4156EB0C06B2E8021003
:106450004F4158EB0C08B2E8021059EB01095AEB16
:106460000C0A80E8F80780410130BDE8F00770476A
:106470002DE9F00791E8F807B2E802105B1A74EB17
:106480000C04B2E802108D4176EB0C06B2E8021063
:106490008F4178EB0C08B2E8021079EB01097AEB36
:1064A0000C0A80E8F80780414042BDE8F0077047D9
:1064B0002DE9F007524290E87800B1E880071740D4
:1064C000DB1918EA020854EB080419EA020955EB33
:1064D00009051AEA020A56EB0A0678C090E8780025
:1064E000B1E8800717407B4118EA020854EB080422
:1064F00019EA020955EB09051AEA020A56EB0A06DF
:1065000078C080410130BDE8F00770472DE9F00701
:10651000524290E87800B1E880071740DB1B18EA88
:10652000020874EB080419EA020975EB09051AEA76
:10653000020A76EB0A0678C090E87800B1E8800796
:106540001740BB4118EA020874EB080419EA020973
:1065500075EB09051AEA020A76EB0A0678C0804153
:106560004042BDE8F007704790E8300091E8C00075
:10657000A31B1340E41AF618EB1B1340ED1AFF1887
:1065800030C0C0C17047F0B55242FFF7EDFFFFF7D2
:10659000EBFFFFF7E9FFFFF7E7FFF0BD2DE9F0079D
:1065A0003AC91668A1FB069A4FF0000CE3FB06AC53
:1065B0004FF00007E4FB06C74FF00008E5FB067844
:1065C00040F8049B56684FF00009E1FB06A91CEB5C
:1065D000090C4FF0000949EB0909E3FB06C917EB69
:1065E00009074FF0000949EB0909E4FB067918EBAC
:1065F00009084FF0000949EB0909E5FB068940F855
:1066000004AB96684FF0000AE1FB06CA17EB0A07D5
:106610004FF0000A4AEB0A0AE3FB067A18EB0A0875
:106620004FF0000A4AEB0A0AE4FB068A19EB0A0952
:106630004FF0000A4AEB0A0AE5FB069A40F804CB41
:10664000D6684FF0000CE1FB067C18EB0C084FF00D
:10665000000C4CEB0C0CE3FB068C19EB0C094FF017
:10666000000C4CEB0C0CE4FB069C1AEB0C0A4FF0F4
:10667000000C4CEB0C0CE5FB06AC80E88017BDE889
:10668000F00770470A462DE9F04F41EC140A92ECEE
:10669000080A1EC910EE100AA1FB00784FF000098D
:1066A000E2FB00894FF0000AE3FB009A4FF0000B79
:1066B000E4FB00AB12EE100A4FF0000CE1FB00BC53
:1066C0004FF0000EE2FB00CE4FF00005E3FB00E5CB
:1066D0004FF00006E4FB005605EE107A10EE900A2B
:1066E0004FF00007E1FB008719EB07094FF00007A7
:1066F00047EB0707E2FB00971AEB070A4FF000078A
:1067000047EB0707E3FB00A71BEB070B4FF0000766
:1067100047EB0707E4FB00B712EE900A1CEB070CEF
:106720004FF0000747EB0707E1FB00C71EEB070E22
:106730004FF0000747EB0707E2FB00E7ED194FF0CA
:10674000000747EB0707E3FB0057F6194FF0000778
:1067500047EB0707E4FB006705EE908A11EE100A8D
:106760004FF00008E1FB00981AEB080A4FF0000810
:1067700048EB0808E2FB00A81BEB080B4FF00008F1
:1067800048EB0808E3FB00B81CEB080C4FF00008CE
:1067900048EB0808E4FB00C813EE100A1EEB080ED5
:1067A0004FF0000848EB0808E1FB00E815EB08058E
:1067B0004FF0000848EB0808E2FB005816EB08060B
:1067C0004FF0000848EB0808E3FB006817EB0807E8
:1067D0004FF0000848EB0808E4FB007806EE109A3A
:1067E00011EE900A4FF00009E1FB00A91BEB090B29
:1067F0004FF0000949EB0909E2FB00B91CEB090C59
:106800004FF0000949EB0909E3FB00C91EEB090E33
:106810004FF0000949EB0909E4FB00E913EE900A87
:1068200015EB09054FF0000949EB0909E1FB005997
:1068300016EB09064FF0000949EB0909E2FB006974
:1068400017EB09074FF0000949EB0909E3FB007951
:1068500018EB09084FF0000949EB0909E4FB00892E
:1068600006EE90AA14EE901A01F110011EC910EE66
:10687000100A4FF0000AE1FB00BA1CEB0A0C4FF0C3
:10688000000A4AEB0A0AE2FB00CA1EEB0A0E4FF0AE
:10689000000A4AEB0A0AE3FB00EA15EB0A054FF08F
:1068A000000A4AEB0A0AE4FB005A12EE100A16EB41
:1068B0000A064FF0000A4AEB0A0AE1FB006A17EBEE
:1068C0000A074FF0000A4AEB0A0AE2FB007A18EBCB
:1068D0000A084FF0000A4AEB0A0AE3FB008A19EBA8
:1068E0000A094FF0000A4AEB0A0AE4FB009A07EE95
:1068F00010BA10EE900A4FF0000BE1FB00CB1EEB3C
:106900000B0E4FF0000B4BEB0B0BE2FB00EB15EB10
:106910000B054FF0000B4BEB0B0BE3FB005B16EB97
:106920000B064FF0000B4BEB0B0BE4FB006B12EE76
:10693000900A17EB0B074FF0000B4BEB0B0BE1FB37
:10694000007B18EB0B084FF0000B4BEB0B0BE2FB43
:10695000008B19EB0B094FF0000B4BEB0B0BE3FB20
:10696000009B1AEB0B0A4FF0000B4BEB0B0BE4FBFD
:1069700000AB07EE90CA11EE100A4FF0000CE1FBDD
:1069800000EC15EB0C054FF0000C4CEB0C0CE2FB93
:10699000005C16EB0C064FF0000C4CEB0C0CE3FB10
:1069A000006C17EB0C074FF0000C4CEB0C0CE4FBED
:1069B000007C13EE100A18EB0C084FF0000C4CEBA7
:1069C0000C0CE1FB008C19EB0C094FF0000C4CEBAC
:1069D0000C0CE2FB009C1AEB0C0A4FF0000C4CEB89
:1069E0000C0CE3FB00AC1BEB0C0B4FF0000C4CEB66
:1069F0000C0CE4FB00BC08EE10EA11EE900A4FF01C
:106A0000000EE1FB005E16EB0E064FF0000E4EEBA3
:106A10000E0EE2FB006E17EB0E074FF0000E4EEB72
:106A20000E0EE3FB007E18EB0E084FF0000E4EEB4F
:106A30000E0EE4FB008E13EE900A19EB0E094FF0D8
:106A4000000E4EEB0E0EE1FB009E1AEB0E0A4FF00D
:106A5000000E4EEB0E0EE2FB00AE1BEB0E0B4FF0EA
:106A6000000E4EEB0E0EE3FB00BE1CEB0E0C4FF0C7
:106A7000000E4EEB0E0EE4FB00CE14EE100AA0EC5E
:106A8000075A80E8E05FBDE8F08F00BF30B44FF0F8
:106A9000000310F8014B11F8015B013A84EA050488
:106AA00043EA0403F5D1A3F101034FEAD37030BCEC
:106AB00070474FF0000310F8012B013943EA02033D
:106AC000F9D1A3F101034FEAD370704711F8013BEC
:106AD00000F8013B013AF9D17047002200F8012B80
:106AE0000139FBD1704700BF2DE9F00791E8F807A5
:106AF000B2E802105B1854EB0C04B2E802104D41EE
:106B000056EB0C06B2E802104F4158EB0C08B2E805
:106B1000021059EB01095AEB0C0A8941B3F1FF331A
:106B200074F1FF3475F1FF3576F1000677F1000757
:106B300078F1000879F101097AF1FF3A51F1000189
:106B40004A425B184C414D4156F1000657F100078F
:106B500058F1000859EB02095AEB010A80E8F807DE
:106B6000BDE8F00770472DE9F00791E8F807B2E8B3
:106B700002105B1A74EB0C04B2E802108D4176EB44
:106B80000C06B2E802108F4178EB0C08B2E8021054
:106B900079EB01097AEB0C0A89414A425B184C41B6
:106BA0004D4156F1000657F1000758F1000859EB26
:106BB00002095AEB010A80E8F807BDE8F0077047C0
:106BC0000A462DE9F04F41EC140A92EC080A1EC95E
:106BD00010EE100AA1FB00784FF00009E2FB0089DB
:106BE0004FF0000AE3FB009A4FF0000BE4FB00AB10
:106BF00012EE100A4FF0000CE1FB00BC4FF0000E4B
:106C0000E2FB00CE4FF00005E3FB00E54FF000068D
:106C1000E4FB005605EE107A10EE900A4FF00007E4
:106C2000E1FB008719EB07094FF0000747EB070767
:106C3000E2FB00971AEB070A4FF0000747EB070744
:106C4000E3FB00A71BEB070B4FF0000747EB070721
:106C5000E4FB00B712EE900A1CEB070C4FF00007A4
:106C600047EB0707E1FB00C71EEB070E4FF00007DD
:106C700047EB0707E2FB00E7ED194FF0000747EB92
:106C80000707E3FB0057F6194FF0000747EB07072C
:106C9000E4FB006705EE908A11EE100A4FF0000841
:106CA000E1FB00981AEB080A4FF0000848EB0808CF
:106CB000E2FB00A81BEB080B4FF0000848EB0808AC
:106CC000E3FB00B81CEB080C4FF0000848EB080889
:106CD000E4FB00C813EE100A1EEB080E4FF000088C
:106CE00048EB0808E1FB00E815EB08054FF0000849
:106CF00048EB0808E2FB005816EB08064FF00008C6
:106D000048EB0808E3FB006817EB08074FF00008A2
:106D100048EB0808E4FB007806EE109A11EE900AA2
:106D20004FF00009E1FB00A91BEB090B4FF0000934
:106D300049EB0909E2FB00B91CEB090C4FF0000913
:106D400049EB0909E3FB00C91EEB090E4FF00009EE
:106D500049EB0909E4FB00E913EE900A15EB09057C
:106D60004FF0000949EB0909E1FB005916EB090650
:106D70004FF0000949EB0909E2FB006917EB09072D
:106D80004FF0000949EB0909E3FB007918EB09080A
:106D90004FF0000949EB0909E4FB008906EE90AACF
:106DA00014EE901A01F110011EC910EE100A4FF0F6
:106DB000000AE1FB00BA1CEB0A0C4FF0000A4AEB98
:106DC0000A0AE2FB00CA1EEB0A0E4FF0000A4AEB69
:106DD0000A0AE3FB00EA15EB0A054FF0000A4AEB4A
:106DE0000A0AE4FB005A12EE100A16EB0A064FF0EC
:106DF000000A4AEB0A0AE1FB006A17EB0A074FF0A8
:106E0000000A4AEB0A0AE2FB007A18EB0A084FF084
:106E1000000A4AEB0A0AE3FB008A19EB0A094FF061
:106E2000000A4AEB0A0AE4FB009A07EE10BA10EED9
:106E3000900A4FF0000BE1FB00CB1EEB0B0E4FF066
:106E4000000B4BEB0B0BE2FB00EB15EB0B054FF0D4
:106E5000000B4BEB0B0BE3FB005B16EB0B064FF051
:106E6000000B4BEB0B0BE4FB006B12EE900A17EBE5
:106E70000B074FF0000B4BEB0B0BE1FB007B18EB10
:106E80000B084FF0000B4BEB0B0BE2FB008B19EBED
:106E90000B094FF0000B4BEB0B0BE3FB009B1AEBCA
:106EA0000B0A4FF0000B4BEB0B0BE4FB00AB07EEB8
:106EB00090CA11EE100A4FF0000CE1FB00EC15EB4C
:106EC0000C054FF0000C4CEB0C0CE2FB005C16EBDD
:106ED0000C064FF0000C4CEB0C0CE3FB006C17EBBA
:106EE0000C074FF0000C4CEB0C0CE4FB007C13EE99
:106EF000100A18EB0C084FF0000C4CEB0C0CE1FBEB
:106F0000008C19EB0C094FF0000C4CEB0C0CE2FB65
:106F1000009C1AEB0C0A4FF0000C4CEB0C0CE3FB42
:106F200000AC1BEB0C0B4FF0000C4CEB0C0CE4FB1F
:106F300000BC08EE10EA11EE900A4FF0000EE1FBE3
:106F4000005E16EB0E064FF0000E4EEB0E0EE2FB4F
:106F5000006E17EB0E074FF0000E4EEB0E0EE3FB2C
:106F6000007E18EB0E084FF0000E4EEB0E0EE4FB09
:106F7000008E13EE900A19EB0E094FF0000E4EEB47
:106F80000E0EE1FB009E1AEB0E0A4FF0000E4EEBC8
:106F90000E0EE2FB00AE1BEB0E0B4FF0000E4EEBA5
:106FA0000E0EE3FB00BE1CEB0E0C4FF0000E4EEB82
:106FB0000E0EE4FB00CE53EC172A18EE104A12EB2B
:106FC0000A0253EB0B0354EB0C0455EB0E050020A7
:106FD00040F1000012EB0B0253EB0C0354EB0E04D8
:106FE00055EB0E0546410020474158EB000859EB90
:106FF0000A0940F10000B2EB0E0273F1000374F1D4
:10700000000475EB0A0576EB0B0677EB0C0778EBC3
:107010000A0879EB0C0960F10000B5EB0B0576EB83
:107020000C0677EB0E0778EB0B0879EB0E0960F195
:1070300000005FEAE07C7FEA0C0CDCF1000EB2EBB2
:107040000C0273EB0C0374EB0C0475F1000576F184
:10705000000677F1000778EB0E0879EB0C0960F178
:1070600000005FEAE07CDCF1000E12EB0C0253EB57
:107070000C0354EB0C0455F1000556F1000657F1D2
:10708000000758EB0E0859EB0C0940F100005FEACD
:10709000E07CDCF1000E12EB0C0253EB0C0354EB22
:1070A0000C0455F1000556F1000657F1000758EBA6
:1070B0000E0859EB0C095BEC15AA51EC160A1AEBF9
:1070C000060A5BEB070B50EB080051EB09015FF080
:1070D000000C4CF1000C1AEB070A5BEB080B50EBB1
:1070E000090051EB090152EB0C025FF0000C53EB6D
:1070F0000C0354EB0C0475414CF1000CBAEB090A7B
:107100007BF1000B70F10000B141BA4173EB080351
:10711000B44175EB08056CF1000CC91B72EB080259
:1071200073EB0903BC4175EB09056CF1000C5FEAD8
:10713000EC787FEA0808D8F10009BAEB080A7BEB83
:10714000080B70EB080071F1000172F1000273F19D
:10715000000374EB090475EB08056CF1000C5FEAA1
:10716000EC78D8F100091AEB080A5BEB080B50EB3E
:10717000080051F1000152F1000253F1000354EBF9
:10718000090455EB08054CF1000C5FEAEC78D8F1E6
:1071900000091AEB080A5BEB080B50EB080051F1F1
:1071A000000152F1000253F1000354EB090455EBC6
:1071B000080514EE107AA7E8000C87E83F00BDE848
:1071C000F08F00BF2DE9F00791E8F807B2E8021050
:1071D0005B1854EB0C04B2E802104D4156EB0C0660
:1071E000B2E802104F4158EB0C08B2E8021059EB1C
:1071F00001095AEB0C0A4FF0260261EB010122EA69
:1072000001015B1854F1000455F1000556F1000628
:1072100057F1000758F1000859F100095AF1000A26
:1072200061EB010122EA01010B4480E8F807BDE8A7
:10723000F00770472DE9F00791E8F807B2E802106F
:107240005B1A74EB0C04B2E802108D4176EB0C066D
:10725000B2E802108F4178EB0C08B2E8021079EB2B
:1072600001097AEB0C0A4FF0260261EB010102EAF8
:1072700001015B1A74F1000475F1000576F1000656
:1072800077F1000778F1000879F100097AF1000A36
:1072900061EB010102EA0101A3EB010380E8F807B9
:1072A000BDE8F00770470A462DE9F04F41EC140A9B
:1072B00092EC080A1EC910EE100AA1FB00784FF0EC
:1072C0000009E2FB00894FF0000AE3FB009A4FF04F
:1072D000000BE4FB00AB12EE100A4FF0000CE1FBD8
:1072E00000BC4FF0000EE2FB00CE4FF00005E3FBC8
:1072F00000E54FF00006E4FB005605EE107A10EEB4
:10730000900A4FF00007E1FB008719EB07094FF0E7
:10731000000747EB0707E2FB00971AEB070A4FF05D
:10732000000747EB0707E3FB00A71BEB070B4FF03A
:10733000000747EB0707E4FB00B712EE900A1CEBCF
:10734000070C4FF0000747EB0707E1FB00C71EEBF8
:10735000070E4FF0000747EB0707E2FB00E7ED19C8
:107360004FF0000747EB0707E3FB0057F6194FF014
:10737000000747EB0707E4FB006705EE908A11EE74
:10738000100A4FF00008E1FB00981AEB080A4FF0D2
:10739000000848EB0808E2FB00A81BEB080B4FF0C5
:1073A000000848EB0808E3FB00B81CEB080C4FF0A2
:1073B000000848EB0808E4FB00C813EE100A1EEBB7
:1073C000080E4FF0000848EB0808E1FB00E815EB59
:1073D00008054FF0000848EB0808E2FB005816EBE0
:1073E00008064FF0000848EB0808E3FB006817EBBD
:1073F00008074FF0000848EB0808E4FB007806EEA9
:10740000109A11EE900A4FF00009E1FB00A91BEB66
:10741000090B4FF0000949EB0909E2FB00B91CEB2D
:10742000090C4FF0000949EB0909E3FB00C91EEB09
:10743000090E4FF0000949EB0909E4FB00E913EEDE
:10744000900A15EB09054FF0000949EB0909E1FB2A
:10745000005916EB09064FF0000949EB0909E2FB58
:10746000006917EB09074FF0000949EB0909E3FB35
:10747000007918EB09084FF0000949EB0909E4FB12
:10748000008906EE90AA14EE901A01F110011EC9AF
:1074900010EE100A4FF0000AE1FB00BA1CEB0A0CD8
:1074A0004FF0000A4AEB0A0AE2FB00CA1EEB0A0E82
:1074B0004FF0000A4AEB0A0AE3FB00EA15EB0A0563
:1074C0004FF0000A4AEB0A0AE4FB005A12EE100AD7
:1074D00016EB0A064FF0000A4AEB0A0AE1FB006AC3
:1074E00017EB0A074FF0000A4AEB0A0AE2FB007AA0
:1074F00018EB0A084FF0000A4AEB0A0AE3FB008A7D
:1075000019EB0A094FF0000A4AEB0A0AE4FB009A59
:1075100007EE10BA10EE900A4FF0000BE1FB00CB23
:107520001EEB0B0E4FF0000B4BEB0B0BE2FB00EBDB
:1075300015EB0B054FF0000B4BEB0B0BE3FB005B6C
:1075400016EB0B064FF0000B4BEB0B0BE4FB006B49
:1075500012EE900A17EB0B074FF0000B4BEB0B0BE7
:10756000E1FB007B18EB0B084FF0000B4BEB0B0B18
:10757000E2FB008B19EB0B094FF0000B4BEB0B0BF5
:10758000E3FB009B1AEB0B0A4FF0000B4BEB0B0BD2
:10759000E4FB00AB07EE90CA11EE100A4FF0000CAE
:1075A000E1FB00EC15EB0C054FF0000C4CEB0C0C68
:1075B000E2FB005C16EB0C064FF0000C4CEB0C0CE5
:1075C000E3FB006C17EB0C074FF0000C4CEB0C0CC2
:1075D000E4FB007C13EE100A18EB0C084FF0000CD3
:1075E0004CEB0C0CE1FB008C19EB0C094FF0000C80
:1075F0004CEB0C0CE2FB009C1AEB0C0A4FF0000C5D
:107600004CEB0C0CE3FB00AC1BEB0C0B4FF0000C39
:107610004CEB0C0CE4FB00BC08EE10EA11EE900AF7
:107620004FF0000EE1FB005E16EB0E064FF0000E71
:107630004EEB0E0EE2FB006E17EB0E074FF0000E46
:107640004EEB0E0EE3FB007E18EB0E084FF0000E23
:107650004EEB0E0EE4FB008E13EE900A19EB0E09B2
:107660004FF0000E4EEB0E0EE1FB009E1AEB0E0AE1
:107670004FF0000E4EEB0E0EE2FB00AE1BEB0E0BBE
:107680004FF0000E4EEB0E0EE3FB00BE1CEB0E0C9B
:107690004FF0000E4EEB0E0EE4FB00CE4FF0260135
:1076A00053EC152A4FF00000E6FB01201B184FF0A9
:1076B000000040EB0000E7FB013057EC166A36187B
:1076C0004FF0000040EB0000E8FB01603F184FF076
:1076D000000040EB0000E9FB017059EC178A18EB41
:1076E00000084FF0000040EB0000EAFB018019EBBE
:1076F00000094FF0000040EB0000EBFB019018EE9A
:1077000010AA1AEB000A4FF0000040EB0000ECFB5F
:1077100001A02D184FF0000040EB0000EEFB0150DF
:1077200000FB01F0121853F1000356F1000657F167
:10773000000758F1000859F100095AF1000A55F103
:10774000000B60EB000021EA0000024414EE100A76
:1077500080E8CC0FBDE8F08F2DE9F00791E8F01735
:107760004EF6A1514FEA4101A4FB01234FF0000462
:10777000E5FB01344FF00005E6FB01454FF0000644
:10778000E7FB01564FF00007E8FB01674FF00008E8
:10779000E9FB01784FF00009EAFB01894FF0000A8C
:1077A000ECFB019A4FF026010AFB01FA12EB0A02E8
:1077B00053F1000354F1000455F1000556F10006A1
:1077C00057F1000758F1000859F100096AEB0A0A5D
:1077D00021EA0A010A4480E8FC03BDE8F00770478B
:1077E0002DE9F00390E8F8134FEAEC7202F013026F
:1077F0002CF0004C02F11301591854F1000155F11D
:10780000000156F1000157F1000158F1000159F152
:1078100000015CF100014FEAE17101F01301114434
:107820005B1854F1000455F1000556F1000657F1BC
:10783000000758F1000859F100094CF1000C2CF038
:10784000004C80E8F813BDE8F00370472DE9F05FC5
:107850000546002092469B468846064681464024BF
:107860001BE0284641464746224600F02FF8534683
:107870005A46C01A914110D311461846224600F0CC
:1078800016F82D1A67EB01084F4622460120002109
:1078900000F00DF817EB00094E41201EA4F1010481
:1078A000DFDC484631462A464346BDE8F09F202AA1
:1078B00004DB203A00FA02F1002070479140C2F147
:1078C000200320FA03F3194390407047202A04DB79
:1078D000203A21FA02F00021704721FA02F3D04049
:1078E000C2F1200291400843194670470048704792
:1078F000ECBD030010B540EA01040346A40703D021
:1079000009E010C9121F10C3042AFAD203E011F8CB
:10791000014B03F8014B521EF9D210BDD2B201E067
:1079200000F8012B491EFBD270470022F6E710B584
:1079300013460A4604461946FFF7F0FF204610BDDD
:10794000421C10F8011B0029FBD1801A704730B58A
:1079500004460020034600E05B1C934203D2E05C37
:10796000CD5C401BF8D030BD064C074D06E0E0680A
:1079700040F0010394E8070098471034AC42F6D376
:10798000FEF742FC80DF0300A0DF030070B58C1817
:1079900010F8015B15F0070301D110F8013B2A1123
:1079A00006D110F8012B03E010F8016B01F8016B10
:1079B0005B1EF9D12B0705D40023521E0DD401F80C
:1079C000013BFAE710F8013BCB1A921C03E013F8D5
:1079D000015B01F8015B521EF9D5A142D8D300200A
:1079E00070BD00002DE9F0410446B0B00D460A46D6
:1079F000684604F12007002100F0C0F804F14008B7
:107A00003A46214610A804F16006FFF74DFC4146B6
:107A1000324618A8FFF748FC4246394620A8FFF72F
:107A200043FC3246214628A8FFF73EFCEB0F6A468E
:107A300010A9204600F000F930B0BDE8F08100BF89
:107A40002DE9F0410446B0B00D460A46684604F1FF
:107A50002007012100F092F804F140083A4621463F
:107A600010A804F16006FFF71FFC4146324618A833
:107A7000FFF71AFC4246394620A8FFF715FC3246AC
:107A8000214628A8FFF710FCEB0F6A4610A92046F4
:107A900000F0D2F830B0BDE8F08100BF2DE9F04130
:107AA0000446B0B0684604F12006884604F1400759
:107AB00000F096F804F160053246214610A8FFF761
:107AC000F3FB39462A4618A8FFF7EEFB3A46314643
:107AD00020A8FFF7E9FB2A46214628A8FFF7E4FB88
:107AE0004FEAD8736A4610A9204600F0A5F830B0D6
:107AF000BDE8F08170B5A0B0044601F120066846EB
:107B00000D46FFF7D0FB314608A8FFF7CCFB05F187
:107B1000400110A8FFF7C7FB10AA11461046FFF757
:107B200051FB694618A800F0D1FB32462946204691
:107B3000FFF748FB21462046FFF7B5FB6A46214682
:107B40002046FFF777FB04F1400508AA21462046AE
:107B5000FFF770FB284608AA18A9FFF733FB10AA05
:107B6000294604F12000FFF765FB08AA18A904F1D3
:107B70006000FFF75FFB20B070BD00BF2DE9F84348
:107B800002EBE27686EAE27680460C46002100F0BF
:107B900093FB08F12007711EC90F38460F4D00F006
:107BA0008BFB05EB442540354FF0010986EA0904BB
:107BB000013CE40F294622464046FEF779FC09F1D4
:107BC000010905F1200122463846FEF771FCB9F1A2
:107BD000090F05F14005E9D1BDE8F883A0D80300FD
:107BE0002DE9F84301EBE177814687EAE17700214F
:107BF00000F062FB09F12008791EC90F404600F031
:107C00005BFB0C4E012587EA0504013CE40F31467D
:107C100022464846FEF74CFC013506F1200122467B
:107C20004046FEF745FC092D06F14006EBD1BDE8C4
:107C3000F88300BFE0DC03002DE9F0430D46A1B05E
:107C400001F120091646044649462A4668469846E8
:107C500006F12007FFF7EEFA49462A4608A8FFF783
:107C6000B1FA3946324610A8FFF7E4FA39463246EF
:107C700018A8FFF7A7FA424618A910A8FEF783FC38
:107C800010AA69466846FFF70FFB08A918AA08461C
:107C9000FFF70AFB3A46314610A8FFF705FB10A98B
:107CA00005F160020846FFF7FFFA10A90846144ADA
:107CB000FFF7FAFA05F14002114618A8FFF782FA19
:107CC0006A4608A92046FFF7B5FA04F120056A467E
:107CD00008A904F16000FFF775FA4034284610AA9D
:107CE00018A9FFF7A7FA10AA18A92046FFF76AFA01
:107CF000424629462046FEF746FC21B0BDE8F08307
:107D0000E0DE03002DE9F047CC7F0D78C0B00B46D4
:107D100004F03F044978D3F804C093F802809F68C8
:107D2000D3F810A0DE688DF8411044F040041146ED
:107D300025F007055A698DF85F409C6993F803E0C8
:107D40008DF840508DF842801D7F93F81D809B7FF9
:107D50008DF843E081466846CDE911C78DF85E3065
:107D6000CDE91524CDE9136A8DF85D808DF85C505E
:107D700000F086FA2022694618A8FEF7A7FE68469A
:107D8000012100F099FA08A8002100F095FA18A93D
:107D900020A82022FEF79AFE28A8012100F08CFAE4
:107DA00018AF0DF140084FF0060A002417F8016DD6
:107DB00046FA0AF505F001056C40224620A96846FE
:107DC000FEF7E1FB224628A908A8FEF7DCFB08AA7B
:107DD000694630A8FFF7F6F908AA10466946FFF78A
:107DE00029FA28AA20A938A8FFF7ECF928AA1046F2
:107DF00020A9FFF71FFA38A9084608AAFFF754FA86
:107E000028A9084630AAFFF74FFA38AA28A920A8BF
:107E1000FFF7D8F928A938AA0846FFF70BFA20A9D6
:107E20000846FFF740FA28A90846FFF73CFA28A9B8
:107E300018AA0846FFF738FA30A90846FFF733FAC0
:107E400008A938A8FFF72FFA38AA30A96846FFF723
:107E50002BFA30A938AA0846FFF7ECF930A908A890
:107E6000FFF77AFC08A9084638AAFFF7ABF908A97A
:107E70000AF1FF3A30AA0846FFF716FABAF1FF3FB7
:107E80002C4695D147454FF0070A8FD108A90846DF
:107E9000012200F02DFA08AA69466846FFF704FAA5
:107EA0006946484600F036FB40B0BDE8F08700BFA9
:107EB000014AFFF727BF00BF5CD5030070B500F192
:107EC000200590B00E46044600F058FB06F1200154
:107ED000284600F053FB214608A8FEF771FE08A9CA
:107EE00008460C4AFEF700FE08A922460846FEF79F
:107EF00068FE08A90846084AFEF7F6FD29466846C6
:107F0000FEF75EFE694608A82022FEF7BFFD013895
:107F100010B070BD00DF030020DF03002DE9F04743
:107F2000B8B08A468146114610A8514AFEF7A0FA19
:107F30005049024610A8FEF7BBFA179F4C4900EAC9
:107F4000D7778046C7F1010210A8FEF7B1FA179D56
:107F5000524628A918A8ED4301F08AF8ED0F20A990
:107F6000C5F10102084600F0EDFAC8F10108FE264D
:107F70006A4618A928A801F02FF8731138AA02EB55
:107F8000830306F01F0253F8A04CD44004F0010410
:107F900065402A4628A918A8FEF7F5FA2A4630A90E
:107FA00020A8FEF7F0FA013E28A918A800F0AEFFBD
:107FB000731C2546DCD1C4F1010208A820A900F0F9
:107FC000C1FA7D406A4618A928A801F005F828A939
:107FD0002A4618A8FEF7D7FA2A4630A920A8FEF7A5
:107FE000D2FA08A96A460846FEF7EBFD08A908463A
:107FF00000F0DEFA08A909F120040AF1200208467F
:10800000FEF7DFFD20A908AA2046FEF7DAFD08AA40
:1080100018A96846FEF7D5FD69466846FEF7D0FD0B
:1080200018AA694608A8FEF7CCFD21466846FEF767
:10803000C7FD08AA69461046FEF795FD08A90E4A35
:108040006846FEF790FD20462021FEF732FD08A984
:1080500043420246684643EA0808FEF794FA484657
:108060006946064AFEF7ADFD404638B0BDE8F087E8
:1080700060DF030040D8030020DF030060D8030066
:108080000A460149FFF74ABF7CD5030000F040BB18
:1080900038B504460D4600F03BFB05F1200104F124
:1080A0002000BDE8384000F033BB00BF30B5A9B0B8
:1080B00014460546684600F09DFB214618A8FFF7C8
:1080C000FDFE6A4618A9044608A8FFF727FF08A97D
:1080D00004432846FFF7DAFF204629B030BD00BF31
:1080E00030B599B00546684600F084FB694608A89B
:1080F000FFF7C6FF08A904462846FFF7C9FF204638
:1081000019B030BD10B52022B0B004460DEB02000E
:1081100000F09AFB9DF83F309DF8202003F07F038C
:1081200043F0400322F0070208A968468DF83F306B
:108130008DF8202000F006FB694618A800F028F80A
:1081400018A9204600F002F830B010BD30B599B043
:1081500004460D4610A84031012200F0C9F810AACB
:1081600029466846FFF7A0F810AA05F1200108A8E3
:10817000FFF79AF808A9204600F0CCF9684600F00D
:1081800093F8E37F83EAC010E07719B030BD00BFF9
:108190002DE9F041B0B0E8460446404600F00AFB45
:1081A00004F1400620469DF93F10FFF719FD3046C7
:1081B000012100F081F804F120070DF11505214699
:1081C00010A8FFF797FC18AA10A92046FFF76CF833
:1081D00028AA20A93846FFF767F820AA18A9304630
:1081E000FFF762F8214610A8FFF784FC18AA10A92F
:1081F0002046FFF759F828AA20A93846FFF754F877
:1082000020AA18A93046FFF74FF8214610A8FFF71B
:1082100071FC18AA10A92046FFF746F828AA20A941
:108220003846FFF741F820AA18A93046FFF73CF876
:10823000214610A8FFF75EFC15F9011D10A8FFF7F5
:10824000D1FB95F9151010A8FFF7FAFB95F92A1044
:1082500010A8FFF723FC18AA10A92046FFF724F85E
:1082600028AA20A93846FFF71FF820AA18A93046E7
:10827000FFF71AF8A845A2D130B0BDE8F08100BFE1
:108280000B6803604B6843608B688360CB68C36096
:108290000B6903614B6943618B698361CB6923F08F
:1082A0000043C361704700BF10B50446FFF798FA5A
:1082B000206800F0010010BD0023C0E90013C0E9F0
:1082C0000233C0E90433C0E90633704700B589B012
:1082D00000230A466946CDE90033CDE90233CDE9F2
:1082E0000433CDE90633FEF7A5FF09B05DF804FBC2
:1082F000F0B5A1B00546684617460E46FEF7D3FF17
:10830000694618A8FEF7CFFF18A90846FEF7CBFF6D
:10831000324618A908A8FEF7C7FF6A4608A96846AA
:10832000FEF7C2FF694618A8FEF7BDFF08AA10466F
:1083300018A9FEF7B9FF08A918A8FEF7B4FF18A9F5
:108340000846FEF7B0FF18A90846FEF7ACFF18A9CB
:108350000846FEF7A8FF18A90846FEF7A4FF08AADA
:1083600018A91046FEF7A0FF022408A900E0012486
:1083700018A8FEF798FF18A90846FEF794FF18A959
:108380000846FEF790FF18A90846FEF78CFF18A9CB
:108390000846FEF788FF012C18A9E8D110A808AA02
:1083A000FEF782FF042410A918A8FEF77CFF18A985
:1083B0000846FEF778FF18A90846FEF774FF18A9CB
:1083C0000846FEF770FF18A90846FEF76CFF013C4F
:1083D00018A9E9D110AA0846FEF766FF022400E0BA
:1083E000012418A90846FEF75EFF18A90846FEF703
:1083F0005AFF18A90846FEF756FF18A90846FEF7C7
:1084000052FF18A90846FEF74EFF012CE8D118A923
:1084100008AA10A8FEF748FF0A2410A918A8FEF71A
:1084200042FF18A90846FEF73EFF18A90846FEF7C6
:108430003AFF18A90846FEF736FF18A90846FEF7C6
:1084400032FF013C18A9E9D110AA08A8FEF72CFFB9
:10845000142408A918A8FEF726FF18A90846FEF755
:1084600022FF18A90846FEF71EFF18A90846FEF7C6
:108470001AFF18A90846FEF716FF013C18A9E9D112
:1084800008AA0846FEF710FF0A2418A90846FEF7B6
:108490000AFF18A90846FEF706FF18A90846FEF7C6
:1084A00002FF18A90846FEF7FEFE18A90846FEF7C7
:1084B000FAFE013CE9D118A9084610AAFEF7F4FE1D
:1084C00018A9084667B9FEF7EEFE18A90846FEF798
:1084D000EAFE324618A92846FEF7E6FE21B0F0BDB6
:1084E000FEF7E1FE18A90846FEF7DDFE18A90846CA
:1084F000FEF7D9FE18A90846FEF7D5FE18A90846CA
:10850000FEF7D1FE6A4618A92846FEF7CDFE21B037
:10851000F0BD00BF38B50C4605460846FFF760F9C8
:1085200023682B6063686B60A368AB60E368EB60F3
:1085300023692B6163696B61A369AB61E369EB61DB
:1085400038BD00BF70B588B004460D46684620218E
:108550001646FEF7C2FA0023294620462022009341
:10856000FEF7B4FA2A4669466846FEF7FCFA324638
:1085700069462046FEF707F808B070BD0B681BBAC5
:10858000C3614B681BBA83618B681BBA4361CB68BC
:108590001BBA03610B691BBAC3604B691BBA8360CA
:1085A0008B691BBA4360CB691BBA0360704700BF7D
:1085B00070B598B00D46064610A8FEF701FB2A4696
:1085C00010A96846FEF7FDFA694610A8FEF7F8FA0A
:1085D00010A90846FEF7F4FA6A4610A908A8FEF7A3
:1085E000F0FA08A910A8FEF7EBFA10A90846FEF762
:1085F000E7FA10A90846FEF7E3FA10A90846FEF7C5
:10860000DFFA10A908AA0846FEF7DBFA10A9084607
:10861000FEF7D6FA10A90846FEF7D2FA10A96A4664
:1086200008A8FEF7CEFA052408A910A8FEF7C8FA94
:1086300010A90846FEF7C4FA013C10A9F5D108AA12
:108640000846FEF7BEFA052410A90846FEF7B8FA58
:1086500010A90846FEF7B4FA013CF5D110A908AA02
:108660000846FEF7AEFA10A908A8FEF7A9FA08A96D
:108670000846FEF7A5FA08A96A466846FEF7A1FA79
:108680001024694610A8FEF79BFA10A90846FEF7C9
:1086900097FA013C10A9F5D12A460846FEF791FA4F
:1086A000402410A90846FEF78BFA10A90846FEF7E9
:1086B00087FA013CF5D110A96A460846FEF781FA0F
:1086C000102410A90846FEF77BFA10A90846FEF709
:1086D00077FA013CF5D110A96A460846FEF771FA0F
:1086E000102410A90846FEF76BFA10A90846FEF7F9
:1086F00067FA013CF5D110A908AA0846FEF761FA0D
:108700002A4610A93046FEF75CFA18B070BD00BFCB
:10871000CB691BBA03608B691BBA43604B691BBAF8
:1087200083600B691BBAC360CB681BBA03618B689B
:108730001BBA43614B681BBA83610B681BBAC361E8
:10874000704700BFF0B50B4699B0DA69184D149226
:1087500018A9120F04465F689E68186941F85C2DDD
:10876000DA68D3F800C00E970F965F699E69109281
:1087700000232A46119005A8CDF834C0CDE9163360
:108780001593CDE90333029312971396FDF706FF75
:10879000019B05AA1B070DA920460C93FDF768FE57
:1087A000E2692946D20F2046FDF782FE19B0F0BDDE
:1087B00080D80300F0B40025471E2C462A46E30863
:1087C00014F0070F08BF51F8235005F00F031344AE
:1087D00003F1080212090134D6B2A3EB06133F2CB1
:1087E0004FEA151507F8013FE9D1354480F83F50AD
:1087F000F0BC704738B50B68114D1BBAC3614B68AC
:108800001BBA83618B681BBA4361CB681BBA0361D7
:108810000B691BBAC3604B691BBA83608B691BBAB7
:108820004360CB691BBA2A46036001460446FDF744
:108830001FFE294602462046BDE83840FDF738BEF7
:1088400040DF0300000000002DE9F04DE2A5D5E96E
:108850000045B2B0E2A7D7E90067CDE90045E2A53F
:10886000D5E90045CDE90267E1A7D7E90067CDE981
:108870000445E1A5D5E90045CDE90667E0A7D7E9BC
:108880000067CDE908450FF2803BDBE900ABE0A5CE
:10889000D5E90045CDE90A670027CDE90C458046BA
:1088A0001446CDE90EABCDE93072002A40F0CD8000
:1088B00080238DF8403001206D4610AE00F1400E4F
:1088C00005EB0E035B42471C03F00303D91C7B2F0F
:1088D000C0F17B0C88BF4FF0010C052938BF052182
:1088E0007B2FC0F17A0288BF0022914229D8ABB118
:1088F00032AA02440021012B02F8881C00F0A38058
:1089000032AA1744032B00F1020207F8881C40F03A
:10891000538132AF3A44033002F8881CACEB030CAD
:10892000002273442B444FEA9C07114601329742C0
:1089300043F8041BFAD82CF003036345184427D0EE
:10894000471C32AB034400227B2F03F8882C1FD036
:1089500032AB3B44811C7B2903F8882C18D032AB06
:108960001944C31C7B2B01F8882C11D032A90B446D
:10897000011D7B2903F8882C0AD0053032AB7B28F7
:10898000194418BFC01801F8882C18BF00F8882CAB
:10899000620F002362F30703620D62F30F23620B81
:1089A00062F317436209314662F31F632846E4000D
:1089B000CDF8BB308DF8BF4000F076FDDDE9062331
:1089C000DDE90076DDE90254DDE9040193FA83FE76
:1089D000089BC8F818E036BA2DBA24BA00BA09BA0A
:1089E00012BA93FA83FCC8F80060C8F80C50C8F8B3
:1089F0000840099D0A9CC8F81400C8F810100B988C
:108A00000C99C8F81C200E9B0D9A0F9EC8F824C024
:108A10003FBA2DBA24BA00BA09BA12BA1BBA36BA8A
:108A2000C8F80470C8F82050C8F82C40C8F82800CE
:108A3000C8F83410C8F83020C8F83C30C8F838609E
:108A400032B0BDE8F08D384668E76D4628460E46E0
:108A500000F06AFB241A02463119002800F0AE80AB
:108A6000431E022B40F2B28010AE4FEA900C3B4600
:108A700034460846013350F8047B44F8047B6345D0
:108A8000F8D322F003039A42194414D032A81844B0
:108A90000C7800F8884C581C82420CD932AC204427
:108AA00002334C7800F8884C9A4204D932A8034427
:108AB000897803F8881C32AB501C1344802170283D
:108AC000309203F8881C40F284807F286BD832AB48
:108AD0001844911C0023802900F8883C63D032A8F8
:108AE0000144D01C802801F8883C5CD032A908449D
:108AF000111D802900F8883C55D032A80144501D32
:108B0000802801F8883C4ED032A90844911D802964
:108B100000F8883C47D032A80144D01D802801F8D5
:108B2000883C40D032A9084402F10801802900F8AD
:108B3000883C38D032A8014402F10900802801F8AD
:108B4000883C30D032AB184402F10A01002380295E
:108B500000F8883C27D032A8014402F10B0080289D
:108B600001F8883C1FD032A9084402F10C01802989
:108B700000F8883C17D032A8014402F10D0080288B
:108B800001F8883C0FD032A9084402F10E01802977
:108B900000F8883C07D032A80144702A01F8883CCC
:108BA00008BF8DF8BF303146284600F07DFC7A289A
:108BB000319C7FF683AEEBE61046AFE68023309023
:108BC0008DF84030319C012010AE77E63B4610AE68
:108BD0005CE7319C72E600BF08C9BCF367E6096A2E
:108BE0003BA7CA8485AE67BB2BF894FE72F36E3C3C
:108BF000F1361D5F3AF54FA5D182E6AD7F520E5199
:108C00001F6C3E2B8C68059B79217E1319CDE05B90
:108C10006BBD41FBABD9831F2DE9F04F9FB0A1F194
:108C200008031C93D2E90E34CDE91834D2E90C3490
:108C3000CDE90034D2E90A34CDE90234D2E9063470
:108C4000CDE91A34D2E90234CDE90634D2E904344C
:108C5000CDE9043400F18003D2E908ABD2E9008900
:108C60001D9309909446014605E0CDE90689DDE9AA
:108C70001689B246BB46F1E802451C9F09914FEAAE
:108C80009A3242EA8B424FEA9A43F7E902010A928A
:108C900043EA8B334FEA9B364FEA9B420C9346EAFA
:108CA0008A4642EA8A324FEACB530D920B9643EA48
:108CB0005A23CDE916010F93DDE90C011C974FEA09
:108CC000CA53DDE90A6743EA5B230E9346404F40EF
:108CD000DDE90E014FEA187343EA09137040794049
:108CE000109306460F464FEA8973DDE9160143EA01
:108CF000980313934FEA197300194FEA887243EAF5
:108D000008136941119342EA9903CDE916011293C0
:108D1000DDE90201DDE900234FEA496442404B40AE
:108D200044EAD814DDE916011594DDE900458019FF
:108D300002EA0A024FEA486E79415440DDE90667CB
:108D400003EA0B034EEAD9125D401492DDE90423D5
:108D500046EA080647EA0907324016463B40221811
:108D60001F4645EB0103DDE91045DDE91201CDE9C0
:108D7000162344404D40DDE914016040694004463B
:108D80000D46DDE9060100EA080001EA090140EAB2
:108D9000060241EA07031046DDE918671946DDE9D6
:108DA000162392197B41DDE91A6700196941B6184B
:108DB0005F41841841EB0305DDE90201CDE9164569
:108DC000CCE90C01DDE90034DDE90412CCE90E3414
:108DD000CCE90612CDE91834DDE90423CDE91A23E4
:108DE000DDE90234DDE90601CDE90034DDE91634C0
:108DF000CCE90401CCE90034CDE904011D9B0999BB
:108E00009942CCE90AABCCE90289CCE90867CDE903
:108E100002AB7FF42AAF1FB0BDE8F08F2DE9F04F11
:108E20004FF0000C8BB08646A0F1080A6346ACF107
:108E300002040CF1010C0CF00F000EEBC00204F068
:108E40000F045EF8300052680EEBC401073B5EF879
:108E5000344049684FEA500803F00F03070A0EEB4D
:108E6000C30B48EAC273E60C009347EA0263CD00E5
:108E7000029346EA41330493CE0C45EA54730793B8
:108E8000E50046EA44330593A60945EA51735408C0
:108E9000069344EAC073140A4FEAD018019344EAD7
:108EA000006348EA426803934FEAD219FAE90223C1
:108EB00046EA8166CDE908238F09DDE90623DDE96D
:108EC0000401DBE9004550405940DDE9082312194F
:108ED0006B41CDE90823DDE90045DDE9022370405F
:108EE0007940DDE9086754405D4084EA080436199A
:108EF00085EA09056F41321847EB0103BCF1100FF9
:108F0000CAE9002392D10BB0BDE8F08FF0B599B05B
:108F100004460E460A4601466846FDF724FE6946A9
:108F20006846FDF74DFE6A46214608A806F1200571
:108F300004F12007FDF745FE6A4631466846FDF715
:108F400040FE39462A4610A8FDF7CEFD2A4639468E
:108F50002846FDF708FE29463046FDF731FE6A46F1
:108F600008A92046FDF7C0FD224631463046FDF7F0
:108F7000FAFD6A4608A96846FDF7F5FD6A463946D6
:108F80003846FDF71EFE324608A96846FDF7EBFDA0
:108F90006A4629462846FDF714FE3A4629462846E1
:108FA000FDF7E1FD10A96846FDF70AFE2246694675
:108FB0002046FDF7D8FD08A922460846FDF7D3FD57
:108FC00010A908AA0846FDF7FCFD3A4610A9384644
:108FD000FDF7C9FD19B0F0BD2DE9F0410C4688B090
:108FE00005469046014622466846FDF7BCFD6946A7
:108FF0006846FDF7E5FD6A462946284604F1200645
:10900000FDF7DFFD05F120076A4621466846FDF7BA
:10901000D8FD324630463946FDF7A5FD314620469B
:10902000FDF7CEFD2A4621462046FDF79CFD6A4607
:1090300021462046FDF797FD6A4629464046FDF742
:1090400092FD424639463846FDF7BBFD2246294689
:109050006846FDF788FD6A4631463046FDF7B1FDAA
:109060003A4631463046FDF77EFD08B0BDE8F08156
:109070002DE9F04188B00D46074602F1200168460F
:1090800007F120069046FDF79BFD6A466946684653
:10909000FDF72AFD30466946FDF792FD324631461E
:1090A000304605F12004FDF71FFD6A466946684613
:1090B000FDF71AFD20464146FDF782FD6A4641460E
:1090C0003846FDF77EFD224621466846FDF70CFD39
:1090D000224669466846FDF707FD69466846114A1B
:1090E000FDF702FD69462846FDF76AFD3A46294626
:1090F0002846FDF738FD3A4629462846FDF733FD58
:109100002A4639462046FDF72EFD6A46214620466E
:10911000FDF757FD324621462046FDF724FD08B0F5
:10912000BDE8F08100DF03002DE9F04FC7B07F2AD2
:10913000159240F2AB810D46A2F18001D0E90023E7
:109140000646CDE90023D6E90823CDE90A23D6E96E
:109150000A23CDE90223D6E90C2321F07F04D0E9CC
:1091600002ABD6E90689D0E90401CDE90C23D6E9A2
:109170000E238034CDE90E23CDE904ABCDE91001F7
:10918000CDE906892C19149409962C68AF68D5F896
:109190000CA0D5F810E02E6BE86913962346DDE9A4
:1091A00000891BBA019300230093AB6BAC69129446
:1091B000CDE91689DDE904890493DDE91023DDE9B1
:1091C00000BCCDE91A23DDE906233946CDE91C238D
:1091D0009AFA8AFA0BBA5A4642EA0A02CDE92823D9
:1091E000DDE90A23CDE91889D5F81480129E2F6A8B
:1091F000696AAC6ACDE91E2398FA88F89EFA8EF364
:109200005A4642EA0802CDE92A2300BA33BA5A463E
:1092100042EA0002CDE92C2309BA3BBA5A4642EA97
:109220000102CDE92E23EF6A139ED5F858E023BA48
:109230005A463FBA42EA0702CDE93023DDE90C2362
:109240006C6BCDE9222324BA33BA5A4642EA0402AF
:10925000DDE90201CDE93223049B1FBACDE92001EB
:109260003B46E86B6968DDE90E6700BA4BEA00022D
:10927000CDE9246709BA5E46674646EA0106CDE9AC
:1092800034232B6EAA6E286F0493B046EB6C2E6CC1
:10929000696C0692B946AF6F1290CDE926890A979C
:1092A000D5F84890D5F850806F6D0293EC6DE86F5B
:1092B0006A6EEB6ED5F874A036BAB44609BA029E4F
:1092C00000BA4FF0000B4BEA010B029099FA89F1BA
:1092D0000020CDE936BC36BA83468C464BEA060BF5
:1092E000CDE938BCDDE900BC98FA88F13FBAD84630
:1092F00089469EFA8EF148EA070824BA5E460F4670
:1093000046EA0406049C129821BACDE93C6712BAD9
:109310005E460F4646EA0206069A11BA1BBA0A468C
:10932000594641EA030140ABC3E900129AFA8AFAAE
:1093300003BA5A4642EA0A02CDE93E6742A90A9FA9
:109340005448C1E90023029A3CBA5B4643EA02034F
:10935000CDE93A8916AA9846A14644AB26A9C3E9A5
:109360000089FFF759FC26A8FFF758FD16AA26A981
:109370004948FFF751FC26A8FFF750FD16AA26A979
:109380004648FFF749FC26A8FFF748FD16AA26A97C
:109390004348FFF741FC26A8FFF740FD16AA26A97F
:1093A0004048FFF739FC099CDDE91623D4E9006742
:1093B000B618D4E902AB5F41DDE91834099A13EB22
:1093C0000A0344EB0B04DDE91A01CDE90434D2E9C8
:1093D00004341B184C41DDE91C899B46A446D2E9A4
:1093E000063413EB080344EB0904CDE90067CDE92B
:1093F0000634D2E90867DDE91E34F61810466741E5
:10940000D2E90A34DDE920125B185441CDE9023477
:10941000D0E90C12DDE92234C918DDE92489624162
:10942000D0E90E3413EB080344EB09049846A14637
:10943000DDE90034C0E90034DDE90434CDE910BCD5
:10944000C0E90234CDE90A67CDE90C12CDE90E89F5
:109450001290C0E904BCDDE906ABDDE90234C0E9E5
:109460000A344C464346C0E90E34149C8035A5426C
:10947000C0E906ABC0E90867C0E90C127FF485AE0D
:10948000159B03F07F0047B0BDE8F08F104647B052
:10949000BDE8F08FC0D5030040D60300C0D603005E
:1094A00040D70300C0D703002DE9F04F0B68D1F877
:1094B00008E0D1F80C90D1F810C08F69D1F8208065
:1094C000D1F824A0B7B01BBA0193002300939EFAF1
:1094D0008EF599FA89F943EA09022B46DDE9004540
:1094E0000646D1F814E0C869CDE918239CFA8CF33C
:1094F0009C469EFA8EFE00BA22463BBA44EA0E0B08
:1095000042EA000298FA88F59AFA8AFA0024CDE92C
:109510001C2344EA0A022B464868CDE91E23DDE9F4
:109520000023CDE91ABCD6E90089D6E902AB00BA1E
:1095300042EA0002CDE91623D6E90423CDE90689E3
:10954000CDE908ABD6E90689D6E908ABCDE90A230F
:10955000D6E90A23CDE90C89CDE90EABD6E90C8911
:10956000D6E90EABD1F828C0D1F830E08D6B086C8D
:109570008F6CCDE910239CFA8CF3039300230293A4
:10958000DDE90223CDE91289D1F82C90D1F850C041
:10959000D1F8588099FA89F942EA0902CDE92023E5
:1095A0009EFA8EF3039300230293DDE90223D1F8A0
:1095B00034E09EFA8EFE42EA0E02CDE922232BBA57
:1095C000039300230293DDE90223CD6BD1F870E011
:1095D0002DBA42EA0502CDE9242303BA03930023FE
:1095E000CDE914AB8D6FD1F860A0D1F868B0486CAC
:1095F0000293DDE9022300BA42EA0002CDE9262304
:109600003BBA039300230293DDE90223C86C4F6D3C
:1096100000BA42EA0002CDE928239CFA8CF30393B6
:1096200000230293DDE902233FBA42EA0702CDE9B3
:109630002A23C86DD1F864C0CF6E98FA88F300224F
:1096400099469AFA8AF30393029200BA42EA000812
:10965000DDE902239CFA8CFCC86F42EA0C02CDE9DA
:109660002C899BFA8BF4D1F87480DDE900ABCDE94D
:109670002E2300BA2BBA00224E4D42EA000298FA7D
:1096800088F1A1463FBA9EFA8EF4CDE934234AEA26
:10969000070806AA4AEA010AA34616A92846CDE900
:1096A0003089CDE932ABFFF7B7FA16A8FFF7B6FB62
:1096B00006AA16A905F18000FFF7AEFA16A8FFF773
:1096C000ADFB06AA16A905F58070FFF7A5FA16A846
:1096D000FFF7A4FB06AA16A905F5C070FFF79CFAD0
:1096E00016A8FFF79BFB06AA16A905F50070FFF761
:1096F00093FAD6E90023DDE90601D6E90289DDE91E
:1097000008AB141843EB010518EB0A0249EB0B03F5
:10971000CDE90245DDE90AABCDE90423D6E90434FD
:1097200013EB0A0344EB0B049A46A346D6E906233F
:10973000DDE90C4512191446DDE902126B41D6E948
:1097400008781D46C6E90012DDE90E23BF1848EB74
:109750000308DDE90423C6E90878C6E90223DDE948
:109760001089D6E90A2312EB080243EB090390465D
:109770009946C6E904ABD6E90C23DDE912AB12EB3E
:109780000A0243EB0B0392469B46C6E90645DDE918
:109790001423D6E90E45A41800985D4122462B46B5
:1097A000C6E90A89C6E90CABC6E90E2337B0BDE8A5
:1097B000F08F00BFC0D503002DE9F04700268AB026
:1097C000DFF85091B0464FF4807501243746069675
:1097D000284609F095F938B1D9F80403204203D09E
:1097E000284609F083F926432D1D64007F1CADB285
:1097F000082FEDD34FF4BE74204609F081F948B12B
:10980000204609F073F946F0004606AA012100201F
:1098100009F058F9404D16F0FF0F15D0012700242C
:1098200037420DD009EB8401D1F81005D1F810159D
:10983000C0F3042055F82420C1F3014102B1904740
:109840007F00641C082CEBD3002E5FDA4FF0FF3052
:10985000CDF8108054E0281910F8507F90F90000DE
:1098600027F0C008401C3BD007A9404607F0D4FDB4
:1098700010B34FEA9719404602F0A2FF55F8207046
:109880001FB1B9F1030F03D006E0B9F1030F27D1DF
:1098900004A9404607F0C8FD4FF0A04101EB880045
:1098A000D0F8000706A9C0F3014A404607F0B4FD0E
:1098B00018B1BAF1020F03D012E0BAF1030F0FD1C1
:1098C000B9F1030F08D1BAF1020F1DD002214046B1
:1098D00009F0DCF8761CF6B217B149464046B847A5
:1098E000641C042CB7D3002E10D06A46012100203E
:1098F00009F0E8F806990098884207D00690049885
:10990000002634460790A6E70321E0E70AB0BDE849
:10991000F087000000600040AC3400202DE9FF5FBC
:109920004FF48274204609F085FC48B1022009F00A
:1099300091FC28B1204609F085FC02200AF050FA7B
:109940004FF48C7009F076FCDFF88491614F624E21
:10995000624C4FF000084FF4947A4FF4867B78B352
:10996000402009F077FC58B34FF48C7009F06AFC82
:10997000B069CDE90008D9F80000039054481430CC
:1099800000685546C0F30B001038C0F3CC000290BD
:10999000504609F04FFC60B1381509F05BFC40B14E
:1099A000386800F00D000190284609F04BFC0D20AE
:1099B0003860616809B168468847584609F042FC3A
:1099C0004FF4887009F036FCA0B1102009F042FC79
:1099D00080B14FF4887009F035FC06F128000FC8FB
:1099E0008DE80F003E491820C1F80803616809B1ED
:1099F000684688474FF4A67009F01CFC354D083DB9
:109A000028B34FF4002009F025FC00B34FF4A670F2
:109A100009F018FC4FF48C7009F014FC504609F062
:109A200011FC584609F00EFC4FF4887009F00AFC4E
:109A300000200AF045FA0D203860286006F1380051
:109A40000FC88DE80F00616809B1684688474FF478
:109A50008E7A504609F0EEFBC0B1802009F0FAFB87
:109A6000A0B12F68504609F0EDFB483696E80F008C
:109A70008DE80F00F80707D0012028608DF80480DA
:109A8000616809B1684688470D2028605D465846E0
:109A900009F0D0FB002819D0082009F0DBFB0028D2
:109AA00014D0284609F0CEFB616800290ED00820AA
:109AB0000090D9F80000029005480C30006840F290
:109AC000FF1202EAD000019068468847BDE8FF9F78
:109AD000105500400C5400400C960300083500203F
:109AE0000050004070B54FF48076304607F096FF86
:109AF000114CB50560B1304607F097FF0120C5F85D
:109B00000803607920B9012060712168002088472E
:109B10004FF48276304607F081FF00280AD03046A5
:109B200007F083FF0220C5F808032168BDE87040F4
:109B30000120084770BD0000D0250020064882B0F3
:109B40000021016000680090044800680449C0B228
:109B5000496802B00847000000D1004008D5004025
:109B6000EC25002002490248091F096800680847DF
:109B70004826002010B50021054A084600F048FCA0
:109B8000002803D0BDE8104000F036BC10BD000036
:109B900069A70200F0B5B5480023021D0178101D29
:109BA00001254FF0805406290BD11678360708D1CD
:109BB0000678C6F30316032E06D0042E04D0052E15
:109BC00002D0062907D00EE0B4F82463A84FC6F3EC
:109BD00004263E6002E01678360704D10678C6F304
:109BE0000316032E02D0062904D00FE0A24FA14E87
:109BF0007E670EE01678360708D10678C6F303169E
:109C0000032E06D0042E04D0052E02D0062907D03C
:109C10000EE0D4F84462994FC6F342363E6002E04B
:109C20001678360704D10678C6F30316032E02D041
:109C3000062906D011E0924E376827F0807737600A
:109C40000EE01678360708D10678C6F30316032E01
:109C500006D0042E04D0052E02D006290AD011E029
:109C60004FF08046C6F80C31C6F81031834E361FCF
:109C7000336002E01678360704D10678C6F303167F
:109C8000032E02D0062905D00CE07C4F0326643752
:109C90003E600AE01678360704D10678C6F303164C
:109CA000032E02D006290DD014E0764F05263E6023
:109CB000744E78363560734E083633603F263F1D4C
:109CC0003E6002E01678360704D10678C6F3031624
:109CD000052E02D0062957D062E06B4E36686B4FD6
:109CE0003E60694E361D36683F1D3E60664E083642
:109CF00036683F1D3E60644E0C3636683F1D3E6040
:109D0000614E103636683F1D3E605F4E1436366831
:109D10003F1D3E605C4E183636685C4F20373E6013
:109D2000594E1C3636683F1D3E60574E2036366809
:109D30003F1D3E60544E243636683F1D3E60524EF5
:109D4000283636683F1D3E604F4E2C3636683F1D24
:109D50003E604D4E303636684C4F40373E604A4E7E
:109D6000343636683F1D3E60474E383636683F1DF4
:109D70003E60454E3C3636683F1D3E60424E4036A2
:109D800036683F1D3E6002E01678360708D1067837
:109D9000C6F30316032E06D0042E04D0052E02D0DF
:109DA000062907D019E0D4F85812394A01F04F01BA
:109DB000116002E0117809070FD10078C0F3031099
:109DC000032803D0042801D0052806D131480168B2
:109DD000C90702D06FF001010160D4F830010628F4
:109DE00008D1D4F83401062804D12B48016841F485
:109DF0008061016022487438016841F4700101609B
:109E0000BFF34F8FBFF36F8F4FF01021D1F80002D7
:109E1000002803DBD1F80402002822DA1F4A15606B
:109E20001F480468002CFCD01524C1F800420568C6
:109E3000002DFCD0C1F8044201680029FCD0136059
:109E400001680029FCD0BFF34F8F0D48F03801683E
:109E5000144A01F4E06111430160BFF34F8F00BF6A
:109E6000FDE7124910480860F0BD0000E00F00F067
:109E7000403501400DF0ADBA00C007403C05004040
:109E8000FCED00E0105600400404001020C5004026
:109E9000E40E0040000400403C17004004E501408F
:109EA00000E401400400FA050090D00334270020AC
:109EB0002DE9F047104E062700244FF4A0784FF408
:109EC000803900BF08EB840509FA04F0715961B1CB
:109ED000D6F80413014208D02946304609F07CFD2B
:109EE0000648D0E9002128469047641CE4B2BC42F1
:109EF000E8D3BDE8F087000000B00140183500202D
:109F00000148006800470000E425002000F01F021F
:109F1000012191404009800000F1E020C0F880124A
:109F2000704702E008C8121F08C1002AFAD1704722
:109F30007047002001E001C1121F002AFBD17047C9
:109F40000121202803DA81400548014003E0402830
:109F500002DA2038814009B10120704700207047A3
:109F6000FC06FFBD2DE9F843804643F2020659B9CD
:109F700069460BF04FFFB04202D008B100F03CFA46
:109F80009DF80000800744D4002140460BF04CFFB0
:109F900005003ED0112D3CD01F482049401AC7086B
:109FA000022000EB07440D2D0AD00B2D1DD0B54229
:109FB0001FD11B4920464246BDE8F84308F0AABF1E
:109FC00020464246174908F0A5FF1321404676DF98
:109FD00000281ED009F0F6FC024601B02046434698
:109FE000BDE8F04310A108F09CBF204642461C4942
:109FF000E2E7284609F0E6FC0246012000EB0740B4
:10A00000434618A108F08DFF2846BDE8F84300F04C
:10A01000F3B9BDE8F8830000F8DF0300B8DF030000
:10A02000E8C6030074C6030073645F626C655F6713
:10A0300061705F646973636F6E6E65637428292055
:10A0400072657475726E6564202573206F6E20636F
:10A050006F6E6E5F68616E646C652025642E000013
:10A0600034C70300417373657274696E672E207084
:10A070006D5F636F6E6E5F7365637572652829200F
:10A0800072657475726E6564202573206F6E20632F
:10A090006F6E6E5F68616E646C652025642E0000D3
:10A0A00010B560B159B102780B785208B2EB530F7A
:10A0B00005D10622401C491CFDF749FC08B10020CF
:10A0C00010BD012010BD800701D000207047012085
:10A0D0007047C3688B4206D811440069491E81420B
:10A0E00001D8012070470020704790F82400012813
:10A0F00001D01F207047EE20704710B501220221C9
:10A10000002002F0B1F808B1072810D1072202217F
:10A11000012002F0A9F808B1072808D100210A227D
:10A12000084602F0A1F808B1072800D1002010BDB0
:10A1300010B5ACB0AC216846FDF7F7FB1C48022116
:10A140000124017084700621C170048219494161A3
:10A1500001463C226846FDF7CDFB00208DF8794092
:10A160008DF87A408DF87B00209021902820229055
:10A1700040F6B83023908DF87C408DF87D404FF448
:10A180004860249044F2506025900B4829900B4879
:10A190002A908DF878406946094800F05AFD08B1C8
:10A1A00000F02AF90121064800F04EFD2CB010BD48
:10A1B000C02C002060220020914803004FAC020018
:10A1C0008C28002070B58CB015460E4600236C46D6
:10A1D000C3F10F01415CE1545B1C102BF8D30D213E
:10A1E00004F11000FDF7A1FB0020C0F10F02315C6B
:10A1F0002244401C11740328F7D3684646DF002030
:10A20000C0F10F01214491F820102954401C03286B
:10A21000F6D30CB070BD000070B5254CA0421ED125
:10A22000F1B1012936D0022928D0032917D10720FE
:10A2300006F076F8002812D194F8680094F86910B6
:10A2400088420CD194F86A00002808D10023D4E990
:10A2500001501A460321A847012084F86A0070BD06
:10A26000052006F05DF80028F9D1A0686468002395
:10A27000A446BDE870401A46012160471046190007
:10A28000EDD00028EBD00278302AE8D1BDE870404C
:10A2900006F066B8082006F043F828B9A068002345
:10A2A00064681A460221A047BDE8704006F00CB968
:10A2B000943E0020022001F0C9BE00000149C97887
:10A2C00001F034B84C25002070B50024064D06E09E
:10A2D0006868012110F8340009F0FEFB641C28783E
:10A2E0008442F5D3002070BDF8250020F8B516464D
:10A2F0000C4605460A2A01D20720F8BD09F0E6FC03
:10A3000018B909F0ADFC0028F7D1134F10211348FC
:10A310007D603C70BE60FDF708FB0020C7E90400CB
:10A320000F4E0DE005EBC4003168009181788DF887
:10A33000011000780B4A694609F020FC0028DCD1A6
:10A34000641EE4B2EED2BDE8F84005480021064A9A
:10A35000001D00F0E9B80000F82500209835002025
:10A360006C96030015E20200A5CF0200054672B606
:10A3700008F080FE08F0B0FC0028FBD1114812491B
:10A380002A46401AC408012000EB04400FA108F03F
:10A39000C1FD13480068C00700D000BE022000EBDA
:10A3A000044010A108F0B2FDBFF34F8F0C48E43811
:10A3B0000168104A01F4E06111430160BFF34F8F5F
:10A3C00000BFFDE798E00300B8DF03004661746159
:10A3D0006C206572726F7220307825780000000062
:10A3E000F0ED00E053797374656D207265736574E8
:10A3F000000000000400FA050EB500210091CDE92F
:10A4000001106A4644F20100FFF7B0FF0EBD0000E4
:10A410002DE9F84F254C8146924660880E468142D0
:10A4200041D800274FF6FF788DF80070684600F09D
:10A43000D3F822786078A188884201DA401C00E0D5
:10A440000020C0B2904204D19DF8000000F0E8F86E
:10A4500027E065786078884201DA401C00E000203F
:10A4600060709DF8000000F0DBF8454519D0A06849
:10A47000B9F1000F40F835A00DD066B16188E068F1
:10A48000324605FB01004946FDF734FAA06800EBAF
:10A49000C500868002E000EBC50087800020BDE893
:10A4A000F88F0420FBE70920F9E7000010260020C0
:10A4B00010B50E4C03E0401C00E000202070207816
:10A4C0006178814210D022786188E068A36802FB3D
:10A4D000010003EBC20153F83220898890472078AD
:10A4E000A1888842E9DAE6E710BD000010260020C6
:10A4F00030B5CB0008339DB293074FF0000401D074
:10A50000072030BD044B9A602A44DA605C701C70EE
:10A5100058809980002030BD10260020014802F0AC
:10A52000A8BD0000282600203AB100680129426138
:10A5300000D0002101610020704707207047000013
:10A5400038B5114808235822416800910F49006826
:10A5500006F047FE002815D10D4A69460D4802F065
:10A560008DFD04000ED101210A4802F0FEFD0123F9
:10A57000094A1946074802F054FD064901200839E6
:10A580000870204638BD000074960300B8350020DE
:10A59000B574030028260020FFFF7F0070B5044635
:10A5A000007F0D4608B1002070BDA26103F018FEC7
:10A5B000401941F10001C4E90201206900B125619F
:10A5C0002146BDE8704000200EF0D6B801460020BC
:10A5D000087701200EF0D0B830B5EFF3108172B6D5
:10A5E0000D4A9468012324B10370002900D162B69A
:10A5F00030BD93604FF0E023D3F88051074C2540E5
:10A600001560C3F88041D3F8844154605A17C3F8E9
:10A61000842100220270E8E710360020FC06FFBD0E
:10A620000B498A68002A11D000280FD1EFF310805F
:10A6300072B60B684FF0E022C2F800314B68C2F8E6
:10A64000043100228A60002800D162B67047000001
:10A65000103600202DE9F041064608680C46411CE2
:10A660004FF0A0474FF0010506D005FA00F1C7F8FA
:10A670000815206808F0F6F96068411C02D0002136
:10A6800008F0DEF93168A069C1F82405607D227DFB
:10A6900031681043C1F86C05D4E900123068C0F885
:10A6A0001425C0F80C15207D012815D1A068411C87
:10A6B00002D0002108F0C4F9E068411C05D08540B3
:10A6C000C7F80855E06808F0CDF9D4E902123068FF
:10A6D000C0F80825C0F81015BDE8F0812DE9F0415B
:10A6E000064608680C46411C4FF0A0474FF0010594
:10A6F00006D005FA00F1C7F80815206808F0BCF983
:10A700006068411C02D0002108F0A3F93168A069FB
:10A71000C1F82405607D217D32680843C2F86C05CC
:10A72000D4E900123068C0F80C15C0F81425207D5B
:10A73000012815D1A068411C02D0002108F089F938
:10A74000E068411C05D08540C7F80855E06808F06E
:10A7500093F9D4E902123068C0F80825C0F8101542
:10A76000BDE8F08104F0C6BC09F070B82DE9F047EF
:10A77000814605884A484FF000088AB00178424671
:10A78000284600F0EBFD99F80500400701D40021B0
:10A7900076E005F58077B8B205AB012207210AF013
:10A7A0006FFF04003F48404A4FF00101A0EB020058
:10A7B0004FEAD00001EB00460AD0204609F002F92A
:10A7C000024630462B46394908F0ABFB214629E0CA
:10A7D000284604F0D9F84FF6FF71044688422BD181
:10A7E0008A46069804F03AF80446504510D00146CF
:10A7F000284604F0A9F82846FFF760FDE0B928468E
:10A800000DF036F92846FFF759FD0028BFD013E0B8
:10A810000BF004F90446504508D1304624A108F055
:10A8200075FB042128460DF091F9B0E70146284652
:10A8300004F08AF84FF00108B8B2224607210AF066
:10A8400097FF07001BD0862F1ED009F0BBF80246E9
:10A8500030462B462349009408F06BFB39462846C6
:10A860000DF074F9002148460AF002FEB8F1000F1D
:10A8700002D0204604F072F80AB0BDE8F08701214A
:10A8800048460AF0F5FDF7E7142217496846FDF738
:10A8900031F8ADF80250684602F098FEEFE700008C
:10A8A0004C25002000E00300B8DF030030CA03009D
:10A8B000436F756C64206E6F7420616C6C6F6361A4
:10A8C0007465206E657720706565725F69642066C7
:10A8D0006F7220696E636F6D696E6720626F6E6460
:10A8E0002E0000004CCB0300EC94030070B504462E
:10A8F00090B0087B0D468DF83800202105A8FDF7A3
:10A9000014F842F61920ADF814000120ADF8180033
:10A91000ADF81A000EA80790617C9DF82100A21DD9
:10A9200061F3041040F002008DF82100A87B8DF83F
:10A930002700687B8DF82500A08805A901F078FF25
:10A9400000281CD1A968E1B10FA801F077FA0646EA
:10A9500014216846FCF7E9FF42F60810ADF8000044
:10A96000E87B8DF806000FA8ADF80A60ADF80E6020
:10A970000490E08804F10E02694602F0BDFA10B0BE
:10A9800070BD0020E081FAE710B50E490E480DF0C9
:10A9900018F9C1B24FF6FE720C4800F065FB0028B2
:10A9A0000FD008280DD013280BD0112809D00F285C
:10A9B00007D043F20141884203D0BDE81040FFF7C1
:10A9C0001BBD10BD0C2D002098220020582800200F
:10A9D0000A4601461046AEDF704770B515000446C2
:10A9E00009D00020286034B1206820B1A079800708
:10A9F00003D0072070BD0E2070BD084600F016FC85
:10AA0000C0B2142804D02179814203D8042070BD3B
:10AA1000052070BDE288216800FB0210286000203C
:10AA200070BD00002DE9FC5F0024178806461480E5
:10AA300090F82D001546894630B13A4629464846D9
:10AA400000F0B2FC041E0DD1DFF898B14FF00C0AF3
:10AA5000CBF80040B07818B32888C846001DB8422B
:10AA600002D95046BDE8FC9F684679DF0028F9D13D
:10AA70002888032108F8001028881921401C80B27A
:10AA8000288008F800102888401C80B2288000EB3D
:10AA90000801BDF800000EF068F8298808442880F5
:10AAA000CBF80040F17858464FF00208D1B12A881F
:10AAB00096F9033002F1030C4946BC45D1D801F8A0
:10AAC00002802A884FF0010C521C92B22A8001F8B1
:10AAD00002C02A88521C92B22A8009F802302988C2
:10AAE000491C298004607168D1B12A8891F900302D
:10AAF00002F1030C4946BC45B3D801F802802A880C
:10AB00004FF00A0C521C92B22A8001F802C02A8827
:10AB1000521C92B22A8009F802302988491C2980E7
:10AB2000CBF800403089D84650B1CDE900574B46AC
:10AB30000622022106F108000EF006F9041E91D14A
:10AB4000C8F80040308A50B1CDE900574B46072283
:10AB5000032106F110000EF0F7F8041E82D1C8F8A8
:10AB60000040308B50B1CDE900574B4615221421DF
:10AB700006F118000EF0E8F8041EE0D1C8F8004015
:10AB8000306A30B13B462A46494602F01AF8041EA4
:10AB9000D5D1C8F80040706A30B13B462A464946D4
:10ABA00004F0E7FC041ECAD1C8F8004096F82C0057
:10ABB00038B13B462A46494630460DF037F9041E67
:10ABC000BDD1C8F80040307838B13B462A464946E6
:10ABD000304605F0E7FA041EB1D12046C8F800401F
:10ABE00040E700008C24002018B504460020ADF892
:10ABF000000013466A46204600F006F8002802D0FE
:10AC0000BDF80000204418BD70B5C8B1C2B1002421
:10AC1000158803E0065D641C3444A4B2A54203D841
:10AC2000061976789E4201D08C42F3D38C4207D22B
:10AC3000005DA31C401E9BB280B21C188C4201D93F
:10AC4000002070BD138070BD80F830107047FFF792
:10AC5000D3BB2DE9F0410D00044606D02CB195F888
:10AC60007A000026012803D006E00E20BDE8F0811E
:10AC700095F89800012829D0D5F8A000042825D0FF
:10AC8000D5F89C00042821D04FF00108A6702C2292
:10AC900005F17801201DFCF72DFE84F83060D5F811
:10ACA000A4006063D5F8A800A0634FF6FF70A4F875
:10ACB000240404F58260C4F82004C4F82664A4F8CF
:10ACC0002A6484F82C64207810B104E00720CDE7D2
:10ACD000FF2084F8540004F155072046C4F810748E
:10ACE000FFF703FAA4F8140404F214423946284684
:10ACF000FFF798FE0028B9D104F23120C4F81804F7
:10AD00002046FFF7F2F9A4F81C0404F21C4205F1F6
:10AD10003C00D4F81814FFF785FE0028A6D184F86B
:10AD20005180208BA4F8480084F83C80266484F885
:10AD30005060606900216064454604F13C02781E61
:10AD400072DF002892D1257090E710B50288102A92
:10AD50001BD0112A20D0262A1DD1007A0C460128AA
:10AD600001D0022817D1A0780521401CB0FBF1F2D8
:10AD700001FB1201204600F04DF800280BD0A16B1A
:10AD8000002908D0BDE810400847C27B012A02D143
:10AD90008088A1F8240410BD0C46002184F82E14EC
:10ADA0008088B4F824148842F5D120790028F2D1A3
:10ADB0000121DFE790F82D246AB1002280F82D24CC
:10ADC0000A68C0F826248A88A0F82A24897980F89D
:10ADD0002C14002070470820704710B5044690F8E6
:10ADE000540074DF012084F82E04002084F830041D
:10ADF00084F850000621204602F021FE002808D1E8
:10AE0000A178204600F006F810B1A16B01B1884787
:10AE1000002010BD2DE9F05F044600780F4698B180
:10AE2000A7700025C4F82654A4F82A5484F82C549A
:10AE3000A079012608B1012F09D0E07980B1012F56
:10AE400005D0022F03D00BE00820BDE8F09F616B16
:10AE500021B184F82D640820884701E084F82D543E
:10AE600004F2274100200A5C0AB1304603E0401C8E
:10AE70000628F8D300204FF002084FF0030B012FF3
:10AE800006D0022F0CD0032F0FD0042F15D110E0C5
:10AE9000A17929B194F8241011B908B130460DE018
:10AEA000E17911B108B1404608E0207A08B158466E
:10AEB00004E0607A08B1042000E02846A070616BCD
:10AEC00041B1032801D0042804D1607910B194F86D
:10AED0002E0498B184F82F5404F13C001821074641
:10AEE000FCF723FD84F83C6004F12C000AF0F4FE2A
:10AEF00058B194F82C0084F8510008E084F83054DC
:10AF000084F82F6407208847E6E784F8516094F8B6
:10AF1000240058B104F128000AF0DEFE20B194F8B4
:10AF2000280084F8520001E084F8526084F8505000
:10AF3000A27804F2264104F582694FF0060A052A38
:10AF400064D2DFE802F07C030F22420084F8316013
:10AF5000C4F82054C4E9101584F83C808020A4F87B
:10AF6000480055E084F8318094F82420384612B126
:10AF70000722027001E080F800B0228A8281C4F8C2
:10AF800020544160E168B96042E06069B860208B9C
:10AF9000B88194F824003D460028204602D084F869
:10AFA0003CA001E084F83C600DF09AFE50B185F8B9
:10AFB00014800421204602F042FD38BB052184F8AC
:10AFC000311021E084F831B01EE0E069B860208CD7
:10AFD000B88194F824003D460028204602D084F829
:10AFE0003CA001E084F83C600DF07AFE48B185F8A1
:10AFF00014800421204602F022FD38B984F831A0E3
:10B0000002E0042084F83100C4F82094A07878B1DC
:10B010003A4604F15400D4F8201472DF00287FF47B
:10B0200014AF94F8301094F8540073DF0028F6D170
:10B03000616B11B194F831008847002005E784F86E
:10B040003150F5E790F82F34009933B1002380F8A0
:10B050002F340A4303D0012102E008207047002169
:10B0600080F8301400207047F7B594B017460500FB
:10B070003CD0287C9DF854100024884252D00026F1
:10B080004FF0010E0D9615A8ADF834E00E90ADF816
:10B090003660E9880DAA4FF6FF70ACDF040026D1B8
:10B0A0009DF854002874687CA0B30F9610961196F2
:10B0B0001296E888ADF83C00BDF83600ADF84000C7
:10B0C0000DA811900E981290A7F57F408DF83EE0E4
:10B0D000FE3805D039460FA8FFF77AFC044621E078
:10B0E000684600F09DF800256F460FE00E2017B06F
:10B0F000F0BD00BF07EB4506B08800F0F9F8022864
:10B1000003D144B10FA9B088AEDF6D1C0098A842EE
:10B11000F0D807E005E0B1880FA8FFF759FC044616
:10B12000F3E708242046E2E738B50D46040018D0BE
:10B13000BDB12868206028796074FF202074012048
:10B140008DF8020041F60F00ADF80000221D69469F
:10B150000120A8DF002803D129462046FFF7C6FBBF
:10B1600038BD0E2038BD38B5002924D0002822D0A3
:10B170000288502A1FD10546487C0C4600281AD068
:10B18000E9886289A81D914215D14189022912D10D
:10B19000216800290FD00C3000F04CFE08B10020CF
:10B1A00000E001208DF80000A888ADF802002268B8
:10B1B00069462046904738BD70B5040012D001465C
:10B1C0001C221448FCF796FB1248134D05602068BA
:10B1D00050B17ADF002806D12068016829604068F4
:10B1E000686005E00E2070BD0B487BDF0028FAD1B7
:10B1F00008484FF6FF711438084A20F8041B054927
:10B20000343901600021FFF78FF90028EBD00320CB
:10B2100070BD0000242E002090240020798C0300B3
:10B220000149496801F0AEBC402E002010B504462B
:10B2300000F0B0F808B1204610BD142010BD000089
:10B2400010B5044600F0A6F8002805D02146BDE858
:10B250001040024806F044B810BD0000502E0020F7
:10B2600070B515460E4604460DF046FD002809D07F
:10B27000054800EB8400C0692A463146BDE87040AD
:10B2800002F00ABC70BD0000402E002010B504463C
:10B2900000F080F8002805D02146BDE810400248A3
:10B2A00006F01EB810BD0000582E002010B5044650
:10B2B00000F070F8002805D02146BDE81040024893
:10B2C00006F00EB810BD0000542E002070B50546E3
:10B2D000002400F05FF838B12946044806F000F871
:10B2E00008B1022400E00124204670BD4C2E00204D
:10B2F00070B50546002400F04DF838B129460448E1
:10B3000005F0EEFF08B1022400E00124204670BDE4
:10B31000482E002010B51821034805F0BCFF18285E
:10B3200000D0C0B210BD0000402E002070B5054610
:10B330000C4608460DF0E0FC60B1284600F02AF803
:10B3400040B10548294600EB8400BDE870401C3040
:10B3500005F0C6BF002070BD402E002070B5054628
:10B3600016460C4608460DF0C7FC00280ED02846AD
:10B3700000F010F8002809D00548324600EB8400A0
:10B380002946BDE870401C3002F054BB70BD00007F
:10B39000402E0020142801D30020704701460148A8
:10B3A00005F09EBF442E00207CB5054608880C465B
:10B3B0000930904201D90C207CBD68466DDF002821
:10B3C000FAD121880820685420881B21401C80B2B3
:10B3D000208029542088401C80B220802844DDF839
:10B3E00001100160BDF8051081802088801D80B2A9
:10B3F00020809DF80010490800D0012129542088A0
:10B40000401C208000207CBD1FB5044601208DF823
:10B41000060041F60A00ADF80400494A01A90120DE
:10B42000A8DF00287DD122885AB14548801C0090B1
:10B4300094F83C3042F62920616801F0C9F90028EF
:10B440007BD122895AB13E480A30009094F83C30B2
:10B4500042F62420E16801F0BBF900286DD1228A70
:10B460005AB137481230009094F83C3042F625200B
:10B47000616901F0ADF900285FD1228B5AB13048E3
:10B480001A30009094F83C3042F62720E16901F030
:10B490009FF9002851D1228C5AB1294822300090BE
:10B4A00094F83C3042F62620616A01F091F90028B8
:10B4B00043D1228D5AB122482A30009094F83C3072
:10B4C00042F62820E16A01F083F9002835D1216B8A
:10B4D00079B102A80DF0BAF819480822323000906C
:10B4E00094F83C3002A942F6232001F071F90028BB
:10B4F00023D1606B60B112493A3100910279016841
:10B5000094F83C3042F62A2001F062F9002814D168
:10B51000A16B89B102A80BF031FB094842300090C1
:10B5200000E00AE094F83C30072202A942F65020DD
:10B5300001F04EF9002800D1002004B010BD000039
:10B5400066250020F8B5028800270546212A55D037
:10B550001FDC334833494FF00303A0EB0100324EA8
:10B560004FEAD00003EB0044102A1DD0112A30D03E
:10B570001A2A4BD120462DA107F0C8FC287A01B029
:10B58000030900F00F022046BDE8F0402EA107F0AD
:10B59000C8BC3B2A3BD0562A3DD0572A36D1BDE8FD
:10B5A000F840012001F020B8204631A107F0AEFCA0
:10B5B000072000F07BFE08B1FEF71EFFA988B180CE
:10B5C0002E4806F0B3F9002820D0BDE8F840FEF779
:10B5D00013BF20462AA107F099FC002001F004F8CF
:10B5E0004FF6FF70B0807770002000F05FFE08B16A
:10B5F000FEF702FFBDE8F8400CF0CCBC0097808855
:10B6000069468FDF002801D0FEF7F6FEF8BD80887E
:10B61000132176DFD7E78088132176DFD3E7000098
:10B6200098E00300B8DF030058220020424C455F39
:10B630004741505F4556545F434F4E4E5F5345431D
:10B640005F55504441544500536563757269747980
:10B65000206D6F64653A2025752E205365637572E1
:10B66000697479206C6576656C3A20257500000058
:10B67000436F6E6E6563746564000000802800206F
:10B68000446973636F6E6E656374656400000000E7
:10B6900010B51A4C0188606810290ED011292BD1E1
:10B6A000401E606028D1FEF728FD002824D02168C4
:10B6B000002921D0BDE810400847D0B9002101225F
:10B6C000084600F0D1FD08B107280FD1072202215A
:10B6D000012000F0C9FD08B1072807D1042202218A
:10B6E000002000F0C1FD20B1072802D0216801B17F
:10B6F00088476068401C606010BD00008424002002
:10B700002DE9F04701883B4E40F2F3194FF6FF75E3
:10B7100010291BD011293ED0122954D0502946D1CE
:10B72000C188F289841D914241D1618902293ED1AB
:10B730008688304603F062FA050038D004F10C0028
:10B7400000F078FBA8B3294630464EE0C17B8788DD
:10B75000044601292BD1A846284603F04FFA0500DC
:10B7600017D02F8000202872234843464A4601689C
:10B77000C5F80A104068C5F80E0004F1100105F183
:10B780000A0003F0FDFA6872F08900280FD12946FB
:10B790002AE0042013E0808803F030FA040006D089
:10B7A0006068FEF713FF08B10CF074F92580BDE85E
:10B7B000F087FFE76868FEF709FF0028F7D0BDE8CB
:10B7C000F0470CF067B987880646384603F016FA4A
:10B7D0000400ECD02B464A4606F1080104F10A00A9
:10B7E00003F0CEFA607221463846BDE8F04701F01A
:10B7F0002FBA0000242E0020902400202DE9F04FC5
:10B80000044686880188424897B0834610290CD0A8
:10B81000112950D0103019296AD01A2974D1217AEF
:10B820000C09042C4DD301224CE0394D083DA86889
:10B83000C0430B9069680BA805F076FD0B990CA826
:10B8400001F0A0F92C220CA96846FCF753F8002758
:10B85000E946A84610E000BF09EB47005FF000058D
:10B86000B0F804A008EB85005146001D05F0F8FC77
:10B870006D1C1E2DF6D37F1C0098B842ECD8142EF8
:10B8800005D317B00420BDE8F04FFEF7B5BD314633
:10B89000584605F030FD314608F1040005F02BFD57
:10B8A000E07B012830D017B03146BDE8F04F184892
:10B8B000001D05F020BD17B03146BDE8F04F05F082
:10B8C000CFBC0022314602F0B5F8032C01D301228F
:10B8D00000E000220E4831460C3002F0ABF8022C9A
:10B8E00001D3012200E0002209483146083006E079
:10B8F000217A002908D1617AC1F3C002314617B01C
:10B90000BDE8F04F02F096B817B0BDE8F08F000028
:10B91000482E002010B504460748007800280AD0B9
:10B92000204602F097FE20460CF048FB2046BDE87A
:10B93000104002F0F9B910BDDC24002010B51A4CFB
:10B9400002882178102A0CD0112A0DD0172A02D093
:10B95000192A05D10AE08088144A022180DFF8B94B
:10B9600010BD491C217010BD491E2170607803284C
:10B9700003D0022801D00428F5D105F053FE68B9A0
:10B980006078032801D00428EDD105F053FF28B9D1
:10B9900005F068FF05F0F0F90028E4D01128E2D0A6
:10B9A000BDE81040FEF728BD00270020843E00209F
:10B9B000F0B587B016460C4605001F4635D09EB33D
:10B9C000A7F57F40FF3832D0ADF8144004AA1946DD
:10B9D000D5F87801FFF701F8002823D10498801CDE
:10B9E0000490082C03D822463146FBF783FF002041
:10B9F0000090019002900390B5F84E11ADF804004C
:10BA000005A8ADF80010CDE9020601218DF802105D
:10BA100069463846AEDF002804D102990988A14260
:10BA200000D00C2007B0F0BDFFE70E20FAE7082099
:10BA3000F8E72DE9F04391B00C4605000DD064B154
:10BA4000A07A0A2805D8207C0A2802D8207E0A2855
:10BA500005D9072011B0BDE8F0830E20FAE7206871
:10BA6000286060686860A07AA874207C85F87800F7
:10BA7000207E85F8DE0001268DF8226041F6120056
:10BA8000ADF8200005F1080208A93046A8DF00281B
:10BA9000E0D1002709E0A06B01AA30F8171028892F
:10BAA000A9DF0028D6D17F1CFFB294F83600B84237
:10BAB000F1D8207A4FF0000808B9607A38B394F8CA
:10BAC0003C9094F83D708DF8306020216846FBF77B
:10BAD0002CFF42F64E20ADF800000CA802909DF815
