:020000040002F8
:10600000805E0020C1630200C9630200CB6302000E
:10601000CD630200CF630200D163020000000000E4
:10602000000000000000000000000000D363020038
:10603000D563020000000000D7630200D9630200AC
:10604000D5660200DB630200BD6A0200DB6302006A
:10605000DB630200DB63020071650200DB630200A8
:10606000DB630200DB630200DB630200DB63020030
:10607000DB630200DB630200DB630200DB63020020
:10608000DB6302002D670200DB630200DB630200BA
:10609000DB630200DB6302009D670200DB6302003A
:1060A000DB630200DB630200DB630200DB630200F0
:1060B000DB630200DB630200000000000000000060
:1060C000DB630200DB630200DB630200DB630200D0
:1060D000DB630200DB630200DB6302000000000000
:1060E00000000000000000000000000000000000B0
:1060F00000000000000000000000000000000000A0
:10610000000000000000000000000000000000008F
:10611000000000000000000000000000000000007F
:10612000000000000000000000000000000000006F
:10613000000000000000000000000000000000005F
:10614000000000000000000000000000000000004F
:10615000000000000000000000000000000000003F
:10616000000000000000000000000000000000002F
:10617000000000000000000000000000000000001F
:10618000000000000000000000000000000000000F
:1061900000000000000000000000000000000000FF
:1061A00000000000000000000000000000000000EF
:1061B00000000000000000000000000000000000DF
:1061C00000000000000000000000000000000000CF
:1061D00000000000000000000000000000000000BF
:1061E00000000000000000000000000000000000AF
:1061F000000000000000000000000000000000009F
:10620000DFF80CD000F076F90048004779900200E2
:10621000805E002030B450E8012F93B2C48923443B
:106220008489A34228BF1B1B0489A34202BFBFF37A
:106230002F8F002007E0C3EA020340E80134002C5E
:10624000E9D14FF001000A6030BC704750E8012FDF
:10625000C2EA024240E801210029F7D1704730B478
:1062600050E8022F1FFAA2F3C488A34202BFBFF373
:106270002F8F00200DE0C48923448489A34228BFC6
:106280001B1BC2EA034340E80234002CE8D14FF064
:1062900001000A6030BC704750E8022FC2EA224277
:1062A00040E802210029F7D17047034653E8022F46
:1062B000D988B2EB324F4FF0000017BF92B241EADB
:1062C000014142EA014104E05A68B2EB324F08BF93
:1062D000012043E80212002AE8D1704730B4044696
:1062E00054E8000F0D4644E80053002BF8D1156028
:1062F00030BC704730B4044654E8000F40EA010552
:1063000044E80053002BF7D1156030BC704730B41F
:10631000044654E8000F00EA010544E80053002B4E
:10632000F7D1156030BC704730B4044654E8000F14
:1063300080EA010544E80053002BF7D1156030BC1A
:10634000704730B4044654E8000F00EB010544E800
:106350000053002BF7D1156030BC704730B40446B1
:1063600054E8000FA0EB010544E80053002BF7D1DF
:10637000156030BC704770B404464FF0000054E81C
:10638000006F0D68AE4207BF44E80023012044E8D7
:1063900000630E60002B1CBF0020F0E770BC70474C
:1063A00030B4044654E8000F88422CBF451A054615
:1063B00044E80053002BF5D1156030BC7047000055
:1063C0000648804706480047FEE7FEE7FEE7FEE78F
:1063D000FEE7FEE7FEE7FEE7FEE7FEE7A167020055
:1063E000016202002DE9F05F0546002092469B46BF
:1063F00088460646814640241BE0284641464746DB
:10640000224600F067F853465A46C01A914110D30D
:1064100011461846224600F016F82D1A67EB0108BF
:106420004F4622460120002100F00DF817EB00092D
:106430004E41201EA4F10104DFDC484631462A46C5
:106440004346BDE8F09F202A04DB203A00FA02F11F
:10645000002070479140C2F1200320FA03F3194352
:1064600090407047004870470CCB020040EA01039F
:106470009B0703D009E008C9121F08C0042AFAD2FA
:1064800003E011F8013B00F8013B521EF9D27047BE
:10649000D2B201E000F8012B491EFBD27047002266
:1064A000F6E710B513460A4604461946FFF7F0FF13
:1064B000204610BD421C10F8011B0029FBD1801A98
:1064C0007047034611F8012B00F8012B002AF9D17F
:1064D00018467047202A04DB203A21FA02F00021F6
:1064E000704721FA02F3D040C2F1200291400843E4
:1064F00019467047064C074D06E0E06840F001037E
:1065000094E8070098471034AC42F6D3FFF77CFEBE
:106510001CD302003CD3020070B58C1810F8015B4C
:1065200015F0070301D110F8013B2A1106D110F82C
:10653000012B03E010F8016B01F8016B5B1EF9D130
:106540002B0705D40023521E0DD401F8013BFAE7B6
:1065500010F8013BCB1A921C03E013F8015B01F821
:10656000015B521EF9D5A142D8D3002070BD0000B6
:106570002DE9F04700268AB0DFF85091B0464FF47D
:106580008075012437460696284603F0B3FB38B1E0
:10659000D9F80403204203D0284603F0A1FB264388
:1065A0002D1D64007F1CADB2082FEDD34FF4BE74D7
:1065B000204603F09FFB48B1204603F091FB46F0D4
:1065C000004606AA0121002003F076FB404D16F09C
:1065D000FF0F15D00127002437420DD009EB8401AD
:1065E000D1F81005D1F81015C0F3042055F8242077
:1065F000C1F3014102B190477F00641C082CEBD32A
:10660000002E5FDA4FF0FF30CDF8108054E02819EB
:1066100010F8507F90F9000027F0C008401C3BD0D4
:1066200007A9404603F002F810B34FEA9719404615
:1066300001F000FF55F820701FB1B9F1030F03D02E
:1066400006E0B9F1030F27D104A9404602F0F6FF96
:106650004FF0A04101EB8800D0F8000706A9C0F375
:10666000014A404602F0E2FF18B1BAF1020F03D02E
:1066700012E0BAF1030F0FD1B9F1030F08D1BAF14B
:10668000020F1DD00221404603F0FAFA761CF6B242
:1066900017B149464046B847641C042CB7D3002EB6
:1066A00010D06A460121002003F006FB06990098ED
:1066B000884207D006900498002634460790A6E743
:1066C0000321E0E70AB0BDE8F08700000060004069
:1066D000B834002070B54FF48076304603F0C4F82B
:1066E000114CB50560B1304603F0C5F80120C5F87E
:1066F0000803607920B90120607121680020884773
:106700004FF48276304603F0AFF800280AD03046C6
:1067100003F0B1F80220C5F808032168BDE8704015
:106720000120084770BD0000382B002002490248B4
:10673000091F096800680847A42B002000F0C4B9AD
:1067400070B50E46144900EB400001EBC00514463D
:10675000E86A183520B101280FD0022805D113E0CE
:10676000284600F0E5F9A04201D2002411E02246BB
:106770003146284600F014FA0BE0284600F0D8F91C
:10678000A042F4D20446F2E73146284600F0DBF995
:106790000446204670BD0000F43B002004F062B8BF
:1067A000F0B5B5480023021D0178101D01254FF0FA
:1067B000805406290BD11678360708D10678C6F31F
:1067C0000316032E06D0042E04D0052E02D006296F
:1067D00007D00EE0B4F82463A84FC6F304263E6049
:1067E00002E01678360704D10678C6F30316032EA6
:1067F00002D0062904D00FE0A24FA14E7E670EE022
:106800001678360708D10678C6F30316032E06D08D
:10681000042E04D0052E02D0062907D00EE0D4F8AD
:106820004462994FC6F342363E6002E0167836075E
:1068300004D10678C6F30316032E02D0062906D02B
:1068400011E0924E376827F0807737600EE01678B7
:10685000360708D10678C6F30316032E06D0042E99
:1068600004D0052E02D006290AD011E04FF0804650
:10687000C6F80C31C6F81031834E361F336002E083
:106880001678360704D10678C6F30316032E02D015
:10689000062905D00CE07C4F032664373E600AE0F1
:1068A0001678360704D10678C6F30316032E02D0F5
:1068B00006290DD014E0764F05263E60744E7836DA
:1068C0003560734E083633603F263F1D3E6002E060
:1068D0001678360704D10678C6F30316052E02D0C3
:1068E000062957D062E06B4E36686B4F3E60694EAA
:1068F000361D36683F1D3E60664E083636683F1DC1
:106900003E60644E0C3636683F1D3E60614E103668
:1069100036683F1D3E605F4E143636683F1D3E6050
:106920005C4E183636685C4F20373E60594E1C3638
:1069300036683F1D3E60574E203636683F1D3E602C
:10694000544E243636683F1D3E60524E2836366817
:106950003F1D3E604F4E2C3636683F1D3E604D4E0B
:10696000303636684C4F40373E604A4E34363668D3
:106970003F1D3E60474E383636683F1D3E60454EEF
:106980003C3636683F1D3E60424E403636683F1DFD
:106990003E6002E01678360708D10678C6F3031683
:1069A000032E06D0042E04D0052E02D0062907D0CF
:1069B00019E0D4F85812394A01F04F01116002E091
:1069C000117809070FD10078C0F30310032803D012
:1069D000042801D0052806D131480168C90702D032
:1069E0006FF001010160D4F83001062808D1D4F815
:1069F0003401062804D12B48016841F4806101600C
:106A000022487438016841F470010160BFF34F8F70
:106A1000BFF36F8F4FF01021D1F80002002803DB85
:106A2000D1F80402002822DA1F4A15601F480468C2
:106A3000002CFCD01524C1F800420568002DFCD0C4
:106A4000C1F8044201680029FCD0136001680029E4
:106A5000FCD0BFF34F8F0D48F0380168144A01F4A1
:106A6000E06111430160BFF34F8F00BFFDE71249A2
:106A700010480860F0BD0000E00F00F04035014014
:106A80000DF0ADBA00C007403C050040FCED00E051
:106A9000105600400404001020C50040E40E0040E1
:106AA000000400403C17004004E5014000E40140C0
:106AB0000400FA050090D003182C0020014800685B
:106AC00000470000402B002010B5124C022020612E
:106AD000606111A0A06104F17800E0614FF40070E2
:106AE00020620020A06260620BA1A164E06204F554
:106AF0001E71E1641021A065C4E91410E06509A1CC
:106B0000E01DFFF7DEFC08A12046FFF7DAFC20209D
:106B1000A07110BDF43B00205465726D696E616C0C
:106B200000000000525454005345474745520000AE
:106B30000269C1688A4203D88068401A104400E0A4
:106B4000501A401E70472DE9F047C4681746894621
:106B500006464FF000083069A04201D9051B02E04B
:106B6000B168201A0D1AB0686D1E001BA84200D82B
:106B70000546BD4200D33D4670682A46204449463A
:106B8000FFF774FCB0687F1B2C44A844A944A042C2
:106B900000D10024F460002FDDD14046BDE8F0872D
:106BA0002DE9F04104468846D4E90207C51BE16897
:106BB000606816460844B54206D94146FFF756FCC0
:106BC000B819E060BDE8F0812A464146FFF74EFC67
:106BD000761B08EB050132466068FFF747FCE6606C
:106BE000F0E70000014A024900F026B8698C020073
:106BF000B42B002002E008C8121F08C1002AFAD1F5
:106C000070477047002001E001C1121F002AFBD12C
:106C1000704700000121202803DA81400548014027
:106C200003E0402802DA2038814009B10120704792
:106C300000207047FC06FFBD2DE9F04116460F46C7
:106C40000446002503E03946B047641C6D1C2078DB
:106C50000028F8D12846BDE8F08190F824000128EA
:106C600001D01F207047EE20704710B5012202218D
:106C7000002001F0CBF908B1072810D1072202212A
:106C8000012001F0C3F908B1072808D100210A2228
:106C9000084601F0BBF908B1072800D1002010BD5B
:106CA000022001F0BDB8000070B50024064D06E0DA
:106CB0006868012110F8340003F0DAFE641C2878BB
:106CC0008442F5D3002070BD482B0020F8B516464D
:106CD0000C4605460A2A01D20720F8BD03F0C2FF80
:106CE00018B903F089FF0028F7D1134F102113487A
:106CF0007D603C70BE60FFF7D2FB0020C7E9040056
:106D00000F4E0DE005EBC4003168009181788DF8DD
:106D1000011000780B4A694603F0FCFE0028DCD124
:106D2000641EE4B2EED2BDE8F84005480021064AF0
:106D3000001D00F08BB80000482B00208835002093
:106D400004C802008D8D020045880200054672B617
:106D500003F0B8FA03F09EF80028FBD1114812495D
:106D60002A46401AC408012000EB04400FA103F09A
:106D700003FA13480068C00700D000BE022000EBF1
:106D8000044010A103F0F4F9BFF34F8F0C48E4382E
:106D90000168104A01F4E06111430160BFF34F8FB5
:106DA00000BFFDE7ACD302004CD302004661746122
:106DB0006C206572726F72203078257800000000B8
:106DC000F0ED00E053797374656D2072657365743E
:106DD000000000000400FA050EB500210091CDE985
:106DE00001106A4644F20100FFF7B0FF0EBD10B576
:106DF0008268C368934203D001F00AFF002010BDEF
:106E0000052010BD29B112B1531E134203D0092031
:106E100070470E2070470160838000218160C1604F
:106E20000846704710B58268C3689A1A83889A42E8
:106E300003D801F0F7FE002010BD042010BD0000B3
:106E4000014801F066BD0000682B00203AB10068DF
:106E50000129426100D00021016100207047072014
:106E60007047000038B51148082358224168009146
:106E70000F49006802F001FB002815D10D4A694650
:106E80000D4801F04BFD04000ED101210A4801F02C
:106E9000BCFD0123094A1946074801F012FD0649C5
:106EA000012008390870204638BD00000CC80200D7
:106EB000A8350020A1BA0200682B0020FFFF7F0048
:106EC00070B50446007F0D4608B1002070BDA26178
:106ED00001F042FF401941F10001C4E902012069BB
:106EE00000B125612146BDE87040002005F0ACB836
:106EF000014600200877012005F0A6B870B50A4EBB
:106F000001460A48B578FFF772FF04464DB10020EC
:106F1000B070711C0122C81D02F01EFD08B1FFF700
:106F20005BFF204670BD0000842B0020003600204F
:106F3000F0B5244E89B01F460D00044672603FD064
:106F4000A888296882B22048FFF75CFF002835D165
:106F5000A889A96882B21C481030FFF753FF0028A7
:106F60002CD1202219496846FFF780FA6069069003
:106F7000207C00B101208DF814008DF81C70607C1D
:106F800000B10E208DF81500E0680290A068039013
:106F900020680190606800900A480D4A69460830F0
:106FA00002F0A6FC002809D1B0702068401C05D072
:106FB00004490122491CC81D02F0CEFC09B0F0BDF5
:106FC0000720FBE7842B00200036002020C80200A9
:106FD000B9C1020010B501461048FFF723FF0400B5
:106FE00019D10F480F4A0178515C19B1001D04F006
:106FF000C9F802E00C3003F09FFF60B90849074868
:107000000839FFF7F4FE30B9054901220839044870
:1070100002F0B2FC0446204610BD000010360020ED
:107020008C2B00202C2B002030B5EFF3108172B692
:107030000D4A9468012324B10370002900D162B67F
:1070400030BD93604FF0E023D3F88051074C2540CA
:107050001560C3F88041D3F8844154605A17C3F8CF
:10706000842100220270E8E720360020FC06FFBDE4
:107070000B498A68002A11D000280FD1EFF3108045
:1070800072B60B684FF0E022C2F800314B68C2F8CC
:10709000043100228A60002800D162B670470000E7
:1070A000203600202DE9F041064608680C46411CB8
:1070B0004FF0A0474FF0010506D005FA00F1C7F8E0
:1070C0000815206802F0C8FD6068411C02D000214C
:1070D00002F0B0FD3168A069C1F82405607D227D11
:1070E00031681043C1F86C05D4E900123068C0F86B
:1070F0001425C0F80C15207D012815D1A068411C6D
:1071000002D0002102F096FDE068411C05D08540C8
:10711000C7F80855E06802F09FFDD4E90212306814
:10712000C0F80825C0F81015BDE8F0812DE9F04140
:10713000064608680C46411C4FF0A0474FF0010579
:1071400006D005FA00F1C7F80815206802F08EFD98
:107150006068411C02D0002102F075FD3168A06911
:10716000C1F82405607D217D32680843C2F86C05B2
:10717000D4E900123068C0F80C15C0F81425207D41
:10718000012815D1A068411C02D0002102F05BFD4E
:10719000E068411C05D08540C7F80855E06802F05A
:1071A00065FDD4E902123068C0F80825C0F8101552
:1071B000BDE8F08170B51500044609D000202860B4
:1071C00034B1206820B1A079800703D0072070BDBA
:1071D0000E2070BD084600F01FFBC0B2142804D07A
:1071E0002179814203D8042070BD052070BDE2885A
:1071F000216800FB02102860002070BD2DE9FC47CB
:10720000002517880646158090F82D0014468946FB
:1072100030B13A462146484600F012FB051E09D11E
:10722000B0784FF00C0A18B32088C846001DB84249
:1072300002D95046BDE8FC87684679DF0028F9D1BD
:107240002088032108F8001020881921401C80B2F2
:10725000208008F800102088401C80B2208000EBBD
:107260000801BDF8000005F048F921880844208095
:10727000F0780222C8B1218896F9033001F1030C9D
:107280004846BC45D5D8425421884FF0010C491CD2
:1072900089B2218000F801C02188491C89B221806F
:1072A00009F801302088401C20807068B8B121881E
:1072B00090F9003001F1030C4846BC45B9D842545E
:1072C00021880A22491C89B2218042542188491C04
:1072D00089B2218009F801302088401C2080308943
:1072E00050B1CDE900474B460622022106F10800C5
:1072F00005F0C4F9051E9DD1308A50B1CDE9004793
:107300004B460722032106F1100005F0B7F9051ED0
:1073100090D1308B50B1CDE900474B461522142156
:1073200006F1180005F0AAF9051E83D1306A30B1C4
:107330003B462246494601F09AF9051EDBD1706AA8
:1073400030B13B462246494601F0BAFF051ED2D174
:1073500096F82C0038B13B4622464946304604F0A8
:10736000FFFC051EC7D1307838B13B46224649465E
:10737000304602F02FF8051EBDD128465AE718B551
:1073800004460020ADF8000013466A46204600F08F
:1073900006F8002802D0BDF80000204418BD70B5E2
:1073A000C8B1C2B10024158803E0065D641C3444F2
:1073B000A4B2A54203D8061976789E4201D08C4229
:1073C000F3D38C4207D2005DA31C401E9BB280B257
:1073D0001C188C4201D9002070BD138070BD80F84C
:1073E000301070472DE9F0410D00044606D02CB155
:1073F00095F87A000026012803D006E00E20BDE8AB
:10740000F08195F89800012829D0D5F8A00004282B
:1074100025D0D5F89C00042821D04FF00108A67093
:107420002C2205F17801201DFFF720F884F8306048
:10743000D5F8A4006063D5F8A800A0634FF6FF70EC
:10744000A4F8240404F58260C4F82004C4F8266477
:10745000A4F82A6484F82C64207810B104E0072092
:10746000CDE7FF2084F8540004F155072046C4F806
:107470001074FFF7F2FBA4F8140404F21442394626
:107480002846FFF7BBFE0028B9D104F23120C4F82A
:1074900018042046FFF7E1FBA4F81C0404F21C4288
:1074A00005F13C00D4F81814FFF7A8FE0028A6D177
:1074B00084F85180208BA4F8480084F83C8026642E
:1074C00084F85060606900216064454604F13C0224
:1074D000781E72DF002892D1257090E710B50288DF
:1074E000102A1BD0112A20D0262A1DD1007A0C4642
:1074F000012801D0022817D1A0780521401CB0FB3B
:10750000F1F201FB1201204600F03AF800280BD0FE
:10751000A16B002908D0BDE810400847C27B012AB2
:1075200002D18088A1F8240410BD0C46002184F803
:107530002E148088B4F824148842F5D120790028CC
:10754000F2D10121DFE710B5044690F8540074DF52
:10755000012084F82E04002084F8300484F85000C0
:107560000621204601F06CFB002808D1A1782046B6
:1075700000F006F810B1A16B01B18847002010BDE2
:107580002DE9F05F044600780F4698B1A7700025FA
:10759000C4F82654A4F82A5484F82C54A07901265F
:1075A00008B1012F09D0E07980B1012F05D0022F59
:1075B00003D00BE00820BDE8F09F616B21B184F897
:1075C0002D640820884701E084F82D5404F22741F7
:1075D00000200A5C0AB1304603E0401C0628F8D3BC
:1075E00000204FF002084FF0030B012F06D0022FAE
:1075F0000CD0032F0FD0042F15D110E0A17929B1A1
:1076000094F8241011B908B130460DE0E17911B1B8
:1076100008B1404608E0207A08B1584604E0607A94
:1076200008B1042000E02846A070616B41B1032836
:1076300001D0042804D1607910B194F82E0498B1D7
:1076400084F82F5404F13C0018210746FEF727FF69
:1076500084F83C6004F12C0004F08AF958B194F8E5
:107660002C0084F8510008E084F8305484F82F642A
:1076700007208847E6E784F8516094F8240058B161
:1076800004F1280004F074F920B194F8280084F87B
:10769000520001E084F8526084F85050A27804F25D
:1076A000264104F582694FF0060A052A64D2DFE814
:1076B00002F07C030F22420084F83160C4F82054A9
:1076C000C4E9101584F83C808020A4F8480055E0F7
:1076D00084F8318094F82420384612B107220270D1
:1076E00001E080F800B0228A8281C4F82054416011
:1076F000E168B96042E06069B860208BB88194F8B5
:1077000024003D460028204602D084F83CA001E039
:1077100084F83C6004F084FF50B185F814800421A3
:10772000204601F08DFA38BB052184F8311021E0A4
:1077300084F831B01EE0E069B860208CB88194F81C
:1077400024003D460028204602D084F83CA001E0F9
:1077500084F83C6004F064FF48B185F8148004218B
:10776000204601F06DFA38B984F831A002E0042017
:1077700084F83100C4F82094A07878B13A4604F136
:107780005400D4F8201472DF00287FF414AF94F86A
:10779000301094F8540073DF0028F6D1616B11B1FA
:1077A00094F831008847002005E784F83150F5E768
:1077B00070B5040012D001461C221448FEF756FE94
:1077C0001248134D0560206850B17ADF002806D1B9
:1077D0002068016829604068686005E00E2070BD7F
:1077E0000B487BDF0028FAD108484FF6FF711438A8
:1077F000084A20F8041B0549343901600021FFF7CD
:1078000025FB0028EBD0032070BD00000C340020C5
:10781000242B0020B9C5020010B5044600F006F87C
:1078200008B1204610BD142010BD0000142801D35B
:10783000002070470146014801F069BE2C34002049
:107840007CB5054608880C460930904201D90C20C9
:107850007CBD68466DDF0028FAD121880820685475
:1078600020881B21401C80B2208029542088401C85
:1078700080B220802844DDF801100160BDF80510B9
:1078800081802088801D80B220809DF800104908EA
:1078900000D0012129542088401C208000207CBD7C
:1078A000F8B5044601882F482F4A304D801AC00889
:1078B0006E8821293BD015DC2B4A2A4B4FF0030060
:1078C000A3EB02024FEAD20200EB0240102913D0D0
:1078D000112925D0132929D100231A4685213046A4
:1078E0007FDF17E03B2938D0522930D056291DD1EF
:1078F000A088132176DF0DE01DA102F039FC0720DE
:1079000000F0A6FB08B1FFF767FAA18869801B4861
:1079100001F032FF002809D0BDE8F840FFF75CBA5B
:1079200017A102F025FC4FF6FF706880F8BD042116
:1079300001EB004016A102F01BFC00200090A08883
:1079400069468FDF0028F1D0FFF746FAF8BD002323
:107950001A4619463046B1DFDCE7A088132176DFEE
:10796000D8E70000ACD302004CD30200E02A00208C
:10797000436F6E6E6563746564000000242F002001
:10798000446973636F6E6E65637465640000000024
:107990005048592075706461746520726571756511
:1079A00073742E0010B51A4C0188606810290ED02F
:1079B00011292BD1401E606028D1FFF756F900280D
:1079C00024D02168002921D0BDE810400847D0B953
:1079D00000210122084600F019FB08B107280FD149
:1079E00007220221012000F011FB08B1072807D16E
:1079F00004220221002000F009FB20B1072802D058
:107A0000216801B188476068401C606010BD0000BB
:107A10001C2B00202DE9F04701883B4E40F2F31962
:107A20004FF6FF7510291BD011293ED0122954D0D2
:107A3000502946D1C188F289841D914241D1618982
:107A400002293ED18688304601F0BEF9050038D0C3
:107A500004F10C0000F09FF9A8B3294630464EE02F
:107A6000C17B8788044601292BD1A846284601F00E
:107A7000ABF9050017D02F80002028722348434619
:107A80004A460168C5F80A104068C5F80E0004F1BE
:107A9000100105F10A0001F051FA6872F08900281E
:107AA0000FD129462AE0042013E0808801F08CF9E8
:107AB000040006D06068FFF71BFA08B104F020F953
:107AC0002580BDE8F087FFE76868FFF711FA002816
:107AD000F7D0BDE8F04704F013B98788064638466A
:107AE00001F072F90400ECD02B464A4606F1080179
:107AF00004F10A0001F022FA607221463846BDE81E
:107B0000F04700F0FBBD00000C340020242B0020C7
:107B10002DE9F04F044686880188424897B0834695
:107B200010290CD0112950D0103019296AD01A29E7
:107B300074D1217A0C09042C4DD301224CE0394D2B
:107B4000083DA868C0430B9069680BA801F000FDD0
:107B50000B990CA800F06CFD2C220CA96846FEF7CE
:107B600085FC0027E946A84610E000BF09EB470066
:107B70005FF00005B0F804A008EB85005146001D39
:107B800001F0BAFC6D1C1E2DF6D37F1C0098B84284
:107B9000ECD8142E05D317B00420BDE8F04FFFF742
:107BA0001BB93146584601F0BDFC314608F10400CE
:107BB00001F0B8FCE07B012830D017B03146BDE8B9
:107BC000F04F1848001D01F0ADBC17B03146BDE8BC
:107BD000F04F01F091BC0022314601F02CF8032C4B
:107BE00001D3012200E000220E4831460C3001F0A2
:107BF00022F8022C01D3012200E00022094831467C
:107C0000083006E0217A002908D1617AC1F3C00268
:107C1000314617B0BDE8F04F01F00DB817B0BDE820
:107C2000F08F000030340020F0B585B016460F46C6
:107C300004001D4614D004AA19466069FFF7BAFA79
:107C400000280BD1A5F57F40FF380BD0049848B130
:107C5000007848B13088F42808D9072005B0F0BD75
:107C60000E20FBE70520F9E70820F7E70020009049
:107C7000019002900390A088ADF8000001208DF8DB
:107C80000200CDE9026769462846AEDFE6E700005C
:107C900070B5334D04008EB02DCD08AE86E82D00B2
:107CA0005BD0E9B30868A061214608A862DF00281C
:107CB00051D1207801258DF83200ADF83050A21C4A
:107CC0000CA92846A8DF002845D120216846FEF7E8
:107CD000E6FB0220ADF8000020788DF802008DF858
:107CE0000C509DF80D00F426ADF8046040F00C0037
:107CF0008DF81150ADF806508DF80D008DF812502A
:107D0000608804F10C02694600F09CFB002822D137
:107D100020216846FEF7C3FB0320ADF8000000E019
:107D20001BE020788DF802008DF80C509DF80D00B6
:107D30008DF81150ADF8046040F010008DF812502D
:107D4000ADF806508DF80D008DF813506088221D97
:107D5000694600F077FB0EB070BD0E20FBE7000017
:107D6000E8C70200002915D0002813D00A46018870
:107D7000102907D0502909D057290BD101461046A8
:107D800003F050BD0146104603F09CBA0146104670
:107D900003F078BD7047007800F0010070470000E4
:107DA0000149085C70470000A0C702000649095C51
:107DB0004FF0A040D0F81005C84010F0010000D0EE
:107DC000012080F001007047A0C702002DE9FC41AE
:107DD0000646C0074FF000050ED0104F00240122C8
:107DE000385D009500231146019501F0DBFE641C0F
:107DF000042CF4D300F046F8B0070DD5074E00244C
:107E0000361D0022305D032300951146019501F0D7
:107E1000C9FE641C042CF4D3BDE8FC819CC702009D
:107E200007490B5C4FF0A041D1F804250120984090
:107E300020EA0203C1F808351040C1F80C0570476C
:107E40009CC702000249085C012101F02ABF000022
:107E50009CC702000249085C002101F022BF00001B
:107E60009CC702000649095C4FF0A040D0F8040509
:107E7000C84010F0010000D0012080F001007047E0
:107E80009CC7020010B500242046FFF7DBFF641CEE
:107E9000042CF9D310BD10B500242046FFF7DAFFFB
:107EA000641C042CF9D310BD10B50246064B4FF0EC
:107EB000FF3000215C5C944201D1084610BD491C92
:107EC0000429F7D310BD0000A0C7020070B50C4E06
:107ED0000C004FF0000530600BD0012000F06AF874
:107EE00008B1022004E0002000F064F800B10B208B
:107EF0002070706810B9FEF7B8FE0546284670BDC0
:107F00001C2B002010B5002000F0DCF908B1062879
:107F100006D1012000F0D6F908B1062800D10020D2
:107F200010BD00002DE9F0470D468146FFF7BCFF6C
:107F30000446042836D2DFF874801B481C4EA8F192
:107F40000C0725B3012D0ED0022D2BD104EB4400DC
:107F500030444578002D25D0B968002922D0284624
:107F6000BDE8F047084704EB4401755C0E447178A6
:107F700049B10E4A4FF48041093A8068FEF7A0FFEC
:107F800008B987F80390B17808F80410E2E7806830
:107F9000FEF7AEFF04EB4401314418F804008D787D
:107FA000A842D7D0BDE8F087A4C70200182B002054
:107FB000A8330020042801D2FFF7F8BE0020704744
:107FC0000146104810B54088042907D007290ED073
:107FD0000A2915D1BDE8104003F01EBF132176DF3A
:107FE0000CE000280CD0BDE81040FEF7F5BEA0F56F
:107FF0007F41FF3904D10448FFF7A5FA0828F0D1E2
:1080000010BD0000E02A0020302F002070B50023B2
:10801000042810D20D4D00EB4004012A02D10129A1
:108020000CD00022094E00EB4000304461B1012920
:1080300006D0022906D00723184670BD0E30C2B202
:108040002A55F9E74270F7E78270F5E7A833002078
:10805000044A014600201279D20702D0084600F0F7
:108060004DB870470C2B002070B506461E48002402
:10807000C0E90161B00720D500250122114628463C
:10808000FFF7C4FF6D1C0446042D02D2002CF4D06F
:1080900013E094B940F2333204211448FEF716FE7F
:1080A00004000AD1FEF700FE040006D10F48104A72
:1080B0000021001FFEF7CAFE0446F00712D001207F
:1080C000FFF784FE74B909480A4A00210C38FEF70C
:1080D000BDFE040006D10548074A01210838FEF715
:1080E000B5FE0446204670BD0C2B0020B0C7020030
:1080F000C9830200B18F0200A16C02002DE9F05F7C
:108100006E4C054600266078B34618B184F801B07D
:1081100000F036FF6A4F4FF47A694FF4C87A4FF097
:108120000108182D69D2DFE805F00C131338475405
:10813000696E727B727BC58484848484B3B6B9BC57
:10814000C5C500F01DFF3868FEF7D2FE06465CE0AC
:108150000020FFF787FE00284FF0000008D0FFF74F
:1081600071FE022D02D14FF4E16008E0484606E0BE
:10817000FFF770FE022D01D1C82000E05046410CEF
:10818000C0034FF47A72801841F10001257052004B
:108190000023FEF727F901462AE00020FFF762FEE0
:1081A00000284FF0000004D0FFF74CFE4FF4487059
:1081B000E5E7FFF74FFEDFE70020FFF753FE00285B
:1081C0004FF0000002D0FFF73DFECFE7FFF742FE81
:1081D000D4E70020FFF746FE00284FF0000002D051
:1081E000FFF730FE01E0FFF735FE257040F6CD4188
:1081F00000223868FEF764FE064646E00020FFF7DE
:108200000FFE257008E0002051E025703DE084F865
:1082100001800120FFF704FE002240F26661E8E7DA
:1082200084F801800120FFF7FBFD00224FF400518C
:10823000DFE77868FEF75CFE0646D5F1110000D056
:108240002EB10220FFF7FEFD84F802B01DE00128E8
:1082500016D980B2C8214843C117C90341EA504129
:10826000C0034FF47A72801841F1000152000023DC
:10827000FEF7B8F8014600227868FEF721FE0646B0
:108280000220FFF7E7FD84F802803046BDE8F09F4A
:1082900000F076FEB9E700F073FEB4E700F070FE80
:1082A00004E000F06DFE0020FFF7D4FD0120FFF791
:1082B000D1FDAAE7FFF7EFFDA7E700000C2B002098
:1082C000A4C70200012104F040BA00002DE9F843E0
:1082D0000546861C00208DF8000090460F464FF0A2
:1082E00001096846FEF7A0FE1B4C20683860D4E9FF
:1082F0000001401AA16804F21C47081A0EE001218F
:10830000384601F01FF900F069FE0146384601F0D9
:1083100019F9D4E90001401AA168081A401C8642E4
:10832000EDD8B8F1000F03D0052065F3891002E005
:10833000062065F39F50A2682168114004EB81017B
:10834000C8602068304420609DF80000FEF790FE71
:108350004846BDE8F8830000D037002070B50D46D0
:1083600004460A2902D10D21FFF7F8FFA068226810
:10837000411CA1601554D4E90101814204D3204677
:10838000BDE8704001F015BB70BD0000034803C894
:10839000814201D10120704700207047D037002072
:1083A000034630B5074800210478426806E000BF64
:1083B00002EBC10005789D4203D0491CA142F7DBC6
:1083C000002030BD482B002000780221FFF7AABD15
:1083D00005494FF0FF32082841F8202002D3084415
:1083E00080F8482070470000B8340020F0B54FF006
:1083F000FF3512B10023082601E008230C260C4C9F
:1084000005E000BF54F823707F1C04D05B1CB3420E
:10841000F8D32846F0BD26185DB286F8305044F8EF
:108420002310002AF5D1E11881F84800F1E7000097
:10843000B83400200249084490F930007047000029
:10844000B83400202DE9F0438146887891B09046F9
:108450000C4600B901208DF83E002088ADF83C00A4
:1084600000250095607C694603F0BEFC6E46A07C4A
:10847000711C03F0B9FCE07B00289DF8020002D0DB
:1084800040F0080001E020F008008DF80200217C97
:1084900011B140F0100001E020F010008DF8020052
:1084A000217B11B140F0010001E020F001008DF8C6
:1084B0000200217D09B1022100E0012161F34200A7
:1084C0008DF802001C2102A8FDF7E9FF607BC106C0
:1084D00001D4800617D50E950EAFE07C791C03F011
:1084E00083FC9DF83800079720F00F00401C20F017
:1084F000F00010308DF838009DF83A0020F00600AA
:10850000801C8DF83A00607B8DF80800A07B8DF808
:108510000900142109A8FDF7C2FF0FA8CDE909063B
:10852000A088ADF83000A06820B1E088ADF82C003C
:10853000A0680D90A06998B301950088ADF810006F
:10854000A06901AD01A94088ADF81200A06940689A
:1085500006950390A069007B03F046FCA069691CA6
:10856000407B03F041FCA069807A00289DF806005A
:1085700002D040F0080001E020F008008DF806006D
:10858000A169C97A11B140F0100001E020F010009B
:108590008DF80600A169097A19B140F0010002E0E6
:1085A0000DE020F001008DF80600A169897B09B17A
:1085B000022100E0012161F342008DF80600E0692C
:1085C00000B10590434609AA02A94846AADF11B0A6
:1085D000BDE8F08370B5084C050009D0103421685F
:1085E000002907D008682060496828468847F6E7D0
:1085F0000834F4E770BD0000A4340020054A0121CE
:1086000020B1012805D19170FFF7E4BF517000201F
:10861000FAE77047A434002010B5D0E90234D1E95C
:108620000220D11AA04101D3012010BD002010BDAD
:1086300073B58CB00646002000900D9880B10024E0
:108640006D4621460DA800F062FF30B1009805EBA1
:10865000400084800098401C0090641C142CF0D3CF
:108660002C2269463046FDF701FF0EB070BD2DE9A2
:10867000F04117880646B81D14460D46984202D9A7
:108680000C20BDE8F0813188072206290AD34FF477
:10869000486C4FF6FF73614501D9994202D1708849
:1086A000062801D21046ECE7604501D99842F9D17D
:1086B000994203D0984201D08142F3D80520E85571
:1086C00020881221401C80B2208029542088401C20
:1086D00080B220804119308803F00FFF21880844C0
:1086E00080B220804119708803F007FF2188084478
:1086F00020800020C5E7FEF76FBB000038B54A7A3E
:108700000F4B62B100220A725969002906D001227A
:108710008DF80020ADF802006846884738BD0A7A17
:1087200062B19B684C68024619462046FEF7C8FBBA
:108730000028F3D0BDE8384003F0E2BA5B68F1E707
:108740000C340020F0B50C4606461E481E4987B082
:10875000401AC708042000EB0740334622461BA1FD
:1087600001F011FD002004900590ADF8104001903B
:108770000290ADF8124001AA04A9304690DF05002E
:108780001DD002F013F90346012000EB0740044618
:1087900032461A4901F0F7FCBDF8042012B9BDF8C1
:1087A000060028B1BDF80630204615A101F0EBFC0B
:1087B000BDF808201AB12046214901F0DDFC07B0C0
:1087C0002846F0BD4CD302004CD3020055706461C2
:1087D00074696E672064617461206C656E6774688B
:1087E00020746F202575206F6E20636F6E6E656339
:1087F00074696F6E20307825782E000058CB020007
:108800005468652072657175657374656420545889
:108810002F5258207061636B6574206C656E6774AD
:108820006820697320746F6F206C6F6E67206279A7
:108830002025752F2575206F63746574732E0000D5
:10884000A4CB020070B500240F4D10E0686800EB67
:10885000C406307802F0C6F97178012901D00121EF
:1088600000E000214140307800F058F9641C28787D
:108870008442EBDBD5E90401084303D0BDE8704036
:1088800003F0FEBB70BD0000482B002010B5002196
:10889000024800F068FE80F3100010BDEC3B0020A1
:1088A0004FF480328A400168C1F848230068C0F85C
:1088B000082370474FF4A07202EB810189B200F0E7
:1088C0009DB92DE9F04105460E464FF4A07000EB2E
:1088D000860081B228684FF48034B440984622F074
:1088E0007F47C0F808432868C0F84843286801F06B
:1088F0000FFE286800EB8600C0F840752868C0F8B5
:108900004443B8F1000F02D02868C0F80443BDE822
:10891000F0810068D0F804057047000070B5437915
:10892000224C44F823204279241D04EBC202204B40
:108930001579204A9A1AD3082DB10824022000EB99
:1089400003401DA12EE002680D88C2F8085590F979
:1089500004208978002A4FEA411106DA02F00F025A
:1089600002F1E02282F8141D03E002F1E02282F815
:10897000001490F90410012201F01F0502FA05F518
:108980004909890001F1E021C1F80051417904EB66
:10899000C1010A71417944F831000320002400EB41
:1089A00003400EA101F0E4FB204670BDA02B002087
:1089B00094D302004CD3020052544320696E737466
:1089C000616E636520616C726561647920696E69AE
:1089D0007469616C697A65642E0000005254433AF0
:1089E00020696E697469616C697A65642E000000A3
:1089F00090F90400012100F01F029140400980001D
:108A000000F1E020C0F8001270470A46022100F091
:108A10007BB84FF4827100F0F1B800680121016069
:108A2000704700680121416070472DE9F05F0746FB
:108A30000C464FF4A07000EB84001FFA80FA3868EF
:108A40004FF48036A6409B4622F07F45C0F848632D
:108A50003868C0F808633868D0F8048500EB8402F1
:108A6000D2F84095C2F840855146386801F050FD73
:108A7000A9EB080020F07F40012806D1102001F06A
:108A8000EFFF5146386801F043FD3868D0F804859F
:108A9000C0F84463A5EB080121F07F413868012943
:108AA00000EB840010D0C0F840553868D0F80415A9
:108AB0006FF07F4C6A1A521E22F07F42ACEB0B0320
:108AC000934217D362B118E06D1CC0F840551020D6
:108AD00001F0C6FF3868D0F8040540450AD10CE023
:108AE00000EB84006D1CC0F840553868D0F80405D0
:108AF000884202D00D20BDE8F09F01223146384661
:108B000000F002F80020F6E70368C3F84413002AD7
:108B100002D00068C0F80413704700002DE9F84F38
:108B20000E463449804601EB5001C007097801D058
:108B30000F0901E001F00F074FF000094246012044
:108B40004946FDF780FCDFF8B0A004460D46052F2E
:108B50004ED2DFE807F003161B282C00002E47D06A
:108B60000121404603F0AAF98DF800906846FEF70F
:108B70005BFA5046D0E904120C431543CAE9044598
:108B800032E00EB1022114E0002112E04EB10321C7
:108B9000404603F093F94046BDE8F84F012103F049
:108BA0005DBD012105E0002E22D1042101E02EB19E
:108BB00003214046BDE8F84F03F080B9002140464C
:108BC00003F07CF90021404603F048FD8DF8009049
:108BD0006846FEF729FA5046E243D0E904341A40C9
:108BE00024EA0501CAE904219DF80000FEF740FAD5
:108BF000BDE8F88F88350020482B002010B50068AC
:108C000042581AB101F084FC012010BD002010BDB3
:108C1000826883881A4003689A5C0A708168491CDC
:108C200081607047C26883881A4003689954C1689C
:108C3000491CC16070470AB100F074BC00F05CBC14
:108C400070B50D460446B0F81414D0F81004012293
:108C5000FEF795FB00B1057004F13C0204F582615A
:108C600004F1540072DF70BD10B50446C0B2FEF7C7
:108C7000B1F9204610BD000070B505461148124AF2
:108C8000124C4B884688121BD408B3420FD10A8875
:108C9000A2F52063773B0AD18988C91E8AB28280F7
:108CA000032000EB0440134609A101F06CFA0420F4
:108CB0002B886A8800EB0440BDE870400BA101F0EE
:108CC00062BA0000E02A0020ACD302004CD30200BC
:108CD00044617461206C656E206973207365742033
:108CE000746F203078255828256429004154542079
:108CF0004D54552065786368616E676520636F6DBC
:108D0000706C657465642E2063656E7472616C208E
:108D100030782578207065726970686572616C20A2
:108D2000307825780000000010B50949094800F0A6
:108D30009BFC08B1FEF750F8F721064800F088FCCC
:108D4000002803D0BDE81040FEF746B810BD000073
:108D5000798C0200102F002010B50B48FFF7D9FDC9
:108D6000094A083AD2E90434C018D2E9063244F17B
:108D70000001C31A71EB020204D24FF08072801816
:108D800041F1000110BD0000682B002010B5C0B2F9
:108D9000FFF706FB0446007801F024FF01466078E7
:108DA000012801D0012000E0002090EA010F08D046
:108DB0000449D1E90401084303D1BDE8104003F0A0
:108DC0005FB910BD482B00200146034802888A4243
:108DD00000D0002070470000F83300202DE9FC5F30
:108DE0000E008346DDE90C47C6F100009846924626
:108DF000814600D40846012503E000BF90FBFAF04D
:108E00006D1C5045FADAA84500D9454624B1002E1C
:108E100001DB780700D5641EB80702D5B8F1000F52
:108E20000AD0F80708D13CB1A54205D22021584606
:108E3000641EFFF793FAF6E7002E02DA4E462D2164
:108E400002E0780703D52B215846FFF787FA07F091
:108E5000030002280BD1B8F1000F08D13CB1A542A4
:108E600005D230215846641EFFF778FAF6E7CDE9BF
:108E70000047434652463146584603F043FBBDE89F
:108E8000FC9F000070B50D46044600684FF48871E1
:108E900001F0ACFD4FF49071206801F0A7FD4FF494
:108EA0009271206801F0A2FD4FF4A271206801F0D8
:108EB0009DFD4FF4AC71206801F098FD20681149C8
:108EC000C0F804132068690740F30730090E002832
:108ED00006DA00F00F0000F1E02080F8141D03E036
:108EE00000F1E02080F800142068012140F30730F1
:108EF00000F01F0291404009800000F1E020C0F81E
:108F0000001170BD10034200024600201268530792
:108F100013D502F00300012802D002280CD105E08D
:108F2000C2F383100B68801C184404E00223086815
:108F300003EB92521044086001207047F0B584881A
:108F4000A518944200D82246A41AC288D6189A427C
:108F500000D81346D21A4B880788BB420CD34088EE
:108F6000834209D88888A04206D3A84204D8C8887A
:108F7000904201D3B04201D90020F0BD0120F0BDE4
:108F80000A4810B5807860B1002401E0022C06D0B8
:108F90002046FEF757FF641C042CF7D310BD0324B2
:108FA000F6E7BDE81040FEF76DBF00000C2B002077
:108FB00003480179C90702D00078FFF79FB87047CE
:108FC0000C2B0020F7210180172141800021017125
:108FD0004171FB2181711B21C17170472DE9FF4156
:108FE0000026234800F0ABFA2148001F074600F096
:108FF000A6FA204C60680090A56800E000986946D9
:10900000284004EB80000C30FFF77EFF0028F5D1EC
:1090100001AA009901EA050304EB8303491CDB68FC
:1090200042F82030401C00910228F2D3019800F051
:10903000030001280BD0022810D10198032101EB75
:1090400090500099BDF80A6001EB900005E001988E
:10905000BDF80A60C0F3831008440090384600F061
:109060006BFA08B10098606004B03046BDE8F0814A
:10907000E83B0020D0370020ACB018226F4968468A
:10908000FDF7F4F96E4806906E494FF48070CDE913
:109090000701099007236C4A06A96846FDF748FFB7
:1090A00008B1FDF799FE4FF48041002001F0D4F89B
:1090B00008B1FDF791FE00F0DFFEFDF7D3FE08B129
:1090C000FDF78AFE61490320FEF7CEFF08B1FDF7E8
:1090D00083FE69460020FEF7F9FE08B1FDF77CFE2D
:1090E00001F0D0F908B1FDF777FE01F081FB08B17E
:1090F000FDF772FE002469460120009401F018FA81
:1091000008B1FDF769FE684601F0AAFA08B1FDF75B
:1091100063FE9DF808004EA120F00F00401C20F0D7
:10912000F00010308DF808000B2202A87CDF08B197
:10913000FDF752FE00941020ADF800003C20019491
:10914000ADF80200ADF804404FF4C870ADF8060069
:1091500068467ADF08B1FDF73FFEFFF7E5FD3F48BF
:10916000019001A93E4800F012FB08B1FDF734FE62
:109170003C48009069463C48FEF78AFD08B1FDF77F
:109180002BFEAC216846FDF78AF902208DF800001D
:109190008DF8024006208DF8030001203249ADF819
:1091A0004C00891F8DF87C0014914020CDE92204E9
:1091B0002E4829902A4869460C30FEF713F908B169
:1091C000FDF70AFE264801210C30FEF708F91C21A4
:1091D0006846FDF764F94FF4A030CDE900404FF444
:1091E000F020029022480590032522488DF80C506B
:1091F0000690ADF80E408DF810406846FEF7D8FA9C
:1092000008B1FDF7E9FD1CA0FDF7ECFC1F48204963
:10921000401AC00805EB00401EA100F0A9FF10484D
:1092200003210C30FEF7ACF908B1FDF7D5FD00F0D5
:1092300031FE0028FBD101F039F9F8E784C70200BC
:10924000102D0020102E0020EDC00200C17F020072
:109250004E6F726469635F5541525400F1A402007D
:10926000242F0020A1B10200EC2A002085B20200C8
:10927000A9B20200F78602000D0A5541525420732C
:109280007461727465642E0D0A000000ACD3020094
:109290004CD302004465627567206C6F6767696E26
:1092A0006720666F722055415254206F7665722098
:1092B00052545420737461727465642E000000006F
:1092C00070B5144682880E4605462088111D01445B
:1092D000921C994201D8FE2A01D90C2070BD521C63
:1092E00032542088FF21401C80B2208031542088D5
:1092F000401C80B220808119288803F0FEF8218864
:10930000084480B22080AA8842B1A96841B13044A3
:10931000FDF7ACF82088A98808442080002070BDA3
:10932000072070BD2DE9F047C5881E1DB6FBF5F777
:109330008946B6FBF5F1044605FB176C40791668C3
:109340006843DDF820A0F718001F874200D9C61A2D
:10935000166001E02468491E0029FBD1A5EB0C072B
:109360008846B74216D818E004EB0C00001D09EB44
:109370000803BAF1000F3A4602D00146184600E051
:109380001946FDF773F82468F61B4FF0000CB8443B
:10939000B54201D9374600E02F46002EE4D1BDE8A2
:1093A000F087000030B5024651B100F073FF002194
:1093B000074C08E034F821301568AB4202D1116047
:1093C000002030BD491C8142F4D3052030BD00008F
:1093D00000000000F8B50F46017814460546012943
:1093E00001D1687830B12088821C9A4232D8012994
:1093F00002D006E00720F8BD69780144891C994233
:1094000028D8181A801E86B2ADF800602188B81CD2
:10941000084469467DDF0028EDD12978022904D06F
:109420006878BDF80020904205D3BDF80000B04236
:1094300001D809200AE00820012905D16978B14244
:1094400002D8ADF8001001E0ADF80060BDF80010E2
:10945000FE2901D90C20F8BD2288491CB954218865
:10946000491C89B2218078542088401C2080BDF896
:109470000010084420800020F8BD10B531B1B2FBC7
:10948000F3F403FB14241CB1092010BD0E2010BD01
:1094900001600021416081608281C381084610BD66
:1094A00070B50C460546FCF7B5FE002802D02188B1
:1094B0002868084470BD10B50A8849888A4203D1DB
:1094C000FCF7EAFE012010BD002010BD70B50C466F
:1094D0000546FCF7C4FE002802D0618828680844CD
:1094E00070BD10B50A8849888A4203D1FCF7AEFEE8
:1094F000012010BD002010BD01F01F0301229A4081
:10950000D243490900EB8100114600F021B84A0915
:1095100050F8220001F01F0201219140084000D0C4
:109520000120704701F01F0301229A40490900EB16
:109530008100114600F01CB8002100F00FB8012195
:1095400000F016B808B56A46FCF7FBFE009808BDA7
:1095500008B56A46FCF7DBFE009808BD08B56A4608
:10956000FCF7D5FE08BD08B56A46FCF7B7FE08BD96
:1095700008B56A46FCF7BEFE009808BD08B56A4605
:10958000FCF7ECFE009808BD38B5044600258DF8C0
:1095900000506846FDF748FD2168626808689042FF
:1095A0000ED9401E08600178238AE26801FB03257A
:1095B000227A2168101AC0B20A79824200D2087158
:1095C0009DF80000FDF754FD284638BD38B5054626
:1095D00000208DF800000C466846FDF725FDE86880
:1095E000298A201AB0FBF1F12A681068431C136025
:1095F00001709DF80000FDF73BFD38BD10B530B19E
:10960000017A42680368891AC9B21A6006E00E201E
:1096100010BD03681A68541C1C601170491EC9B241
:10962000F7D2006800210171084610BDC20800F0A1
:1096300007030120895C98400840704710B5C208B4
:1096400000F00703885C01249C402043885410BD2F
:1096500028B1A1F11702E12A03D3072070470E2099
:10966000704701800020704710B560B10161F7219B
:1096700020F8021B20F8021BFB2100F8021BFFF759
:10968000A1FC002010BD0E2010BD000070B5858823
:109690000C46002D4FD1018824291FD006DC10294B
:1096A00009D011290CD0232921D11CE03A290BD053
:1096B00055291CD10DE00146204601F06BFE16E055
:1096C000A01DFFF77FFC12E00146204602F054F88F
:1096D0000DE00146204601F0A9FF08E001462046C2
:1096E00001F0DCFE03E00146204601F061FFA07AB4
:1096F000002820D0E1882846A5DF0F490F4A01261F
:10970000891ACD0858B1112815D001F04FF9024639
:1097100006EB0540BDE8704009A100F02DBD002317
:10972000A372E6720420E28800EB0540BDE87040B9
:10973000104900F028BD70BD4CD302004CD302008C
:1097400073645F626C655F67617474635F6578639F
:1097500068616E67655F6D74755F7265717565735D
:109760007428292072657475726E65642025732EC5
:109770000000000010CB020020B10278DE2A03D0E6
:10978000082070470E20704741800020704760B16C
:1097900059B10278DE2A0AD009684160DE210170E1
:1097A0004FF6FF714180002070470E20704708205F
:1097B00070477FB5054600294DD0002D4BD0087865
:1097C0000C46DE2847D1A8886188884202D120460D
:1097D00002F032FF2888012825D002283BD011282A
:1097E0003AD0512837D135F8040F6188884232D1F8
:1097F000A978A81C02292ED1017A042903D00629B0
:1098000001D0052927D10021009102228DF80020E6
:1098100001914FF4C07202910391ADF80420007AD7
:1098200005280FD010E0297A2046012913D1A988F4
:10983000428891420FD10121017204B0BDE870400D
:1098400002F0FABEADF8041028886946B0DF00289F
:1098500001D0616888477FBDA88861888842FAD1B5
:109860004FF6FF7060807FBD00F1804000680028E7
:1098700000D00120704708B500F180400021016050
:109880000068009008BD000070B50B4C207808B14E
:1098900085250FE00020A06060602061E06007483F
:1098A00001F0C0F8054600F0EFFF08B901F0A4F898
:1098B00001202070284670BDA4340020FD850200E0
:1098C00038B500258DF800506846FDF7ADFB074C14
:1098D000E068401EE060E06810B901F0B3F8A570E0
:1098E0009DF80000FDF7C4FB38BD0000A434002043
:1098F000F0B505460478154889B0164640F824208E
:10990000124A0869121DA2F1080742F82400487F94
:10991000385520226846FCF7A9FD04942878385C65
:1099200048B10EB10A4A00E000226946281D01F044
:109930001BFB09B0F0BD0EB1064A00E000226946EB
:1099400005F10C0001F0C6F9F3E70000302B002010
:10995000B9C302005DC2020030B40378054CE35C79
:109960001BB130BC001D01F035BB30BC0C3001F028
:1099700019BA00002C2B002030B40378054CE35CAE
:109980001BB130BC001D01F0A7BB30BC0C3001F096
:109990007FBA00002C2B00200FB408B503990029D2
:1099A00004D004AA00926A4600F00FF801B05DF8F6
:1099B00014FB10B582680446002A05D0D4E90403DC
:1099C000216898470020A06010BD2DE9FC47914612
:1099D0000C00804676D014F8011B39B125290ED031
:1099E0004046FEF7BBFC20780028F4D198F80C0024
:1099F000002867D04046BDE8FC47FFF7DABF0020EB
:109A0000012221782B291BD02D2902D0302908D101
:109A100002E040F0010001E040F00200641C002A76
:109A2000EFD100252A290ED02178A1F130020A2A8F
:109A300011D205EB850201EB4205641C303DF1E7D4
:109A400040F00400EAE7D9F800100B1DC9F8003017
:109A50000968641C0D44217800232E290BD114F8C9
:109A6000011FA1F130020A2A05D203EB830201EBA8
:109A70004203303BF3E76C290DD068290BD06929EC
:109A800021D00BDC252918D0582931D063290ED0DC
:109A9000642915D117E014F8011FECE7702969D08B
:109AA000732932D075291BD0782909D120E0D9F843
:109AB0000000011DC9F8001001784046FEF74EFC79
:109AC000641C90E76CE0D9F800100A1DC9F800206A
:109AD0000968CDE900500A224046FFF77FF9EFE719
:109AE000D9F800100A1DC9F8002009680A2206E00A
:109AF000D9F800100A1DC9F8002009681022CDE924
:109B00000050404602F0FEFCDAE7D9F800100027CA
:109B10000A1DC9F800200E68C00705D112E04046B2
:109B2000761C7F1CFEF71AFC31780029F7D104E07F
:109B3000202140466D1EFEF711FCBD42C0D9002D0C
:109B4000F6D1BDE74EB13046FCF7B4FC074604E061
:109B5000202140466D1EFEF701FCBD4206D9002DB6
:109B6000F6D103E04046761CFEF7F8FB3178002979
:109B7000F8D1A5E7D9F80000011DC9F80010056863
:109B800030214046FEF7EAFB78214046FEF7E6FB2F
:109B900008200021CDE90001034610222946B0E744
:109BA000BDE8FC8770B541EA4201DDE904564FF09B
:109BB000A04441EA830141EA052104EB800041EA27
:109BC0000641C0F8001770BD70B541EA4201DDE9F9
:109BD00004564FF0A04441EA830141EA052104EB19
:109BE000800041EA0641C0F8001770BD70B541EA37
:109BF0004201DDE904564FF0A04441EA830141EA05
:109C0000052104EB800041EA0641C0F8001770BD51
:109C100070B541EA4201DDE904564FF0A04441EA43
:109C2000830141EA052104EB800041EA0641C0F8C6
:109C3000001770BD1CB500220B4600921146019220
:109C4000FFF7D4FF1CBD1CB500220B460092114645
:109C50000192FFF7DDFF1CBD1CB5002100910B46F2
:109C6000012201911146FFF7C1FF1CBD1CB5002167
:109C700000910B46012201911146FFF7C9FF1CBD5F
:109C80004FF0A04202EB8000D0F8002722F44032CF
:109C9000C0F80027D0F8002742EA0141C0F80017B9
:109CA000704701224FF0A043824011B1C3F808254C
:109CB0007047C3F80C25704718B5084B6C46014433
:109CC0001B68009306E000BF54F82030D3F810352D
:109CD000401C08C28142F7D818BD0000F8C7020036
:109CE000034908B50844002101600068009008BDE0
:109CF0000060004002494058012800D00020704711
:109D00000060004030B5154A01460020D2F81044EA
:109D100023460AE0DB681D79854205D1401C0A28EC
:109D2000F6DB4FF0FF3030BD1B68002BF2D1431C37
:109D3000F9D0CB681871D2F8103443B1DB68CC6825
:109D40001B682360D2F81024D268116030BDC2F8BD
:109D50001014C96800220A6030BD0000D03700200E
:109D60007047FCF7EBBC704708B5034A00924023EC
:109D7000024A00F005F808BD11BD02003836002087
:109D8000F0B595B01C4615460F4608461A9E00F0E1
:109D900053FB182109A8FCF782FB0E96CDE9095464
:109DA0000023082203A9384600F05BFB05980690C3
:109DB000BDF81000ADF81C00BDF81200ADF81E0093
:109DC00000208DF821000398082600F003000128E8
:109DD00002D0022818D032E003983346850AC0F337
:109DE000C2008DF8200003980FA9C0F38314A200CD
:109DF000384600F036FB09A8009006AB22460FA9B2
:109E0000284600F075FA1AE00398840DC0F3C200EA
:109E10008DF82000082C01D2254600E008253346A5
:109E20002A460FA9384600F01CFB2E44641B09ABE0
:109E300006AA29460FA800F0B7F9002CEAD1384647
:109E400000F000FB15B0F0BD0A4A012902EBC0008A
:109E500007D0022907D0032907D0042907D0002002
:109E6000704702207047042070470079704740799E
:109E7000704700004CD3020010B5FFF772FF0421B9
:109E80000348FFF73FFF02490120C968487110BD30
:109E90003CD302002DE9F04F8DB0FEF777FA18B1F0
:109EA00000200DB0BDE8F08F7E4C4FF0000BC4F8E1
:109EB00018B4BFF34F8F60680290A568D846284059
:109EC00004EB80000CE000BFD4F8180470B92168DE
:109ED0000298814201D86160E2E7284004EB8000EB
:109EE0000C3002A9FFF710F80028EDD1002005AAD8
:109EF000029901EA050304EB8303491CDB6842F87D
:109F00002030401C02910228F2D3059800F0030093
:109F1000022802D001284DD0AAE005985022810DD8
:109F20008946B2EB905F00D850210E4666F39F50F1
:109F3000059008315C4800F036FA070078D000F050
:109F40007BFA4346082205A9384600F092FA0299A6
:109F500008F1080A2940681A8000001D864222D9AB
:109F6000504D0C3530B1C2B204EB8101301A90462D
:109F70000C3104E02946F2B2002590462846C6B2CC
:109F80005346384600F075FA0AEB080325B132460D
:109F90002946384600F06DFA029909F1030001EBF9
:109FA000900002903BE004EB810153463246384674
:109FB0000C31EFE70598C0F38310062800D3062084
:109FC000059960F38911C1F38310801C059181000C
:109FD000354800F0E8F907004AD000F02DFA434672
:109FE000082205A9384600F044FA08F108080026BE
:109FF0000FE00298434600EA0501401C04EB810192
:10A000000290042238460C3100F033FA08F10408BB
:10A01000761C0598C0F38310B042EAD847B1D4F853
:10A020001054D4F8180478B1384600F00BFA34E034
:10A030001EE0E8684079012804D12A68284639469C
:10A0400012689047E8680568002DF2D1384600F0A4
:10A05000F9F98DF800B06846FCF7E6FFD4F818046B
:10A0600008B9029860609DF80000FDF701F814E05F
:10A07000D4F8104405E02168204689688847E068E4
:10A080000468002CF7D109480949401AC008022188
:10A0900001EB004007A100F06BF8FEF777F980F0C4
:10A0A0000100FEE6D0370020CCD30200ACD3020082
:10A0B0004CD302004261636B656E647320666C75FD
:10A0C00073686564000000002DE9F84F8146DFF8F1
:10A0D0009C80D01C15468A46800800226946D8F824
:10A0E0000860FEF7F3F8B8B3009CA01C0090D8F805
:10A0F00008103040091A8F003F1DBD4208EB800058
:10A1000002D82A46514608E03A4651460C30FCF740
:10A11000ADF91648EA1B0AEB07010C30FCF7A6F96B
:10A120004FEA1947FEF7B2FB47EA0042601C304095
:10A1300008EB8000344008EB8401C260C8684FF629
:10A14000C07269F3C500904365F39F5020F003008F
:10A15000801C20F00400C86098F8200402E000BFD2
:10A16000FFF798FE0028FBD1BDE8F88FD03700201C
:10A1700000231A4601F0BABE08B5012300926A46D0
:10A1800001F0B4FE08BD1CB5CDE9002302236A46E8
:10A1900001F0ACFE1CBD3EB5069C8DE81C000323FF
:10A1A0006A4601F0A3FE3EBD2DE9F0470E4680460B
:10A1B0001C469246082940D894F80C900020207341
:10A1C0001946104601F014FC0025B54206D218F8D5
:10A1D00005201BA12046FFF7DFFB03E01AA1204664
:10A1E000FFF7DAFB6D1C082DEFD318A12046FFF70F
:10A1F000D3FB0025B54212D218F805707E2F08D87F
:10A20000FCF730F90068C05D10F03E0F01D03A460F
:10A2100000E02E220EA12046FFF7BEFB03E00DA1B9
:10A220002046FFF7B9FB6D1C082DE3D30122214620
:10A23000504601F0BFFB84F80C90BDE8F0870000A9
:10A240002025303278000000202020007C00000013
:10A2500025630000200000000B4810B5FF2181603D
:10A26000002101604160C0F81814C0F8141480F88F
:10A270002014064800F0E4F8002803D1044800F058
:10A2800039F9002010BD0000D0370020CCD30200E7
:10A29000D8C9020002480349401AC00870470000AC
:10A2A000CCD302004CD3020013B56846FFF77AF80E
:10A2B00008B100201CBD0248009950F831001CBDB7
:10A2C0004CD3020070B509480125D0F8104480F83D
:10A2D000205407E0E06845712168204649688847B6
:10A2E000E0680468002CF5D170BD0000D037002074
:10A2F0002DE9FF4781460C9D00200C462F7B2873DB
:10A30000984616462946184601F072FB072E42D29F
:10A31000DFE806F004090F161F2A360049462846D2
:10A32000FFF73AFB37E0494628462268FFF734FB3F
:10A3300031E0D4E9002349462846FFF72DFB2AE007
:10A34000A0680090D4E9002349462846FFF724FB83
:10A3500021E0D4E90201CDE90001D4E90023494616
:10A360002846FFF719FB16E004F1080007C88DE83E
:10A370000700D4E9002349462846FFF70DFB0AE011
:10A3800004F108000FC88DE80F00D4E90023494606
:10A390002846FFF701FB00222946404601F00AFB50
:10A3A0002F73BDE8FF872DE9F041058A80462D1FF8
:10A3B0004819C01CB0FBF5F0C6B24046FFF7E4F800
:10A3C000041E19D00020207101206071E580002753
:10A3D0002546761EC4F800800BE04046FFF7D4F80F
:10A3E00060B16179491C6171286005467F1CC0F825
:10A3F0000080B742F1D32046BDE8F081204600F04E
:10A4000002F80020F8E72DE9F041457901466B1E7E
:10A41000002201E00968521C9A42FBD30F680146F2
:10A42000002605E038460C68FFF7D0F82146761C78
:10A43000AE42F7D3BDE8F0810121001DFFF782B8DD
:10A44000FFF7DCB810B504460121001DFFF796F8B0
:10A4500010F0FF0F04D12046BDE81040FFF7D3BF36
:10A4600010BD1CB501920122009201AAFEF75AFF0D
:10A470001CBD1CB501920022009201AAFEF752FFFA
:10A480001CBD0000064910B500204870091D086079
:10A49000BFF35F8F0349044800F01AFA002010BD93
:10A4A000AC2B002070C802002C36002008B500201C
:10A4B0008DF800006846FCF7B7FDF1EE100A20F0B9
:10A4C0009F00E1EE100ABFF35F8F08494020C1F8FA
:10A4D00080029DF80000FCF7CBFD00F0D5F908B133
:10A4E00041DF08BD20BF40BF20BF08BD04E000E041
:10A4F000FCF772BC826800219160826811618268F9
:10A5000051618268D16082685160806801607047E3
:10A5100008B5002242504058009008BD20B10349C0
:10A5200009680160002070470E2070475CCA020075
:10A530002DE9FE4307460E460846FFF7EFFF0028C9
:10A540007CD100240094019406208DF800704FF017
:10A550000108ADF8040002948DF8028069462020BD
:10A56000326869DF3649374A891AC908012202EB85
:10A57000014530B100F01AFA024628463249FFF789
:10A58000FBFD00948DF801808DF802400194029447
:10A590008DF8034069464020326869DF30B100F031
:10A5A00005FA024628462949FFF7E6FD00948DF892
:10A5B0000070F720ADF80200019402946946232050
:10A5C000326869DF30B100F0F1F9024628462049CF
:10A5D000FFF7D2FD0094019402948DF80080694643
:10A5E0000120326869DF30B100F0E0F90246284608
:10A5F0001849FFF7C1FD4FF4B06000900194029438
:10A600006946A120326869DF30B100F0CFF9024617
:10A6100028461149FFF7B0FD0094019402948DF88B
:10A6200000406946A020326869DF30B100F0BEF911
:10A63000024628460949FFF79FFD0020BDE8FE833A
:10A64000BCD302004CD3020098D10200E0D102003A
:10A650002CD20200F8D0020044D10200A4D00200A3
:10A660002DE9F0410546076860DF804619491A4820
:10A670002A68081AC608BA4219D9022000EB064413
:10A6800016A12046FFF774FD20463A461FA12B680D
:10A69000FFF779FD4FF08050D0F80C012968800257
:10A6A00000F10050421A204625A1FFF765FDB8F1E0
:10A6B00000004FF001040AD000F078F9024604EBE4
:10A6C00006402AA1FFF758FD4046BDE8F0812F481B
:10A6D0000470F9E7BCD302004CD30200496E7375D5
:10A6E0006666696369656E742052414D20616C6CC9
:10A6F0006F636174656420666F72207468652053AF
:10A700006F66744465766963652E00004368616E08
:10A710006765207468652052414D207374617274BE
:10A72000206C6F636174696F6E2066726F6D20308C
:10A7300078257820746F20307825782E000000006E
:10A740004D6178696D756D2052414D2073697A6550
:10A7500020666F72206170706C69636174696F6EDE
:10A7600020697320307825782E00000073645F62C2
:10A770006C655F656E61626C652829207265747511
:10A78000726E65642025732E00000000172C0020D7
:10A7900030B51548ADF5017D0078002821D04FF483
:10A7A000FA7500BFADF8005280A9684661DF38B184
:10A7B000052816D00DF5017DBDE83040FCF70CBB37
:10A7C0006C460A497DA800F083F806E0D0E9002134
:10A7D000204690477DA800F092F87F980028E1D0AD
:10A7E000F4E70DF5017D30BD172C002060CA020092
:10A7F0007CB5194C207808B108207CBD0120A070E0
:10A80000002001F04FFA112819D0002001F062FA5F
:10A8100012480026006801908DF800606846FCF739
:10A8200003FC0F4901A810DF05000AD000202070AA
:10A830009DF80000FCF71CFC2DB128467CBD0020D3
:10A840007CBD0120F3E7A670667001F005FB0120D6
:10A8500001F040FAF3E70000142C0020F4C90200D4
:10A860004D6D02000EB50749684600F031F805E06D
:10A87000D0E900108847684600F041F802980028A7
:10A88000F6D10EBD10CA02000148007870470000E2
:10A89000142C00201FB568464BDF30B1052814D0BA
:10A8A00004B0BDE81040FCF797BA084901A800F0D1
:10A8B0000FF806E0D0E900210098904701A800F0C9
:10A8C0001EF803980028E6D0F4E71FBD7CCA0200FA
:10A8D000016009684160AFF3008010B5D0E9002144
:10A8E0005368994201D1002104E0D1E90034A34228
:10A8F00002D01946816010BD08314160F0E78168DF
:10A9000000290BD0026892680A44826041684B6853
:10A910009A4203D108314160FFF7DFBF704770B53D
:10A920000D460646446804E0B2682946904718B1CF
:10A93000246820680028F7D120682860256070BD51
:10A9400040680068704741680868002801D00268C4
:10A950000A60704702460020526806E08B4203D12D
:10A9600008681060012070471A461368002BF5D163
:10A97000704700000C4A10B502F594730EE0991A66
:10A98000C91001EBD171491002EBC1010C6884427E
:10A9900001D90B4602E005D201F108029A42EED33A
:10A9A000002010BD486810BD90C8020000B5FFF738
:10A9B000E1FF002800D1014800BD00007CC8020072
:10A9C0004058002800D00120704708B500224250AE
:10A9D0004058009008BDD0F80403084000D0012082
:10A9E00070474058002800D00120704708B5002269
:10A9F00042504058009008BD08480068012110F0FE
:10AA0000010F06D14FF0E020C02280F80024C0F8EA
:10AA100000110349012008607047000000E100E0D8
:10AA2000180500400649024600200B790BB185202D
:10AA300070470A6001220A7100224A7170470000C3
:10AA4000382B002004490120086004480168C1F344
:10AA500000410029FAD170470C0000401804004062
:10AA6000002802D0014980010847704741C8020010
:10AA70002DE9F0418846054600F084FF234E00286A
:10AA800028461AD0FDF7D6FC304490F848008009DB
:10AA9000032802D001280ED007E04FF0A040D0F8E4
:10AAA0001005E84010F0010F05D003212846BDE84D
:10AAB000F041FFF7E5B80221F8E700F06FFF00284A
:10AAC00022D02846FDF7B6FC04464FF4807000EB18
:10AAD00084000F4F81B207EB8400D0F8102542F0BC
:10AAE0000102C0F810250846FFF7FAF8B8F1000F88
:10AAF0000AD02846FDF79EFC56F82000002803D017
:10AB00000120A040C7F80403BDE8F081B83400205C
:10AB1000006000402DE9FC41DFF8BC80044608EBF2
:10AB20000400002790F930001346C0170E46401C61
:10AB300001D008274CE0B0781946C0F34002204607
:10AB4000FDF754FC0546401C41D0B078410719D4AC
:10AB5000C0070AD04FF0A04000EB8401D1F80007F5
:10AB600020F00200C1F8000707E0002173782046BA
:10AB700000910A460191FFF727F817492046543102
:10AB8000FEF75CFDB078800718D51448317800EBEB
:10AB90008500D0F81025124B1A40C0F810254FF44C
:10ABA000F8524FF4403302EA042203EA01410A4317
:10ABB000D0F810150A43C0F8102509E008EB05008D
:10ABC000327810F8481F41EA8211017000E0042732
:10ABD0003846BDE8FC810000B83400200060004029
:10ABE000FFE0FCFF4FF0A041D1F81015C14011F07B
:10ABF000010000D00120704770B5174D95F858003E
:10AC000008B1082070BD0020411E2A18401CC0B2A7
:10AC100082F830102028F8D300242046FDF7D8FB16
:10AC2000641CE4B20C2CF8D300240C49C0206C65E1
:10AC300081F8000401264020891FC1F800014FF46B
:10AC4000BE70FFF74DF80649F007C1F8040385F818
:10AC50005860204670BD0000B834002006E000E0D7
:10AC600000600040034890F85800002800D0012000
:10AC700070470000B83400200121B1EB507F01D1B2
:10AC8000012070470020704738B50D4600F0FCFEEB
:10AC9000040014D000208DF800006846FCF7C4F9C9
:10ACA000207928B19DF80000FCF7E2F9112038BDA9
:10ACB0000120256020719DF80000FCF7D9F90020E3
:10ACC00038BD00000149024801F0E0BA1435002007
:10ACD000002000402DE9F0410546007916460F4658
:10ACE00000EB40012C4A01EBC00102EB810494F817
:10ACF0002A1011B10820BDE8F081284951F8201030
:10AD00002868FFF7C1FF08B11120F4E7394628464B
:10AD1000FCF7C8F966603869206030004FF0010622
:10AD20002DD03F7F4FF48E712868FFF74EFE4FF411
:10AD3000A2712868FFF749FE28681949C0F8041372
:10AD400028684FEA471140F30730002806DA00F080
:10AD50000F0000F1E02080F8141D03E000F1E02076
:10AD600080F80014286840F3073000F01F0106FA4D
:10AD700001F14009800000F1E020C0F800112868CE
:10AD80000421C0F800150020A061E06184F82900CA
:10AD900044F8140FA675AEE714350020FCC7020076
:10ADA000800002002DE9F05F054600794FF401763E
:10ADB00000EB400303EBC000344B03EB80040020A6
:10ADC000636813B12B68C3F80863A3694FF00009E7
:10ADD0006BB1E06938B1606810B12868C0F80463ED
:10ADE0001120BDE8F09FE2610120216105E0C4F877
:10ADF0002490A261E160C4F81C9094F829100143EA
:10AE000002D1284600F015FF60680028286803D0AA
:10AE1000C0F804630020E4E74FF4A2763146FFF760
:10AE2000D4FDB2464FF4927B59462868FFF7C8FD1F
:10AE300006464FF484712868FFF7C2FD80465146EC
:10AE40002868FFF7BDFD074648EA07003043EBD00E
:10AE500056EA070007D12146286800F0BBFEA16929
:10AE6000606A8142E0D8C4F818900EB10320B8E7B8
:10AE70000FB10F20B5E794F82910012000292968A7
:10AE800001D00860C6E74860C4E700001435002020
:10AE90002DE9F05F054600790B4600EB400101EB20
:10AEA000C000244901EB8004284600F045F810B1A9
:10AEB0001120BDE8F09F62614FF00009C4F82090B6
:10AEC000A36084F828904FF48E784E464146286857
:10AED000FFF77BFD28684FF0010AC0F808A0214663
:10AEE000286801F0D9F8606808BBD5F800B0676938
:10AEF0000FE000BF94F8280008B10F2615E0414686
:10AF00005846FFF75DFD0028F4D02146584601F071
:10AF1000C3F8206AB842F2D3574641462868FFF783
:10AF20004FFD0028F9D02868C760C4F81490304657
:10AF3000BFE7000014350020007900EB400101EB71
:10AF4000C000044901EB80004069002800D00120C6
:10AF500070470000143500200149024801F044BA4E
:10AF600040350020002000402DE9F04105461646FE
:10AF700000790F46154A00EBC00102EB810494F8FA
:10AF8000201011B10820BDE8F081114951F82010BE
:10AF90002868FFF779FE08B11120F4E73946284602
:10AFA000FCF7C4F86660386920601EB1397F284616
:10AFB000FDF768FF28680821C0F800150020A0618F
:10AFC000E0616061012184F82010DCE74035002059
:10AFD00000C802002DE9F05F044600790E4600EB40
:10AFE000C001DFF8F0A017460AEB81053046FFF7F5
:10AFF00043FEB0B168684FF000084FF4047910B117
:10B000002168C1F80893A8694FF0000B80B1E86986
:10B0100048B1686810B12068C0F804931120BDE8F9
:10B02000F09F1020FBE7EF614FF001082E6102E076
:10B03000EE60C5E9067B00254FF488712068FFF7B4
:10B04000D5FC4FF4A2712068FFF7D0FC2068C0F84F
:10B050003465C0F838752068B8F1000F12D0D0F808
:10B06000001241F02001C0F800122079D04600EB18
:10B07000C0010AEB8100406838B12068C0F8049331
:10B080002846CCE701210160EFE74FF4887A4FF4BE
:10B09000A27951462068FFF7A4FC0746494620687C
:10B0A000FFF79FFC06464FF492712068FFF799FC6A
:10B0B000014647EA06000843EBD0227902EBC203BF
:10B0C00008EB8302C2F818B001B10325002ED7D0D7
:10B0D0000F25D5E7403500202DE9F04704460E4600
:10B0E0000079274900EBC00001EB80051746304688
:10B0F000FFF7C2FD30B1204600F044F820B1112026
:10B10000BDE8F0871020FBE76F61AE604FF49077E9
:10B110004FF0000839462068FFF768FC4FF4AC7622
:10B1200031462068FFF762FC2068AA686969C0F8A8
:10B130004425C0F8481520684FF00109C0F8089070
:10B140006868D0B9BA4651462068FFF74AFC0746FE
:10B1500031462068FFF745FC0743F4D010B14FF0AB
:10B160000F0808E02068C0F80C9031462068FFF70F
:10B1700038FC0028F9D0002068614046C0E7000094
:10B18000403500200079054900EBC00001EB80004C
:10B190004069002800D001207047000040350020A1
:10B1A0002DE9F04104460078002834D11B491C48A1
:10B1B000081AC708042000EB07451AA12846FEF725
:10B1C000D7FFA28A28462169FEF77EFF00260120CC
:10B1D00000EB074710E02069805DFBF7FBFE0500F0
:10B1E00009D0112DF7D038462A461BA1FEF7C4FF1F
:10B1F0002846FBF7F1FD761CA08AB042EBD8A18A65
:10B200002069084410F8010C0D2804D10A20FBF72E
:10B21000E1FE1128FAD0BDE8F0810000ACD30200B5
:10B220004CD302005265636569766564206461747D
:10B23000612066726F6D20424C45204E55532E2082
:10B2400057726974696E672064617461206F6E2043
:10B25000554152542E0000004661696C65642072AD
:10B260006563656976696E67204E5553206D657319
:10B27000736167652E204572726F72203078257871
:10B280002E20000010B550B103280CD10220FCF78D
:10B29000DFFE002807D0BDE81040FBF79DBDBDE8EC
:10B2A000104000F0B9BD10BD0078002807D1044857
:10B2B0003B21408876DF002801D0FBF78DBD704729
:10B2C000E02A00202DE9F0418AB0002600960D46C4
:10B2D0000446898840696A46FBF76CFF4FF0010815
:10B2E00048B11A481A49AA88401AC10808EB014017
:10B2F00018A1FEF741FF09A8CDE901600227ADF8CA
:10B300000470ADF806602189A88801AAADDF002885
:10B3100019D1A069002816D00298FCF73CFD00283E
:10B3200011D0009E0EB186F80080182103A8FBF70B
:10B33000B6F88DF80C700494A888ADF81400069641
:10B34000A16903A888470AB0BDE8F08154D3020080
:10B350004CD302004C696E6B20636F6E7465787419
:10B3600020666F722030782530325820636F6E6E01
:10B37000656374696F6E2068616E646C6520636FCD
:10B38000756C64206E6F74206265206665746368F6
:10B3900065642E002DE9F0418D88027900EBC5042B
:10B3A0002273C97BA41D012902D0022904D101E026
:10B3B000008800E0408820802288608882421BD973
:10B3C000164817492B46401A4FEAD008042101EBD2
:10B3D0000840064613A1FEF7D6FE21882846A5DFC1
:10B3E000012790B1112812D0FFF7E0FA024607EBCF
:10B3F00008401CA1FEF7C0FEA179E07981420BD97B
:10B400002846BDE8F041FDF79DB96771F4E7277163
:10B4100030462A462049EDE7BDE8F0814CD30200D2
:10B420004CD3020052657175657374696E67207440
:10B430006F2075706461746520415454204D5455DB
:10B4400020746F202575206279746573206F6E20DB
:10B45000636F6E6E656374696F6E20307825782E29
:10B460000000000073645F626C655F676174746301
:10B470005F65786368616E67655F6D74755F72653F
:10B48000717565737428292072657475726E6564B0
:10B490002025732E00000000FCCB0200F0B58DB01B
:10B4A00006462C226846091DFAF7E0FFBDF80400A5
:10B4B0001F49C2B21D48BDF80050401AC1080420FF
:10B4C00006EBC50700EB01447A732B4619A1204611
:10B4D000FEF759FEBDF80620204622A1FEF74CFEDD
:10B4E000BDF80420204624A1FEF746FEBDF80A2040
:10B4F000204626A1FEF740FEBDF80820204627A1E1
:10B50000FEF73AFE306900280DD02849D1E9040140
:10B51000CDE90B01ADF82E50787B8DF83000326903
:10B520000BA9304690470DB0F0BD00004CD302008F
:10B530004CD3020044617461206C656E67746820AE
:10B540007570646174656420746F202575206F6E5A
:10B5500020636F6E6E656374696F6E20307825307E
:10B56000782E00006D61785F72785F6F6374657428
:10B57000733A2025750000006D61785F74785F6F05
:10B5800063746574733A2025750000006D61785FFF
:10B5900072785F74696D653A202575006D61785F1A
:10B5A00074785F74696D653A20257500D0C7020014
:10B5B00070B58A880C1D00EBC2060D7A09480A494D
:10B5C0002B46401AC008042101EB004007A1FEF7FA
:10B5D000DAFD317BA94200D329462088BDE87040BE
:10B5E000FDF7B0B84CD302004CD302005065657231
:10B5F000206F6E20636F6E6E656374696F6E2030AE
:10B600007825782072657175657374656420612092
:10B6100064617461206C656E677468206F662025B4
:10B62000752062797465732E000000002DE9FC47D7
:10B630008E880746CD8800EBC604214821492B4659
:10B64000401A4FEAD009042101EB094080463246F6
:10B650001DA1A41DFEF797FD172D00D217252088E8
:10B66000A84200D8054665800020207100962388F6
:10B670006288404623A1FEF78EFD21883046B5DF63
:10B6800040B1FFF793F90246012101EB09402DA1DA
:10B69000FEF772FD6079002810D1386900280DD0BE
:10B6A0003449D1E90201CDE90001ADF802606088BA
:10B6B000ADF804003A69694638469047BDE8FC8712
:10B6C0004CD302004CD3020050656572206F6E208F
:10B6D000636F6E6E656374696F6E203078257820B5
:10B6E00072657175657374656420616E2041545490
:10B6F000204D5455206F662025752062797465733E
:10B700002E0000005570646174696E6720415454C6
:10B71000204D545520746F2025752062797465730F
:10B720002028646573697265643A20257529206F45
:10B730006E20636F6E6E656374696F6E203078255E
:10B74000782E000073645F626C655F676174747368
:10B750005F65786368616E67655F6D74755F72655C
:10B76000706C7928292072657475726E6564202565
:10B77000732E0000D0C702007CB58D88064600EB12
:10B78000C5044A8934F8060F904200D80246628008
:10B79000172A00D21722114811496280401AC008A6
:10B7A000042101EB00402B460EA1FEF7ECFC3069B2
:10B7B00078B1607968B11A49D1E90001CDE9000199
:10B7C000ADF802506088ADF8040032696946304631
:10B7D00090470020607120717CBD00004CD30200B6
:10B7E0004CD30200415454204D545520757064616F
:10B7F00074656420746F20257520627974657320E8
:10B800006F6E20636F6E6E656374696F6E20307843
:10B8100025782028726573706F6E7365292E00007D
:10B82000D0C70200F0B587B00C460546898840694C
:10B8300006AAFBF7BFFC012658B10F480F49A288A2
:10B84000401AC00806EB00400D49FEF795FC07B012
:10B85000F0BD069F38780028F9D018216846FAF71D
:10B860001EFE8DF800600195A088ADF808000397D2
:10B87000A96968468847EAE754D302004CD302001E
:10B8800054B302002DE9F04188B00C4605468E1DE8
:10B890008988406906AAFBF78DFC4FF0010848B182
:10B8A00021482249A288401AC10808EB014020A182
:10B8B000FEF762FC18216846FAF7F1FD0195A088B1
:10B8C0000699ADF80800039132882B89002704F10E
:10B8D00012009A4202D17389022B0DD0A9898A42A3
:10B8E0001ED1A96900291BD08DF8007004907089C1
:10B8F000ADF81400A96911E0002911D0FCF74BFA4A
:10B9000020B10699022081F8008002E006980770B5
:10B9100003208DF80000A969002901D068468847F6
:10B9200008B0BDE8F081000054D302004CD30200FF
:10B930004C696E6B20636F6E7465787420666F72ED
:10B940002030782530325820636F6E6E65637469DD
:10B950006F6E2068616E646C6520636F756C642027
:10B960006E6F7420626520666574636865642E007E
:10B970000068012803D0022801D000207047012070
:10B98000704700000449084490F93000082801DBA2
:10B990000120704700207047B83400200449084453
:10B9A00090F93000082801D201207047002070472C
:10B9B000B834002010B50C46017A052908D0407A29
:10B9C00038B1084808A102682046FDF7E5FF00E00D
:10B9D0001AB106A12046FDF7DFFF2046BDE8104062
:10B9E000FDF7E7BFF02B0020257300000D0A0000D3
:10B9F00038B5C3880D46044633B114A0009015A293
:10BA000016A12846FDF7C8FF217A05291CD0607AC7
:10BA100048B1A088FEF718FA164951F8202016A15F
:10BA20002846FDF7B9FFA0880021FEF73DFC03463C
:10BA30001049207A143951F8202001B02846BDE879
:10BA400030400EA1FDF7A8BF38BD00001B5B306D74
:10BA5000000000001B5B313B33316D0025734C6FE0
:10BA600067732064726F70706564202825642925CF
:10BA7000730D0A00F02B0020257300003C25733E57
:10BA80002025733A200000000349884201D1034871
:10BA9000704700207047000000200040402B00202D
:10BAA00070B50546FCF7B5FF134C40B1D4E904026C
:10BAB0004FF08071411842F10000C4E904100021E8
:10BAC0002846FCF7F7FE30B1606820B1606800F0EE
:10BAD00053FA0020606001212846FCF7EBFE18B104
