:1000000000000120750300005D030000811D000059
:1000100061030000630300006503000000000000AE
:100020000000000000000000000000006703000066
:1000300069030000000000006B0300006D03000076
:10004000A92C00006F030000053300006F030000BF
:100050006F030000253100006F0300006F030000F4
:100060006F0300006F0300006F0300006F030000C8
:100070006F0300006F0300006F0300006F030000B8
:100080006F0300006F0300006F0300006F030000A8
:100090006F0300006F0300006F0300006F03000098
:1000A0006F0300006F0300006F030000C9340000FD
:1000B0006F0300006F03000000000000000000005C
:1000C0006F0300006F0300006F0300006F03000068
:1000D0006F0300006F0300006F03000000000000CA
:1000E0000000000000000000000000000000000010
:1000F0000000000000000000000000000000000000
:1001000000000000000000000000000000000000EF
:1001100000000000000000000000000000000000DF
:1001200000000000000000000000000000000000CF
:1001300000000000000000000000000000000000BF
:1001400000000000000000000000000000000000AF
:10015000000000000000000000000000000000009F
:10016000000000000000000000000000000000008F
:10017000000000000000000000000000000000007F
:10018000000000000000000000000000000000006F
:10019000000000000000000000000000000000005F
:1001A000000000000000000000000000000000004F
:1001B000000000000000000000000000000000003F
:1001C000000000000000000000000000000000002F
:1001D000000000000000000000000000000000001F
:1001E000000000000000000000000000000000000F
:1001F00000000000000000000000000000000000FF
:10020000354936480A1A02D0072291438D463449AF
:1002100034480A1A06D00722914381F30988022242
:1002200082F3148830483149314A00F044F83148AB
:100230003149324A00F03FF831483249324A00F041
:100240003AF832483249334A00F035F832483349F7
:10025000334A00F030F833483349344A00F02BF881
:1002600033483449344A00F026F8344834490022EF
:1002700000F02CF833483449002200F027F83348C6
:100280003349091A082902DB002202604160314A21
:1002900090471F481F49884205D00268043003B4C4
:1002A000904703BCF7E700208646EC46002000217B
:1002B000294A9047FEE7884207D0521A05D00378B2
:1002C00001300B700131013AF9D17047884202D0F8
:1002D00002700130FAE770470000012000E00020C2
:1002E0000000012000000120E06600001400002052
:1002F00058000020D0030000D00300002C5800005C
:10030000E06600001400002014000020BC5800002B
:10031000BC580000BC580000BC580000BC5800008D
:10032000BC580000BC580000BC580000DE6600004D
:1003300024670000580000205800002058000020CA
:10034000180F0020180F0020180F0020180F002091
:10035000182F00209D030000853E0000FEE7FEE709
:10036000FEE7FEE7FEE7FEE7FEE7FEE7FEE7FEE765
:1003700000F002B8FFF7FCBF0F484FF007018843B9
:1003800085460E4880470E48016841F470010160BF
:10039000BFF34F8FBFF36F8FFFF732BF09480A4992
:1003A0000A4A884207D0521A05D0037801300B70F0
:1003B0000131013AF9D17047000001207542000077
:1003C00088ED00E0A8580000000000201400002084
:1003D000F0B595B01D46164608460C4602F0C8FA20
:1003E0001A9B0D93CDE9086500252B46082205A927
:1003F00020460A958DF82C500C9502F0D6FA079BF2
:100400000293069B03939DF814308DF8115003F06E
:100410000302012A1DD1BDF81420059DC3F3C203B8
:10042000C2F383168DF81030B20008230EA92046BF
:1004300002F0BBFAC5F3952508AB0093324602AB38
:100440000EA9284600F0D0FB204602F095FA15B020
:10045000F0BD022AF8D1BDF81650C3F3C203C5F3AC
:1004600089158DF810300827082D2E4628BF08263C
:100470003B4632460EA9204602F097FAAD1B08AB68
:1004800002AA31460EA8374400F012FC002DEBD131
:10049000DAE7704707B5044B0093044A4023FFF79F
:1004A00097FF03B05DF804FB010500005900002030
:1004B00030B5104D0FCD89B06C460FC495E80F00D4
:1004C00084E80F004FF0FF330622CDE90023CDE989
:1004D000023309484FF0EB7300226946069302F09D
:1004E00021FB08B100F095FC044B00221A7009B002
:1004F00030BD00BFBC580000140000205800002090
:1005000038B50D4B0D4D002018700D4804782D5D49
:10051000D2B21C4665B1043003F022FC08B100F0F1
:1005200078FC084B1A7812B12378002BFBD038BD29
:100530000C3003F0EDF9F1E799000020800700206E
:10054000140000205800002008B50848084A037825
:10055000D35C33B1043003F08DFBBDE80840FFF7F6
:10056000A7BF0C3003F072F9F7E700BF14000020BA
:1005700080070020FFF79CBF08B5FFF7FBFF04488A
:10058000042100F099FA034B01225A7108BD00BF03
:100590008458000028000020037813F0040216D0CD
:1005A00003F00303012B03D0022B09D00120704775
:1005B0000A6800880232C0F3831002440A60F5E73B
:1005C0000B684288023303EB92130B60EEE7104690
:1005D000704700002DE9F04F044685B0861C0020CE
:1005E0000F46154600F020FD454801683960D0E906
:1005F0000132134401335B1A824600F21C4700F5B6
:10060000836900F21448B3421BD30020002D72D03E
:1006100004F00F039B0143F0050363F30F00DAF8C6
:100620000020DAF808301340033316444AF8230058
:100630000020CAF8006000F0F9FC012005B0BDE818
:10064000F08F0121384601F012FD484601F02AFDE5
:10065000404601F027FDDAF80400DAF808B000900F
:1006600000EA0B0003300AEB80006946FFF794FFB5
:10067000009B50BB0BEA03020AEB820203F1020C5F
:10068000D2680192013303EA0B0B0AEB8B0B02F0E9
:100690000302012ADBF80C10CDF800C023D0022A97
:1006A00016D08346404601F000FD10B1009BCAF809
:1006B00004305946384601F0DAFCDAE901231344E4
:1006C000DAF8002001339B1A9DE70BEA0300C9E723
:1006D000BDF80630C3F3891303334FEA114B0CEB1B
:1006E00093030093DEE7BDF80430C3F383134FEAAE
:1006F000114B6344F5E7A40544F006008FE700BF03
:100700006C0100200B4B0C48FF2210B59A600022B0
:10071000C3F81824C3E90022C3F81424012283F883
:10072000202402F0DEF8044610B9044802F047F92C
:10073000204610BD6C0100209458000010590000A4
:1007400030B50A4C71B10A4A0A49121BD20800237B
:100750009A4201D1002030BD31F82350854202D0A9
:100760000133F5E7034654F83300F4E72C58000052
:100770008458000014000020094B013903EBC0002D
:10078000032909D8DFE801F00A02040604207047B3
:100790000079704740797047002070470220704709
:1007A0002C580000034BD3E90030C31A584258417B
:1007B000704700BF6C0100202DE9F04385B0FFF7C2
:1007C000F1FF0646002840F0F5807B4DC5F818047F
:1007D000BFF34F8F6B68AC6800932340033305EB86
:1007E00083006946FFF7D8FE009B18B1D5F818249E
:1007F000002A5FD004EA0302991C013305EB820250
:10080000234005EB8303D268DB68029302F0030305
:10081000022B0192009160D1BDF806306748C3F306
:100820008917502FB84628BF4FF0500868F38F1330
:1008300008F10801ADF8063002F06BF80646002812
:1008400000F0A38002F094F80023082201A93046AA
:1008500002F0A1F8009924EA01020132B8EB820FFC
:100860004FEA820332D95FFA88F85BB32140DCB2E9
:10087000A8EB040803315FFA88F9A046504C05EB59
:10088000810108234246304602F085F834B108F170
:1008900008034A462146304602F07DF8009B0337A4
:1008A00003EB97070097D5F81834002B49D1D5F8FA
:1008B000104459E02A689A428FD86A60304605B0E1
:1008C000BDE8F0833E491C469946DAE70C40E11C3E
:1008D0000823424605EB8101DDE7012B55D1BDF828
:1008E00004303648C3F38311062928BF062161F37B
:1008F000891302318900ADF8043002F00AF8064687
:10090000002842D002F034F80023082201A9304622
:1009100002F041F80027BDF80420C2F38312BB00A7
:10092000974203F10803BED200994A1C21400331CB
:10093000009205EB81010422304602F02CF80137C9
:10094000E9E7304602F018F8FFF72CFF80F00100CD
:10095000C6B2B3E7E3685B7923B1236831461B680D
:1009600020469847E3681C68002CF3D1304602F01B
:1009700003F8204600F058FBD5F818340BB9009B5B
:100980006B60002000F052FBDEE7D5F8104454B94C
:100990000C4B0D480D49C01AC008000440F002007D
:1009A00000F062F8D0E7236820469B689847E36828
:1009B0001C68ECE7002681E76C01002094580000D9
:1009C000780100202C5800005C580000F958000005
:1009D0002DE9F74F224D04460F46924601A9012208
:1009E0001846D5F808909B46FFF7F4FD20B3019E0A
:1009F0004FF00008B21CD84508EB020126D1194877
:100A0000002101F0EDFA80F31000000440EA1440E8
:100A1000E400731C04F0380403EA090306EA09063B
:100A200044F0010405EB8303033644EA881444EAE6
:100A30008724D86045F8264095F820341BB1FFF78D
:100A4000BBFE0028FBD103B0BDE8F08F09EA01012D
:100A500005EB81015AF82830CB6008F10108CAE79C
:100A60006C0100208805002000231A46FFF7B0BF64
:100A700007B50123019201AAFFF7AAFF03B05DF8B1
:100A800004FB1FB5CDE90123069B039301AA0323B1
:100A9000FFF79EFF05B05DF804FB1FB5CDE900230D
:100AA000069B0293079B03936A460423FFF790FF7C
:100AB00005B05DF804FB000030B50F49D1F81024F3
:100AC00003460020144634B9DC6820714AB9C1F8E5
:100AD0001034226030BDE4682579854206D0246850
:100AE000F1E7D268116821601360F3E701300A284A
:100AF000E8D14FF0FF30EDE76C010020094A38B52E
:100B00000123D2F8104482F820341D4604B938BDC0
:100B1000E3685D71236820465B689847E3681C685A
:100B2000F4E700BF6C01002007B503460846197AB8
:100B3000052911D05B7A2BB1094A0A49019001F0CD
:100B400011FB01980849019001F00CFB019803B0DA
:100B50005DF804EB01F0FBBA002AF8D0F2E700BF21
:100B60001C590000215900004159000030B5C388CC
:100B700085B004460D4633B1144A00921449154A13
:100B8000284601F0EFFA217A05291DD0637A4BB18E
:100B9000A088FFF7F1FD104B104953F8202028469C
:100BA00001F0E0FA227A0E4BA08853F8222003923B
:100BB0000021FFF7C5FD039A0A490346284605B000
:100BC000BDE8304001F0CEBA05B030BD1C59000080
:100BD0002C59000024590000A85900002159000098
:100BE000CC590000445900002DE9F04385B01F4660
:100BF0000C9D002395F80C902B7306460C469046EE
:100C000029463846FFF7B2FFB8F1060F09D8DFE8EA
:100C100008F00412181F283340003146284601F01E
:100C2000A1FA002229463846FFF77EFF85F80C908E
:100C300005B0BDE8F08322683146284601F092FAFB
:100C4000EFE7D4E900233146284601F08BFAE8E7C4
:100C5000A36800933146D4E90023284601F082FAC4
:100C6000DFE7E3680193A36800933146D4E90023EA
:100C7000284601F077FAD4E723690293E3680193E9
:100C8000A36800933146D4E90023284601F06AFAAC
:100C9000C7E76369039323690293E3680193A36839
:100CA00000933146D4E90023284601F05BFAB8E707
:100CB00008292DE9F74F80460E4617461C463CD8BA
:100CC000002593F80C901D7319461046FFF74EFF50
:100CD000DFF888A0DFF888B0AE4231D918F80520D7
:100CE0005946204601F03EFA0135082DF4D1194944
:100CF000194DDFF870A0204601F034FA4FF0000BD8
:100D00005E4522D918F80B207E2A05D8104601929C
:100D100004F0C8FC019A00B92E225146204601F089
:100D200021FA0BF1010BBBF1080FE9D10122214699
:100D30003846FFF7F9FE84F80C9003B0BDE8F08F59
:100D40005146204601F00EFACEE72946204601F032
:100D500009FAE6E7585900005659000054590000B6
:100D60004E5900005A590000044B1A5C012393406D
:100D70004FF0A042C2F80C35704700BFE4590000A4
:100D8000044B1A5C012393404FF0A042C2F808358F
:100D9000704700BFE459000008B50020FFF7F0FFDE
:100DA0000120FFF7EDFF0220FFF7EAFFBDE8084052
:100DB0000320FFF7E5BF0000054A4FF0A043105C99
:100DC000D3F8103523FA00F0C04300F0010070475B
:100DD000E0590000C20708B501460CD54FF0A0430A
:100DE0000322C3F84427C3F84827C3F84C27C3F8A5
:100DF0005027FFF7D1FF8B070AD54FF0A0430C22F5
:100E0000C3F83427C3F83827C3F83C27C3F8402772
:100E100008BD1FB50021039001AA44F20100CDE9ED
:100E2000011100F003F805B05DF804FB38B5054684
:100E300072B6FFF763FEFFF7BFFC0028FBD1114B32
:100E4000114C1249E41AE40824042A4644F0010033
:100E5000FFF70EFE0E4B1B68DB0700D500BE0D49E9
:100E600044F00200FFF700FEBFF34F8F0A490B4B1F
:100E7000CA6802F4E0621343CB60BFF34F8F00BF38
:100E8000FDE700BF2C5800005C580000E859000046
:100E9000F0ED00E0F959000000ED00E00400FA0573
:100EA0004B1C30B5DB00044612F003009BB20DD1A1
:100EB000074D2A601A44074B1A60074B1870074BFE
:100EC0001870074B1C80074B198030BD0720FCE7CA
:100ED000300600202C0600202806002038060020BE
:100EE00034060020360600202DE9F047274F3B88C6
:100EF0008B4206460D46904644D3002000F094F8FD
:100F0000234B24481978244B00881C78E2B2844291
:100F100038BF0132C9B234BFD2B2002291422BD0C5
:100F20001C781A78D1B2904286BF0131C9B2002133
:100F30001970002000F07AF84FF6FF739C4223D01E
:100F4000DFF85C90D9F800204FEAC40A42F83480F8
:100F500002EBC4039EB195B1104B38881B682A463A
:100F600004FB0030314604F0D5FBD9F8003053447F
:100F700000209D80BDE8F0874FF6FF74D9E7002080
:100F80009880F7E70920F5E70420F3E7340600200E
:100F90003806002036060020280600202C060020F7
:100FA00030060020F8B5114C114D264622782B78DA
:100FB0009A4200D1F8BD0F480F4A2378126807887B
:100FC0000E4802EBC301006852F83320898803FB06
:100FD000070090470A4922780988D3B2914286BF18
:100FE0000133DBB200233370E0E700BF3806002096
:100FF0002806002034060020300600202C060020A1
:101000003606002072B6024A136801331360704737
:101010003C060020034A1368013B136003B962B623
:10102000704700BF3C060020FFF7ECBFFFF7F2BFA0
:1010300070B5064D0646002455F8043B0BB130460A
:1010400098470134042CF7D170BD00BF4C06002036
:10105000033080B240F2FE33984230B51FD8134BB4
:101060001A783AB91C895D892C440444A4B2B4F5B9
:10107000806F0AD91A7DAAB99A8BDC8B224402446C
:1010800092B2B2F5806F0DD801220A801446142264
:1010900002FB04335A8910445881002030BD48F2C5
:1010A0000860FBE748F20660F8E700BF8006002012
:1010B0000B4A0C4B5188142000FB0131CB6833B92B
:1010C0000420496810700122074801F0E1BA07497D
:1010D0000523137002238B80012209680023F3E7A4
:1010E0006406002080060020000000204807002041
:1010F00007B5002305490093054A096805480823F8
:1011000001F030FA03B05DF804FB00BF480700208F
:10111000145A00000000002007B500230146009388
:10112000034A0448082301F01DFA03B05DF804FBEC
:101130000C5A00000000002013B500230C46009359
:101140000146084A0848042301F00CFA38B9074957
:10115000142303FB04140123237402B010BD48F2CE
:101160000D60FAE7085A0000000000208006002009
:1011700037B50A480A4B42689C881968538803258A
:10118000033305709BB2002000909B0001EB8401AB
:10119000044801F0E7F903B030BD00BF6406002049
:1011A000480700200000002010B50146044800F068
:1011B000A2FE1C220446002104F0D5FA204610BDF0
:1011C0003407002068B10268084B9A4209D1406890
:1011D000074B984207D00133984214BF03200120E7
:1011E0007047032070470020704700BFDEC0ADDEAF
:1011F000FE011EF14388033300EB830399420BD3B6
:1012000082884FF6FF739A4208D0038833B1806812
:10121000431C5842584170470220704701207047D4
:101220002DE9F0410D460223154F2B80164600F59F
:10123000805100F108044FF001088C420ED223685F
:1012400001330BD02046FFF7D5FF48B10EB186F829
:101250000080022809D14FF480632B80BDE8F08123
:10126000A3683A68934200D93B602B8862880333B5
:1012700013442B806388033304EB8304DDE700BF52
:101280007806002038B5144B14220D4602FB0030BE
:101290002B68446804F58051A3B15C88033403EBE8
:1012A00084048C4215D22368013312D02046FFF704
:1012B000A1FF012808D002280BD00028F1D12C6012
:1012C000012038BD0834ECE76388033304EB830462
:1012D000E7E70020F5E700BF80060020426873B50D
:1012E00004460D466AB3244BD9688A4229D31B6948
:1012F0009A4226D812F0030323D120490089098994
:1013000088421ED12068916888421AD11C494868D9
:10131000824203D900F5805082420DD389698A4206
:101320000CD901F580518A4208D201222A80B3FAF1
:1013300083F0400902B070BD1A46F7E748F209632E
:10134000F5E700232B801E460196288801A9FFF7A8
:1013500099FF30B92B8801339BB2012B2B80F3D935
:10136000E8E7019B226899689142EED16360034BE4
:101370001B892381DEE700BF0000002064060020F7
:10138000800600202DE9F8431C461D4B1B780646BD
:101390000F46154673B382B37CB3DFF86C804FF011
:1013A0001409A388012B02D948F2096020E009FB47
:1013B00003F318F803302BB9A0882146FFF762FF2A
:1013C00020B92060A3880133A380EAE723681EB117
:1013D000998832889142EFD11FB119883A88914299
:1013E000EAD19A68C5E90023064B1B892B810020AE
:1013F000BDE8F88348F20160FAE748F20460F7E7D5
:101400005C060020640600208006002008B5074B1B
:101410005888191DFFF736FF18B1BDE80840FFF7DF
:10142000A7BEBDE80840FFF743BE00BF640600202A
:101430002DE9F04FA44FDFF8B49289B00646B846C4
:101440003B6823B9A148494600F08FFD3860D8F8C1
:10145000005029784B1E052B07D8DFE813F0220037
:101460007C007C000E010E01660148F20E6414221D
:10147000002103A804F077F941F61D539C4208BFF0
:101480000024D8F8003004941A78013A052A00F2B2
:10149000F681DFE812F0E201E601060216022202FE
:1014A0002C022EB18A4B00225A604FF40644DEE72C
:1014B0002B79032B1DD8DFE803F015022B36854965
:1014C0000B78022B08461AD00B7D022B4FF001033C
:1014D00017D114225343C2180020C8545068FFF794
:1014E0001BFE03E001232B71FFF702FE002800F032
:1014F000BE80774B00225A6048F20D64B7E70023A4
:10150000E7E7734A13700023536041F61D54AEE7BA
:1015100071497248002302222B718A8009680122D6
:1015200001F0B6F8E2E76C4C00262E712068694D98
:10153000FFF7F2FD6A4BD4F800C05A8814235343D6
:10154000EA18EE5451682160A188C2F804C01181E4
:101550000222A280CAE7B5F814A0AA7DDFF874B110
:10156000AEB1022AEB8806D9142101FB0AB1DA1CBC
:10157000088902440A81142202FB0ABAC3F57F4398
:10158000BAF80A20FD331344AAF80A308DE7142371
:1015900003FB0AB318895C6804EB8004062A69D847
:1015A000DFE802F0274E36441D5A040041F61D5470
:1015B000AA7DEB88022A06D9142101FB0AB1DA1CA4
:1015C000088902440A81142202FB0ABAC3F57F4348
:1015D000BAF80A20FD331344AAF80A3047E7414815
:1015E000414900234360AB690360FFF777FE0028A1
:1015F0005BD00223AB75002300930423EA18214635
:10160000364800F0AFFF002831D048F20D64CFE734
:101610002B69002B14BF03230123AB750023009318
:1016200005F10C02042304F10801E9E70123AB757D
:101630000022EB8800922A699B0004F10C01DFE78D
:1016400003290CBF05230623AB7500230093042355
:1016500005F10802E118D3E70623AB75224B198880
:10166000204B5868FFF768FD04460028A0D109B058
:10167000BDE8F08F48F20E649AE7002E7FF415AFB4
:101680002B79012B34D0022B3FF43FAF002B7FF49A
:10169000ECAE02232B710DF10A01EB68039303A852
:1016A000CDE90466FFF71AFE10B948F20964DEE6D8
:1016B0000498BDF80A108388EB8003882B81FFF71C
:1016C0003BFD044627E000BF7C06002034070020D5
:1016D0005C06002080060020480700200000002053
:1016E00064060020400600205407002074060020F5
:1016F000804B03AA3146A81DFFF744FE7D4B0446EC
:1017000068B999880498FFF717FD044648F2096301
:101710009C423FF4FAAE002C7FF4A9AEA7E7082262
:101720003146184604F01FF8F0E7002E7FF4BDAEF6
:10173000714B1A7BB2B11E731A78013A062A3FF632
:1017400094AE01A151F822F0EF1700001518000027
:1017500033180000391800006B1400003F18000017
:10176000511800001A78072AE6D801A151F822F092
:10177000911700003917000039170000B717000053
:10178000CB170000EB170000EB170000B3170000A9
:101790001A895A4901321A8100225A801A730A782A
:1017A000B2FA82F252099A720A7DB2FA82F25209B0
:1017B000DA72012207E0524958688A884088033269
:1017C00002448A8002221A70B6E74C4C5A884C496F
:1017D000142505FB0242086854685060888810810F
:1017E00002228A800C600622EDE70722EBE79A7A54
:1017F00032B9DA7A8AB900221A705A805A6084E6BD
:101800003E4900229A72CA68002AF2D1097C002956
:10181000EFD05A80FFF7FAFD53E70022DA72374A19
:10182000116A0029E7D192F82420002AE3D001228E
:10183000EFE7FFF79DFC44E7FFF73AFC41E72F4A4B
:101840005B88142101FB03235868FFF765FC38E728
:1018500000225A60FFF74CFC33E700238DF80C3070
:101860000DE001228DF80C201A89ADF818209A8815
:10187000DB680593ADF81A2000238DF81C3003A80F
:10188000FFF7D6FB002649461E48C8F8006000F066
:1018900097FB1D48012100F0F6FB00287FF4D0AD36
:1018A000E5E602228DF80C201A89ADF818209A88F6
:1018B000ADF81A20DA689B7D05929A1F5342534176
:1018C000DBE703228DF80C20DA88ADF818201A899E
:1018D000DB68ADF81A200593D1E704228DF80C20BF
:1018E000DB88ADF818300023ADF81A30F3E7052394
:1018F000B4E700BF580700206406002080060020DF
:101900004807002034070020440700204068FFF704
:101910008FBD000008B50548012100F09CFB18B9F7
:10192000BDE80840FFF784BD08BD00BF44070020A4
:101930002DE9F3419846374B1B7806460D46002BA0
:101940005CD000295DD009884FF6FF7399425BD0C7
:101950006B88002B58D06B689B0758D14AB92F89E8
:101960000DF102013846FFF773FB30B102B0BDE85C
:10197000F08113885788ADF8023001A8FFF714FCF6
:10198000044660B9BDF80230234A142101FB032349
:1019900058890338C01B588148F20760E6E780F891
:1019A000008000238375BDF8023083826B68036179
:1019B00001211A4800F05BFB2B882381B8F1030F4B
:1019C0006B88A38004BF0423A3754FF0000508BFF4
:1019D0003368E06008BFA3611148E780658101A911
:1019E00000F0B3FA36B1E36833600E4B75601B89C3
:1019F000B5723381FFF78EFF0020B7E748F2016030
:101A0000B4E748F20460B1E748F20360AEE748F299
:101A10000260ABE75C06002080060020780600200C
:101A2000340700206406002008B503460748026812
:101A3000042A08D00168064A42F82130012100F04A
:101A400016FB002008BD48F20B60FBE750070020A2
:101A50004C0600202DE9F04F89B01422002103A884
:101A600003F081FE774A137803F0FF01009190465E
:101A70003BB103A8FFF7DCFA0027384609B0BDE800
:101A8000F08F101D00F00BFB0028F5D14FF0102354
:101A90004FF080525B69116952696B4C581C08BF4A
:101AA00002FB01F323616949A3F54053002220465C
:101AB000E36000F025FD019407460028DDD164496C
:101AC0006448DFF8A4B11C238C2200F001FABA4666
:101AD0003D464FF003093C46019BDE6856443046C4
:101AE000FFF770FB012862D0032817D000283DD1F2
:101AF00059494FF0140C0CFB04FC01EB0C0201F8EB
:101B00000C0056600CF110020CF1080C0A4430462F
:101B10006144FFF785FB45F0020545E03268531C40
:101B200002D04E4B9A4234D1321D06F580511068D6
:101B300001302ED104329142F9D1DBF800203AB9BC
:101B400002220123CBF80060ABF8042000930BE0E5
:101B500014226243404B022099189854404A4E6028
:101B6000548001340881A4B245F001050AF5805A79
:101B7000BAF5405FB0D1B9F1010F98BF0025EDB2C1
:101B8000022D03D0062D31D0002D39D148F20A673D
:101B900073E7314914226243881809F1FF3946601E
:101BA000032088541FFA89F90134A4B2DEE7009BB0
:101BB0006BB1294B14226243991802209854DBF828
:101BC00000204A60264A088154800134A4B20022D1
:101BD0002449CBF800603046FFF722FBBBF8042015
:101BE000022A0CBF042208221543BFE7012388F80C
:101BF000003003A80023C8F80430FFF719FA3CE7C7
:101C000002A8FFF7D1FAC8B10123013D03700A2DE4
:101C100009D8DFE805F006080608070807080F11CD
:101C20000F000023037102A90A4800F08EF9FFF7A4
:101C300071FE22E70323F5E70223F3E748F2076783
:101C40001BE700BF5C06002000000020606200006F
:101C5000A80600203407002080060020DEC0ADDE8C
:101C6000640600204C0700204807002073B50D468D
:101C70000446C8B1C1B10DF10601FFF72FFBB0B1A9
:101C80000C4BBDF806006668142202FB00300121EF
:101C90000C3000F0ECF963682E600C336B600123AC
:101CA000A372002002B070BD48F20460FAE748F267
:101CB0000960F7E78006002013B50446A8B10DF1CE
:101CC0000601FFF70BFB98B10C4ABDF80630142152
:101CD00001FB0323DA6872B1A27A62B1DA680020EC
:101CE000013ADA60A07202B010BD48F20460FAE76F
:101CF00048F20960F7E748F20560F4E78006002043
:101D000002230022FFF714BE18B103230022FFF7BD
:101D10000FBE48F2046070470F4B1B7807B5A3B1A4
:101D200001A8FFF741FA98B10623037001A90B48F7
:101D300000F00BF90A4B1A780AB101221A73FFF767
:101D4000E9FD002003B05DF804FB48F20160F9E70B
:101D500048F20760F6E700BF5C0600203407002069
:101D60006406002007B5ADF80600ADF804100DF1CB
:101D7000060001A9FFF706FB03B05DF804FB0000B5
:101D80001EF0040F1CBFEFF309800AE0EFF3088098
:101D90000549064A884201D8904202D88D464FF044
:101DA0000000034B184700000000012000E0002065
:101DB000D91D0000BFF34F8F0549064BCA6802F4D6
:101DC000E0621343CB60BFF34F8F00BFFDE700BF5E
:101DD00000ED00E00400FA052DE9F3470546FEF7A3
:101DE0008DFEFEF7E9FC0028FBD12D4C2D482E4B33
:101DF000241AE40824049F6A44F00104002D49D009
:101E0000AA692A492046FEF733FEEB680193AB68C6
:101E1000274900932046D5E90023FEF73EFEEB69F3
:101E200000932449D5E904232046FEF72AFE1E4BE1
:101E3000DB6A990703D520492046FEF715FEDFF837
:101E40008890DFF888A000264FF0010808FA06F312
:101E50003B4206D059F826201AB151462046FEF7DB
:101E600007FE01361A2EF1D13A0605D50E4B13495D
:101E70005A6B2046FEF7FCFD3B0405D50A4B104982
:101E80009A6B2046FEF7F4FD2846FFF793FF02B059
:101E9000BDE8F0870B492046FEF7E6FDC7E700BF27
:101EA0006C5800002C58000000ED00E01C5A0000A7
:101EB000315A0000665A0000C15A0000105B000051
:101EC000305B00008E5A00000C600000055B0000D3
:101ED00010B561B1B2FBF3F403FB1424A4B244B90E
:101EE000C0E9001484608281C381204610BD0E20A9
:101EF000FCE70920FAE737B550E8013F9DB2C489F5
:101F000025448489A54228BF2D1B0489A54202BF10
:101F1000BFF32F8F002207E0C5EA030540E8015414
:101F2000002CE9D14FF001028DF803200193019BB1
:101F30009DF803200B6002F0FF0322B10B880068BC
:101F4000184403B030BD1846FBE70A884B889A4214
:101F500009D150E8012FC2EA024240E80123002BD8
:101F6000F7D1012070470020704737B550E8023F95
:101F70001FFAA3F5C488A54202BFBFF32F8F00222A
:101F80000DE0C48925448489A54228BF2D1BC3EADE
:101F9000054540E80254002CE8D14FF001028DF8CD
:101FA00003200193019B9DF803200B6002F0FF03C7
:101FB00022B14B880068184403B030BD1846FBE7D7
:101FC0000A884B889A4209D150E8022FC2EA22427D
:101FD00040E80223002BF7D1012070470020704712
:101FE00010B5034653E8000F0A4643E8002494F076
:101FF000000FF7D110BD10B5034653E8000F40EABB
:10200000010243E8002494F0000FF6D110BD10B592
:10201000034653E8002F42EA010043E8000494F02D
:10202000000FF6D110BD10B5034653E8000F00EACB
:10203000010243E8002494F0000FF6D110BD10B562
:10204000034653E8002F02EA010043E8000494F03D
:10205000000FF6D110BD10B5034653E8000F00EB9A
:10206000010243E8002494F0000FF6D110BD10B532
:10207000034653E8002F02EB010043E8000494F00C
:10208000000FF6D110BD10B5034653E8002FA2EBA8
:10209000010043E8000494F0000FF6D110BD0121C7
:1020A000FFF7A9BF0121FFF7B2BF0021FFF7BBBFB8
:1020B0000021FFF7C4BF10B590B1D0E9012301683A
:1020C0009B1ADBB20A60013BDBB2FF2B026802D134
:1020D0000020107110BD11684C1C14600B70F2E7E9
:1020E0000E20F7E738B504460020FEF79DFF226872
:1020F00063681168994213D9481E106011F8015C99
:10210000E368218A01FB0535A36811791B1ADBB24C
:10211000994200D213710020FEF788FF284638BD8F
:102120000025F8E738B5054600200C46FEF77CFF91
:102130002A681368591C1160E968641A298AB4FB7B
:10214000F1F41C70BDE838400020FEF76FBF8268D4
:1021500010B504462AB14369016800699847002315
:10216000A36010BD0EB403B5039921B104AB01AA5D
:10217000019300F077F802B05DF804EB03B070470C
:102180000A2938B504460D4602D10D21FFF7F8FFA4
:10219000A3682268591CA160D554D4E901329A423F
:1021A00004D32046BDE83840FFF7D1BF38BD00005A
:1021B0002DE9F84F9846DDE90A43154682460F4659
:1021C0000A464FF00109AA420FD2C14538BFC146A5
:1021D00013F0010B01D16CB900240126B8F1010FF5
:1021E0001BD908F1FF386E43F8E709F10109B2FB8A
:1021F000F5F2E8E79B070ED5B8F1000F0CBF3026CB
:102200002026A145E9D2013C31465046FFF7B8FFF0
:10221000002CF6D1E0E72026F3E7B7FBF6F39D426A
:10222000E1D9DFF83C80B7FBF6F3504618F803100D
:1022300006FB1377FFF7A4FF3346AB42B6FBF5F678
:10224000F1D2BBF1000F02D00CB1A14501D3BDE822
:10225000F88F20215046013CFFF792FFF4E700BFC2
:10226000746000002DE9F74F05461746884600299F
:1022700000F0428118F8011B49B92B7B002B00F0BC
:102280003B81284603B0BDE8F04FFFF760BF25292A
:1022900040F0B780002698F800302D2B424608F118
:1022A000010823D0302B24D02B2B25D000242A2B1F
:1022B00002F1010123D13B681A1D1B683A601C44DE
:1022C0000A4613782E2B26D101324FF0000A104611
:1022D00010F8011BA1F1300CBCF1090F1DD80A2325
:1022E00003FB0A13A3F1300A0246F0E746F00106A9
:1022F000D1E746F00206CEE746F00406CBE711F838
:10230000013CA3F130000928DBD80A2202FB043487
:10231000303C0A46CBE74FF0000A12F8011B01F0EF
:10232000FB0068289046F8D0782909D86F290CD886
:10233000632962D022D8252963D0582900F08880EB
:1023400098F80030002B95D197E770390829F7D815
:1023500001A353F821F000BFD32400004123000063
:102360004123000061240000412300003F240000BD
:10237000412300004123000051240000642901D0C2
:102380006929DDD13A68D2F80090111D89EAE97215
:102390003960A2EBE9724FF0010B092A35DCD34515
:1023A00038BFD3462CB1B9F1000F01DB720700D55D
:1023B000013CB30702D5BAF1000F03D0F00701D4F6
:1023C0004CBB0024B9F1000F2DDAC9F100092D2111
:1023D0002846FFF7D5FE06F00302022A04D1BAF11F
:1023E000000F01D11CBB0024CDE9004653460A2250
:1023F00049462846FFF7DCFEA2E73B681A1D19781C
:102400003A602846FFF7BCFE9AE70A230BF1010B5E
:10241000B2FBF3F2C1E7A345D4D220212846013C08
:10242000FFF7AEFECCE77107D5D52B21D0E7A3454A
:10243000DAD230212846013CFFF7A2FED2E7396804
:10244000CDE900460A1D3A6053460A220968D0E7E2
:1024500039680A1D3A60CDE9004653461022F5E777
:102460003B681A1D3A6016F00106D3F8009028D197
:10247000B9F1000F03D0484603F0A8F90646B4426C
:1024800000D904BB09F1FF3919F8011F00293FF4F5
:1024900057AF2846FFF774FEF6E728460136FFF7E8
:1024A0006FFE19F806100029F7D1A642BFF448AF15
:1024B000002C3FF445AF20212846013CFFF760FE89
:1024C000F3E70026EDE720212846013CFFF758FE00
:1024D000D5E73B681A1D3A60302128461C68FFF793
:1024E0004FFE78212846FFF74BFE00220823CDE956
:1024F0000032214610227CE703B0BDE8F08F00BF18
:1025000013B50B46114680B9104B1148114AC01A39
:102510000E23C0080093104B0004104940F0010046
:10252000FEF7AFFA0E2002B010BD4BB9074B0848BA
:102530000B4AC01AC0080E2300930004064BECE7B8
:1025400003601B6802B0BDE8104018472C5800001B
:102550007C580000846000001A620000896000005E
:10256000B86000002DE9F34188B93D4B3D483E4A33
:10257000C01AC0080E243D4B009400043C4940F0B2
:102580000100FEF77EFA204602B0BDE8F0814AB9AC
:10259000334B3448374AC01AC0080E24334B0094DA
:1025A0000004EBE7D0F800E0BEF1000F09D12C4B9E
:1025B0002C48314AC01AC00808242C4B009400044F
:1025C000DCE74BB9264B27482C4AC01AC00809241F
:1025D000264B00940004D1E74568D5F80480B3FB8E
:1025E000F8F508FB15354DB11D4B1E48244AC01A9D
:1025F000C00809241D4B00940004BFE78D0709D0D3
:10260000174B18481F4AC01AC0081024174B0094D3
:102610000004B3E712F0030F09D0114B11481A4A16
:10262000C01AC0081024114B00940004A6E7C56826
:10263000A9420BD34D1EEC180569AC4206D8DEF852
:102640000C40A44602B0BDE8F0416047044B054889
:102650000E4AC01AC0081024044B009400048DE7F1
:102660002C5800007C580000846000002C620000A0
:102670008960000006610000B2600000C5600000D3
:102680000C610000366100004E61000071610000C5
:10269000F7B580B92A4B2B482B4AC01AC0080E2424
:1026A0002A4B009400042A4940F00100FEF7E9F9A2
:1026B000204603B0F0BDD0F800C0BCF1000F09D136
:1026C0001F4B2048234AC01AC00808241F4B0094FF
:1026D0000004E8E74AB91A4B1A481F4AC01AC00852
:1026E00009241A4B00940004DDE74768D7F800E09E
:1026F0000EF1FF370F4209D0114B1248174AC01A8A
:10270000C0081024114B00940004CCE7C768B942FC
:102710000CD304694D1E0EFB0255A54206D8DCF809
:102720001040A44603B0BDE8F0406047044B0548A4
:102730000B4AC01AC0081024044B00940004B2E7EE
:102740002C5800007C580000846000003F620000AC
:1027500089600000B2600000C56000009861000060
:10276000BE610000014B43600020704754620000CE
:102770000846704700207047024B1868003818BFA1
:10278000012070476007002008B50248FFF790FC61
:10279000002008BD6007002008B510461A4602F068
:1027A000B9FF002008BD00002DE9F043814687B045
:1027B00014480E4615469846FFF771FC0446F0B9DA
:1027C0000746BD4215D10F48FFF772FCD9F8083013
:1027D0005BB102228DF800200022CDE90126CDE96F
:1027E0000325CDF8148068469847204607B0BDE819
:1027F000F08306EB073000F0DBF90137E1E7112445
:10280000F3E700BF600700202DE9F041804686B065
:1028100011480F4616461D46FFF741FC0446C8B94D
:10282000AA083146384600F0DBF90B48FFF740FCB8
:10283000D8F8083053B101228DF800200C9A059287
:10284000CDE90147CDE9036568469847204606B0C3
:10285000BDE8F0811124F9E7600700202DE9F84F69
:10286000B0F806A04579D2F800B09DF828900AFB90
:1028700005F5043D88460BEB0301A94203F104046E
:1028800088BFA5EB030BB4FBFAF607460AFB164418
:10289000C2F800B04EB9AAEB04055D4528BF5D46FD
:1028A000BBF1000F04D1BDE8F88F3F68013EF1E7AE
:1028B000043408EB06003C442A46B9F1000F0DD061
:1028C0002146ABEB050B02F025FFDA452E443F68AD
:1028D00055464FF0000428BF5D46E1E7014620461B
:1028E000EFE7FFF7E8BBF8B546790146721E0546EB
:1028F000002393422D6803D30024A64202D8F8BDDA
:102900000133F6E70F682846FFF70CFC013439461F
:10291000F3E72DE9F843068ACD1C0746FFF7E2FBF3
:10292000043E35440446B5FBF6F5F0B14FF4807330
:10293000EDB28380C680013D076081464FF00008FC
:10294000A84512D23846FFF7CDFB064648B1637959
:102950000133637108F10108C9F80000076081467E
:10296000EEE72046FFF7BFFF34462046BDE8F88378
:1029700001210430FFF77BBB10B501210446043070
:10298000FFF781FB10F0FF0F04D12046BDE8104097
:10299000FFF7A9BF10BD1FB503920022009203AA42
:1029A000FFF75CFF05B05DF804FB1FB50392012241
:1029B000009203AAFFF752FF05B05DF804FB83689D
:1029C00000225A60C3E904229A60DA601A607047F4
:1029D00038B5074C051E04F1080318BF1C462368D0
:1029E0002BB11A6822605B6828469847F7E738BD24
:1029F0006C07002020B9054B01225A70FFF7E8BF91
:102A0000012802D1014A9070F8E77047640700205E
:102A100038B5094C23786BB908486360A36023611B
:102A2000E36000F0FDF8054600F006F9012323708D
:102A3000284638BD8525FBE764070020F5290000FE
:102A400038B5134C6378054603F0FF0073B115B138
:102A50006B68002098470020FEF7E6FA63680133B0
:102A600063600020BDE83840FEF7E0BAFEF7DCFA0C
:102A700025B1A26813463BB92A60A5606368002BA4
:102A8000ECD100F0EBF8E9E79D42F7D01B68F2E7E4
:102A90006407002038B5084C0020FEF7C5FA6368CB
:102AA000013B6360656815B900F0EAF86570BDE840
:102AB00038400020FEF7BABA640700201FB503783B
:102AC0008DF800304368019383688DF80830C3683F
:102AD000054A0393054B684653F8213052F82110FC
:102AE000984705B05DF804FB780700207C070020BC
:102AF0001FB503788DF800304368019383688DF823
:102B00000830C368054A0393054B684653F82130E3
:102B100052F82110984705B05DF804FB78070020B3
:102B20007C070020F0B5194B90F800C091F81DE02B
:102B300043F82C20164B16460A6943F82C20154BF7
:102B400003F80CE00C4607460FCC89B06D460FC564
:102B500094E80F0085E80F00CDF810C0BEF1000F1B
:102B600009D0002E0C4A694608BF3246381D00F0D5
:102B7000B9FF09B0F0BD002E084A694608BF3246C9
:102B800007F10C0000F0A6FDF3E700BF7C07002072
:102B90007807002080070020BD2A0000F12A0000ED
:102BA000024AD2F80034002BFBD0704700E001400D
:102BB0000A4908B50223C1F80435BFF36F8FBFF38C
:102BC0004F8FC1F80805FFF7EBFF0023C1F804356C
:102BD000BFF36F8FBFF34F8F08BD00BF00E0014010
:102BE0000E4B10B50124C3F80445BFF36F8FBFF33C
:102BF0004F8F01EB8204401AA14208D1074B0022FB
:102C0000C3F80425BFF36F8FBFF34F8F10BD431878
:102C100051F8042B1A60FFF7C3FFEDE700E0014015
:102C2000044A137923B90121106091801846704736
:102C30008520704784070020074B1A68D2075FBFC2
:102C4000C02283F8002301221A604FF08043012242
:102C5000C3F81825704700BF00E100E0074B0022D1
:102C60001A6082B01B680193019B4FF080430122E0
:102C7000C3F804231A6002B0704700BF000100408F
:102C8000074B01221A604FF08042D2F80C3403F057
:102C90000113B3F1011FF8D0024B00225A717047A3
:102CA0000400004084070020154B07B51A687AB16C
:102CB00000221A601B680093009B4FF080430122A2
:102CC000C3F808230F4B587910B95A711B689847FD
:102CD0000D4B1A6882B100221A601B680193019B98
:102CE0004FF080430222C3F80823064B1B680120E3
:102CF00003B05DF804EB184703B05DF804FB00BFB8
:102D0000000100408407002004010040C02910B5E4
:102D100025D0B9B180290AD14378047882781B0282
:102D200043EA044313430F4A0330C2F8983543780B
:102D300002781B0243EA024382781343094A0330B4
:102D4000C2F894350368074A1BBAC2F89035D2F826
:102D5000A03523F0C0031943C2F8A01510BD4021CF
:102D6000E5E700BF00500040054B0D22C3F80424E6
:102D7000044A01211160044AC3F80423704700BFCC
:102D8000005000400850004082000800034BD3F878
:102D90003C0410F0030018BF0120704700500040B1
:102DA000F0B5B0F5A07FA5B070D1FFF7EFFF0446F6
:102DB0003A48002C6ED183680133072B836065D9B4
:102DC00004230093CDE90144354D039400F03EFB0C
:102DD000344B6C724FF48052C3F80825D3F80825A1
:102DE000D3F89005D3F8A01511F0C0011FFA82FCAA
:102DF0004ED08029D3F8944501BFD3F898358DF88B
:102E000012301A0C8DF8102009BF1A0A04AA8DF886
:102E100011200DF11302230C1370230A53709470C8
:102E2000D31C020E1A70020C5A70020A1D4C9A70C2
:102E3000D8701D4BD4F8A475D4F8046300221A602E
:102E40001A6801221A6004A8C4F808C5FFF75EFFDB
:102E5000D4F8A43507F0600723F060033B43C4F8BF
:102E6000A4350323C4F80C35D4F8A03523F01F0390
:102E700043F00403C4F8A0354FF48F63C4F804632F
:102E8000C4F808336B680BB16846984725B0F0BDAD
:102E900004ABC6E700238360F8E700BF30000020E2
:102EA0008C07002000500040FC5F00400288084B67
:102EB0004168C3F81015C2F30802C3F81425054A87
:102EC000126802F48C62C3F804230122DA617047AD
:102ED000005000408C0700200268CAB10D4B4068CA
:102EE000C3F81005C2F30800C3F81405D20040F679
:102EF000F8701040084AC3F81C05C3F80C15126896
:102F000002F01802C3F804230122DA60002070479F
:102F100009207047005000408C07002000F18040DD
:102F200000F5A0400123036070470000292812D15A
:102F30000C4B1B6813F0010F14BF0B4A0B4A012303
:102F400013600B4B4FF48052C3F808254FF48F6287
:102F5000C3F80823704700F1804000F5A04001232A
:102F60000360EEE720540040285000402450004009
:102F70000050004008B50378012B0FD0022B1AD067
:102F800053B94268B2F5803F21D812494FF6FF701D
:102F9000824294BFCA60C860002008BD017903293D
:102FA00015D80D4AD2F8A43523F0600343EA411343
:102FB000C2F8A435F0E7037A4068043BDBB2062B85
:102FC00096BF064A4021D15CFFF7A0FEE4E7072048
:102FD000E3E700BF8C070020005000409162000032
:102FE0000A2970B5024630D84FF49263CB40DB43D8
:102FF00013F0010029D14FF080540429D4F8505423
:10300000D4F85434D4F8584415704FEA15264FEAD2
:1030100015459570DDB25670D57001D1002070BD98
:103020001E0A16710A294FEA13464FEA13635671B6
:10303000937105D1230AD471240C13725472EEE7F4
:10304000882DEBD19923D370E9E70920E7E7000049
:103050002DE9FF41264D2A7A002A47D103C885E889
:1030600003002449244F0323C1F80C35D1F8A035BF
:1030700023F01F0343F00403C1F8A0351F4B2021A8
:103080004FF0C008C3F8801183F80583196004234A
:10309000CDE9022202A98DF80830194A06233846E4
:1030A0008DF80B3000F05CF90446D8B93B68D3F8D2
:1030B000102501264FF4C861D2B2334621FA02F23C
:1030C00000960146384600F0EAF9072102A8FFF70A
:1030D00087FF4146044602A8FFF718FE4FF48053CD
:1030E0002E72EB60204604B0BDE8F0810824F9E7B9
:1030F0008C070020005000403000002000E100E07C
:10310000A12D0000024A136823F0010313607047E9
:103110009C550040024A136843F001031360704756
:103120009C5500407FB56D4B1A68EAB16C4AD2F8E5
:103130000423920718D500221A60BFF34F8F694C01
:10314000637A03F0FF067BB9674D284600F08AF9E1
:10315000284600F06DF9012363720223009363682F
:10316000AE600BB168469847604D614C2B688BB3DD
:103170005B4AD2F804335B062CD500212960BFF3EB
:103180004F8F4023CDE90031D2F810350393D2F8A8
:1031900024355848C3F30B03103BC3F3CC0302930D
:1031A000036873B1D2F804335E050AD5D2F80C3443
:1031B00003F00D0301930160BFF34F8F0D23C2F89D
:1031C0000C34484B5B680BB168469847002323607A
:1031D000BFF34F8F484E3368ABB1414AD2F8043346
:1031E000D90610D500233360BFF34F8FCDE90133EB
:1031F0000393102300931823C2F80833394B5B68FC
:103200000BB1684698473D490B6843B3344AD2F83E
:1032100004331B0323D500230B60BFF34F8F2B60B8
:10322000BFF34F8F41F8243CBFF34F8F2360BFF3B0
:103230004F8F3360BFF34F8F2A498889C2F8080542
:103240000D20C2F80C04C2F80404CDE90133039345
:103250004FF4002300934B680BB168469847284908
:103260000B68FBB11E4AD2F8043318061AD50023A6
:10327000D2F804040B60BFF34F8F80210091C10787
:10328000CDE90133039309D50121C2F804148DF867
:103290000430144B5B680BB168469847104B0D2205
:1032A000C3F804242368BBB10D4BD3F804231207E1
:1032B00012D500222260BFF34F8F0A4A52685AB1DA
:1032C00008210091D3F810150291D3F81C35C3F3EF
:1032D000C80301936846904704B070BD0451004094
:1032E000005000408C0700203000002018510040A2
:1032F0000C51004028510040105100404C510040FA
:103300001C510040014B1B68184700BF9C07002060
:1033100038B50B4B98420C4601D0002038BD002038
:10332000FDF782FE074B1D7915B901221C601A7149
:103330000020FDF77BFE002DEFD01120EEE700BF4F
:10334000002000409C070020034B984201BF034B24
:1033500000221A601A717047002000409C0700206C
:10336000F7B506792F4D0C237343EF183C7A002CE8
:1033700056D1EA504B687B60477903682246D0B249
:10338000874244D843F30734C878002CA8BF04F11F
:103390006047C3F30732BABF234F02F00F0C07F5A3
:1033A00061474FEA4010C0B2B4BF07F80C0087F87D
:1033B0000003640901201D4F02F01F0200FA02F20F
:1033C00047F82420D3F804454A7824F0030402F097
:1033D00003022243C3F80425D3F808458A7824F071
:1033E000030402F003022243C3F808250A78D3F845
:1033F000104502F00F0224F00F010A43C3F8102514
:103400000C2303FB06552872002003B0F0BD90008A
:1034100000F5A07001321C50185801900198AEE7D9
:103420000820F2E7A407002014ED00E000E100E02E
:10343000036801221A600379034A0C2101FB03236C
:1034400002221A72704700BFA407002003680449D3
:1034500001221A6103790C2000FB03131A727047D2
:10346000A407002003680122DA60704737B54FF4E3
:10347000803400688C407BB18B0003F5A07300257D
:10348000C550C3580193019BC0F8044301F5A871CE
:1034900040F8212003B030BDC0F80843F6E770B40F
:1034A000046840F20116D4F800528E4025EA060561
:1034B000C4F80052D4F800522B43C4F800329DF8EF
:1034C0000C3070BCFFF7D2BF2DE9F341104C114F07
:1034D000114E00254FF48038236883B1D7F80433A8
:1034E00008FA05F21A420AD00023236023680193E8
:1034F00004F5A040019B80B2D6E900319847013520
:10350000062D04F10404E7D102B0BDE8F08100BF4C
:1035100040B1014000B00140A40700200023435007
:1035200082B043580193019B02B070470A4610B520
:103530004FF48E71FFF7F2FF136A9168C95C136A4A
:1035400001331362C0F81C1510BD8B690A4610B513
:103550004FF4847123B9FFF7E1FFD0F8183510BD9F
:10356000FFF7DCFF536AD168D0F81805C854536AD6
:1035700001335362F3E700001FB501238DF80030DB
:10358000044BCDE90110D3E900126846904705B01D
:103590005DF804FBB007002030B54C48D0F8043388
:1035A00013F4007F85B005464DD0D0F82431002BB0
:1035B00049D04FF49271FFF7B1FF4FF40173C0F897
:1035C0000833434B93F829200AB9012242603F494E
:1035D00002228DF80020D1F88024C1F880240392C3
:1035E0009A690292DA6801920022C3E906226846CB
:1035F000D3E9001290473548D0F81C315BB134490B
:103600004A690B6A9A420A464AD991F82830002B37
:1036100046D1FFF78BFF2D48D0F844318BB14FF4E2
:10362000A271FFF77BFF2A4B93F829200AB10122F0
:1036300002609A692AB10022586AD9689A61FFF734
:103640009BFF05B030BDD5F804335B07D3D5D5F863
:103650000831002BCFD01E4C1C482146FFF775FFC8
:10366000636AA2699A422346C5D1E269E1684AB118
:103670002369E3600023606AA261E3616362FFF78C
:103680007BFFB8E794F829200AB901226A600F4A43
:103690004FF40170C2F808030022586A9A61EEE7FD
:1036A0000A484FF48E71FFF739FF5369002BB2D0EF
:1036B00051690291002391688DF8003001915361A6
:1036C0006846D2E900139847A5E700BF00200040F4
:1036D000B00700202DE9F843574B057991462C227D
:1036E00002FB0532064692F82A200C469846002A2C
:1036F00040F09D8051490068FFF70AFE0746002808
:1037000040F0978021683368481C0BD04FF0A040F0
:1037100001228A40C0F8082501F5E0724FF0030C41
:1037200040F822C06068421C1FBF00F5E0724FF0F5
:10373000A04C4FF0000E4CF822E0A269C3F82425FB
:1037400094F814C0627DBCF1010F4CEA0202C3F888
:103750006C25C3F81405C3F80C151DD1A1684A1CCB
:103760001FBF01F5E0724FF0A0404FF0000C40F891
:1037700022C0E268501C0BD04FF0A04C01209040BA
:10378000CCF8080502F5E0704FF0030E4CF820E08D
:10379000C3F80825C3F810152C236B4308EB03026C
:1037A000C2F80490226948F80320B9F1000F2BD029
:1037B0003068247F4FF48E71FFF7B0FE30684FF40D
:1037C000A271FFF7ABFE32681D4BC2F80433110B38
:1037D00042F30732002AA8BF02F160404FEA4413C7
:1037E000BABF184801F00F0400F56140DBB2B4BF66
:1037F000035580F8003301F01F01012303FA01F1A2
:103800005209114B43F8221033680422C3F80025F3
:103810002C2303FB05830022C3E9062283F8292019
:103820005A61012283F82A203846BDE8F883082728
:10383000FAE71127F8E700BFB0070020993500002C
:103840008000020014ED00E000E100E0F8B504792A
:1038500000682C4D0023C0F800352C2303FB0453D3
:103860005B686BB1284BC0F8083340F30733C0F3F3
:1038700004315B0901228A402033244941F8232086
:10388000D0F80C65D0F81415D0F80835D0F810250C
:103890004FF0FF37BE42C0F8147518BF06F5E0764A
:1038A000C0F80C75C0F80875C0F810751EBF4FF051
:1038B000A0474FF0020C47F826C04E1C1FBF4FF028
:1038C000A04601F5E071022746F82170511C1FBF88
:1038D0004FF0A04102F5E072022641F822605A1C26
:1038E0001FBF03F5E0734FF0A042022142F82310FE
:1038F000FFF72AFD2C2303FB0454002384F82A300D
:103900006360F8BDB00700208402020000E100E01F
:103910002DE9F047204F90F804904FF02C0808FB59
:10392000097405466669002E34D162610068A160A1
:1039300026624FF48E7184F82860FFF7EFFD286847
:10394000012383602146FFF7F1FD6368A0468BB930
:103950002868D4F814A0236A9A4511D82A68D2F8A6
:103960001C31002BFBD00123D3602C2303FB0973F4
:1039700000225A613046BDE8F08794F828303BB900
:10398000D0F81C31002BF8D04146FFF7CFFDE2E71D
:103990000F26EAE71126EDE7B00700200023435089
:1039A00082B043580193019B02B070471FB50123B9
:1039B0008DF80030044BCDE90110D3E900126846C0
:1039C000904705B05DF804FBDC0700207FB5434A53
:1039D000D2F82461002E60D010464FF49271FFF7A8
:1039E000DDFF02238DF80030D2F88034C2F8803435
:1039F0000393D2F83C350293394BDA6801920022E6
:103A0000C3E906226846D3E9001290473348D0F84C
:103A1000443173B14FF4A271FFF7C0FF304B9A6984
:103A20003AB10022C3E90622D968D0F83C05FFF775
:103A3000BDFF2A48D0F82031ABB14FF49071FFF7A9
:103A4000ADFF0123C360264B5A6962B1D0F84C1513
:103A50000291002299688DF8002001915A61684610
:103A6000D3E9001290471D48D0F858319BB14FF46C
:103A7000AC71FFF793FF1A4B5A6962B1D0F84C153D
:103A80000291002299688DF8002001915A616846E0
:103A9000D3E90012904704B070BDD2F81031002B6A
:103AA000B4D04FF488711046FFF778FF0C4BD2F872
:103AB0003C0599698842A9D1DC69D96864B1D2F81A
:103AC000005225F02005C2F800521A699C61DA60A4
:103AD000DE61FFF76BFF99E79C61FAE70020004089
:103AE000DC0700202DE9F8435D4B0679914624223E
:103AF00002FB0632044692F820200D469846002A22
:103B000040F0AA8057490068FFF702FC07460028EA
:103B100040F0A48029682368481C0BD04FF0A040D7
:103B200001228A40C0F8082501F5E0724FF0030C2D
:103B300040F822C06868421C1FBF00F5E0724FF0D9
:103B4000A04C4FF0000E4CF822E0AA69C3F82425DF
:103B500095F814C06A7DBCF1010F4CEA0202C3F86B
:103B60006C25C3F80C15C3F814051DD1A9684A1CAF
:103B70001FBF01F5E0724FF0A0404FF0000C40F87D
:103B800022C0EA68501C0BD04FF0A04C012090409E
:103B9000CCF8080502F5E0704FF0030E4CF820E079
:103BA000C3F80825C3F810152423734308EB030258
:103BB000C2F804902A6948F80320B9F1000F3AD0FE
:103BC00020682A7F4FF48871FFF7E8FE20684FF4E1
:103BD0009071FFF7E3FE20684FF49271FFF7DEFE6D
:103BE00020684FF4A271FFF7D9FE20684FF4AC7142
:103BF000FFF7D4FE23681C49C3F80413190B43F3E1
:103C00000733002BAEBF03F1604001F00F051748EA
:103C10004FEA4212A8BF00F56140D2B2B4BF42558C
:103C200080F8002301F01F01012202FA01F15B0973
:103C30000F4A42F8231023680822C3F800252423E2
:103C400003FB06830022C3E906225A61012283F89E
:103C500020203846BDE8F8830827FAE71127F8E75F
:103C6000DC070020CD3900001003420014ED00E015
:103C700000E100E0F8B5374D0479242303FB045339
:103C800002465B6800686BB1334BC0F8083340F301
:103C90000733C0F304365B090121B14020332F4EB6
:103CA00046F82310D0F80032012623F02003C0F894
:103CB00000324FF4AC714660FFF770FE1068C660CA
:103CC000D0F85831002BFBD00023C0F80035D0F8D5
:103CD0000C65D0F81415D0F80835D0F810254FF041
:103CE000FF37BE42C0F80C7518BF06F5E076C0F885
:103CF0001475C0F80875C0F810751EBF4FF0A047C6
:103D00004FF0020C47F826C04E1C1FBF4FF0A046D4
:103D100001F5E071022746F82170511C1FBF4FF0DA
:103D2000A04102F5E072022641F822605A1C1FBF32
:103D300003F5E0734FF0A042022142F82310FFF791
:103D400003FB242303FB0454002384F82030636026
:103D5000F8BD00BFDC0700201003420000E100E0D6
:103D600001F06043B3F1005F2DE9F041064638D120
:103D70001E4B0779242505FB073598466C69002CF6
:103D800031D16A610068A9604FF49071FFF706FEB7
:103D90004FF4AC713068FFF701FE33686A69A968B7
:103DA000C3F84415C3F8482501229A606A68AAB985
:103DB000D3F82021D3F858411AB9002CF8D00F2499
:103DC00007E0002CFBD10122DA60D3F85821002A49
:103DD000FBD0242303FB078700237B612046BDE83B
:103DE000F0811024FAE71124F8E700BFDC07002077
:103DF00008B50A4B0A481978023100F0F9F808B101
:103E0000FDF707F8074B08480849C01AC008000426
:103E1000BDE8084040F00300FCF726BE280C002057
:103E2000280800202C5800005C580000AD620000FB
:103E3000013910B51C4603291ED8DFE801F002073E
:103E40000B0D0020BDE81040FCF78EBFBDE8104010
:103E5000FCF7A2BF0320F5E774B10120FCF784FF53
:103E6000064B074A1C7000210846FDF73DF818B1C3
:103E7000BDE81040FCF7CDBF10BD00BF280C0020EE
:103E8000F13D000007B500210846FCF73BFC08B1F6
:103E9000FCF7BFFFFCF770FB0320FCF79BFF284AF1
:103EA00004210020FCF7FCFF08B1FCF7B2FF00F092
:103EB0008DF808B1FCF7ADFF22484FF4806100F0A7
:103EC0004DF908B1FCF7A5FF0020FCF775FF88B19C
:103ED0004FF480631B48019301A900F031F908B148
:103EE000FCF797FF17484FF4806100F081F808B1A4
:103EF000FCF78FFF1448002100F0AAFD08B1FCF781
:103F000088FF10484FF4806100F0BAFB08B1FCF75D
:103F100080FF0E4B0E480F49C01AC008000440F045
:103F20000300FCF7A1FD00F0CDFD08B1FCF771FF27
:103F3000FDF738F8FCF740FC0028FBD120BFF7E77D
:103F40000008002028080020313E00002C58000006
:103F50005C580000C362000038B5134B0D4613498E
:103F6000C1E90030EB1C9B08044611488B60FDF74B
:103F7000C7FE48F20663984214D10E4B0E480F4913
:103F800001221A700E4B1D600E4B1C600E4BC01AA6
:103F9000C008000440F00300FCF766FDBDE83840AF
:103FA000FDF7BABE38BD00BF11112222380C002027
:103FB000440C0020350C002074580000EA62000018
:103FC000300C00202C0C00202C58000008B50648AE
:103FD000FDF72AFD30B9FDF73DFD18B9034A137806
:103FE000002BFCD008BD00BF65400000290C00205C
:103FF00038B5134B0D461349C1E90030EB1C9B0843
:10400000044611488B60FDF77FFE48F20663984234
:1040100014D10E4B0E480F4901221A700E4B1D6031
:104020000E4B1C600E4BC01AC008000440F0030089
:10403000FCF71AFDBDE83840FDF76EBE38BD00BF85
:1040400011112222380C0020440C0020340C0020D6
:104050007458000023630000300C00202C0C00205A
:104060002C58000008B50378052B0BD8DFE803F0C7
:10407000031B0B0A0A26406808B1FCF7CAFE264B50
:1040800001221A7008BD406808B1FCF7C2FE23483F
:10409000234B2449C01AC0080004BDE8084040F082
:1040A0000300FCF7E1BC406808B1FCF7B2FE1B4816
:1040B0001B4B1D49C01AC0080004EEE7406808B158
:1040C000FCF7A7FE164B15481849C01AC008000493
:1040D00040F00300FCF7C8FC154B1A7802F0FF0112
:1040E0006AB100221A70134B1968134B1868FFF756
:1040F00033FF0028C6D0BDE80840FCF78ABE0F4B4E
:104100001A78002ABED019700A4B19680A4B186831
:10411000FFF76EFFEDE700BF290C00207458000088
:104120002C580000576300006B6300007E630000A2
:10413000350C0020300C00202C0C0020340C00200A
:1041400007B5034600910E220349012001F00CFA45
:1041500003B05DF804FB00BFFE63000010B586B03D
:1041600008220191044600210DEB020001F0FBFA48
:104170001E4A02AB42F2222141F21110FDF7F2FD7C
:10418000D0B91B4B1B481C49C01AC008000440F0A2
:104190000300FCF769FC154804A9FDF767FD48B961
:1041A000049B05995A882046920001F0B3FA0F4803
:1041B000FDF782FD06B010BD48F209639842F9D1BF
:1041C0000B4A0C4B0D499B1ADB081B04024643F0BB
:1041D0000300FCF74DFC01A92046FFF7B1FF0028C2
:1041E000E8D101992046FFF7B7FEE3E7440C002031
:1041F0002C58000074580000A3630000BB6300004B
:104200000C4B1B78062B10D10B4B1B681A070CD1DB
:104210000A4B186800F0F003302B08D000F0E000E3
:10422000A0F14003584258417047002070470120D8
:10423000704700BFE00F00F0E40F00F0E80F00F05F
:10424000094B1B78062B0CD1084B1B681A0708D1A9
:10425000074B186800F0F000A0F1300358425841B5
:1042600070470020704700BFE00F00F0E40F00F03F
:10427000E80F00F008B5FFF7C3FF28B17D4B7E4A79
:104280001B68C3F304231360FFF7DAFF10B17B4B05
:104290007B4A1A60FFF7B4FF28B17A4B7A4A1B6851
:1042A000C3F342331360FFF7CBFF20B1774AD368E3
:1042B00023F08073D360FFF7A3FF40B14FF080433A
:1042C0000022C3F80C21C3F81021C3F83825FFF7EA
:1042D000B7FF10B16E4B03221A60FFF7B1FF40B178
:1042E0006C4B05221A6001229A6700229A603F22D5
:1042F0005A60694B1B78062B50D1684B1B68190715
:104300004CD1674B1B6803F0F003502B46D14FF0A4
:104310008052644BD2F80414C3F82015D2F8081464
:10432000C3F82415D2F80C14C3F82815D2F81014C9
:10433000C3F82C15D2F81414C3F83015D2F8181499
:10434000C3F83415D2F81C14C3F84015D2F8201461
:10435000C3F84415D2F82414C3F84815D2F8281429
:10436000C3F84C15D2F82C14C3F85015D2F83014F9
:10437000C3F85415D2F83414C3F86015D2F83814C1
:10438000C3F86415D2F83C14C3F86815D2F8401489
:10439000C3F86C15D2F84424C3F87025FFF730FF3A
:1043A00028B1414B414A1B6803F04F031360FFF7EC
:1043B00027FF48B14FF08043D3F80024D20744BF11
:1043C0006FF00102C3F80024394B1B68062B08D19B
:1043D000384B1B68062B01BF374A136843F48063D0
:1043E0001360364AD2F8883043F47003C2F888303C
:1043F000BFF34F8FBFF36F8F4FF01023D3F800221E
:10440000002A03DBD3F80432002B2FDA2C4B0122D5
:10441000C3F80425D3F80024002AFBD04FF0102263
:104420001521C2F80012D3F80024002AFBD04FF067
:1044300010231522C3F80422214B1A46D3F8001486
:104440000029FBD00021C3F80415D2F80034002B5A
:10445000FBD0BFF34F8F19491A4BCA6802F4E062D0
:104460001343CB60BFF34F8F00BFFDE7164B174AD6
:104470001A6008BD240300104035014074C0074095
:104480000DF0ADBA440200103C050040F0ED00E034
:10449000A005004010560040E00F00F0E40F00F0CF
:1044A000E80F00F000C0004058020010E40E004089
:1044B00030010010340100103C17004000ED00E016
:1044C00000E001400400FA053C0000200090D00309
:1044D0002DE9F3470C4615468046002842D0002AB5
:1044E00040D0D0F80090B9F1000F3BD0D1B11368A3
:1044F000012B39D901F1020A02270026D8F8081049
:10450000B14211D8BAF1000F07D0BB1EB3F5803FFE
:104510002CD2C3F30722227063702F60002002B0F8
:10452000BDE8F0878A46E7E7B6B901290CBFC0218C
:1045300080212B6859F82600DB1B0193524601AB02
:1045400000F023F80028EAD1019B1F44BAF1000FC4
:1045500000D09A440136D1E7731C99420CBF402128
:104560000021E6E70E20DAE70420D8E70620D6E7A8
:10457000D0E9012393423FBF026842F82310013380
:10458000836034BF0020042070472DE9F7431446B0
:104590001F46054618B90E2003B0BDE8F0834278E7
:1045A000037A9E18002A36D19E1D002C3CD08B0623
:1045B0003CD13B68B3423BD321702B78A0461943D2
:1045C00008F8021B2B7A63706B7833BB04F1060981
:1045D0002A7AE968484601F09DF82C7A6A784C44BA
:1045E0002AB12046696801F095F86B781C443B6855
:1045F0009B1B01932B69002BCDD0686901AA214632
:1046000098470028C8D1019B14B11ABAC8F80020F5
:104610001E443E60C0E70736C7E741F0080104F1D9
:104620000709A3712170D3E7A046E3E70720B3E7AA
:104630000420B1E708B9FEF771BC7047074B084A80
:1046400010B500245A601C60FEF7E2F9852803D0FB
:10465000A04218BF032010BD2046FCE7500C0020EC
:10466000354600000368022B02D0042B03D07047AC
:104670000248FEF7E5B9FEF70DBA00BF500C002066
:104680004FF6F073994208D801B130B1114B1A7846
:10469000022A00D01AB9082070470C207047012A5E
:1046A000F9D130B4DC6819620D0A1861986183F899
:1046B0003920E572D968186A087393F839001A70BE
:1046C000DB6818B9FF229A7330BC704700209873DA
:1046D000FAE700BF680C002070B51B4CE26A0D2A97
:1046E0000ED0636A194D013302D0E26A072A12D054
:1046F000606B17492B460022BDE8704000F06ABB92
:104700001449A06A00F0D3FF0028EAD1E26A60628F
:10471000072A114DECD11149A06A00F0C8FF70B909
:10472000E26A0D4D6062072AE2D10D49A06A00F0ED
:10473000BEFF0028DCD101236362074DD8E7636A1E
:104740000133D5D0E26AEEE7680C00200C6400006B
:10475000286400002C640000106400003C64000029
:1047600044640000F0B5254CE26A042A83B002D903
:10477000636A012B08D0224B606B2249002203B0F0
:10478000BDE8F04000F026BB94F83930002BF2D0A1
:10479000A16A206A8B78CD780E7905EB0325AB19D9
:1047A0008342E8D8053AB24211D0276B012FE2D1FB
:1047B00020690531284400F0ADFFE36A124A053B49
:1047C0002B4493601773C2E9006503B0F0BD206904
:1047D0000531284400F09EFF012D0CDC2269A06801
:1047E000117853786568002203EB012300920421BD
:1047F000A847064BC0E7054BBEE700BF680C00208A
:104800001464000028640000580C002010640000AC
:1048100070B51C4C1C4D2069AB68D4E90A121844D1
:1048200082B000F077FFD4E90B12AB68012A0B4489
:10483000AB6022D0D5E900129B1A8B420ED0134DEB
:1048400011481022002100F08EFF606B10492B46AA
:10485000002202B0BDE8704000F0BCBA012A0ED8B8
:104860002269A0681178537866680A4D002203EB2C
:10487000012300920421B047E2E702B070BD054D6C
:10488000DEE700BF680C0020580C00201464000014
:104890002864000010640000F0B5364C2378022B29
:1048A00083B001D003B0F0BD2369F3B1324B1B7B61
:1048B0003BBBE36A012B0ED9A26A107830B951785C
:1048C000A42928D0B0292BD0D6291FD0606B2B4B20
:1048D0002B49002204E0606B002BF7D128491A46CF
:1048E00003B0BDE8F04000F075BAA369002BDDD13C
:1048F000216BA068D4E90A23009164680621A047CF
:10490000D0E703B0BDE8F040FFF782BF03B0BDE8D9
:10491000F040FFF727BF03B0BDE8F040FFF7DCBE73
:10492000042B14D9656A9678D378127904EB850143
:1049300003EB0623C9699E188E4208D804EB850153
:10494000012D4969194406D00E4B606BC8E7024639
:104950000B490D4BF9E7A5692F786D7805EB072515
:10496000AB4203D2AE4234BF0020012084F83800AD
:10497000044BEAE7680C0020580C00200C6400008F
:1049800028640000106400001464000070B52E4C10
:1049900082B08442069D01D002B070BD0139C4E9E5
:1049A0000A2325630529F7D801A353F821F000BF96
:1049B0002B4A00000B4A0000994900009949000069
:1049C000D3490000C949000002B0BDE87040FFF7BC
:1049D00063BF94F838304BB10025D4E901602B4611
:1049E00000952A460321B04784F838502369002BEC
:1049F000D2D1A369002BCFD1216BA068D4E90A23BF
:104A0000069164680521A4460BE065684FF0FF330A
:104A10006362002DC0D00023A06806931A460221CD
:104A2000AC4602B0BDE87040604710220021074844
:104A300000F099FE6568002DAED00023A0680693B3
:104A40001A460121ECE700BF680C0020580C00203A
:104A500070B32DE9F041174C2578022D25D025BBE8
:104A6000DFF85C8006460F46012313492370404659
:104A70000F2200F04FFE4FF00F0C4FF0FF3304F108
:104A800034022046C4F80C80C4F814802561A56166
:104A9000256284F83950C4E90167C4F81CC0636218
:104AA0000649BDE8F04100F02BBA0820BDE8F081CE
:104AB00007207047680C0020186400008D49000032
:104AC000C00D002008B5074A1378022B00D00BB99F
:104AD000082008BD012BFBD10223137000F06AF9F6
:104AE000002008BD680C002070B50446FFF7BAFD31
:104AF0002368102B4AD007D9802B22D0B3F5002F82
:104B000034D0402B26D070BD042B59D0082BFAD1BD
:104B10004F4B1B78002BF6D0A268137803F0F703F5
:104B2000C22B02D14B4B012119704B4B1D68002D3C
:104B3000E9D04A4963680868AC460421BDE8704082
:104B400060472379002BDED1454A11780029DAD05D
:104B5000137070BD6368002B41D03D4B1B78002B58
:104B60005BD12920BDE87040FEF7E0B93D48FEF773
:104B70009DF9394B1C682CB1384A0023106819463E
:104B80001A46A047324B00221A7070BD314C237870
:104B9000002B3ED0FEF7B6FA2820FEF7C7F92C4AC4
:104BA0000023237013702C4B1C68002CABD02B4AB5
:104BB00000231068A4461A460321BDE870406047F0
:104BC000FEF7A0FA244B1C68002C9CD0234A00233B
:104BD0001068A4461A460121BDE8704060471C4D8C
:104BE0002B78FBB9204B1A78E02A1FD01B78502B6A
:104BF00026D02920FEF79AF9174B1D68002D82D088
:104C0000164AA3681068184AAC460221BDE87040F5
:104C100060471448FEF74AF9C5E71248BDE87040FE
:104C2000FEF744B90F48FEF741F9E5E75A7802F07C
:104C30000F020F2ADAD0FEF76DFA01232B70DBE7A3
:104C4000074B012228201A70FEF770F9D4E700BF45
:104C5000BC0D0020A40C0020A80C0020AC0C0020EF
:104C6000BB0D002054640000B00C0020F0B5194BBF
:104C7000194A1A4D1A4E04460F4693E8030087B0AE
:104C8000146001AC84E803002A783760012303A88C
:104C90008DF810208DF80C30FEF76CF970B9114EBC
:104CA0009DF8102037788DF80C004FF48053BB40EE
:104CB00003A804932A70FEF75DF908B107B0F0BDB0
:104CC0003770FFF7BBFC0028F8D12046FEF7C0F98B
:104CD000F4E700BF4C640000A80C00204100002055
:104CE000AC0C00204000002010B5012884B0134611
:104CF0000BD0022804D0032828D0002004B010BD17
:104D0000012A14D0092004B010BD012AFAD10C7870
:104D10004FF48053A340002201A802938DF8042091
:104D2000FEF728F90028E9D11E4B1C70E6E70A7847
:104D30008DF8082001A88DF80430FEF71BF9002833
:104D4000DCD1194B9DF808201A70D7E7012A18D03A
:104D50000A2AD7D84FF49260D040C007D2D5134C5E
:104D60001348227000F0D6FC2278114B8DF80C20ED
:104D700001A802228DF804200293FEF7FBF804B08C
:104D800010BD0A780A2ABDD84FF49263D340DC07DD
:104D9000B8D5064C064822700A21FEF721F90028F2
:104DA000E2D0ABE74000002041000020BA0D002017
:104DB000B00D0020FDF7D8BF00B5002A83B0CDE9C3
:104DC000001014BF022103216846FEF785F803B0E6
:104DD0005DF804FBF8B5484C844201D00720F8BDCB
:104DE0000029FBD04FF6F0708242F7D8D4F840018A
:104DF00008B10820F8BD94F822010028F9D013B1B9
:104E0000C4F844310223207FC4F83C3194F829517E
:104E1000C4F8401100F0010343F002030020C4F87D
:104E200034216377C4F83801002D40D1012625696B
:104E3000AD1BAA428ABF43F0100315466377002DCD
:104E40003CD12846A919DD061ED4D4F83C71DFB147
:104E50002569A94244D2D4F844C1C7F102066318B7
:104E60001CF806605E777B1EC4F83C314E1CDBB339
:104E7000B5423BD9C3F1020326441CF803307377D3
:104E8000023FC4F83C71023190426161C4F83801BC
:104E900005D3D4F83C3113B9012384F8263194F8B2
:104EA0002421C2B1012384F825310020F8BD43F04C
:104EB000080320796377A0770226B8E706F11D0082
:104EC0002A46204400F026FCD4F83801637FD4F849
:104ED00034212844B6E70948BDE8F840FFF76CBF25
:104EE00043F010036377CFE73146CDE7637F43F0AC
:104EF000100331466377C7E7D00D0020ED0D002089
:104F0000F0B5194C83B094F8273104258DF807507B
:104F10003BBB32B315460F46064619464FF4A47202
:104F2000204600F020FC02A94FF4807011F8013DEA
:104F3000A371012202232060E37110462C60C4F8A3
:104F40002C71C4F83061FFF7CFFE58B921460748ED
:104F5000FFF78CFEB0FA80F35B0984F8273103B0C9
:104F6000F0BD072003B0F0BDD00D0020ED510000D2
:104F7000F8B5037F90F82921D0F8387103F00103C8
:104F800043F00203044643770AB1002F52D00126B2
:104F90002269D4F83401921BC51BAA4203D243F004
:104FA000100363771546002D4BD1DA0605EB060199
:104FB00002D4D4F83C21EAB93D448542C4F83851C2
:104FC000616102D3D4F83C313BB194F824215AB149
:104FD000012384F825310020F8BD94F82421012311
:104FE00084F82631002AF3D104F11D00BDE8F84011
:104FF000FFF7E2BE26698E4232D9D4F844E1C2F10D
:10500000020C63181EF80CC083F81DC0531EC4F8B0
:105010003C3101F1010C3BB3664527D9C3F10203D2
:10502000A4441EF803308CF81D30023AC4F83C2129
:105030000231C1E743F00803027943778277022601
:10504000A6E7D4F8401106F11D00394420442A4651
:1050500000F060FB637FD4F83871D4F83401A4E722
:1050600043F010036377A7E76146A5E7637F43F04A
:105070001003614663779FE70368102B12D0182B4B
:1050800029D0202B29D0282B29D0302B29D0402BD8
:1050900029D0602B2BD0802B2BD0B3F5807F24D050
:1050A00003207047002130B48479C279034641F06F
:1050B0007001817742EA041280250224052180F8DC
:1050C0002020C57780F8214003F81D1F00221846D4
:1050D00030BCFFF771BE0121E5E70221E3E70321C0
:1050E000E1E70421DFE70521DDE70821DBE7062111
:1050F000D9E70721D7E700BF10B4837990F82911C9
:105100000122C3F10703F22402FA03F380F81F41DE
:10511000DBB2A1B1FA21027980F81F1180F82021B9
:105120000321022202443B2B28BF3B2382F81F317C
:1051300000F21F1001225DF8044BFFF73DBE022173
:10514000F0E700BF037F90F8292103F0010363F02B
:105150005D03DBB243774AB10279827743F00803FB
:10516000437702211D300022FFF726BE01211D30AA
:105170000022FFF721BE00BF90F824311BB10023AD
:1051800080F82431704783680279197809071ED4A2
:1051900012BBC22380F829214377012110B50022D8
:1051A00004461D30FFF708FE00230122227784F811
:1051B000243184F8253184F82331A4F82831A380E0
:1051C000C4F84031C4F83431C4F8383110BD5B78CC
:1051D00003F00F03934200D070470121CA2280F8E8
:1051E0002911837742770221D8E700BF70B5B84C08
:1051F000844282B001D002B070BD0429FBD8DFE840
:1052000001F08F7132190300117801F0F701F229D2
:1052100016BF002301210021A36184F82411137813
:1052200003F0F603A3F11203B3FA83F35B0984F8E6
:105230002331E0E7A569002DDDD194F82631002B5C
:10524000D9D0D4F83431D4F84021D4F830010095C5
:10525000D4F82C610521B047C4F8405184F822519C
:1052600084F82651C7E7C4E90223002BC3D0002AE3
:10527000C1D0117801F0F0009028BCD0D028BAD06D
:105280008E075AD594F82801002800F0858048063A
:1052900040F1868001F0F703C22B00F0BA80F22BB8
:1052A000A9D194F82431002BA5D00E07237940F121
:1052B0000081517801F00F0199429CD1012384F8BB
:1052C0002931137813F0080F14BF02230123E118CA
:1052D000D25C91F81F319A4200F01481002384F8C7
:1052E000243188E7D4F82C5100230122227784F856
:1052F000243184F8253184F82331A4F82831A3809F
:10530000C4F84031C4F83431C4F83831002D3FF4CA
:1053100072AFD4F8300100931A460221A8476AE719
:10532000D4F82C51002D3FF466AF0023D4F830019F
:1053300000931A460121A8475DE7E0297FF45BAF9F
:1053400094F82831002B7FF456AF0123237784F89B
:10535000283153785F491B0951F82330023B236100
:10536000537803F00F031A1C18BF01220F2B23716F
:1053700084F8292147D1002384F8243184F8253189
:1053800084F82331A4F82831A380C4F84031C4F84C
:105390003431C4F838312EE7E0297FF42CAFD4E75C
:1053A00001F0E60002283AD0A2287FF424AF0D07CE
:1053B000207972D5517801F00F0188427FF41BAF3C
:1053C000012184F82911127812F0080F14BF02216C
:1053D00001218B427FF40FAF02F0010112F01002A5
:1053E000237F6CD18B4279D1A369002B40F093804D
:1053F000616900293FF4FFAE1A46374802B0BDE8A4
:105400007040FFF7D9BC324802B0BDE87040FFF7EA
:1054100033BE2F4802B0BDE87040FFF7ADBE94F830
:10542000240100287FF45AAF0E0720793BD551782C
:1054300001F00F0188427FF4DEAE012184F82911CA
:10544000117894F8230111F0080F14BF02250125EB
:10545000002853D1480704D5505D6179884208BFC0
:105460000135217F81F00101217710784140C90782
:105470003FF5C1AE10F0100653D001215B1B2A444A
:105480000091D4F82C51D4F830010621A8471048D7
:1054900002B0BDE87040FFF755BE00287FF4ABAE08
:1054A00084F829018FE700287FF4A5AE84F829014C
:1054B000C6E7002B7FF49FAE84F8293101E78B42C9
:1054C000E5D1A2699AB9616900293FF494AE94E7E5
:1054D000D00D00205C640000ED0D00201F4883F01B
:1054E0000103237702B0BDE87040FFF741BD0123FF
:1054F00011461B4884F8243100227FE7002384F8FA
:10550000233178E694F82531EBB9144802B0BDE8B0
:105510007040FFF7F1BD19460123114884F824318A
:105520006CE70E48FFF7E8FDD4E9022301215B1B7D
:105530002A4484F822110096D4F82C51D4F8300172
:105540000621A84757E6002261690648FFF734FCA8
:10555000002384F8253184F824314CE6D00D002056
:10556000EF0E0020ED0D002030B58FB01D4601ABD1
:105570000C46029300210123CDE90331ADF8203020
:105580008DF828300D4B0B930D4B8DF814000991BD
:105590000C9308A905AB02A806948DF81C200D9366
:1055A000FEF7E6FF28B934B1129A294602A8FEF7A1
:1055B0008FFF0FB030BD0E20FBE700BF9C640000E2
:1055C000C555000038B50446154659B1027A2B6816
:1055D0009A420CD20378084600F8013B227A6168AF
:1055E00000F098F8237A01332B60002038BD0420A6
:1055F000FCE700007F2805D8034B185C034B5B5C7D
:105600001840704700207047AC6400002C65000013
:10561000A0F16103192B98BF20387047A0F1410316
:10562000192B98BF203070477F2805D8034B185C92
:10563000034B5B5C1840704700207047AC6400006F
:105640002C650000A0F16103192B98BF203870472A
:10565000A0F14103192B98BF203070477F299ABFD2
:10566000017001206FF02E0070475AB10A787F2A2E
:105670000AD800B10260002119605960501A18BFA1
:1056800001207047002070476FF02E007047000027
:1056900008B5034B5B689B681B68984708BD00BF53
:1056A0004400002008B50921FFF7F2FF08BD7AB3D6
:1056B00070B414460F2A15D902460B4640EA01057C
:1056C00015F0030F01D0013C0EE0194610460432DC
:1056D000043306680D68AE4204D110461946043CF6
:1056E000042CF2D8013C0ED00A460346044411466D
:1056F00018460133013206780D78AE4203D11846C0
:105700001146A342F3D100780B78C01A70BC7047E1
:1057100000207047844640EA010313F0030F18D1BC
:105720008446202A0BD32DE9F007B1E8F807A0E85A
:10573000F807A2F12002202AF7D2BDE8F007042AD8
:1057400007D351F8043B40F8043BA2F10402042AB9
:10575000F7D2002A05D011F8013B00F8013B013ACD
:10576000F9D1604670478446002A2DD010F0030F0F
:1057700004D000F8011B013A26D0F7E7C9B241EA8C
:10578000012141EA0141202A12D3A2F120022DE990
:10579000F0030B460C460D460E460F4688468946DA
:1057A000A0E8FA03203AFBD2BDE8F00320320BD088
:1057B000042A05D340F8041B043A05D0042AF9D280
:1057C00000F8011B013AFBD16046704700F101016E
:1057D00010F0030F11D010F8012B002A23D010F085
:1057E000030F0AD010F8012B002A1CD010F0030F71
:1057F00003D010F8012B002A15D02DE970004FF0CE
:1058000001324FF0803350F8044BA4EB020525EA37
:1058100004051D4000D1F6E7A0F1040070BC10F8AB
:0C582000012B002AFBD1A0EB0100704717
:10582C0086620000000000008C6200000000000096
:10583C0098620000000000009C6200000000000064
:10584C00A262000000000000A7620000000000003F
:10585C000A590000000003038062000000000000F1
:10586C000060000000000303F2630000000003036B
:08587C000D62000000000303AF
:10588400DC58000000000000E85800002800002058
:105894009C000020640100206C010020A400002072
:0458A40018000000E8
:1058A80000000000000000000D19000000000000CA
:0458B80000000000EC
:1058BC00FFFFFFFFFFFFFFFFFFFFFFFFFFFFFFFFEC
:1058CC0000000000000000000000D60106010000EE
:1058DC009504000049050000930400007561727482
:1058EC005F6C6F675F6261636B656E6400426163DE
:1058FC006B656E647320666C7573686564006170AB
:10590C0070000000900500207F00000010060020B1
:10591C001B5B306D002573001B5B313B33316D001D
:10592C0025734C6F67732064726F707065642028E8
:10593C0025642925730D0A003C25733E2025733AF6
:10594C002000202530327800202020007C002563A8
:10595C00001B5B313B33306D001B5B313B33326DD5
:10596C00001B5B313B33336D001B5B313B33346DC0
:10597C00001B5B313B33356D001B5B313B33366DAC
:10598C00001B5B313B33376D007761726E696E675C
:10599C0000696E666F006465627567001C590000D3
:1059AC005D59000024590000655900006D59000034
:1059BC00755900007D590000855900008D59000073
:1059CC0000000000CE5C0000955900009D590000BD
:1059DC00A25900000D0E0F101112131446617461C0
:1059EC006C206572726F7220307825780053797351
:1059FC0074656D2072657365740000000000FFFF14
:105A0C00DEC0ADDEFE011EF1DEC0ADDEFF011EF11B
:105A1C0048415244204641554C5420617420307802
:105A2C002530385800202052303A2020307825304C
:105A3C003858202052313A202030782530385820E0
:105A4C002052323A202030782530385820205233DA
:105A5C003A20203078253038580020205231323A04
:105A6C002030782530385820204C523A202030787D
:105A7C002530385820205053523A20307825303871
:105A8C005800537461636B2076696F6C6174696F35
:105A9C006E3A20737461636B20706F696E746572FB
:105AAC00206F75747369646520737461636B206116
:105ABC007265612E0043617573653A2042757346B9
:105ACC0061756C74206F6E206120766563746F72E3
