:1000000000000120750300005D030000D10E000018
:1000100061030000630300006503000000000000AE
:100020000000000000000000000000006703000066
:1000300069030000000000006B0300006D03000076
:10004000B91800006F030000891E00006F03000054
:100050006F030000A91C00006F0300006F03000085
:100060006F0300006F0300006F0300006F030000C8
:100070006F0300006F0300006F0300006F030000B8
:100080006F0300006F0300006F0300006F030000A8
:100090006F0300006F0300006F0300006F03000098
:1000A0006F0300006F0300006F0300004D2000008D
:1000B0006F0300006F03000000000000000000005C
:1000C0006F0300006F0300006F0300006F03000068
:1000D0006F0300006F0300006F03000000000000CA
:1000E0000000000000000000000000000000000010
:1000F0000000000000000000000000000000000000
:1001000000000000000000000000000000000000EF
:1001100000000000000000000000000000000000DF
:1001200000000000000000000000000000000000CF
:1001300000000000000000000000000000000000BF
:1001400000000000000000000000000000000000AF
:10015000000000000000000000000000000000009F
:10016000000000000000000000000000000000008F
:10017000000000000000000000000000000000007F
:10018000000000000000000000000000000000006F
:10019000000000000000000000000000000000005F
:1001A000000000000000000000000000000000004F
:1001B000000000000000000000000000000000003F
:1001C000000000000000000000000000000000002F
:1001D000000000000000000000000000000000001F
:1001E000000000000000000000000000000000000F
:1001F00000000000000000000000000000000000FF
:10020000354936480A1A02D0072291438D463449AF
:1002100034480A1A06D00722914381F30988022242
:1002200082F3148830483149314A00F044F83148AB
:100230003149324A00F03FF831483249324A00F041
:100240003AF832483249334A00F035F832483349F7
:10025000334A00F030F833483349344A00F02BF881
:1002600033483449344A00F026F8344834490022EF
:1002700000F02CF833483449002200F027F83348C6
:100280003349091A082902DB002202604160314A21
:1002900090471F481F49884205D00268043003B4C4
:1002A000904703BCF7E700208646EC46002000217B
:1002B000294A9047FEE7884207D0521A05D00378B2
:1002C00001300B700131013AF9D17047884202D0F8
:1002D00002700130FAE770470000012000E00020C2
:1002E0000000012000000120504300000000002019
:1002F00040000020D0030000D003000016380000AA
:10030000504300000000002000000020843800005E
:1003100084380000843800008438000084380000ED
:100320008438000084380000843800004E43000008
:1003300090430000400000204000002040000020CA
:1003400048080020480800204808002048080020ED
:10035000482800209D0300008D290000FEE7FEE7ED
:10036000FEE7FEE7FEE7FEE7FEE7FEE7FEE7FEE765
:1003700000F002B8FFF7FCBF0F484FF007018843B9
:1003800085460E4880470E48016841F470010160BF
:10039000BFF34F8FBFF36F8FFFF732BF09480A4992
:1003A0000A4A884207D0521A05D0037801300B70F0
:1003B0000131013AF9D1704700000120192B0000EA
:1003C00088ED00E0843800000000002000000020DC
:1003D000F0B595B01D46164608460C4601F010F9DA
:1003E0001A9B0D93CDE9086500252B46082205A927
:1003F00020460A958DF82C500C9501F01EF9079BAC
:100400000293069B03939DF814308DF8115003F06E
:100410000302012A1DD1BDF81420059DC3F3C203B8
:10042000C2F383168DF81030B20008230EA92046BF
:1004300001F003F9C5F3952508AB0093324602ABF2
:100440000EA9284600F0E0FB204601F0DDF815B0CB
:10045000F0BD022AF8D1BDF81650C3F3C203C5F3AC
:1004600089158DF810300827082D2E4628BF08263C
:100470003B4632460EA9204601F0DFF8AD1B08AB23
:1004800002AA31460EA8374400F022FC002DEBD121
:10049000DAE70000014B01221A707047810000204A
:1004A0007047000070B5124D06460FCD88B06C46FF
:1004B0000FC495E80F00002E84E80F004FF0FF33C3
:1004C0004FF00602CDE90023CDE90233094A0A487C
:1004D0004FF0EB7308BF00226946069301F06AF9FA
:1004E00008B100F097FC054B1E7008B070BD00BF4E
:1004F0008438000095040000000000204000002027
:1005000007B5044B0093044A4023FFF761FF03B093
:100510005DF804FB1D0500004100002038B50D4BBF
:100520000D4D002018700D4804782D5DD2B21C4688
:1005300065B1043002F0D6F908B100F06BFC084B4D
:100540001A7812B12378002BFBD038BD0C3001F0A3
:10055000A1FFF1E78100002030060020000000200C
:100560004000002008B50848084A0378D35C3BB136
:10057000043002F041F9BDE808400020FFF792BFC7
:100580000C3001F025FFF6E70000002030060020C7
:100590000120FFF787BF000008B5FFF7F9FF044807
:1005A000042100F099FA034B01225A7108BD00BFE3
:1005B0006038000014000020037813F0040216D005
:1005C00003F00303012B03D0022B09D00120704755
:1005D0000A6800880232C0F3831002440A60F5E71B
:1005E0000B684288023303EB92130B60EEE7104670
:1005F000704700002DE9F04F044685B0861C0020AE
:100600000F46154600F060FC454801683960D0E9A6
:100610000132134401335B1A824600F21C4700F595
:10062000836900F21448B3421BD30020002D72D01E
:1006300004F00F039B0143F0050363F30F00DAF8A6
:100640000020DAF808301340033316444AF8230038
:100650000020CAF8006000F039FC012005B0BDE8B8
:10066000F08F0121384600F0FEFC484600F013FDF3
:10067000404600F010FDDAF80400DAF808B0009007
:1006800000EA0B0003300AEB80006946FFF794FF95
:10069000009B50BB0BEA03020AEB820203F1020C3F
:1006A000D2680192013303EA0B0B0AEB8B0B02F0C9
:1006B0000302012ADBF80C10CDF800C023D0022A77
:1006C00016D08346404600F0E9FC10B1009BCAF802
:1006D00004305946384600F0C6FCDAE901231344D9
:1006E000DAF8002001339B1A9DE70BEA0300C9E703
:1006F000BDF80630C3F3891303334FEA114B0CEBFB
:1007000093030093DEE7BDF80430C3F383134FEA8D
:10071000114B6344F5E7A40544F006008FE700BFE2
:10072000540100200B4B0C48FF2210B59A600022A8
:10073000C3F81824C3E90022C3F8142483F8202442
:1007400000F017FF044610B9044800F080FF20466F
:1007500010BD00BF5401002070380000D8380000E0
:1007600030B50A4C71B10A4A0A49121BD20800235B
:100770009A4201D1002030BD31F82350854202D089
:100780000133F5E7034654F83300F4E71838000066
:100790006038000000000020094B013903EBC00065
:1007A000032909D8DFE801F00A0204060420704793
:1007B00000797047407970470020704702207047E9
:1007C00018380000034BD3E90030C31A584258418F
:1007D000704700BF540100202DE9F04385B0FFF7BA
:1007E000F1FF0646002840F0F5807B4DC5F818045F
:1007F000BFF34F8F6B68AC6800932340033305EB66
:1008000083006946FFF7D8FE009B18B1D5F818247D
:10081000002A5FD004EA0302991C013305EB82022F
:10082000234005EB8303D268DB68029302F00303E5
:10083000022B0192009160D1BDF806306748C3F3E6
:100840008917502FB84628BF4FF0500868F38F1310
:1008500008F10801ADF8063000F0A3FE06460028B6
:1008600000F0A38000F0CCFE0023082201A930464E
:1008700000F0D9FE009924EA01020132B8EB820FA0
:100880004FEA820332D95FFA88F85BB32140DCB2C9
:10089000A8EB040803315FFA88F9A046504C05EB39
:1008A000810108234246304600F0BDFE34B108F114
:1008B00008034A462146304600F0B5FE009B033748
:1008C00003EB97070097D5F81834002B49D1D5F8DA
:1008D000104459E02A689A428FD86A60304605B0C1
:1008E000BDE8F0833E491C469946DAE70C40E11C1E
:1008F0000823424605EB8101DDE7012B55D1BDF808
:1009000004303648C3F38311062928BF062161F35A
:10091000891302318900ADF8043000F042FE06462A
:10092000002842D000F06CFE0023082201A93046C6
:1009300000F079FE0027BDF80420C2F38312BB004B
:10094000974203F10803BED200994A1C21400331AB
:10095000009205EB81010422304600F064FE01376D
:10096000E9E7304600F050FEFFF72CFF80F0010071
:10097000C6B2B3E7E3685B7923B1236831461B68ED
:1009800020469847E3681C68002CF3D1304600F0FD
:100990003BFE204600F098FAD5F818340BB9009BBE
:1009A0006B60002000F092FADEE7D5F8104454B9ED
:1009B0000C4B0D480D49C01AC008000440F002005D
:1009C00000F062F8D0E7236820469B689847E36808
:1009D0001C68ECE7002681E7540100207038000015
:1009E000600100201838000048380000C1380000BD
:1009F0002DE9F74F224D04460F46924601A90122E8
:100A00001846D5F808909B46FFF7F4FD20B3019EE9
:100A10004FF00008B21CD84508EB020126D1194856
:100A2000002100F0FDFA80F31000000440EA1440B9
:100A3000E400731C04F0380403EA090306EA09061B
:100A400044F0010405EB8303033644EA881444EAC6
:100A50008724D86045F8264095F820341BB1FFF76D
:100A6000BBFE0028FBD103B0BDE8F08F09EA01010D
:100A700005EB81015AF82830CB6008F10108CAE77C
:100A8000540100207005002000231A46FFF7B0BF74
:100A900007B50123019201AAFFF7AAFF03B05DF891
:100AA00004FB1FB5CDE90123069B039301AA032391
:100AB000FFF79EFF05B05DF804FB1FB5CDE90023ED
:100AC000069B0293079B03936A460423FFF790FF5C
:100AD00005B05DF804FB000030B50F49D1F81024D3
:100AE00003460020144634B9DC6820714AB9C1F8C5
:100AF0001034226030BDE4682579854206D0246830
:100B0000F1E7D268116821601360F3E701300A2829
:100B1000E8D14FF0FF30EDE754010020094A38B525
:100B20000123D2F8104482F820341D4604B938BDA0
:100B3000E3685D71236820465B689847E3681C683A
:100B4000F4E700BF5401002007B503460846197AB0
:100B5000052911D05B7A2BB1094A0A49019000F0AE
:100B6000F7FA01980849019000F0F2FA019803B0F1
:100B70005DF804EB00F0E1BA002AF8D0F2E700BF1C
:100B8000E4380000E93800000939000030B5C388B6
:100B900085B004460D4633B1144A00921449154AF3
:100BA000284600F0D5FA217A05291DD0637A4BB189
:100BB000A088FFF7F1FD104B104953F8202028467C
:100BC00000F0C6FA227A0E4BA08853F82220039236
:100BD0000021FFF7C5FD039A0A490346284605B0E0
:100BE000BDE8304000F0B4BA05B030BDE4380000D4
:100BF000F4380000EC38000070390000E9380000DB
:100C0000943900000C3900002DE9F04385B01F46EF
:100C10000C9D002395F80C902B7306460C469046CD
:100C200029463846FFF7B2FFB8F1060F09D8DFE8CA
:100C300008F00412181F283340003146284600F0FF
:100C400087FA002229463846FFF77EFF85F80C9088
:100C500005B0BDE8F08322683146284600F078FAF6
:100C6000EFE7D4E900233146284600F071FAE8E7BF
:100C7000A36800933146D4E90023284600F068FABF
:100C8000DFE7E3680193A36800933146D4E90023CA
:100C9000284600F05DFAD4E723690293E3680193E4
:100CA000A36800933146D4E90023284600F050FAA7
:100CB000C7E76369039323690293E3680193A36819
:100CC00000933146D4E90023284600F041FAB8E702
:100CD00008292DE9F74F80460E4617461C463CD89A
:100CE000002593F80C901D7319461046FFF74EFF30
:100CF000DFF888A0DFF888B0AE4231D918F80520B7
:100D00005946204600F024FA0135082DF4D119493E
:100D1000194DDFF870A0204600F01AFA4FF0000BD2
:100D20005E4522D918F80B207E2A05D8104601927C
:100D300002F0E0FC019A00B92E225146204600F054
:100D400007FA0BF1010BBBF1080FE9D10122214693
:100D50003846FFF7F9FE84F80C9003B0BDE8F08F39
:100D60005146204600F0F4F9CEE72946204600F02F
:100D7000EFF9E6E7203900001E3900001C390000B9
:100D80001639000022390000044B1A5C01239340FD
:100D90004FF0A042C2F80C35704700BFA8390000E0
:100DA000044B1A5C012393404FF0A042C2F808356F
:100DB000704700BFA839000008B50020FFF7F0FF1A
:100DC0000120FFF7EDFF0220FFF7EAFFBDE8084032
:100DD0000320FFF7E5BFC20708B501460CD54FF069
:100DE000A0430322C3F84427C3F84827C3F84C277D
:100DF000C3F85027FFF7E0FF8B070AD54FF0A04359
:100E00000C22C3F83427C3F83827C3F83C27C3F8AB
:100E1000402708BD1FB50021039001AA44F201003C
:100E2000CDE9011100F004F805B05DF804FB000005
:100E300038B5054672B6FFF771FEFFF7CDFC002806
:100E4000FBD1114B114C1249E41AE40824042A4640
:100E500044F00100FFF71CFE0E4B1B68DB0700D5BA
:100E600000BE0D4944F00200FFF70EFEBFF34F8FA6
:100E70000A490B4BCA6802F4E0621343CB60BFF32C
:100E80004F8F00BFFDE700BF183800004838000052
:100E9000AC390000F0ED00E0BD39000000ED00E0ED
:100EA0000400FA0572B6024A1368013313607047F2
:100EB00010060020034A1368013B136003B962B6B1
:100EC000704700BF10060020FFF7ECBFFFF7F2BF2E
:100ED0001EF0040F1CBFEFF309800AE0EFF3088057
:100EE0000549064A884201D8904202D88D464FF003
:100EF0000000034B184700000000012000E0002024
:100F0000290F0000BFF34F8F0549064BCA6802F452
:100F1000E0621343CB60BFF34F8F00BFFDE700BF1C
:100F200000ED00E00400FA052DE9F3470546FFF760
:100F3000F5FDFFF751FC0028FBD12D4C2D482E4B21
:100F4000241AE40824049F6A44F00104002D49D0C7
:100F5000AA692A492046FFF79BFDEB680193AB681D
:100F6000274900932046D5E90023FFF7A6FDEB694A
:100F700000932449D5E904232046FFF792FD1E4B38
:100F8000DB6A990703D520492046FFF77DFDDFF88E
:100F90008890DFF888A000264FF0010808FA06F3D1
:100FA0003B4206D059F826201AB151462046FFF799
:100FB0006FFD01361A2EF1D13A0605D50E4B1349B5
:100FC0005A6B2046FFF764FD3B0405D50A4B1049D8
:100FD0009A6B2046FFF75CFD2846FFF793FF02B0AF
:100FE000BDE8F0870B492046FFF74EFDC7E700BF7D
:100FF000583800001838000000ED00E0CA39000041
:10100000DF390000143A00006F3A0000BE3A0000D9
:10101000DE3A00003C3A0000B83F0000B33A00005E
:1010200010B5034653E8000F0A4643E8002494F045
:10103000000FF7D110BD10B5034653E8002F42EA68
:10104000010043E8000494F0000FF6D110BD10B584
:10105000034653E8000F00EA010243E8002494F03D
:10106000000FF6D110BD10B5034653E8002F02EB78
:10107000010043E8000494F0000FF6D110BD10B554
:10108000034653E8002FA2EB010043E8000494F06C
:10109000000FF6D110BD0121FFF7CDBF0021FFF7F2
:1010A000D6BF10B590B1D0E9012301689B1ADBB21D
:1010B0000A60013BDBB2FF2B026802D100201071F5
:1010C00010BD11684C1C14600B70F2E70E20F7E79E
:1010D00038B504460020FFF7F7FE22686368116800
:1010E000994213D9481E106011F8015CE368218A07
:1010F00001FB0535A36811791B1ADBB2994200D2B6
:1011000013710020FFF7E2FE284638BD0025F8E7FE
:1011100038B5054600200C46FFF7D6FE2A6813684E
:10112000591C1160E968641A298AB4FBF1F41C7037
:10113000BDE838400020FFF7C9BE826810B50446FC
:101140002AB143690168006998470023A36010BD74
:101150000EB403B5039921B104AB01AA019300F0C9
:1011600077F802B05DF804EB03B070470A2938B590
:1011700004460D4602D10D21FFF7F8FFA36822684F
:10118000591CA160D554D4E901329A4204D32046B7
:10119000BDE83840FFF7D1BF38BD00002DE9F84F5A
:1011A0009846DDE90A43154682460F460A464FF047
:1011B0000109AA420FD2C14538BFC14613F0010B45
:1011C00001D16CB900240126B8F1010F1BD908F137
:1011D000FF386E43F8E709F10109B2FBF5F2E8E7E1
:1011E0009B070ED5B8F1000F0CBF30262026A14575
:1011F000E9D2013C31465046FFF7B8FF002CF6D14A
:10120000E0E72026F3E7B7FBF6F39D42E1D9DFF8EC
:101210003C80B7FBF6F3504618F8031006FB137733
:10122000FFF7A4FF3346AB42B6FBF5F6F1D2BBF1B4
:10123000000F02D00CB1A14501D3BDE8F88F2021E9
:101240005046013CFFF792FFF4E700BF204000004A
:101250002DE9F74F054617468846002900F04281E0
:1012600018F8011B49B92B7B002B00F03B81284665
:1012700003B0BDE8F04FFFF760BF252940F0B7800D
:10128000002698F800302D2B424608F1010823D0A3
:10129000302B24D02B2B25D000242A2B02F1010146
:1012A00023D13B681A1D1B683A601C440A46137818
:1012B0002E2B26D101324FF0000A104610F8011BE8
:1012C000A1F1300CBCF1090F1DD80A2303FB0A134E
:1012D000A3F1300A0246F0E746F00106D1E746F0F6
:1012E0000206CEE746F00406CBE711F8013CA3F175
:1012F00030000928DBD80A2202FB0434303C0A46BD
:10130000CBE74FF0000A12F8011B01F0FB00682840
:101310009046F8D0782909D86F290CD8632962D073
:1013200022D8252963D0582900F0888098F8003009
:10133000002B95D197E770390829F7D801A353F806
:1013400021F000BFBF1400002D1300002D1300007A
:101350004D1400002D1300002B1400002D1300006D
:101360002D1300003D140000642901D06929DDD14E
:101370003A68D2F80090111D89EAE9723960A2EB4F
:10138000E9724FF0010B092A35DCD34538BFD3464B
:101390002CB1B9F1000F01DB720700D5013CB30796
:1013A00002D5BAF1000F03D0F00701D44CBB0024E2
:1013B000B9F1000F2DDAC9F100092D212846FFF7F8
:1013C000D5FE06F00302022A04D1BAF1000F01D1C2
:1013D0001CBB0024CDE9004653460A224946284654
:1013E000FFF7DCFEA2E73B681A1D19783A60284631
:1013F000FFF7BCFE9AE70A230BF1010BB2FBF3F2F5
:10140000C1E7A345D4D220212846013CFFF7AEFE18
:10141000CCE77107D5D52B21D0E7A345DAD230210F
:101420002846013CFFF7A2FED2E73968CDE9004625
:101430000A1D3A6053460A220968D0E739680A1D36
:101440003A60CDE9004653461022F5E73B681A1D85
:101450003A6016F00106D3F8009028D1B9F1000FD8
:1014600003D0484602F0A7F90646B44200D904BBAF
:1014700009F1FF3919F8011F00293FF457AF284639
:10148000FFF774FEF6E728460136FFF76FFE19F8FE
:1014900006100029F7D1A642BFF448AF002C3FF454
:1014A00045AF20212846013CFFF760FEF3E7002608
:1014B000EDE720212846013CFFF758FED5E73B68C1
:1014C0001A1D3A60302128461C68FFF74FFE78212C
:1014D0002846FFF74BFE00220823CDE900322146C3
:1014E00010227CE703B0BDE8F08F00BF2DE9F84F74
:1014F000B0F806A04579D2F800B09DF828900AFB14
:1015000005F5043D88460BEB0301A94203F10404F1
:1015100088BFA5EB030BB4FBFAF607460AFB16449B
:10152000C2F800B04EB9AAEB04055D4528BF5D4680
:10153000BBF1000F04D1BDE8F88F3F68013EF1E731
:10154000043408EB06003C442A46B9F1000F0DD0E4
:101550002146ABEB050B02F0D2F8DA452E443F688A
:1015600055464FF0000428BF5D46E1E7014620469E
:10157000EFE7FFF796BDF8B546790146721E0546BE
:10158000002393422D6803D30024A64202D8F8BD5D
:101590000133F6E70F682846FFF7BAFD01343946F4
:1015A000F3E72DE9F843068ACD1C0746FFF790FDC7
:1015B000043E35440446B5FBF6F5F0B14FF48073B4
:1015C000EDB28380C680013D076081464FF0000880
:1015D000A84512D23846FFF77BFD064648B163792D
:1015E0000133637108F10108C9F800000760814602
:1015F000EEE72046FFF7BFFF34462046BDE8F883FC
:1016000001210430FFF72FBD10B50121044604303D
:10161000FFF735FD10F0FF0F04D12046BDE8104064
:10162000FFF7A9BF10BD1FB503920022009203AAC5
:10163000FFF75CFF05B05DF804FB1FB503920122C4
:10164000009203AAFFF752FF05B05DF804FB836820
:1016500000225A60C3E904229A60DA601A60704777
:1016600038B5074C051E04F1080318BF1C46236853
:101670002BB11A6822605B6828469847F7E738BDA7
:101680001C06002020B9054B01225A70FFF7E8BF65
:10169000012802D1014A9070F8E770471406002033
:1016A00038B5094C23786BB908486360A36023619F
:1016B000E36000F0BDF8054600F0C6F80123237092
:1016C000284638BD8525FBE7140600208516000056
:1016D00038B5134C6378054603F0FF0073B115B1BC
:1016E0006B68002098470020FFF7EEFB636801332A
:1016F00063600020BDE83840FFF7E8BBFFF7E4FB7C
:1017000025B1A26813463BB92A60A5606368002B27
:10171000ECD100F0ABF8E9E79D42F7D01B68F2E7A7
:101720001406002038B5084C0020FFF7CDFB636895
:10173000013B6360656815B900F0AAF86570BDE803
:1017400038400020FFF7C2BB140600201FB5037805
:101750008DF800304368019383688DF80830C368C2
:10176000054A0393054B684653F8213052F821107F
:10177000984705B05DF804FB280600202C060020E1
:101780001FB503788DF800304368019383688DF8A6
:101790000830C368054A0393054B684653F8213067
:1017A00052F82110984705B05DF804FB2806002088
:1017B0002C060020F0B5194B90F800C091F81DE000
:1017C00043F82C20164B16460A6943F82C20154B7B
:1017D00003F80CE00C4607460FCC89B06D460FC5E8
:1017E00094E80F0085E80F00CDF810C0BEF1000F9F
:1017F00009D0002E0C4A694608BF3246381D00F059
:1018000033FF09B0F0BD002E084A694608BF3246D2
:1018100007F10C0000F020FDF3E700BF2C060020CC
:1018200028060020300600204D1700008117000018
:10183000044A137923B9012110609180184670473A
:101840008520704734060020074B1A68D2075FBF17
:10185000C02283F8002301221A604FF08043012246
:10186000C3F81825704700BF00E100E0074B0022D5
:101870001A6082B01B680193019B4FF080430122E4
:10188000C3F804231A6002B0704700BF0001004093
:10189000074B01221A604FF08042D2F80C3403F05B
:1018A0000113B3F1011FF8D0024B00225A717047A7
:1018B0000400004034060020154B07B51A687AB1C1
:1018C00000221A601B680093009B4FF080430122A6
:1018D000C3F808230F4B587910B95A711B68984701
:1018E0000D4B1A6882B100221A601B680193019B9C
:1018F0004FF080430222C3F80823064B1B680120E7
:1019000003B05DF804EB184703B05DF804FB00BFBB
:10191000000100403406002004010040C02910B539
:1019200025D0B9B180290AD14378047882781B0286
:1019300043EA044313430F4A0330C2F8983543780F
:1019400002781B0243EA024382781343094A0330B8
:10195000C2F894350368074A1BBAC2F89035D2F82A
:10196000A03523F0C0031943C2F8A01510BD4021D3
:10197000E5E700BF00500040054B0D22C3F80424EA
:10198000044A01211160044AC3F80423704700BFD0
:10199000005000400850004082000800034BD3F87C
:1019A0003C0410F0030018BF0120704700500040B5
:1019B000F0B5B0F5A07FA5B070D1FFF7EFFF0446FA
:1019C0003A48002C6ED183680133072B836065D9B8
:1019D00004230093CDE90144354D039400F0F8FA57
:1019E000344B6C724FF48052C3F80825D3F80825A5
:1019F000D3F89005D3F8A01511F0C0011FFA82FCAE
:101A00004ED08029D3F8944501BFD3F898358DF88E
:101A100012301A0C8DF8102009BF1A0A04AA8DF88A
:101A200011200DF11302230C1370230A53709470CC
:101A3000D31C020E1A70020C5A70020A1D4C9A70C6
:101A4000D8701D4BD4F8A475D4F8046300221A6032
:101A50001A6801221A6004A8C4F808C5FFF75EFFDF
:101A6000D4F8A43507F0600723F060033B43C4F8C3
:101A7000A4350323C4F80C35D4F8A03523F01F0394
:101A800043F00403C4F8A0354FF48F63C4F8046333
:101A9000C4F808336B680BB16846984725B0F0BDB1
:101AA00004ABC6E700238360F8E700BF1C000020FA
:101AB0003C06002000500040FC5F00400288084BBC
:101AC0004168C3F81015C2F30802C3F81425054A8B
:101AD000126802F48C62C3F804230122DA617047B1
:101AE000005000403C0600200268CAB10D4B40681F
:101AF000C3F81005C2F30800C3F81405D20040F67D
:101B0000F8701040084AC3F81C05C3F80C15126899
:101B100002F01802C3F804230122DA6000207047A3
:101B200009207047005000403C06002000F1804032
:101B300000F5A0400123036070470000292812D15E
:101B40000C4B1B6813F0010F14BF0B4A0B4A012307
:101B500013600B4B4FF48052C3F808254FF48F628B
:101B6000C3F80823704700F1804000F5A04001232E
:101B70000360EEE72054004028500040245000400D
:101B8000005000400A2970B5024630D84FF49263E5
:101B9000CB40DB4313F0010029D14FF080540429DE
:101BA000D4F85054D4F85434D4F8584415704FEA4B
:101BB00015264FEA15459570DDB25670D57001D1E6
:101BC000002070BD1E0A16710A294FEA13464FEA1B
:101BD00013635671937105D1230AD471240C1372C7
:101BE0005472EEE7882DEBD19923D370E9E70920F1
:101BF000E7E700002DE9FF41264D2A7A002A47D168
:101C000003C885E803002449244F0323C1F80C3599
:101C1000D1F8A03523F01F0343F00403C1F8A03529
:101C20001F4B20214FF0C008C3F8801183F80583B3
:101C300019600423CDE9022202A98DF80830194A5F
:101C4000062338468DF80B3000F04CF90446D8B91D
:101C50003B68D3F8102501264FF4C861D2B2334651
:101C600021FA02F200960146384600F0DAF907211F
:101C700002A8FFF787FF4146044602A8FFF74EFE81
:101C80004FF480532E72EB60204604B0BDE8F08123
:101C90000824F9E73C060020005000401C0000200A
:101CA00000E100E0B11900007FB56D4B1A68EAB1A0
:101CB0006C4AD2F80423920718D500221A60BFF3A9
:101CC0004F8F694C637A03F0FF067BB9674D284656
:101CD00000F08AF9284600F06DF9012363720223AF
:101CE00000936368AE600BB168469847604D614CE5
:101CF0002B688BB35B4AD2F804335B062CD50021EA
:101D00002960BFF34F8F4023CDE90031D2F8103561
:101D10000393D2F824355848C3F30B03103BC3F3A5
:101D2000CC030293036873B1D2F804335E050AD57D
:101D3000D2F80C3403F00D0301930160BFF34F8F11
:101D40000D23C2F80C34484B5B680BB168469847CA
:101D500000232360BFF34F8F484E3368ABB1414A35
:101D6000D2F80433D90610D500233360BFF34F8F68
:101D7000CDE901330393102300931823C2F80833ED
:101D8000394B5B680BB1684698473D490B6843B3D4
:101D9000344AD2F804331B0323D500230B60BFF36E
:101DA0004F8F2B60BFF34F8F41F8243CBFF34F8F11
:101DB0002360BFF34F8F3360BFF34F8F2A49888969
:101DC000C2F808050D20C2F80C04C2F80404CDE9DD
:101DD000013303934FF4002300934B680BB1684623
:101DE000984728490B68FBB11E4AD2F804331806FD
:101DF0001AD50023D2F804040B60BFF34F8F802163
:101E00000091C107CDE90133039309D50121C2F83F
:101E100004148DF80430144B5B680BB16846984786
:101E2000104B0D22C3F804242368BBB10D4BD3F82B
:101E30000423120712D500222260BFF34F8F0A4AF3
:101E400052685AB108210091D3F810150291D3F8C5
:101E50001C35C3F3C80301936846904704B070BDB6
:101E600004510040005000403C0600201C000020AF
:101E7000185100400C5100402851004010510040C2
:101E80004C5100401C510040014B1B68184700BFDB
:101E90004C06002038B50B4B98420C4601D0002070
:101EA00038BD0020FFF710F8074B1D7915B9012246
:101EB0001C601A710020FFF709F8002DEFD01120E7
:101EC000EEE700BF002000404C060020034B984284
:101ED00001BF034B00221A601A71704700200040B6
:101EE0004C060020F7B506792F4D0C237343EF18ED
:101EF0003C7A002C56D1EA504B687B6047790368E6
:101F00002246D0B2874244D843F30734C878002C25
:101F1000A8BF04F16047C3F30732BABF234F02F0F2
:101F20000F0C07F561474FEA4010C0B2B4BF07F885
:101F30000C0087F80003640901201D4F02F01F0206
:101F400000FA02F247F82420D3F804454A7824F036
:101F5000030402F003022243C3F80425D3F8084522
:101F60008A7824F0030402F003022243C3F8082510
:101F70000A78D3F8104502F00F0224F00F010A434B
:101F8000C3F810250C2303FB06552872002003B06C
:101F9000F0BD900000F5A07001321C50185801905F
:101FA0000198AEE70820F2E75406002014ED00E0A7
:101FB00000E100E0036801221A600379034A0C2162
:101FC00001FB032302221A72704700BF540600204F
:101FD0000368044901221A6103790C2000FB0313F2
:101FE0001A7270475406002003680122DA607047B5
:101FF00037B54FF4803400688C407BB18B0003F51B
:10200000A0730025C550C3580193019BC0F8044339
:1020100001F5A87140F8212003B030BDC0F8084395
:10202000F6E770B4046840F20116D4F800528E400E
:1020300025EA0605C4F80052D4F800522B43C4F830
:1020400000329DF80C3070BCFFF7D2BF2DE9F34190
:10205000104C114F114E00254FF48038236883B186
:10206000D7F8043308FA05F21A420AD00023236095
:102070002368019304F5A040019B80B2D6E90031AA
:1020800098470135062D04F10404E7D102B0BDE8FC
:10209000F08100BF40B1014000B001405406002073
:1020A0000023435082B043580193019B02B0704714
:1020B0000A4610B54FF48E71FFF7F2FF136A91686C
:1020C000C95C136A01331362C0F81C1510BD8B691B
:1020D0000A4610B54FF4847123B9FFF7E1FFD0F839
:1020E000183510BDFFF7DCFF536AD168D0F818052A
:1020F000C854536A01335362F3E700001FB501234C
:102100008DF80030044BCDE90110D3E90012684688
:10211000904705B05DF804FB6006002030B54C48E0
:10212000D0F8043313F4007F85B005464DD0D0F8C5
:102130002431002B49D04FF49271FFF7B1FF4FF4D7
:102140000173C0F80833434B93F829200AB90122E0
:1021500042603F4902228DF80020D1F88024C1F866
:10216000802403929A690292DA6801920022C3E9FC
:1021700006226846D3E9001290473548D0F81C3152
:102180005BB134494A690B6A9A420A464AD991F8C6
:102190002830002B46D1FFF78BFF2D48D0F8443173
:1021A0008BB14FF4A271FFF77BFF2A4B93F82920E4
:1021B0000AB1012202609A692AB10022586AD968DC
:1021C0009A61FFF79BFF05B030BDD5F804335B077C
:1021D000D3D5D5F80831002BCFD01E4C1C48214652
:1021E000FFF775FF636AA2699A422346C5D1E26987
:1021F000E1684AB12369E3600023606AA261E36198
:102200006362FFF77BFFB8E794F829200AB901223F
:102210006A600F4A4FF40170C2F808030022586A3E
:102220009A61EEE70A484FF48E71FFF739FF536960
:10223000002BB2D051690291002391688DF80030D3
:10224000019153616846D2E900139847A5E700BFA2
:1022500000200040600600202DE9F843574B057927
:1022600091462C2202FB0532064692F82A200C46A3
:102270009846002A40F09D8051490068FFF70AFE09
:102280000746002840F0978021683368481C0BD02F
:102290004FF0A04001228A40C0F8082501F5E07205
:1022A0004FF0030C40F822C06068421C1FBF00F5CD
:1022B000E0724FF0A04C4FF0000E4CF822E0A26903
:1022C000C3F8242594F814C0627DBCF1010F4CEAD8
:1022D0000202C3F86C25C3F81405C3F80C151DD110
:1022E000A1684A1C1FBF01F5E0724FF0A0404FF0FB
:1022F000000C40F822C0E268501C0BD04FF0A04CFC
:1023000001209040CCF8080502F5E0704FF0030E74
:102310004CF820E0C3F80825C3F810152C236B43B4
:1023200008EB0302C2F80490226948F80320B9F1CF
:10233000000F2BD03068247F4FF48E71FFF7B0FE72
:1023400030684FF4A271FFF7ABFE32681D4BC2F844
:102350000433110B42F30732002AA8BF02F1604098
:102360004FEA4413BABF184801F00F0400F561406A
:10237000DBB2B4BF035580F8003301F01F01012325
:1023800003FA01F15209114B43F822103368042279
:10239000C3F800252C2303FB05830022C3E9062292
:1023A00083F829205A61012283F82A203846BDE8A3
:1023B000F8830827FAE71127F8E700BF6006002036
:1023C0001D2100008000020014ED00E000E100E0AB
:1023D000F8B5047900682C4D0023C0F800352C2393
:1023E00003FB04535B686BB1284BC0F8083340F320
:1023F0000733C0F304315B0901228A4020332449AA
:1024000041F82320D0F80C65D0F81415D0F8083521
:10241000D0F810254FF0FF37BE42C0F8147518BF32
:1024200006F5E076C0F80C75C0F80875C0F81075B0
:102430001EBF4FF0A0474FF0020C47F826C04E1CBD
:102440001FBF4FF0A04601F5E071022746F821704A
:10245000511C1FBF4FF0A04102F5E072022641F867
:1024600022605A1C1FBF03F5E0734FF0A042022107
:1024700042F82310FFF72AFD2C2303FB045400230A
:1024800084F82A306360F8BD6006002084020200F0
:1024900000E100E02DE9F047204F90F804904FF064
:1024A0002C0808FB097405466669002E34D1626168
:1024B0000068A16026624FF48E7184F82860FFF7EF
:1024C000EFFD2868012383602146FFF7F1FD636873
:1024D000A0468BB92868D4F814A0236A9A4511D86D
:1024E0002A68D2F81C31002BFBD00123D3602C23A7
:1024F00003FB097300225A613046BDE8F08794F867
:1025000028303BB9D0F81C31002BF8D04146FFF7FA
:10251000CFFDE2E70F26EAE71126EDE7600600208F
:102520000023435082B043580193019B02B070478F
:102530001FB501238DF80030044BCDE90110D3E91C
:1025400000126846904705B05DF804FB8C06002039
:102550007FB5434AD2F82461002E60D010464FF474
:102560009271FFF7DDFF02238DF80030D2F880343E
:10257000C2F880340393D2F83C350293394BDA68C1
:1025800001920022C3E906226846D3E9001290476F
:102590003348D0F8443173B14FF4A271FFF7C0FF54
:1025A000304B9A693AB10022C3E90622D968D0F8C3
:1025B0003C05FFF7BDFF2A48D0F82031ABB14FF4FE
:1025C0009071FFF7ADFF0123C360264B5A6962B1DA
:1025D000D0F84C150291002299688DF800200191E5
:1025E0005A616846D3E9001290471D48D0F8583127
:1025F0009BB14FF4AC71FFF793FF1A4B5A6962B16C
:10260000D0F84C150291002299688DF800200191B4
:102610005A616846D3E90012904704B070BDD2F801
:102620001031002BB4D04FF488711046FFF778FFBB
:102630000C4BD2F83C0599698842A9D1DC69D9686C
:1026400064B1D2F8005225F02005C2F800521A6990
:102650009C61DA60DE61FFF76BFF99E79C61FAE746
:10266000002000408C0600202DE9F8435D4B0679E0
:102670009146242202FB0632044692F820200D46A1
:102680009846002A40F0AA8057490068FFF702FCEC
:102690000746002840F0A48029682368481C0BD016
:1026A0004FF0A04001228A40C0F8082501F5E072F1
:1026B0004FF0030C40F822C06868421C1FBF00F5B1
:1026C000E0724FF0A04C4FF0000E4CF822E0AA69E7
:1026D000C3F8242595F814C06A7DBCF1010F4CEABB
:1026E0000202C3F86C25C3F80C15C3F814051DD1FC
:1026F000A9684A1C1FBF01F5E0724FF0A0404FF0DF
:10270000000C40F822C0EA68501C0BD04FF0A04CDF
:1027100001209040CCF8080502F5E0704FF0030E60
:102720004CF820E0C3F80825C3F8101524237343A0
:1027300008EB0302C2F804902A6948F80320B9F1B3
:10274000000F3AD020682A7F4FF48871FFF7E8FE27
:1027500020684FF49071FFF7E3FE20684FF4927108
:10276000FFF7DEFE20684FF4A271FFF7D9FE206864
:102770004FF4AC71FFF7D4FE23681C49C3F804136F
:10278000190B43F30733002BAEBF03F1604001F098
:102790000F0517484FEA4212A8BF00F56140D2B2B8
:1027A000B4BF425580F8002301F01F01012202FA54
:1027B00001F15B090F4A42F8231023680822C3F88D
:1027C0000025242303FB06830022C3E906225A6165
:1027D000012283F820203846BDE8F8830827FAE76D
:1027E0001127F8E78C060020512500001003420055
:1027F00014ED00E000E100E0F8B5374D0479242342
:1028000003FB045302465B6800686BB1334BC0F8AE
:10281000083340F30733C0F304365B090121B140AC
:1028200020332F4E46F82310D0F80032012623F033
:102830002003C0F800324FF4AC714660FFF770FE21
:102840001068C660D0F85831002BFBD00023C0F8C8
:102850000035D0F80C65D0F81415D0F80835D0F84C
:1028600010254FF0FF37BE42C0F80C7518BF06F5B3
:10287000E076C0F81475C0F80875C0F810751EBF72
:102880004FF0A0474FF0020C47F826C04E1C1FBF68
:102890004FF0A04601F5E071022746F82170511C67
:1028A0001FBF4FF0A04102F5E072022641F82260FE
:1028B0005A1C1FBF03F5E0734FF0A042022142F8FB
:1028C0002310FFF703FB242303FB0454002384F8A5
:1028D00020306360F8BD00BF8C060020100342006A
:1028E00000E100E001F06043B3F1005F2DE9F04149
:1028F000064638D11E4B0779242505FB0735984637
:102900006C69002C31D16A610068A9604FF4907144
:10291000FFF706FE4FF4AC713068FFF701FE336835
:102920006A69A968C3F84415C3F8482501229A606A
:102930006A68AAB9D3F82021D3F858411AB9002CF3
:10294000F8D00F2407E0002CFBD10122DA60D3F885
:102950005821002AFBD0242303FB078700237B6137
:102960002046BDE8F0811024FAE71124F8E700BF03
:102970008C060020012902D0022903D070470020D4
:10298000FEF702BA0020FEF70BBA00002DE9F04175
:102990000021A8B04FF4807308460093FDF7C2FEF3
:1029A00008B1FEF737FAFDF7F7FD0120FEF713FA3D
:1029B0003748002100F03CFC08B1FEF72BFA354CFB
:1029C000DFF8D880DFF8D8E0CDF864800FCC07AE10
:1029D0000FC62546012755F8043B336007AB1B9310
:1029E0000FCD0CAE0FC62B6833604FF0000C0CAB54
:1029F0001834CDE91F8EADF85870CDF85CC08DF855
:102A00006070CDF868E0ADF87070CDF874C08DF8E6
:102A1000787021930FCC11AD0FC523682B6011ABDB
:102A2000279301AB049316A9032304A8CDE9258EAF
:102A3000CDE9053CADF88870CDF88CC08DF890706C
:102A400000F0CDF978B91CA904A800F0C8F950B974
:102A500022A904A800F0C3F928B90F496A4604A8BE
:102A600000F088F908B1FEF7D5F900990A4800F09E
:102A700011FC08B1FEF7CEF900F0A0FC08B1FEF79A
:102A8000C9F9FDF7A9FE0028FBD120BFF9E700BF77
:102A90007529000058400000B00600200C410000DD
:102AA000E53500000C4B1B78062B10D10B4B1B6837
:102AB0001A070CD10A4B186800F0F003302B08D02D
:102AC00000F0E000A0F14003584258417047002058
:102AD00070470120704700BFE00F00F0E40F00F0E6
:102AE000E80F00F0094B1B78062B0CD1084B1B6834
:102AF0001A0708D1074B186800F0F000A0F1300366
:102B00005842584170470020704700BFE00F00F066
:102B1000E40F00F0E80F00F008B5FFF7C3FF28B19D
:102B20007D4B7E4A1B68C3F304231360FFF7DAFF73
:102B300010B17B4B7B4A1A60FFF7B4FF28B17A4B88
:102B40007A4A1B68C3F342331360FFF7CBFF20B10F
:102B5000774AD36823F08073D360FFF7A3FF40B1B7
:102B60004FF080430022C3F80C21C3F81021C3F8B2
:102B70003825FFF7B7FF10B16E4B03221A60FFF73D
:102B8000B1FF40B16C4B05221A6001229A67002206
:102B90009A603F225A60694B1B78062B50D1684BD4
:102BA0001B6819074CD1674B1B6803F0F003502BCF
:102BB00046D14FF08052644BD2F80414C3F820156C
:102BC000D2F80814C3F82415D2F80C14C3F8281549
:102BD000D2F81014C3F82C15D2F81414C3F8301519
:102BE000D2F81814C3F83415D2F81C14C3F84015E1
:102BF000D2F82014C3F84415D2F82414C3F84815A9
:102C0000D2F82814C3F84C15D2F82C14C3F8501578
:102C1000D2F83014C3F85415D2F83414C3F8601540
:102C2000D2F83814C3F86415D2F83C14C3F8681508
:102C3000D2F84014C3F86C15D2F84424C3F87025B8
:102C4000FFF730FF28B1414B414A1B6803F04F03A7
:102C50001360FFF727FF48B14FF08043D3F80024FB
:102C6000D20744BF6FF00102C3F80024394B1B6840
:102C7000062B08D1384B1B68062B01BF374A136857
:102C800043F480631360364AD2F8883043F470030B
:102C9000C2F88830BFF34F8FBFF36F8F4FF0102310
:102CA000D3F80022002A03DBD3F80432002B2FDAFA
:102CB0002C4B0122C3F80425D3F80024002AFBD0B2
:102CC0004FF010221521C2F80012D3F80024002A78
:102CD000FBD04FF010231522C3F80422214B1A46D3
:102CE000D3F800140029FBD00021C3F80415D2F852
:102CF0000034002BFBD0BFF34F8F19491A4BCA6821
:102D000002F4E0621343CB60BFF34F8F00BFFDE7D7
:102D1000164B174A1A6008BD2403001040350140C5
:102D200074C007400DF0ADBA440200103C050040ED
:102D3000F0ED00E0A005004010560040E00F00F06C
:102D4000E40F00F0E80F00F000C00040580200104F
:102D5000E40E004030010010340100103C17004028
:102D600000ED00E000E001400400FA05280000202A
:102D70000090D0032DE9F7430D461646804660B318
:102D80005AB3D0F80090B9F1000F26D000273C4686
:102D9000D8F80830A34204D83760002003B0BDE85B
:102DA000F083A4B9012B0CBFC0218021336859F8EE
:102DB0002400DB1B01932A4601AB00F01DF800281C
:102DC000ECD1019B1F4405B11D440134E0E7611CB7
:102DD00099420CBF40210021E8E70E20DEE7D0E950
:102DE000012393423FBF026842F8231001338360FE
:102DF00034BF0020042070472DE9F74314461F46D6
:102E0000054618B90E2003B0BDE8F0834278037A76
:102E10009E18002A36D19E1D002C3CD08B063CD13A
:102E20003B68B3423BD321702B78A046194308F886
:102E3000021B2B7A63706B7833BB04F106092A7A84
:102E4000E968484600F05BFC2C7A6A784C442AB169
:102E50002046696800F053FC6B781C443B689B1B60
:102E600001932B69002BCDD0686901AA21469847B0
:102E70000028C8D1019B14B11ABAC8F800201E441A
:102E80003E60C0E70736C7E741F0080104F10709D3
:102E9000A3712170D3E7A046E3E70720B3E704203E
:102EA000B1E708B9FEF742BE70470000074B084A79
:102EB00010B500245A601C60FEF7F2FB852803D091
:102EC000A04218BF032010BD2046FCE7B007002039
:102ED000A32E00000368022B02D0042B03D07047FE
:102EE0000248FEF7F5BBFEF71DBC00BFB00700208F
:102EF0002DE9F047C14C844201D0BDE8F087032999
:102F0000FBD8DFE801F0431C55022378042BF4D0F2
:102F1000052BF2D194F8682094F8693004219A4284
:102F20002170EAD194F86A30002BE6D11A46D4E930
:102F300001500321A847012384F86A30DDE7237894
:102F4000042B00F02A81052B00F0408194F8696081
:102F5000002E00F0308100210D46022308204FF0A2
:102F6000010C01310CFA03F2B14242EA000203F112
:102F7000FF3300F02281D0B25A1C04EB0507F0D1D8
:102F800087F84800013507230020EAE72378042B5F
:102F9000B3D0052BB1D0032BAFD1D4E9015004221B
:102FA00000232270AC461A460121BDE8F047604775
:102FB000002BA2D0002AA0D0117830299DD1022B5D
:102FC0009BD12378042B98D192F8018063694FEA52
:102FD000880705229F42227004D3A269103A9742C3
:102FE00040F2FA80864D10222846002100F0B0FB06
:102FF00063699F4280F0EE80DE1BA5F114010F2E65
:10300000394400F2F680324628461F4600F077FB2E
:103010003544C6F11006A369BB4212D9D4E9042194
:10302000791AA2EB0109B145E36828BFB1462846E9
:1030300019444A4600F063FBB6EB09064F444D4481
:1030400032D0A369BB4200F0DF80E369BB420ED9F6
:10305000DB1BB34228BF3346994628461A46002157
:103060001F4400F075FBB6EB09064D441CD0236AE3
:10307000BB4214D9DB1BB34228BF33461A46FF219B
:103080002846994600F064FBE3690E33DF1BB74224
:103090009CBF3F23EB55B6EB090605D04D443246A5
:1030A0002846002100F054FB554D2846102100F021
:1030B0008DFA4FEAD803A8EBC306B8F1030FC6F1A7
:1030C000070594F8682040F28380E718012197F8FB
:1030D000480001FA05F510EA050C00F0838020EAAB
:1030E000050087F848000A44D2B20127D6F1060548
:1030F00008F1010144BF0133072511F0FF0146D05B
:1031000003290FD9E718012197F8480001FA05F6BD
:1031100010EA060C64D020EA060087F848000A444A
:10312000D2B201276E1E0DB90133072608F1020144
:1031300011F0FF012BD003290CD9E718012197F8D2
:10314000480001FA06F510EA050C4DD161460A4423
:10315000D2B20127701E0EB90133072008F1030116
:1031600011F0FF0113D0032911D02344012693F855
:10317000485006FA00F015EA00011BBF25EA0000DE
:1031800083F848000B4633461A44D2B20127002F79
:103190003FF4B3AE84F86820AFE60123194A03EB8D
:1031A00043031A44002392782270D4E901501A464E
:1031B0000221A847CAE6354630462544002385F853
:1031C000480084F8683084F86A3096E60423E5E71E
:1031D00000278BE710261EE7E568FB1A1D4464E70D
:1031E00061469CE761467EE720EA050087F84800D3
:1031F000ADE71022284600F082FA56E7B807002013
:10320000F0070020D0400000236A002B3FF41DAFE0
:10321000E3699F423FF419AF01222846FE2117447B
:1032200000F096FA013E05F101057FF40EAF3BE791
:1032300030B338B5134C2378042B01D0052B01D1C2
:10324000082038BD032BFBD0002BF9D10B46606062
:1032500001250A220C49A36004F12400257000F026
:103260004EFA0A4BC4F82E307C220F23214684F8F4
:10327000322084F833300648BDE8384000F028B9E1
:1032800007207047B8070020C4400000FFFFE1108E
:10329000F12E0000B1F5777F56D8F0B4384C237882
:1032A000042B01D0052B02D10820F0BC7047032B62
:1032B000FAD0002BF8D0012B42D10923314A03EB7D
:1032C000430313449B7823700323002850D0FE2926
:1032D000C4E9030184F83430C8B243D9CE1D0A0AC8
:1032E000B60884F83700F3B284F836201431142776
:1032F000FF204FF47C754FF4806284F83500C4E9F8
:10330000057184F86930C4E90752FEB1002108460E
:10331000022308254FF0010C01310CFA03F2B142EF
:1033200042EA050203F1FF3312D0D5B25A1C04EB76
:103330000007F1D187F84850013007230025EBE75B
:10334000022BB1D10C23B9E70C207047304635462B
:103350002318002083F8485084F8680084F86A0035
:10336000F0BC70474E1DB6081231F3B21227C0E709
:10337000012684F83430C4E9030033461221F5E70E
:10338000B8070020D040000010B5044650B10A290B
:1033900006D10A460146074800F0B1F9002010BDE9
:1033A0000C2010BD0A220449024800F0A8F920466A
:1033B00010BD00BFDC070020C440000008B50B4A68
:1033C0001378042B01D0052B01D1082008BD032B55
:1033D000FBD0002BF9D0012BF7D0022BF5D1032322
:1033E000137000F0F1F8002008BD00BFB8070020FE
:1033F00070B50446FFF76EFD2368402B3BD012D812
:10340000042B2BD0102B28D12C48FEF757FB2C4B2C
:103410001C6814B32B4A00231068A4461A460321E3
:10342000BDE870406047802B11D0B3F5002F14D158
:103430002248FEF743FB224B1C6874B1214A00234B
:103440001068A4461A461946BDE8704060472379C3
:103450001BB91D4A117801B1137070BD184B1C685F
:10346000002CFAD0174A00231068A4461A460121FE
:10347000BDE870406047636833B9144A1378302B55
:1034800007D01378502B10D02920BDE87040FEF7EC
:1034900055BB0B4B1D68002DDFD00A49A368086897
:1034A000AC460221BDE870406047074B01221A700C
:1034B0002820BDE87040FEF741BB00BF044100007A
:1034C0002408002028080020470800202C0800209D
:1034D000F0B5384B384A394C394D07460E4693E81B
:1034E000030087B0176022782E6001AD85E80300E5
:1034F00042B907230A2133482370FEF743FB002813
:1035000037D122780A2A4FD02E4B18785E789978D6
:10351000DF78072A80EA060C2DD11C795A7993F8B6
:1035200006E08DF80E1084EA0703534081F088010D
:103530008DF80C008EEA03038CEA010103208DF85C
:103540000D608DF80F108DF810708DF811408DF80A
:1035500014308DF812208DF813E08DF815000A2133
:1035600003A8FFF711FFFFF7A1FC10B92846FEF7EB
:1035700041FB07B0F0BD002460F3070466F30F249D
:1035800061F3174479408CEA010367F31F64042256
:10359000FF210DF111008DF81030039400F0D8F8E0
:1035A00003238DF81530DAE711460648FFF7ECFEE5
:1035B000D9E700BFFC400000240800204608002096
:1035C000280800203C080020FEF7D6B900B583B0DB
:1035D000CDE9001003216846FEF786FA03B05DF8D6
:1035E00004FB00BFF8B5174690F90820037A002ABB
:1035F000044622DD5A0620D44268F2B10669E6B1DB
:10360000C268D2B1CFB101361E4499B13A68B24214
:1036100015D302780D4603EBC21305F8013B027A7D
:103620004168284600F06BF8207AD4E90312284458
:1036300000F065F83E600020F8BD0720FCE704209C
:10364000FAE700007F2805D8034B185C034B5B5C4E
:1036500018407047002070471C4100009C4100004A
:10366000A0F16103192B98BF20387047A0F14103E6
:10367000192B98BF203070477F2805D8034B185C62
:10368000034B5B5C18407047002070471C410000F2
:103690009C410000A0F16103192B98BF20387047AE
:1036A000A0F14103192B98BF203070477F299ABFA2
:1036B000017001206FF02E0070475AB10A787F2AFE
:1036C0000AD800B10260002119605960501A18BF71
:1036D00001207047002070476FF02E0070470000F7
:1036E00008B5034B5B689B681B68984708BD00BF23
:1036F0002C00002008B50921FFF7F2FF08BD844621
:1037000040EA010313F0030F18D18446202A0BD39B
:103710002DE9F007B1E8F807A0E8F807A2F12002C8
:10372000202AF7D2BDE8F007042A07D351F8043B5A
:1037300040F8043BA2F10402042AF7D2002A05D083
:1037400011F8013B00F8013B013AF9D1604670479E
:103750008446002A2DD010F0030F04D000F8011B7E
:10376000013A26D0F7E7C9B241EA012141EA014115
:10377000202A12D3A2F120022DE9F0030B460C46B9
:103780000D460E460F4688468946A0E8FA03203AC1
:10379000FBD2BDE8F00320320BD0042A05D340F859
:1037A000041B043A05D0042AF9D200F8011B013A9F
:1037B000FBD16046704700F1010110F0030F11D0FA
:1037C00010F8012B002A23D010F0030F0AD010F8B4
:1037D000012B002A1CD010F0030F03D010F8012B8E
:1037E000002A15D02DE970004FF001324FF08033E0
:1037F00050F8044BA4EB020525EA04051D4000D156
:10380000F6E7A0F1040070BC10F8012B002AFBD1F0
:06381000A0EB010070476F
:1038180036400000000000003C40000000000000AE
:10382800414000000000000045400000000000008A
:103838004B40000000000000504000000000000065
:10384800D2380000000003033040000000000000F0
:08385800AE3F00000000030375
:10386000A438000000000000B03800001400002060
:10387000840000204C010020540100208C00002016
:04388000180000002C
:10388400FFFFFFFFFFFFFFFFFFFFFFFFFFFFFFFF44
:1038940000000000000000000000D6010601000046
:1038A4000105000065050000A10400007561727443
:1038B4005F6C6F675F6261636B656E640042616336
:1038C4006B656E647320666C757368656400617003
:1038D40070000000780500207F000000F80500203B
:1038E4001B5B306D002573001B5B313B33316D0076
:1038F40025734C6F67732064726F70706564202841
:1039040025642925730D0A003C25733E2025733A4E
:103914002000202530327800202020007C00256300
:10392400001B5B313B33306D001B5B313B33326D2D
:10393400001B5B313B33336D001B5B313B33346D18
:10394400001B5B313B33356D001B5B313B33366D04
:10395400001B5B313B33376D007761726E696E67B4
:1039640000696E666F00646562756700E438000084
:1039740025390000EC3800002D39000035390000ED
:103984003D390000453900004D390000553900002B
:10399400000000007C3C00005D3900006539000037
:1039A4006A39000011121314466174616C20657247
:1039B400726F7220307825780053797374656D20A6
:1039C40072657365740048415244204641554C5415
:1039D4002061742030782530385800202052303A45
:1039E4002020307825303858202052313A20203099
:1039F4007825303858202052323A2020307825302B
:103A04003858202052333A20203078253038580056
:103A140020205231323A2030782530385820204C3A
:103A2400523A202030782530385820205053523ACA
:103A34002030782530385800537461636B207669E0
:103A44006F6C6174696F6E3A20737461636B20707C
:103A54006F696E746572206F757473696465207321
:103A64007461636B20617265612E004361757365D7
:103A74003A204275734661756C74206F6E20612024
:103A8400766563746F72207461626C65207265611F
:103A94006420647572696E67206578636570746903
:103AA4006F6E2070726F63657373696E672E004367
:103AB400617573653A2025732E004D656D4D616EF9
:103AC400616765204661756C742041646472657336
:103AD400733A203078253038580042757320466197
:103AE400756C7420416464726573733A2030782570
:103AF400303858005468652070726F636573736F53
:103B0400722068617320617474656D7074656420DB
:103B1400746F206578656375746520616E20756EB9
:103B2400646566696E656420696E73747275637426
:103B3400696F6E005468652070726F636573736F8C
:103B44007220617474656D707465642061206C6F9B
:103B54006164206F722073746F72652061742061D8
:103B6400206C6F636174696F6E2074686174206483
:103B74006F6573206E6F74207065726D6974207444
:103B84006865206F7065726174696F6E00556E733D
:103B94007461636B20666F7220616E206578636563
:103BA4007074696F6E2072657475726E20686173CB
:103BB40020636175736564206F6E65206F72206D7C
:103BC4006F7265206163636573732076696F6C61DE
:103BD40074696F6E7300537461636B696E672066FA
:103BE4006F7220616E20657863657074696F6E20F2
:103BF400656E74727920686173206361757365649E
:103C0400206F6E65206F72206D6F72652061636333
:103C14006573732076696F6C6174696F6E730041AC
:103C2400204D656D4D616E616765206661756C74CC
:103C3400206F6363757272656420647572696E6760
:103C440020666C6F6174696E672D706F696E742085
:103C54006C617A7920737461746520707265736520
:103C640072766174696F6E00496E737472756374F1
:103C7400696F6E20627573206572726F72004461A1
:103C8400746120627573206572726F7220285043CC
:103C94002076616C756520737461636B656420665E
:103CA4006F722074686520657863657074696F6EDF
:103CB4002072657475726E20706F696E74732074EF
:103CC4006F2074686520696E737472756374696FAC
:103CD4006E20746861742063617573656420746810
:103CE40065206661756C7429004461746120627595
:103CF40073206572726F72202872657475726E20FB
:103D04006164647265737320696E207468652073DE
:103D14007461636B206672616D65206973206E6FD8
:103D2400742072656C6174656420746F20746865B6
:103D340020696E737472756374696F6E2074686140
:103D4400742063617573656420746865206572729C
:103D54006F722900556E737461636B20666F7220F5
:103D6400616E20657863657074696F6E2072657426
:103D740075726E2068617320636175736564206F6A
:103D84006E65206F72206D6F726520427573466197
:103D9400756C747300537461636B696E6720666F2E
:103DA4007220616E20657863657074696F6E20653A
:103DB4006E74727920686173206361757365642021
:103DC4006F6E65206F72206D6F7265204275734649
:103DD40061756C7473004120627573206661756C43
:103DE40074206F6363757272656420647572696EA2
:103DF4006720666C6F6174696E672D706F696E748D
:103E0400206C617A792073746174652070726573B3
:103E14006572766174696F6E005468652070726FA4
:103E2400636573736F722068617320617474656D68
:103E34007074656420746F2065786563757465209B
:103E4400616E20696E737472756374696F6E207429
:103E5400686174206D616B657320696C6C65676162
:103E64006C20757365206F66207468652045505317
:103E740052005468652070726F636573736F7220AB
:103E840068617320617474656D7074656420616E1B
:103E940020696C6C6567616C206C6F6164206F666F
:103EA400204558435F52455455524E20746F207438
:103EB40068652050432C20617320612072657375FE
:103EC4006C74206F6620616E20696E76616C696423
:103ED40020636F6E746578742C206F7220616E207D
:103EE400696E76616C6964204558435F5245545548
:103EF400524E2076616C7565005468652070726F4F
:103F0400636573736F722068617320617474656D87
:103F14007074656420746F206163636573732061DA
:103F240020636F70726F636573736F72005468659A
:103F34002070726F636573736F7220686173206D94
:103F440061646520616E20756E616C69676E65647D
:103F5400206D656D6F7279206163636573730054BE
:103F640068652070726F636573736F722068617324
:103F740020657865637574656420616E20534449D7
:103F840056206F72205544495620696E73747275B9
:103F94006374696F6E207769746820612064697640
:103FA40069736F72206F66203000686172646661A5
:103FB400756C7400F83A0000383B00000000000003
:103FC400913B0000DA3B0000233C000000000000AD
:103FD400000000006C3C0000823C0000ED3C00004E
:103FE400583D0000993D0000DA3D0000000000004B
:103FF40000000000F83A00001D3E0000763E00007C
:10400400FD3E000000000000000000000000000071
:1040140000000000313F0000633F000030313233C4
:10402400343536373839414243444546636C6F630F
:104034006B00434C4F434B004E4643540050525385
:104044000054494D45520055415254005541525473
:104054004500000000000000944000000200000041
:10406400964000000C00000000000000A240000088
:1040740002000000A44000000D0000000000000049
:10408400B140000002000000B34000000F00000037
:10409400656E48656C6C6F20576F726C64214E4F6F
:1040A40048616C6C6F2056657264656E21504C5784
:1040B4006974616A20C59A7769656369652100003E
:1040C40000010203040506070809000004060504AC
:1040D400080304090205070405080305090203058A
:1040E40004030902000001010102020403020A00A0
:1040F400020102020902000050040000F133000032
:10410400100000002C0800205400000043000000B0
:10411400504F534958000000202020202020202008
:104124002068282828282020202020202020202023
:1041340020202020202020204810101010101010C3
:1041440010101010101010108484848484848484CB
:1041540084841010101010101081818181818101DC
:10416400010101010101010101010101010101013B
:1041740001010110101010101082828282828202CA
:10418400020202020202020202020202020202020B
:10419400020202101010102000070320041702016D
:1041A4000857104080000000104100001442000035
:1041B4002843000053756E004D6F6E005475650002
:1041C4005765640054687500467269005361740051
:1041D400000000004A616E00466562004D61720095
:1041E400417072004D6179004A756E004A756C0029
:1041F40041756700536570004F6374004E6F76001D
:104204004465630000000000414D00504D00000073
:104214004C4300004843000048430000484300006A
:10422400484300004843000048430000484300005E
:104234004843000048430000FFFFFFFFFFFFFFFF6C
:10424400FFFFFFFFFFFF000088420000B8410000AD
:10425400C4420000D84100000C4200006C4200003F
:104264001C43000078420000256D2F25642F25791A
:1042740000000000256120256220256520255420AA
:104284002559000053756E646179004D6F6E646149
:10429400790054756573646179005765646E65735C
:1042A4006461790054687572736461790046726957
:1042B400646179005361747572646179000000006F
:1042C4004A616E75617279004665627275617279D0
:1042D400004D6172636800417072696C004D6179D0
:1042E400004A756E65004A756C790041756775738F
:1042F400740053657074656D626572004F63746F0A
:10430400626572004E6F76656D6265720044656326
:10431400656D62657200000025483A254D3A2553C3
:104324000000000045360000613600006D360000D4
:104334007936000095360000A1360000AD36000045
:0A434400BB360000000000002E0050
:10435000000000000020004000000000002000409D
:104360000000000000000000FF00000000B001405D
:1043700000060000000000000090D003AC410000E7
:10438000AC410000AC410000AC410000AC41000079
:040000030000037581
:00000001FF
