:020000022000DC
:1060000000000120756302005D6302005F6302000F
:106010006163020063630200656302000000000028
:1060200000000000000000000000000067630200A4
:1060300069630200000000006B6302006D630200F0
:10604000759D02006F630200B5A102006F6302003C
:106050006F6302006F63020031A0020035A20200EC
:106060006F6302006F6302006F6302006F630200E0
:106070006F6302006F6302006F6302006F630200D0
:106080006F630200497702006F6302006F630200D2
:106090006F6302006F630200BD1303006F630200B1
:1060A0006F6302006F6302006F6302006F630200A0
:1060B0006F6302006F630200000000000000000038
:1060C0006F6302006F6302006F6302006F63020080
:1060D0006F6302006F6302006F6302000000000044
:1060E00000000000000000000000000000000000B0
:1060F00000000000000000000000000000000000A0
:10610000000000000000000000000000000000008F
:10611000000000000000000000000000000000007F
:10612000000000000000000000000000000000006F
:10613000000000000000000000000000000000005F
:10614000000000000000000000000000000000004F
:10615000000000000000000000000000000000003F
:10616000000000000000000000000000000000002F
:10617000000000000000000000000000000000001F
:10618000000000000000000000000000000000000F
:1061900000000000000000000000000000000000FF
:1061A00000000000000000000000000000000000EF
:1061B00000000000000000000000000000000000DF
:1061C00000000000000000000000000000000000CF
:1061D00000000000000000000000000000000000BF
:1061E00000000000000000000000000000000000AF
:1061F000000000000000000000000000000000009F
:10620000354936480A1A02D0072291438D4634494F
:1062100034480A1A06D00722914381F309880222E2
:1062200082F3148830483149314A00F044F831484B
:106230003149324A00F03FF831483249324A00F0E1
:106240003AF832483249334A00F035F83248334997
:10625000334A00F030F833483349344A00F02BF821
:1062600033483449344A00F026F83448344900228F
:1062700000F02CF833483449002200F027F8334866
:106280003349091A082902DB002202604160314AC1
:1062900090471F481F49884205D00268043003B464
:1062A000904703BCF7E700208646EC46002000211B
:1062B000294A9047FEE7884207D0521A05D0037852
:1062C00001300B700131013AF9D17047884202D098
:1062D00002700130FAE770470000012000E0002062
:1062E0000000012000000120D041030064220020B2
:1062F000D0280020D0630200D063020060190300A0
:10630000D04103006422002064220020601B0300AF
:10631000601B0300601B0300601B0300601B030085
:10632000601B0300601B0300601B0300CE410300E1
:106330003C480300D0280020D0280020D02800208E
:106340008C3D00208C3D00208C3D00208C3D0020A9
:106350008C5D00209D630200E1B70200FEE7FEE7CE
:10636000FEE7FEE7FEE7FEE7FEE7FEE7FEE7FEE705
:1063700000F002B8FFF7FCBF0F484FF00701884359
:1063800085460E4880470E48016841F4700101605F
:10639000BFF34F8FBFF36F8FFFF732BF09480A4932
:1063A0000A4A884207D0521A05D0037801300B7090
:1063B0000131013AF9D170470000012091970200A4
:1063C00088ED00E04C1B03005022002064220020D6
:1063D000F0B595B01D46164608460C4603F010F879
:1063E0001A9B0D93CDE9086500252B46082205A9C7
:1063F00020460A958DF82C500C9503F01EF8079B4B
:106400000293069B03939DF814308DF8115003F00E
:106410000302012A1DD1BDF81420059DC3F3C20358
:10642000C2F383168DF81030B20008230EA920465F
:1064300003F003F8C5F3952508AB0093324602AB91
:106440000EA9284600F0F2FB204602F0DDFF15B051
:10645000F0BD022AF8D1BDF81650C3F3C203C5F34C
:1064600089158DF810300827082D2E4628BF0826DC
:106470003B4632460EA9204602F0DFFFAD1B08ABBB
:1064800002AA31460EA8374400F034FC002DEBD1AF
:10649000DAE70000014B01221A7070471129002031
:1064A0007047000070B5124D06460FCD88B06C469F
:1064B0000FC495E80F00002E84E80F004FF0FF3363
:1064C0004FF00602CDE90023CDE90233094A0A481C
:1064D0004FF0EB7308BF00226946069303F0E2FB1E
:1064E00008B100F0CFFD054B1E7008B070BD00BFB5
:1064F000601B03009564020064220020D028002065
:1065000007B5044B0093044A4023FFF761FF03B033
:106510005DF804FB1D650200D128002038B50D4B45
:106520000D4D002018700D4804782D5DD2B21C4628
:1065300065B1043004F05AFC08B100F0A3FD084B2B
:106540001A7812B12378002BFBD038BD0C3004F040
:1065500025FAF1E71129002088310020642200206B
:10656000D028002008B50848084A0378D35C3BB11E
:10657000043004F0C5FBBDE808400020FFF792BFDF
:106580000C3004F0A9F9F6E76422002088310020DD
:106590000120FFF787BF000008B5FFF7F9FF0448A7
:1065A000042100F0ABFA034B01225A7108BD00BF71
:1065B0003C1B030078220020037813F0040216D05D
:1065C00003F00303012B03D0022B09D001207047F5
:1065D0000A6800880232C0F3831002440A60F5E7BB
:1065E0000B684288023303EB92130B60EEE7104610
:1065F000704700002DE9F04F87B000230446861C49
:106600000DF107000F4615468DF8073000F02CFFFE
:10661000454801683960D0E90132134401335B1AFF
:10662000824600F21C4700F5836900F21448B34229
:106630001CD30020002D73D004F00F039B0143F006
:10664000050363F30F00DAF80020DAF8083013408E
:10665000033316444AF823009DF80700CAF8006087
:1066600000F026FF012007B0BDE8F08F0121384679
:1066700002F032F9484602F04AF9404602F047F982
:10668000DAF80400DAF808B0029000EA0B000330F0
:106690000AEB800002A9FFF78FFF029B50BB0BEAB9
:1066A00003020AEB820203F1020CD2680392013367
:1066B00003EA0B0B0AEB8B0B02F00302012ADBF857
:1066C0000C10CDF808C023D0022A16D083464046CD
:1066D00002F020F910B1029BCAF80430594638463E
:1066E00002F0FAF8DAE901231344DAF80020013362
:1066F0009B1A9CE70BEA0300C9E7BDF80E30C3F311
:10670000891303334FEA114B0CEB93030293DEE73B
:10671000BDF80C30C3F383134FEA114B6344F5E724
:10672000A40544F006008EE7E42900200B4B0C483A
:10673000FF2210B59A600022C3F81824C3E9002292
:10674000C3F8142483F8202402F013FE044610B981
:10675000044802F075FF204610BD00BFE429002068
:10676000241A0300B41B030030B50A4C71B10A4A65
:106770000A49121BD20800239A4201D1002030BDE1
:1067800031F82350854202D00133F5E7034654F82F
:106790003300F4E74C1A03003C1B03006422002082
:1067A000094B013903EBC000032909D8DFE801F0E8
:1067B0000A02040604207047007970474079704748
:1067C00000207047022070474C1A0300034BD3E9A6
:1067D0000030C31A58425841704700BFE4290020D6
:1067E0002DE9F04387B0FFF7F1FF0646002840F09F
:1067F000F9807D4DC5F81804BFF34F8F6B68AC6806
:1068000002932340033305EB830002A9FFF7D4FE74
:10681000029B18B1D5F81824002A5FD004EA0302BD
:10682000991C013305EB8202234005EB8303D268F8
:10683000DB68049302F00303022B0392029160D100
:10684000BDF80E306948C3F38917502FB84628BFEA
:106850004FF0500868F38F1308F10801ADF80E30BF
:1068600002F09FFD0646002800F0A78002F0C8FD58
:106870000023082203A9304602F0D5FD029924EA3C
:1068800001020132B8EB820F4FEA820332D95FFA7C
:1068900088F85BB32140DCB2A8EB040803315FFA4F
:1068A00088F9A046524C05EB810108234246304648
:1068B00002F0B9FD34B108F108034A4621463046DA
:1068C00002F0B1FD029B033703EB97070297D5F85F
:1068D0001834002B49D1D5F8104459E02A689A425F
:1068E0008FD86A60304607B0BDE8F08340491C4647
:1068F0009946DAE70C40E11C0823424605EB81018A
:10690000DDE7012B59D1BDF80C303848C3F38311B2
:10691000062928BF062161F3891302318900ADF8E9
:106920000C3002F03EFD0646002846D002F068FD1D
:106930000023082203A9304602F075FD0027BDF8A8
:106940000C20C2F38312BB00974203F10803BED2AE
:1069500002994A1C21400331029205EB8101042275
:10696000304602F060FD0137E9E7304602F04CFDA9
:10697000FFF72CFF80F00100C6B2B3E7E3685B7954
:1069800023B1236831461B6820469847E3681C689A
:10699000002CF3D1304602F037FD0DF107008DF8E1
:1069A000074000F061FDD5F818340BB9029B6B600D
:1069B0009DF8070000F07CFDDAE7D5F8104454B9E3
:1069C0000C4B0D480D49C01AC008000440F00200ED
:1069D00000F062F8CCE7236820469B689847E3689C
:1069E0001C68ECE700267DE7E4290020241A030058
:1069F000F02900204C1A03007C1A03009D1B0300A1
:106A00002DE9F74F224D04460F46924601A9012277
:106A10001846D5F808909B46FFF7ECFD20B3019E81
:106A20004FF00008B21CD84508EB020126D11948E6
:106A3000002101F00AFF80F31000000440EA144036
:106A4000E400731C04F0380403EA090306EA0906AB
:106A500044F0010405EB8303033644EA881444EA56
:106A60008724D86045F8264095F820341BB1FFF7FD
:106A7000B7FE0028FBD103B0BDE8F08F09EA0101A1
:106A800005EB81015AF82830CB6008F10108CAE70C
:106A9000E4290020002E002000231A46FFF7B0BF93
:106AA00007B50123019201AAFFF7AAFF03B05DF821
:106AB00004FB07B5CDE9002302236A46FFF7A0FFD8
:106AC00003B05DF804FB1FB5CDE90123069B0393DA
:106AD00001AA0323FFF794FF05B05DF804FB1FB57F
:106AE000CDE90023069B0293079B03936A46042388
:106AF000FFF786FF05B05DF804FB000030B50F49D5
:106B0000D1F8102403460020144634B9DC68207103
:106B10004AB9C1F81034226030BDE4682579854255
:106B200006D02468F1E7D268116821601360F3E7AA
:106B300001300A28E8D14FF0FF30EDE7E4290020CA
:106B4000094A38B50123D2F8104482F820341D4692
:106B500004B938BDE3685D71236820465B689847D7
:106B6000E3681C68F4E700BFE429002007B503468A
:106B70000846197A052911D05B7A2BB1094A0A49CE
:106B8000019001F02AFF01980849019001F025FFCA
:106B9000019803B05DF804EB01F014BF002AF8D0AF
:106BA000F2E700BFC01B0300E3340300E21B030055
:106BB00030B5C38885B004460D4633B1144A0092FF
:106BC0001449154A284601F008FF217A05291DD0ED
:106BD000637A4BB1A088FFF7E3FD104B104953F8DF
:106BE0002020284601F0F9FE227A0E4BA08853F8A7
:106BF000222003920021FFF7B7FD039A0A490346BA
:106C0000284605B0BDE8304001F0E7BE05B030BD14
:106C1000C01B0300CD1B0300C51B0300501C030059
:106C2000E3340300741C0300E51B03002DE9F0436B
:106C300085B01F460C9D002395F80C902B730646DB
:106C40000C46904629463846FFF7B2FFB8F1060FCA
:106C500009D8DFE808F00412181F28334000314635
:106C6000284601F0BAFE002229463846FFF77EFF8B
:106C700085F80C9005B0BDE8F083226831462846BF
:106C800001F0ABFEEFE7D4E900233146284601F0DE
:106C9000A4FEE8E7A36800933146D4E90023284620
:106CA00001F09BFEDFE7E3680193A36800933146A0
:106CB000D4E90023284601F090FED4E7236902932B
:106CC000E3680193A36800933146D4E90023284682
:106CD00001F083FEC7E76369039323690293E368C6
:106CE0000193A36800933146D4E90023284601F0BC
:106CF00074FEB8E708292DE9F74F80460E4617467F
:106D00001C463CD8002593F80C901D73194610467C
:106D1000FFF74EFFDFF888A0DFF888B0AE4231D928
:106D200018F805205946204601F057FE0135082D78
:106D3000F4D11949194DDFF870A0204601F04DFE3D
:106D40004FF0000B5E4522D918F80B207E2A05D89B
:106D5000104601920AF040FD019A00B92E225146D8
:106D6000204601F03AFE0BF1010BBBF1080FE9D10F
:106D7000012221463846FFF7F9FE84F80C9003B053
:106D8000BDE8F08F5146204601F027FECEE72946A8
:106D9000204601F022FEE6E7F91B0300F71B030083
:106DA000F51B0300EF1B0300FB1B0300C30710B51B
:106DB00007D4F023054A4008145C234019431154BA
:106DC00010BD0901C9B20F23F4E700BFD02E002087
:106DD00030B5094B1C78094B196800239C4202DC32
:106DE0000022104630BD11F83350854201EBC3023A
:106DF000F7D00133F2E700BFA02E0020E02E0020E4
:106E000013B504460191FFF7E3FF38B143682BB196
:106E10000199204602B0BDE81040184702B010BDED
:106E2000034B044819680022490800F02CBA00BF3F
:106E3000A42E0020A82E002010B5C0B2FFF7C8FF76
:106E40000446007803F0EAF863785A1E534253412F
:106E5000834208D1044BD3E90023134303D1BDE897
:106E60001040FFF7DDBF10BDC82E002037B5430826
:106E7000354AD35CC2074CBF1B0903F00F0304461D
:106E80000D46042B35D8DFE803F003252C383C00F1
:106E900079B30121FFF78AFF00230DF107008DF878
:106EA000073000F0E1FA0120A4F12003C4F1200131
:106EB000264A20FA01F100FA03F30B43A040D2E97D
:106EC000004120430B43C2E900039DF8070000F096
:106ED000EFFA0EE0002918BF02212046FFF766FFF7
:106EE00007E041B10321FFF761FF01212046FFF7D1
:106EF00087FF03B030BD0121EFE70029F9D104215C
:106F0000EBE709B10321E8E7FFF750FF29462046E8
:106F1000FFF776FF0DF107008DF8075000F0A4FA97
:106F20000120A4F12003C4F12001084A20FA01F154
:106F300000FA03F30B43A040D2E9004124EA000029
:106F400021EA0303BFE700BFD02E0020C82E002097
:106F50002DE9F041124E134F00243378A34208DC90
:106F6000114BD3E90023134318D0BDE8F041FFF7DC
:106F700057BF3D6805EBC40815F8340003F04EF820
:106F800098F801305A1E53425341181A4142414168
:106F900015F83400FFF76AFF0134DEE7BDE8F08141
:106FA000A02E0020E02E0020C82E0020092AF7B5D0
:106FB00005460C4616463CD902F070FFD8B11E4B70
:106FC0001E481D601E4B1F4F1C701F4B00211022BE
:106FD0001E600AF062FC1D4B00200021C3E9000185
:106FE000013CE4B20326FF2C0BD1194A19480021B9
:106FF00000F03EF903E002F019FF0028DFD003B0F3
:10700000F0BD9DF8063015F834008DF8046005EBEE
:10701000C40223F007038DF8063001A993788DF898
:1070200005303A4602F044FF013CE4B20028DAD0D1
:10703000E5E70720E3E700BFE02E0020D02E002088
:10704000A02E0020396E0200A42E0020C82E0020A1
:10705000516F0200941C030070B5084D084E0024C7
:107060002B789C4201D3002070BD3368012113F8B6
:10707000340002F08FFF0134F2E700BFA02E0020A1
:10708000E02E00201FB50021039001AA44F2010068
:10709000CDE9011100F004F805B05DF804FB000033
:1070A00038B5054672B6FFF74BFDFFF799FB002890
:1070B000FBD1114B114C1249E41AE40824042A466E
:1070C00044F00100FFF7ECFC0E4B1B68DB0700D51A
:1070D00000BE0D4944F00200FFF7DEFCBFF34F8F06
:1070E0000A490B4BCA6802F4E0621343CB60BFF35A
:1070F0004F8F00BFFDE700BF4C1A03007C1A03004E
:10710000981C0300F0ED00E0A91C030000ED00E076
:107110000400FA05D0E90223D1E90201994208BF2F
:1071200090422CBF012000207047000008B50B489A
:1071300000F0F5FA0A4B0B49D3E900231218D1E904
:10714000000143F100038B4208BF824203D212F1D7
:10715000807243F100031046194608BD80220020CA
:10716000E82E0020602F002037B505460C460A485F
:1071700001A901F09EFA60B10570446001A90648BA
:1071800001F0C1FA18B1054800F0CEFA002003B0B2
:1071900030BD0420FBE700BF4C2F002080220020E0
:1071A00038B5184B1B78044613B90025284638BD5E
:1071B0000028FAD0037F03F0FF05002BF5D0FFF77E
:1071C000B5FFD4E90223994208BF904214D3236942
:1071D00003B92377D4E90530984721690029E4D021
:1071E000237F03F0FF05002BDFD0D4E902235218E0
:1071F00043F10003C4E902230348214602F03FFAA9
:10720000D4E700BFF02E0020C41C030013B5114BBF
:1072100011491868019008231048582201F014FA07
:10722000044698B90E4A0F4801A900F065F90446D2
:1072300060B90C48012100F055FA01230A4A0948B7
:10724000194600F0B7F9094B01221A70204602B026
:1072500010BD00BFC01C0300F42E00204C2F0020E6
:10726000D172020080220020FFFF7F00F02E00205C
:107270003AB103685A614A1E5142514119610020D6
:1072800070470720704738B5037F04460D4683B921
:107290008261FFF74BFF2369401941F10001C4E906
:1072A000020103B1256121460020BDE83840FFF707
:1072B0005BBF002038BD0023014603770120FFF7A4
:1072C00053BF0000014800F02ABA00BF802200200E
:1072D0002DE9F04F85B0804600F00CFA40B15A4AD3
:1072E000D2E9003113F1807341F10001C2E90031AC
:1072F0000021404600F00DFA38B1544E336823B1F6
:107300003068FFF74DFF002333600121404600F055
:1073100000FA20B1FFF70AFF4D4BC3E900014D48C9
:107320004A4F4D4EDFF8389103A901F0FCF90028CF
:1073300045D1DFF82491454EDFF828A1484602F0F8
:10734000B4F93368002875D07BB13368D0E9020105
:10735000D3E90223994208BF90422DD233681B7FA4
:107360001BB13168484602F08AF9484602F097F9A5
:10737000D0E902B307460193FFF7D8FE019BBBEBB0
:10738000000463EB0105012C75F1000345DBB4F546
:10739000350F40D3FFF796FF304A02444FF496036F
:1073A0000021504600F026F900283ED1336813B979
:1073B000404600F0F7F8376005B0BDE8F08F03787D
:1073C000012B1DD0022B09D14FF0000A304602F0EC
:1073D00066F9002834D080F81CA0F7E73BB9416873
:1073E0000B7F23B901230B77304602F048F903A93C
:1073F000184801F0C3F903A9164801F094F996E77B
:1074000041683B68994202D100233B60EFE7304678
:1074100002F04EF9EBE7BA68C0E70021504600F0F1
:107420006EF93846FFF7BCFE01E00D28F9D00023C5
:10743000336083E7002BBFD1404600F0B7F8BBE7CD
:10744000012389F80030D2E7E82E0020682F0020C1
:10745000602F00204C2F0020C41C0300FFFFB4004D
:10746000F02E00208022002070B5EFF3108672B657
:107470000C4A946801239CB993600B4B0B4DD3F8D5
:10748000801029401160C3F88050D3F884105160F7
:107490004FF0FF32C3F88420047006B962B670BDA5
:1074A0000370FAE76C2F002000E100E0FC06FFBD4E
:1074B000084B9A6810B55AB150B9EFF3108172B603
:1074C000054A1C6814605C685460986001B962B633
:1074D00010BD00BF6C2F002000E100E0435882B0D7
:1074E0003BB10023435043580193019B012002B05C
:1074F00070471846FBE70000F8B5224B4679224C4E
:1075000043F82620214A224B9B1A04EBC602DB08D3
:1075100012791B04F70032B143F002001D49FFF756
:10752000BBFA0820F8BD02680D88C2F8085590F92A
:10753000045002798978002DADBF05F1604CDFF869
:107540005CC002F00F0E0CF5614C4FEA4111C9B25C
:10755000B4BF0CF80E108CF800136D090121DFF890
:1075600040C002F01F0201FA02F24CF82520E21995
:1075700044F83600117143F003000749FFF78CFA15
:107580000020CFE7802F0020782F00204C1A030026
:107590008C1A0300D01C0300F21C030014ED00E061
:1075A00000E100E0036801221A60704703680122CD
:1075B0005A60704773B501F15005AD000068ADB277
:1075C0004FF480348C400026C0F80843C0F848438C
:1075D000465101F5A8714559019522F07F42019D60
:1075E00040F82120C0F844430BB1C0F8044302B076
:1075F00070BD00002DE9F74F0D4622F07F44026870
:107600004FF4803705F150068F408046B60002EBFC
:107610008500C2F84873B6B2C2F80873D2F80415F0
:1076200099464FF0000BD0F84035C0F8401542F8AD
:1076300006B05B1A9259009223F07F43012B009A07
:107640004FEA850A0CD1264B4FF4806043F00103CA
:107650009847D8F8003043F806B09B590193019B36
:10766000D8F80010D1F80465C1F84473A31B23F0C7
:107670007F43012B1CD11A4B05F5A875013443F04B
:10768000010341F825404FF480609847D8F8003056
:10769000D3F804359E4209D1D8F800300020C3F851
:1076A0004473C3F8047303B0BDE8F08F0D20FAE70C
:1076B0008A44C9F1FF13CAF84045D1F80405221ADB
:1076C000013A22F07F4203F57F439342EED3002A32
:1076D000E2D10134CAF84045D1F804359842DAE7DE
:1076E000101D030003680222C3F8442309B1C3F844
:1076F0000423704700684FF48271FFF7EFBE4FF428
:10770000803303FA01F10368C3F84813C3F8081380
:10771000704750318900006889B2FFF7DFBE036807
:10772000D3F804057047000090F9043001215A098C
:1077300003F01F0301FA03F34032024941F82230FB
:10774000704700BF00E100E0024B034A1B6810686D
:10775000184700BF802F0020782F002070B5064DFD
:107760000646002455F8043B0BB1304698470134D7
:10777000042CF7D170BD00BF902F0020033080B2E1
:1077800040F2FE33984230B51FD8134B1A783AB9FD
:107790001C895D892C440444A4B2B4F5806F0AD9D5
:1077A0001A7DAAB99A8BDC8B2244024492B2B2F5BC
:1077B000806F0DD801220A801446142202FB043384
:1077C0005A8910445881002030BD48F20860FBE718
:1077D00048F20660F8E700BFC42F00200B4A0C4BAC
:1077E0005188142000FB0131CB6833B9042049686B
:1077F00010700122074801F085BB0749052313706B
:1078000002238B80012209680023F3E7A82F0020C0
:10781000C42F0020502200208C30002007B5002308
:1078200005490093054A09680548082301F0D4FA80
:1078300003B05DF804FB00BF8C300020241D030062
:107840005022002007B5002301460093034A044854
:10785000082301F0C1FA03B05DF804FB1C1D03000E
:107860005022002013B500230C4600930146084A1D
:107870000848042301F0B0FA38B90749142303FB80
:1078800004140123237402B010BD48F20D60FAE71E
:10789000181D030050220020C42F002037B50A48CD
:1078A0000A4B42689C881968538803250333057086
:1078B0009BB2002000909B0001EB8401044801F082
:1078C0008BFA03B030BD00BFA82F00208C30002001
:1078D0005022002010B50146044800F0EAFE1C22A8
:1078E0000446002109F0D9FF204610BD7830002061
:1078F00068B10268084B9A4209D14068074B984228
:1079000007D00133984214BF0320012070470320A1
:1079100070470020704700BFDEC0ADDEFE011EF1E3
:107920004388033300EB830399420BD382884FF6DD
:10793000FF739A4208D0038833B18068431C5842D1
:107940005841704702207047012070472DE9F041EF
:107950000D460223154F2B80164600F5805100F18D
:1079600008044FF001088C420ED2236801330BD07B
:107970002046FFF7D5FF48B10EB186F800800228F7
:1079800009D14FF480632B80BDE8F081A3683A6889
:10799000934200D93B602B886288033313442B80C9
:1079A0006388033304EB8304DDE700BFBC2F0020B2
:1079B00038B5144B14220D4602FB00302B68446886
:1079C00004F58051A3B15C88033403EB84048C423A
:1079D00015D22368013312D02046FFF7A1FF0128FA
:1079E00008D002280BD00028F1D12C60012038BD2E
:1079F0000834ECE76388033304EB8304E7E70020F3
:107A0000F5E700BFC42F0020426873B504460D4659
:107A10006AB3244BD9688A4229D31B699A4226D873
:107A200012F0030323D120490089098988421ED11D
:107A30002068916888421AD11C494868824203D95B
:107A400000F5805082420DD389698A420CD901F534
:107A500080518A4208D201222A80B3FA83F0400979
:107A600002B070BD1A46F7E748F20963F5E7002354
:107A70002B801E460196288801A9FFF799FF30B98F
:107A80002B8801339BB2012B2B80F3D9E8E7019BB4
:107A9000226899689142EED16360034B1B89238170
:107AA000DEE700BF50220020A82F0020C42F0020B6
:107AB0002DE9F8431C461D4B1B7806460F4615461C
:107AC00073B382B37CB3DFF86C804FF01409A388E2
:107AD000012B02D948F2096020E009FB03F318F8F2
:107AE00003302BB9A0882146FFF762FF20B9206040
:107AF000A3880133A380EAE723681EB199883288FE
:107B00009142EFD11FB119883A889142EAD19A681F
:107B1000C5E90023064B1B892B810020BDE8F883B3
:107B200048F20160FAE748F20460F7E7A02F00206E
:107B3000A82F0020C42F002008B5074B5888191D16
:107B4000FFF736FF18B1BDE80840FFF7A7BEBDE854
:107B50000840FFF743BE00BFA82F00202DE9F04FDB
:107B6000A44FDFF8B49289B00646B8463B6823B903
:107B7000A148494600F0D7FD3860D8F80050297870
:107B80004B1E052B07D8DFE813F022007C007C0099
:107B90000E010E01660148F20E641422002103A8B2
:107BA00009F07BFE41F61D539C4208BF0024D8F823
:107BB000003004941A78013A052A00F2F681DFE8D1
:107BC00012F0E201E6010602160222022C022EB198
:107BD0008A4B00225A604FF40644DEE72B79032BD0
:107BE0001DD8DFE803F015022B3685490B78022BF0
:107BF00008461AD00B7D022B4FF0010317D1142237
:107C00005343C2180020C8545068FFF71BFE03E01E
:107C100001232B71FFF702FE002800F0BE80774B96
:107C200000225A6048F20D64B7E70023E7E7734A81
:107C300013700023536041F61D54AEE7714972483A
:107C4000002302222B718A800968012201F05AF96F
:107C5000E2E76C4C00262E712068694DFFF7F2FDBB
:107C60006A4BD4F800C05A8814235343EA18EE54E0
:107C700051682160A188C2F804C011810222A2804B
:107C8000CAE7B5F814A0AA7DDFF874B1AEB1022A34
:107C9000EB8806D9142101FB0AB1DA1C08890244D9
:107CA0000A81142202FB0ABAC3F57F43BAF80A20FC
:107CB000FD331344AAF80A308DE7142303FB0AB3FB
:107CC00018895C6804EB8004062A69D8DFE802F0B2
:107CD000274E36441D5A040041F61D54AA7DEB88F8
:107CE000022A06D9142101FB0AB1DA1C08890244D0
:107CF0000A81142202FB0ABAC3F57F43BAF80A20AC
:107D0000FD331344AAF80A3047E7414841490023AC
:107D10004360AB690360FFF777FE00285BD0022366
:107D2000AB75002300930423EA182146364801F07E
:107D300053F8002831D048F20D64CFE72B69002BAF
:107D400014BF03230123AB750023009305F10C023C
:107D5000042304F10801E9E70123AB750022EB8855
:107D600000922A699B0004F10C01DFE703290CBF94
:107D700005230623AB7500230093042305F10802B5
:107D8000E118D3E70623AB75224B1988204B5868BE
:107D9000FFF768FD04460028A0D109B0BDE8F08FC8
:107DA00048F20E649AE7002E7FF415AF2B79012B71
:107DB00034D0022B3FF43FAF002B7FF4ECAE022314
:107DC0002B710DF10A01EB68039303A8CDE904665A
:107DD000FFF71AFE10B948F20964DEE60498BDF810
:107DE0000A108388EB8003882B81FFF73BFD044654
:107DF00027E000BFC02F002078300020A02F0020F7
:107E0000C42F00208C30002050220020A82F0020FA
:107E1000842F002098300020B82F0020804B03AA28
:107E20003146A81DFFF744FE7D4B044668B999888A
:107E30000498FFF717FD044648F209639C423FF49B
:107E4000FAAE002C7FF4A9AEA7E708223146184607
:107E500009F023FDF0E7002E7FF4BDAE714B1A7BD5
:107E6000B2B11E731A78013A062A3FF694AE01A108
:107E700051F822F01B7F0200417F02005F7F020069
:107E8000657F0200977B02006B7F02007D7F02000E
:107E90001A78072AE6D801A151F822F0BD7E020027
:107EA000657E0200657E0200E37E0200F77E02002E
:107EB000177F0200177F0200DF7E02001A895A49ED
:107EC00001321A8100225A801A730A78B2FA82F2B9
:107ED00052099A720A7DB2FA82F25209DA720122CA
:107EE00007E0524958688A884088033202448A80F1
:107EF00002221A70B6E74C4C5A884C49142505FBEF
:107F000002420868546850608888108102228A8082
:107F10000C600622EDE70722EBE79A7A32B9DA7AAB
:107F20008AB900221A705A805A6084E63E490022BB
:107F30009A72CA68002AF2D1097C0029EFD05A80CF
:107F4000FFF7FAFD53E70022DA72374A116A002977
:107F5000E7D192F82420002AE3D00122EFE7FFF7CF
:107F60009DFC44E7FFF73AFC41E72F4A5B88142168
:107F700001FB03235868FFF765FC38E700225A60CD
:107F8000FFF74CFC33E700238DF80C300DE00122A5
:107F90008DF80C201A89ADF818209A88DB680593B3
:107FA000ADF81A2000238DF81C3003A8FFF7D6FB8C
:107FB000002649461E48C8F8006000F0DFFB1D4857
:107FC000012100F095FC00287FF4D0ADE5E6022207
:107FD0008DF80C201A89ADF818209A88ADF81A206F
:107FE000DA689B7D05929A1F53425341DBE70322D7
:107FF0008DF80C20DA88ADF818201A89DB68ADF806
:108000001A200593D1E704228DF80C20DB88ADF807
:1080100018300023ADF81A30F3E70523B4E700BFAA
:108020009C300020A82F0020C42F00208C3000207E
:1080300078300020883000204068FFF78FBD0000B6
:1080400008B50548012100F03BFC18B9BDE808401F
:10805000FFF784BD08BD00BF883000202DE9F34143
:108060009846374B1B7806460D46002B5CD00029FE
:108070005DD009884FF6FF7399425BD06B88002B67
:1080800058D06B689B0758D14AB92F890DF102016E
:108090003846FFF773FB30B102B0BDE8F0811388BA
:1080A0005788ADF8023001A8FFF714FC044660B908
:1080B000BDF80230234A142101FB032358890338F9
:1080C000C01B588148F20760E6E780F80080002373
:1080D0008375BDF8023083826B68036101211A4801
:1080E00000F0FAFB2B882381B8F1030F6B88A38083
:1080F00004BF0423A3754FF0000508BF3368E06098
:1081000008BFA3611148E780658101A900F0FBFA6F
:1081100036B1E36833600E4B75601B89B5723381ED
:10812000FFF78EFF0020B7E748F20160B4E748F29E
:108130000460B1E748F20360AEE748F20260ABE7E3
:10814000A02F0020C42F0020BC2F0020783000205A
:10815000A82F002008B5034607480268042A08D063
:108160000168064A42F82130012100F0B5FB0020E9
:1081700008BD48F20B60FBE794300020902F0020F0
:108180002DE9F04F89B01422002103A809F085FBE6
:10819000794A137803F0FF01009190463BB103A8A0
:1081A000FFF7DCFA0027384609B0BDE8F08F101D54
:1081B00000F0AAFB0028F5D140F6F8734FF080528A
:1081C0001B685C1C08BF6D4B6D4C08BF1B681169B8
:1081D0005269581C08BF02FB01F323616949A3F5EA
:1081E000405300222046E36000F0C4FD019407469E
:1081F0000028D8D164496548DFF8A4B11C238C223B
:1082000000F022FABA463D464FF003093C46019B76
:10821000DE6856443046FFF76BFB012862D0032826
:1082200017D000283DD15A494FF0140C0CFB04FC28
:1082300001EB0C0201F80C0056600CF110020CF17D
:10824000080C0A4430466144FFF780FB45F0020504
:1082500045E03268531C02D04E4B9A4234D1321D55
:1082600006F58051106801302ED104329142F9D1C7
:10827000DBF800203AB902220123CBF80060ABF80A
:10828000042000930BE014226243414B0220991812
:108290009854414A4E60548001340881A4B245F09C
:1082A00001050AF5805ABAF5405FB0D1B9F1010F66
:1082B00098BF0025EDB2022D03D0062D31D0002D40
:1082C00039D148F20A676EE73149142262438818AF
:1082D00009F1FF394660032088541FFA89F90134F7
:1082E000A4B2DEE7009B6BB1294B142262439918BC
:1082F00002209854DBF800204A60274A0881548005
:108300000134A4B200222549CBF800603046FFF7C3
:108310001DFBBBF80420022A0CBF042208221543CF
:10832000BFE7012388F8003003A80023C8F8043011
:10833000FFF714FA37E702A8FFF7CCFAC8B1012318
:10834000013D03700A2D09D8DFE805F0060806088C
:10835000070807080F110F000023037102A90B483B
:1083600000F0D1F9FFF76CFE1DE70323F5E70223C8
:10837000F3E748F2076716E7A02F0020141000105B
:1083800050220020181F0300EC2F0020783000201E
:10839000C42F0020DEC0ADDEA82F002090300020CA
:1083A0008C30002073B50D460446C8B1C1B10DF143
:1083B0000601FFF729FBB0B10C4BBDF8060066685B
:1083C000142202FB003001210C3000F085FA6368B2
:1083D0002E600C336B600123A372002002B070BDCD
:1083E00048F20460FAE748F20960F7E7C42F00207A
:1083F00013B50446A8B10DF10601FFF705FB98B1CE
:108400000C4ABDF80630142101FB0323DA6872B16F
:10841000A27A62B1DA680020013ADA60A07202B092
:1084200010BD48F20460FAE748F20960F7E748F245
:108430000560F4E7C42F002002230022FFF70EBEE0
:1084400018B103230022FFF709BE48F20460704709
:10845000114B1B7813B50446ABB14FF6FF7398422E
:1084600014D001A8FFF736FA98B105230370012351
:108470000371C48001A9094800F045F9FFF7E0FD48
:10848000002002B010BD48F20160FAE748F2036034
:10849000F7E748F20760F4E7A02F002078300020CB
:1084A0000F4B1B7807B5A3B101A8FFF713FA98B1DA
:1084B0000623037001A90B4800F025F90A4B1A782E
:1084C0000AB101221A73FFF7BBFD002003B05DF86B
:1084D00004FB48F20160F9E748F20760F6E700BFE5
:1084E000A02F002078300020A82F002007B5ADF87D
:1084F0000600ADF804100DF1060001A9FFF7D8FA47
:1085000003B05DF804FB07B51346ADF806000A4654
:1085100000200DF10601FFF7CBFA03B05DF804FB74
:1085200007B51346ADF806000A460DF10600002116
:10853000FFF7BEFA03B05DF804FB20B119B1036880
:108540000B600020704748F2046070472DE9F84F37
:108550003B4B1B780446002B6CD000286DD0DFF815
:10856000E4A01222002109F098F9032323804FF0A0
:10857000000BD04614274FF00109DAF80410BAF8BE
:108580000A50BAF808600846FFF7B2F9032808BF96
:108590002388628804BF03F1FF33238007FB0B832A
:1085A0002E44DB681344638023891D44638925813D
:1085B000B6B233446381C6F58066A389B6B2B342CE
:1085C00001F1080538BFA68101F58051A94229D9DA
:1085D0002B68013326D02846FFF7A2F901280AD0DC
:1085E000022815D00028F1D1A3880133A3800AE026
:1085F0004FF0010BC1E7E3880133E380E3896A8828
:1086000003331344E3816B88033305EB8305DDE714
:10861000E38884F810900133E380E389491B03EB7E
:10862000A101E1810AF1140ABBF1000FE0D00020A2
:10863000BDE8F88F48F20160FAE748F20460F7E716
:10864000A02F0020C42F002010B561B1B2FBF3F4BD
:1086500003FB1424A4B244B9C0E9001484608281ED
:10866000C381204610BD0E20FCE70920FAE782B046
:1086700050E8022FC188B2EB324F4FF0000317BF12
:1086800092B241EA014142EA014104E04268B2EBA0
:10869000324F08BF012340E80212002AE8D18DF8CA
:1086A00007309DF80730002B0CBF1120002002B0CE
:1086B000704737B550E8013F9DB2C489254484898D
:1086C000A54228BF2D1B0489A54202BFBFF32F8FEF
:1086D000002207E0C5EA030540E80154002CE9D177
:1086E0004FF001028DF803200193019B9DF80320B8
:1086F0000B6002F0FF0322B10B880068184403B03E
:1087000030BD1846FBE70A884B889A4209D150E8E9
:10871000012FC2EA024240E80123002BF7D10120D9
:1087200070470020704737B550E8023F1FFAA3F5A5
:10873000C488A54202BFBFF32F8F00220DE0C48979
:1087400025448489A54228BF2D1BC3EA054540E87E
:108750000254002CE8D14FF001028DF80320019360
:10876000019B9DF803200B6002F0FF0322B14B88B0
:108770000068184403B030BD1846FBE70A884B88F0
:108780009A4209D150E8022FC2EA224240E802236D
:10879000002BF7D1012070470020704701F01F0225
:1087A0004B090121914000EB830000F065B84B09B3
:1087B00010B501F01F040121A14000EB830000F07F
:1087C0004FF8E04000F0010010BD01F01F0301224E
:1087D0009A404B0900EB8300D14300F065B84B0988
:1087E00001F01F0150F82300C84000F0010070475D
:1087F0002DE9F0474F1E7F0980460E4601370025C0
:1088000058F8254008EB8509E44394FAA4F4B4FA37
:1088100084F44FEA451A202C06D10135AF42EFD837
:1088200034462046BDE8F0875444A642F5D9214697
:108830004046FFF7BCFF0028F3D0D9F80040E443DE
:1088400094FAA4F4B4FA84F4E5E710B5034653E8C7
:10885000000F0A4643E8002494F0000FF7D110BD42
:1088600010B5034653E8000F40EA010243E8002434
:1088700094F0000FF6D110BD10B5034653E8002F59
:1088800042EA010043E8000494F0000FF6D110BD65
:1088900010B5034653E8000F00EA010243E8002444
:1088A00094F0000FF6D110BD10B5034653E8002F29
:1088B00002EA010043E8000494F0000FF6D110BD75
:1088C00010B5034653E8000F00EB010243E8002413
:1088D00094F0000FF6D110BD10B5034653E8002FF9
:1088E00002EB010043E8000494F0000FF6D110BD44
:1088F00010B5034653E8002FA2EB010043E8000443
:1089000094F0000FF6D110BD0121FFF7A9BF01219E
:10891000FFF7B2BF0021FFF7BBBF10B590B1D0E9A0
:10892000012301689B1ADBB20A60013BDBB2FF2B1B
:10893000026802D10020107110BD11684C1C146037
:108940000B70F2E70E20F7E737B5054600240DF16E
:1089500007008DF80740FEF787FD2A686B681168ED
:1089600099420ED9481E106011F8014CEB68298A13
:1089700001FB0434AB6811791B1ADBB2994238BF92
:1089800013719DF80700FEF793FD204603B030BD3C
:1089900037B5054600230DF107000C468DF807306A
:1089A000FEF762FD2A681368591C1160E968641AB1
:1089B000298AB4FBF1F41C709DF80700FEF778FDDE
:1089C00003B030BD826810B504462AB1436901681E
:1089D000006998470023A36010BD0EB403B5039946
:1089E00021B104AB01AA019300F076F802B05DF862
:1089F00004EB03B070470A2938B504460D4602D18E
:108A00000D21FFF7F8FFA3682268591CA160D55417
:108A1000D4E901329A4204D32046BDE83840FFF73A
:108A2000D1BF38BD2DE9F84F9846DDE90A43154618
:108A300082460F460A464FF00109AA420FD2C145AD
:108A400038BFC14613F0010B01D16CB900240126D7
:108A5000B8F1010F1BD908F1FF386E43F8E709F1AF
:108A60000109B2FBF5F2E8E79B070ED5B8F1000F5C
:108A70000CBF30262026A145E9D2013C31465046A4
:108A8000FFF7B9FF002CF6D1E0E72026F3E7B7FBAC
:108A9000F6F39D42E1D9DFF83C80B7FBF6F3504690
:108AA00018F8031006FB1377FFF7A5FF3346AB4218
:108AB000B6FBF5F6F1D2BBF1000F02D00CB1A14527
:108AC00001D3BDE8F88F20215046013CFFF793FF0A
:108AD000F4E700BF2C1D03002DE9F74F05461746AC
:108AE0008846002900F0428118F8011B49B92B7B08
:108AF000002B00F03B81284603B0BDE8F04FFFF7A4
:108B000061BF252940F0B780002698F800302D2B52
:108B1000424608F1010823D0302B24D02B2B25D03E
:108B200000242A2B02F1010123D13B681A1D1B6886
:108B30003A601C440A4613782E2B26D101324FF09E
:108B4000000A104610F8011BA1F1300CBCF1090F0E
:108B50001DD80A2303FB0A13A3F1300A0246F0E7EB
:108B600046F00106D1E746F00206CEE746F00406DD
:108B7000CBE711F8013CA3F130000928DBD80A2229
:108B800002FB0434303C0A46CBE74FF0000A12F8EF
:108B9000011B01F0FB0068289046F8D0782909D81D
:108BA0006F290CD8632962D022D8252963D058298F
:108BB00000F0888098F80030002B95D197E7703945
:108BC0000829F7D801A353F821F000BF478D020010
:108BD000B58B0200B58B0200D58C0200B58B02006C
:108BE000B38C0200B58B0200B58B0200C58C02006D
:108BF000642901D06929DDD13A68D2F80090111DAD
:108C000089EAE9723960A2EBE9724FF0010B092A97
:108C100035DCD34538BFD3462CB1B9F1000F01DBA9
:108C2000720700D5013CB30702D5BAF1000F03D09B
:108C3000F00701D44CBB0024B9F1000F2DDAC9F1C3
:108C400000092D212846FFF7D6FE06F00302022A6E
:108C500004D1BAF1000F01D11CBB0024CDE90046BC
:108C600053460A2249462846FFF7DCFEA2E73B6846
:108C70001A1D19783A602846FFF7BDFE9AE70A23C5
:108C80000BF1010BB2FBF3F2C1E7A345D4D22021D3
:108C90002846013CFFF7AFFECCE77107D5D52B2165
:108CA000D0E7A345DAD230212846013CFFF7A3FEE6
:108CB000D2E73968CDE900460A1D3A6053460A22D8
:108CC0000968D0E739680A1D3A60CDE90046534685
:108CD0001022F5E73B681A1D3A6016F00106D3F83A
:108CE000009028D1B9F1000F03D0484608F008FEE3
:108CF0000646B44200D904BB09F1FF3919F8011F37
:108D000000293FF457AF2846FFF775FEF6E72846DF
:108D10000136FFF770FE19F806100029F7D1A642B8
:108D2000BFF448AF002C3FF445AF20212846013C5A
:108D3000FFF761FEF3E70026EDE720212846013C1E
:108D4000FFF759FED5E73B681A1D3A6030212846E7
:108D50001C68FFF750FE78212846FFF74CFE0022E2
:108D60000823CDE90032214610227CE703B0BDE89C
:108D7000F08F00BF13B50B46114680B9104B114858
:108D8000114AC01A0E23C0080093104B000410496A
:108D900040F00100FDF797FE0E2002B010BD4BB968
:108DA000074B08480B4AC01AC0080E230093000462
:108DB000064BECE703601B6802B0BDE810401847A3
:108DC0004C1A0300C41A03003C1D0300D21E03000A
:108DD000411D0300701D03002DE9F34188B93D4B8F
:108DE0003D483E4AC01AC0080E243D4B0094000482
:108DF0003C4940F00100FDF766FE204602B0BDE8A8
:108E0000F0814AB9334B3448374AC01AC0080E249F
:108E1000334B00940004EBE7D0F800E0BEF1000F04
:108E200009D12C4B2C48314AC01AC00808242C4BBD
:108E300000940004DCE74BB9264B27482C4AC01AA3
:108E4000C0080924264B00940004D1E74568D5F8F2
:108E50000480B3FBF8F508FB15354DB11D4B1E48DA
:108E6000244AC01AC00809241D4B00940004BFE71F
:108E70008D0709D0174B18481F4AC01AC008102484
:108E8000174B00940004B3E712F0030F09D0114B05
:108E900011481A4AC01AC0081024114B009400044B
:108EA000A6E7C568A9420BD34D1EEC180569AC4274
:108EB00006D8DEF80C40A44602B0BDE8F041604799
:108EC000044B05480E4AC01AC0081024044B0094F5
:108ED00000048DE74C1A0300C41A03003C1D030074
:108EE000E41E0300411D0300BE1D03006A1D0300B4
:108EF0007D1D0300C41D0300EE1D0300061E0300BC
:108F0000291E0300F7B580B92A4B2B482B4AC01AFB
:108F1000C0080E242A4B009400042A4940F00100A6
:108F2000FDF7D1FD204603B0F0BDD0F800C0BCF184
:108F3000000F09D11F4B2048234AC01AC00808243B
:108F40001F4B00940004E8E74AB91A4B1A481F4A1D
:108F5000C01AC00809241A4B00940004DDE74768D2
:108F6000D7F800E00EF1FF370F4209D0114B12483D
:108F7000174AC01AC0081024114B00940004CCE713
:108F8000C768B9420CD304694D1E0EFB0255A542B9
:108F900006D8DCF81040A44603B0BDE8F0406047B6
:108FA000044B05480B4AC01AC0081024044B009417
:108FB0000004B2E74C1A0300C41A03003C1D03006E
:108FC000F71E0300411D03006A1D03007D1D030001
:108FD000501E0300761E030029DF704728DF70470C
:108FE00070B503689E6886B004460D466EB11422C3
:108FF0000021684608F051FCA36805932379019588
:109000002BB1012B0DD06846B04706B070BD0123CF
:109010008DF8003023690293E36803936369049336
:10902000F1E702238DF80030E3681B030293F5E7B4
:109030000846704700207047024B187A003818BF66
:109040000120704740310020034B187A0122B0FA0A
:1090500080F05A74400970474031002008B510462E
:109060001A4608F0F1FB002008BD000008B51422E4
:109070000021044808F011FC0348FFF7F8FA00202B
:1090800008BD00BF403100203031002010B5094C30
:10909000094B43602046FFF737FC40B908F074F9EC
:1090A000064920741C2306488C22FFF7CDFA0020C5
:1090B00010BD00BF403100200C1F0300A430002071
:1090C0003031002070B5244C244E237A25463BB91C
:1090D00023492448FFF727FB306008B9606070BD62
:1090E000022334682B72237973B1012B24D02046DC
:1090F0000321FFF775FF00232B726B601849194895
:10910000BDE87040FFF73ABBD4E90523D21AB2F5A7
:10911000805FD4E9031028BF4FF480529208012ADF
:1091200038BF012219441844FFF756FF50B11128E7
:10913000DDD101232B72D2E7D4E903031844FFF7F2
:109140004DFFF3E72B7C002BC9D10146BDE87040F1
:10915000022000F009B800BF403100205831002043
:10916000543100203031002038B5831E012B45D802
:10917000234C237A002B41D0022B09D1032830D075
:10918000204B00221B68E2601A793AB1012A22D0F2
:10919000637C7BBBBDE83840FFF794BFD3E9051281
:1091A0008D1AB5F5805F94BF521902F580529A610D
:1091B0009142EDD102284FF0000308BF19462372F7
:1091C000104B18BF0D211868FFF70AFF0E490F4812
:1091D000FFF7D4FADCE71A6901321A615B699A4237
:1091E000E7E7E3680133082B01D8E360D0E7002309
:1091F000E360DFE7BDE8384008F0B6B838BD00BF2F
:1092000040310020583100205431002030310020FE
:1092100000F0FD03012B08D1044B00225A74421EBA
:10922000504250411874FFF74DBF70474031002045
:1092300010B5064C201DFFF767FB28B9637C1BB9EE
:10924000BDE81040FFF73EBF10BD00BF4031002019
:109250002DE9F34180460D460F4801A916461F46E9
:10926000FFF727FA0446A8B11C22002108F015FBDD
:109270002D0B0123237101A90748C4F80080A760C2
:10928000E5606661FFF73FFAFFF7D2FF002002B00A
:10929000BDE8F0810420FAE7303100202DE9F743E2
:1092A00081468846104801A917461E46FFF701FA75
:1092B0000446B0B11C22002108F0EFFA00250A9BF9
:1092C000A36001A9C4E9037807482571C4F8009098
:1092D0006661FFF718FAFFF7ABFF284603B0BDE859
:1092E000F0830420FAE700BF303100202DE9F84F69
:1092F000B0F806A04579D2F800B09DF828900AFB96
:1093000005F5043D88460BEB0301A94203F1040473
:1093100088BFA5EB030BB4FBFAF607460AFB16441D
:10932000C2F800B04EB9AAEB04055D4528BF5D4602
:10933000BBF1000F04D1BDE8F88F3F68013EF1E7B3
:10934000043408EB06003C442A46B9F1000F0DD066
:109350002146ABEB050B08F077FADA452E443F685F
:1093600055464FF0000428BF5D46E1E70146204620
:10937000EFE7FFF7D2BAF8B546790146721E054607
:10938000002393422D6803D30024A64202D8F8BDDF
:109390000133F6E70F682846FFF7FAFA0134394639
:1093A000F3E72DE9F843068ACD1C0746FFF7CCFA10
:1093B000043E35440446B5FBF6F5F0B14FF4807336
:1093C000EDB28380C680013D076081464FF0000802
:1093D000A84512D23846FFF7B7FA064648B1637976
:1093E0000133637108F10108C9F800000760814684
:1093F000EEE72046FFF7BFFF34462046BDE8F8837E
:1094000001210430FFF768BA10B501210446043089
:10941000FFF76EFA10F0FF0F04D12046BDE81040B0
:10942000FFF7A9BF10BD1FB503920022009203AA47
:10943000FFF75CFF05B05DF804FB1FB50392012246
:10944000009203AAFFF752FF05B05DF804FB41DF6D
:1094500070470000064B10B500241C70054B1C60C3
:10946000BFF35F8F0449054800F0F3F8204610BDB4
:109470006431002068310020441F03005C3100206B
:1094800007B500230DF107008DF80730FDF7ECFF5D
:10949000F1EE103A23F09F03E1EE103ABFF35F8F35
:1094A000094B4022C3F884219DF80700FEF700F81D
:1094B00007F06AFF20B1FFF7CAFF03B05DF804FBB5
:1094C00020BF40BF20BFF8E700E100E0026813685A
:1094D0005268934291BFD01A80680130801888BFCB
:1094E000C01A7047036881681A685B688B4234BF92
:1094F00001330023D31A584258417047F7B500236F
:1095000004460DF107000D468DF80730FDF7ACFF5E
:109510002046FFF7E7FF10B1237C002B3CD12268E7
:10952000A66853685168B14234BF013100215160CF
:1095300030B11168A068814234BF0131002111604F
:10954000E2686068511E072920D8DFE801F00410A6
:109550001F141F1F1F182A78C2542046FFF7B6FF9A
:1095600023689A68824200D29860002415E02A8815
:1095700020F81320F1E72A6840F82320EDE7D5E929
:10958000006700EBC300C0E90067E6E7294602FB7D
:10959000030008F059F9E0E704249DF80700FDF7FF
:1095A00087FF204603B0F0BD036818685B68C31AE4
:1095B00058425841704773B5002305460DF1070026
:1095C0000C4616468DF80730FDF74EFF2846FFF78C
:1095D000EBFF002832D129680B682EB90A68A86809
:1095E000824238BF561C0E60EA686968501E072820
:1095F0001ED8DFE800F0040E1D121D1D1D16CB5CE9
:10960000237000249DF80700FDF752FF204602B0AA
:1096100070BD31F813302380F3E751F82330236015
:10962000EFE701EBC301D1E90023C4E90023E8E738
:1096300003FB0211204608F007F9E2E70524E1E701
:10964000836800225A60C3E904229A60DA601A60D3
:1096500070470B684A684360934208BF002301606B
:1096600008BF43607047436843B10268916852681D
:109670000B449342436004BF00234360704770B5BE
:10968000446806460D46206818B1B36829469847D5
:1096900018B923682B60256070BD2468F3E7436820
:1096A000186808B102681A60704743681868704704
:1096B0004368186800B97047884203D102681A608D
:1096C0000120704703460068F4E7000010B50D491B
:1096D000A1F59472914201D800200FE08C1AE30F9B
:1096E00003EBE4035B1002EBC30452F83330834214
:1096F00005D802D204F10802ECE7606810BD2146EB
:10970000E8E700BF5024030008B5FFF7DFFF024B76
:10971000002808BF184608BD132303000C4B1B7814
:10972000062B10D10B4B1B681A070CD10A4B18687B
:1097300000F0F003302B08D000F0E000A0F140036F
:10974000584258417047002070470120704700BFC1
:10975000E00F00F0E40F00F0E80F00F0094B1B7879
:10976000062B0CD1084B1B681A0708D1074B186849
:1097700000F0F000A0F1300358425841704700203B
:10978000704700BFE00F00F0E40F00F0E80F00F0BA
:1097900008B5FFF7C3FF28B17D4B7E4A1B68C3F3B2
:1097A00004231360FFF7DAFF10B17B4B7B4A1A608A
:1097B000FFF7B4FF28B17A4B7A4A1B68C3F34233F0
:1097C0001360FFF7CBFF20B1774AD36823F0807393
:1097D000D360FFF7A3FF40B14FF080430022C3F8EE
:1097E0000C21C3F81021C3F83825FFF7B7FF10B1DB
:1097F0006E4B03221A60FFF7B1FF40B16C4B05229C
:109800001A6001229A6700229A603F225A60694BCF
:109810001B78062B50D1684B1B6819074CD1674B3E
:109820001B6803F0F003502B46D14FF08052644B7D
:10983000D2F80414C3F82015D2F80814C3F824157C
:10984000D2F80C14C3F82815D2F81014C3F82C154C
:10985000D2F81414C3F83015D2F81814C3F834151C
:10986000D2F81C14C3F84015D2F82014C3F84415DC
:10987000D2F82414C3F84815D2F82814C3F84C15AC
:10988000D2F82C14C3F85015D2F83014C3F854157C
:10989000D2F83414C3F86015D2F83814C3F864153C
:1098A000D2F83C14C3F86815D2F84014C3F86C150C
:1098B000D2F84424C3F87025FFF730FF28B1414B9C
:1098C000414A1B6803F04F031360FFF727FF48B1BD
:1098D0004FF08043D3F80024D20744BF6FF0010259
:1098E000C3F80024394B1B68062B08D1384B1B6882
:1098F000062B01BF374A136843F480631360364A6E
:10990000D2F8883043F47003C2F88830BFF34F8F29
:10991000BFF36F8F4FF01023D3F80022002A03DB30
:10992000D3F80432002B2FDA2C4B0122C3F8042584
:10993000D3F80024002AFBD04FF010221521C2F8E2
:109940000012D3F80024002AFBD04FF01023152278
:10995000C3F80422214B1A46D3F800140029FBD087
:109960000021C3F80415D2F80034002BFBD0BFF35C
:109970004F8F19491A4BCA6802F4E0621343CB6057
:10998000BFF34F8F00BFFDE7164B174A1A6008BDA3
:10999000240300104035014074C007400DF0ADBAFB
:1099A000440200103C050040F0ED00E0A00500403E
:1099B00010560040E00F00F0E40F00F0E80F00F058
:1099C00000C0004058020010E40E004030010010BA
:1099D000340100103C17004000ED00E000E00140C1
:1099E0000400FA05882200200090D003054A4FF0B9
:1099F000A043105CD3F8043523FA00F0C04300F014
:109A00000100704754240300044B1A5C0123934067
:109A10004FF0A042C2F80C35704700BF5424030039
:109A2000044B1A5C012393404FF0A042C2F8083562
:109A3000704700BF5424030008B50020FFF7F0FF73
:109A40000120FFF7EDFF0220FFF7EAFFBDE8084025
:109A50000320FFF7E5BF08B50020FFF7D5FF012081
:109A6000FFF7D2FF0220FFF7CFFFBDE80840032039
:109A7000FFF7CABF074A4FF0A041105CD1F8043588
:109A80000122824022EA03001340C1F80805C1F810
:109A90000C35704754240300054A4FF0A043105C76
:109AA000D3F8103523FA00F0C04300F001007047EE
:109AB000502403000D2809D00E2809D00F2809D002
:109AC00010280CBF03204FF0FF3070470020704774
:109AD0000120704702207047014B185C704700BF9F
:109AE00050240300C20708B501460CD54FF0A0432F
:109AF0000322C3F84427C3F84827C3F84C27C3F808
:109B00005027FFF799FF8B070AD54FF0A0430C228F
:109B1000C3F83427C3F83827C3F83C27C3F84027D5
:109B200008BD000038B5074C051E04F1080318BF36
:109B30001C4623682BB11A6822605B682846984748
:109B4000F7E738BD7431002020B9054B01225A7067
:109B5000FFF7E8BF012802D1014A9070F8E770478B
:109B60006C31002020B9034B01225A70FFF7DABF95
:109B7000704700BF6C31002038B50B4C237883B997
:109B80000A486360A3602361E36000F0C9F80546FA
:109B900007F0FAFB08B900F0CFF80123237028463C
:109BA00038BD8525FBE700BF6C310020499B0200D2
:109BB00037B50B4C00230DF107008DF80730FDF78A
:109BC00053FCE368013BE360E56815B900F0C6F8B3
:109BD000A5709DF80700FDF76BFC03B030BD00BF1A
:109BE0006C310020012813B508D003281CD018B907
:109BF000104B0122C3F8802002B010BD0E4C002390
:109C00000DF107008DF80730FDF72EFC23780BB916
:109C1000FFF7B2FFE3689DF807000133E36001231B
:109C2000A370FDF745FCE7E700F086F8FFF7C0FFFB
:109C3000E2E700BF00E100E06C3100201FB50378CF
:109C40008DF800304368019383688DF80830C3684D
:109C5000054A0393054B684653F8213052F821100A
:109C6000984705B05DF804FB803100208431002066
:109C70001FB503788DF800304368019383688DF831
:109C80000830C368054A0393054B684653F82130F2
:109C900052F82110984705B05DF804FB8031002090
:109CA00084310020F0B5194B90F800C091F81DE008
:109CB00043F82C20164B16460A6943F82C20154B06
:109CC00003F80CE00C4607460FCC89B06D460FC573
:109CD00094E80F0085E80F00CDF810C0BEF1000F2A
:109CE00009D0002E0C4A694608BF3246381D00F0E4
:109CF0003FFF09B0F0BD002E084A694608BF324652
:109D000007F10C0000F02CFDF3E700BF84310020C8
:109D100080310020883100203D9C0200719C0200AF
:109D2000044A137923B901211060918018467047C5
:109D3000852070478C310020074B1A68D2075FBF1F
:109D4000C02283F8002301221A604FF080430122D1
:109D5000C3F81825704700BF00E100E0044B012262
:109D60001A604FF08042D2F81834DB03FBD47047FE
:109D70000C000040154B07B51A687AB100221A6032
:109D80001B680093009B4FF080430122C3F8082317
:109D90000F4B587910B95A711B6898470D4B1A68C8
:109DA00082B100221A601B680193019B4FF080432F
:109DB0000222C3F80823064B1B68012003B05DF89C
:109DC00004EB184703B05DF804FB00BF000100403E
:109DD0008C3100200401004000F1804000F5C040BB
:109DE000002382B0036003680193019B02B07047B7
:109DF000800000F1A040D0F8002722F44032C0F8E3
:109E00000027D0F8003743EA0141C0F80017704737
:109E1000054B4FF0FF32072843F8202084BFC018BD
:109E200080F84820704700BF9431002010B5174CCF
:109E300094F8583043BB04F130032021FF2201394C
:109E400011F0FF0103F8012BF9D1C8B2FFF7E0FFD1
:109E500001310C29F9D1042200210D4807F01DFD24
:109E60000C4BC02283F8062340221A604FF4BE70C8
:109E7000FFF7B2FF084B4FF00042C3F80423012361
:109E800084F85830002010BD0820FCE794310020F1
:109E9000E831002000E100E000600040034B93F84F
:109EA0005800003818BF0120704700BF94310020CF
:109EB000F0B5364D2C1894F93040002C64DA8C78CB
:109EC000C4F34004002C0BBF082300230C260826F3
:109ED000B34201D10420F0BD55F8237001373FD1C2
:109EE0002E1845F8232086F8303014B9EA1882F885
:109EF00048008A78540713D4D60733D5820002F17C
:109F0000A042D2F8004724F00204C2F80047204ED5
:109F1000C20800F007070124BC40B75C3C43B454BE
:109F20008A780C7812F0020225D09B0003F180435E
:109F300003F5C0430202D3F8101521F4473121F490
:109F40004071C3F810152404D3F8101502F4F85228
:109F500004F4403422430A43C3F810250020BAE732
:109F60000133B5E74C7800F5E0724FF0A046A4004D
:109F700046F82240CBE7083B2B4493F8501041EAC7
:109F8000841483F85040E9E70820A4E794310020C6
:109F9000E831002038B51F4C251895F93020072AE4
:109FA00016DD224492F848309B09032B0BD14FF069
:109FB000A043D3F81015C14001F001010231BDE802
:109FC0003840FFF715BF012B0CBF02210321F6E734
:109FD000D3B2072B1CD8930003F1804303F5C04391
:109FE000D3F8100540F00100C3F8100502F140005D
:109FF000800080B2FFF7F0FE51B195F9303054F88F
:10A0000023302BB1012303FA02F2034BC3F80423DC
:10A0100038BD00BF94310020006000404FF0A043E5
:10A02000D3F8103523FA00F000F00100704700006B
:10A030002DE9F04F87B000245A4D03944FF48072FD
:10A04000012102F1804303F5C04390B21B68012B4C
:10A0500006D1D5F804330B4202D0FFF7BDFE0C4306
:10A060000432B2F5907F4FEA4101EAD14E4B1B68B2
:10A07000012B0AD14FF4BE70FFF7AEFE4FF0A043A4
:10A0800044F00044D3F81035039314F0FF0F1AD0B6
:10A09000464F00250126344210D0AB0003F1804327
:10A0A00003F5C043D3F81005D3F8101557F8253041
:10A0B00023B1C1F30141C0F3042098470135082DB5
:10A0C0004FEA4606E7D1002C65DA00214FF0FF3356
:10A0D000CDE90413354D01274FF0000A344ED14627
:10A0E0004FF0A04816F9013B5A1C45D0C3F3C201FA
:10A0F00006AA5018DCB210F8042C03F03F0B03F052
:10A10000070307FA03F31A4236D005EB0B02A40942
:10A1100092F9302055F8222052B9032C2CD10DF1A0
:10A12000100E1EF801C04CEA030C0EF801C001E04D
:10A13000032CF4D00BF5E07110F80C0C58F821103A
:10A140001842C1F3014105D0022915D1032C0FD1CA
:10A15000214604E003290FD1032C09D102215846DE
:10A16000019209F10109FFF743FE019A5FFA89F9AB
:10A1700012B12146584690470AF1010ABAF1040F7C
:10A18000B0D1B9F1000F06D04FF0A043039AD3F835
:10A190001035934202D107B0BDE8F08F0393049BC2
:10A1A000059399E7006000407C61004094310020F5
:10A1B000E4310020014B1B68184700BFF03100203C
:10A1C0000E4B984237B50C4602D0002003B030BD8C
:10A1D00000230DF107008DF80730FDF745F9084B16
:10A1E0001D7915B901221C601A719DF80700FDF751
:10A1F0005FF9002DE9D01120E8E700BF0020004002
:10A20000F0310020034B984201BF034B00221A603B
:10A210001A71704700200040F031002000F18040AA
:10A2200000F5E040002382B0036003680193019BC6
:10A2300002B07047F0B5504B504C1B6885B0002BF6
:10A240003DD04FF4827094F82E20FFF7E7FF2AB339
:10A2500094F82F3013BB4A4B1B68002B33D04FF4BC
:10A260008070FFF7DBFF638B94F82D108B424FD982
:10A2700022895B1A9BB292B26383D31A626802EBA3
:10A280004303404AC2F82C36C2F830164FF48270AD
:10A29000FFF7C4FF3C4B01221A6014E0636802938D
:10A2A0002389ADF80C30E36800218DF8041023BB3E
:10A2B0002374236801A89847002384F82F3094F86A
:10A2C0002E30002BC7D1314B1B685BB14FF4887027
:10A2D000FFF7A4FF0023237402238DF8043001A8A4
:10A2E000236898472A4B1B68EBB14FF48A70FFF73D
:10A2F00095FF0023237405B0F0BD208B608363605D
:10A300002081E160002AD4D11E4B01221A60D0E7DF
:10A31000BCD1E368012284F82F2013B100226283AC
:10A32000AFE76383B2E766694FF000470125002E6F
:10A33000E1D0B6FA86F227FA02F34632920026EA14
:10A34000030602F1804303F5E0431B68002BEED0C7
:10A350001046FFF763FFA2F58C72D30882F0040267
:10A36000C2F380028DF808308DF8045023688DF810
:10A37000092001A89847DAE704710040F83100206D
:10A3800000710040007000400470004010710040F7
:10A390001471004038B51E4B044693F82C00A8BB3E
:10A3A0001C4A19602178C2F8F0156178C2F8F415DA
:10A3B000E5781874012183F82C1083F82D0058617A
:10A3C00083F82F0083F82E506FF00043C2F8083353
:10A3D0004FF48270FFF722FF4FF48070FFF71EFFEB
:10A3E0004FF48A70FFF71AFFA3780B485B01DBB2CA
:10A3F00080F80733802303600223C2F804330DB1D1
:10A40000C2F80413C2F80015002038BD0820FCE78C
:10A41000F83100200070004000E100E070B52A4BE8
:10A420001A7C02F0FF05002A4BD10A79012A9CBF51
:10A43000264CC4F8005500F10C0503EB45042479C3
:10A4400024B993F82D40013483F82D4003EB4503E4
:10A45000CC790D7A8E781C715D714B7836021B01B8
:10A4600006F4E06603F0300333430E7806F003068B
:10A470003343CE78360306F480563343160406F48D
:10A48000E02633434E798979360506F480160906AD
:10A49000334301F080710B430C4901EB00160001BE
:10A4A00000F1804000F5E040012AC6F81835C0F8F8
:10A4B0001455C0F8104502D80123C1F8003500201A
:10A4C00000E0112070BD00BFF83100200070004096
:10A4D00070B5264A264B05461220C2F808031C7C9C
:10A4E000022C03D1C2F80403112070BD187C01288E
:10A4F0001DD1D86818B10223C2F80433F4E7DD6037
:10A50000198393F82E3063B91A4A1368002BFCD0D4
:10A510004FF48070FFF782FE144BC3F82C56C3F83B
:10A520003016124B0222C3F804230020DDE702207C
:10A5300093F82E40C2F80403012600201E745D60CB
:10A540001981D8603CB1598393F82D30C2F82C564C
:10A55000C2F83036C9E7C2F82C564FF48070C2F802
:10A560003016FFF75BFE20461660BEE70070004025
:10A57000F831002000710040084A117C0129CBB25B
:10A5800009D192F82E0018B1054A002013607047D7
:10A59000044A136070470820704700BFF83100205C
:10A5A00000700040047000400023435082B04358C4
:10A5B0000193019B02B070470A4610B54FF48E71AB
:10A5C000FFF7F2FF136A9168C95C136A01331362E3
:10A5D000C0F81C1510BD8B690A4610B54FF4847184
:10A5E00023B9FFF7E1FFD0F8183510BDFFF7DCFF06
:10A5F000536AD168D0F81805C854536A01335362BE
:10A60000F3E700001FB501238DF80030044BCDE9BE
:10A610000110D3E900126846904705B05DF804FBCD
:10A620002832002030B54C48D0F8043313F4007FB2
:10A6300085B005464DD0D0F82431002B49D04FF4D9
:10A640009271FFF7B1FF4FF40173C0F80833434B29
:10A6500093F829200AB9012242603F4902228DF86D
:10A660000020D1F88024C1F8802403929A690292D4
:10A67000DA6801920022C3E906226846D3E9001293
:10A6800090473548D0F81C315BB134494A690B6AB0
:10A690009A420A464AD991F82830002B46D1FFF752
:10A6A0008BFF2D48D0F844318BB14FF4A271FFF7E6
:10A6B0007BFF2A4B93F829200AB1012202609A6994
:10A6C0002AB10022586AD9689A61FFF79BFF05B04A
:10A6D00030BDD5F804335B07D3D5D5F80831002B4E
:10A6E000CFD01E4C1C482146FFF775FF636AA26954
:10A6F0009A422346C5D1E269E1684AB12369E36021
:10A700000023606AA261E3616362FFF77BFFB8E741
:10A7100094F829200AB901226A600F4A4FF40170A7
:10A72000C2F808030022586A9A61EEE70A484FF41B
:10A730008E71FFF739FF5369002BB2D05169029136
:10A74000002391688DF80030019153616846D2E989
:10A7500000139847A5E700BF0020004028320020E2
:10A760002DE9F843574B057991462C2202FB05321F
:10A77000064692F82A200C469846002A40F09D8012
:10A7800051490068FFF71CFD0746002840F09780FC
:10A7900021683368481C0BD04FF0A04001228A404A
:10A7A000C0F8082501F5E0724FF0030C40F822C014
:10A7B0006068421C1FBF00F5E0724FF0A04C4FF0E4
:10A7C000000E4CF822E0A269C3F8242594F814C0C6
:10A7D000627DBCF1010F4CEA0202C3F86C25C3F89C
:10A7E0001405C3F80C151DD1A1684A1C1FBF01F543
:10A7F000E0724FF0A0404FF0000C40F822C0E26839
:10A80000501C0BD04FF0A04C01209040CCF8080514
:10A8100002F5E0704FF0030E4CF820E0C3F8082575
:10A82000C3F810152C236B4308EB0302C2F8049005
:10A83000226948F80320B9F1000F2BD03068247F3B
:10A840004FF48E71FFF7B0FE30684FF4A271FFF73E
:10A85000ABFE32681D4BC2F80433110B42F30732D2
:10A86000002AA8BF02F160404FEA4413BABF18485B
:10A8700001F00F0400F56140DBB2B4BF035580F86E
:10A88000003301F01F01012303FA01F15209114BBA
:10A8900043F8221033680422C3F800252C2303FB5D
:10A8A00005830022C3E9062283F829205A61012288
:10A8B00083F82A203846BDE8F8830827FAE71127ED
:10A8C000F8E700BF2832002025A602008000020021
:10A8D00014ED00E000E100E0F8B5047900682C4DCB
:10A8E0000023C0F800352C2303FB04535B686BB1D5
:10A8F000284BC0F8083340F30733C0F304315B0939
:10A9000001228A402033244941F82320D0F80C65E5
:10A91000D0F81415D0F80835D0F810254FF0FF37CF
:10A92000BE42C0F8147518BF06F5E076C0F80C7585
:10A93000C0F80875C0F810751EBF4FF0A0474FF063
:10A94000020C47F826C04E1C1FBF4FF0A04601F571
:10A95000E071022746F82170511C1FBF4FF0A04143
:10A9600002F5E072022641F822605A1C1FBF03F56F
:10A97000E0734FF0A042022142F82310FFF742FC9F
:10A980002C2303FB0454002384F82A306360F8BDB1
:10A99000283200208402020000E100E02DE9F047A7
:10A9A000204F90F804904FF02C0808FB09740546DE
:10A9B0006669002E34D162610068A16026624FF49E
:10A9C0008E7184F82860FFF7EFFD2868012383600B
:10A9D0002146FFF7F1FD6368A0468BB92868D4F8DB
:10A9E00014A0236A9A4511D82A68D2F81C31002B8A
:10A9F000FBD00123D3602C2303FB097300225A618F
:10AA00003046BDE8F08794F828303BB9D0F81C31C7
:10AA1000002BF8D04146FFF7CFFDE2E70F26EAE72B
:10AA20001126EDE7283200200023435082B043581E
:10AA30000193019B02B070471FB501238DF80030D0
:10AA4000044BCDE90110D3E900126846904705B0E8
:10AA50005DF804FB543200207FB5434AD2F82461EC
:10AA6000002E60D010464FF49271FFF7DDFF0223F5
:10AA70008DF80030D2F88034C2F880340393D2F8D5
:10AA80003C350293394BDA6801920022C3E9062271
:10AA90006846D3E9001290473348D0F8443173B187
:10AAA0004FF4A271FFF7C0FF304B9A693AB1002210
:10AAB000C3E90622D968D0F83C05FFF7BDFF2A4854
:10AAC000D0F82031ABB14FF49071FFF7ADFF012307
:10AAD000C360264B5A6962B1D0F84C15029100222E
:10AAE00099688DF8002001915A616846D3E90012F7
:10AAF00090471D48D0F858319BB14FF4AC71FFF727
:10AB000093FF1A4B5A6962B1D0F84C15029100229A
:10AB100099688DF8002001915A616846D3E90012C6
:10AB2000904704B070BDD2F81031002BB4D04FF470
:10AB300088711046FFF778FF0C4BD2F83C059969F5
:10AB40008842A9D1DC69D96864B1D2F8005225F0F5
:10AB50002005C2F800521A699C61DA60DE61FFF7D5
:10AB60006BFF99E79C61FAE7002000405432002017
:10AB70002DE9F8435D4B06799146242202FB06320B
:10AB8000044692F820200D469846002A40F0AA80FC
:10AB900057490068FFF714FB0746002840F0A480DF
:10ABA00029682368481C0BD04FF0A04001228A403E
:10ABB000C0F8082501F5E0724FF0030C40F822C000
:10ABC0006868421C1FBF00F5E0724FF0A04C4FF0C8
:10ABD000000E4CF822E0AA69C3F8242595F814C0A9
:10ABE0006A7DBCF1010F4CEA0202C3F86C25C3F880
:10ABF0000C15C3F814051DD1A9684A1C1FBF01F527
:10AC0000E0724FF0A0404FF0000C40F822C0EA681C
:10AC1000501C0BD04FF0A04C01209040CCF8080500
:10AC200002F5E0704FF0030E4CF820E0C3F8082561
:10AC3000C3F810152423734308EB0302C2F80490F1
:10AC40002A6948F80320B9F1000F3AD020682A7F1A
:10AC50004FF48871FFF7E8FE20684FF49071FFF71A
:10AC6000E3FE20684FF49271FFF7DEFE20684FF498
:10AC7000A271FFF7D9FE20684FF4AC71FFF7D4FE44
:10AC800023681C49C3F80413190B43F30733002B43
:10AC9000AEBF03F1604001F00F0517484FEA4212C2
:10ACA000A8BF00F56140D2B2B4BF425580F800237E
:10ACB00001F01F01012202FA01F15B090F4A42F87B
:10ACC000231023680822C3F80025242303FB0683EE
:10ACD0000022C3E906225A61012283F82020384667
:10ACE000BDE8F8830827FAE71127F8E75432002077
:10ACF00059AA02001003420014ED00E000E100E058
:10AD0000F8B5374D0479242303FB045302465B68EE
:10AD100000686BB1334BC0F8083340F30733C0F31E
:10AD200004365B090121B14020332F4E46F8231031
:10AD3000D0F80032012623F02003C0F800324FF48F
:10AD4000AC714660FFF770FE1068C660D0F85831ED
:10AD5000002BFBD00023C0F80035D0F80C65D0F8EC
:10AD60001415D0F80835D0F810254FF0FF37BE4243
:10AD7000C0F80C7518BF06F5E076C0F81475C0F879
:10AD80000875C0F810751EBF4FF0A0474FF0020CB9
:10AD900047F826C04E1C1FBF4FF0A04601F5E071DA
:10ADA000022746F82170511C1FBF4FF0A04102F549
:10ADB000E072022641F822605A1C1FBF03F5E073BF
:10ADC0004FF0A042022142F82310FFF71BFA242380
:10ADD00003FB0454002384F820306360F8BD00BFF7
:10ADE000543200201003420000E100E001F0604313
:10ADF000B3F1005F2DE9F041064638D11E4B0779CB
:10AE0000242505FB073598466C69002C31D16A6111
:10AE10000068A9604FF49071FFF706FE4FF4AC7123
:10AE20003068FFF701FE33686A69A968C3F8441502
:10AE3000C3F8482501229A606A68AAB9D3F820218C
:10AE4000D3F858411AB9002CF8D00F2407E0002C91
:10AE5000FBD10122DA60D3F85821002AFBD0242349
:10AE600003FB078700237B612046BDE8F0811024A7
:10AE7000FAE71124F8E700BF543200200220FEF761
:10AE8000F9BD00002DE9F04780460D46FEF712FEA1
:10AE90000328044610D8012D10D0022D30D05DB902
:10AEA0001A48FCF708FA1A4B04EB440213449E7844
:10AEB000184B1B5DB34219D0BDE8F087144D00EB71
:10AEC0004002A918AE5C4A78470052B1DFF84C90B6
:10AED0000E484A464FF48041FCF7D5F908B989F885
:10AEE00000803B192B449A780A4B1A55002EE3D068
:10AEF000094B1B68002BDFD03046BDE8F0471847F0
:10AF000000EB4004024804446678EFE7A0320020DA
:10AF1000E0320020F9320020F432002078320020A4
:10AF200000780221FFF7AEBF08B5094B1B7853B17B
:10AF30000020FEF775FD0120FEF772FDBDE8084018
:10AF40000320FEF76DBDBDE80840FEF775BD00BFEC
:10AF500079320020F8B57B4C237805461BB10023DD
:10AF60002370FFF7E1FF172D00F28880DFE805F07E
:10AF70000C17174354657680888D888D959A9A9A18
:10AF80009A9AC4C9D1D9E4E4FFF7CEFF6E48FCF722
:10AF900092F96E4B002204461A702046F8BD00203C
:10AFA000FEF724FDF8B10020FEF73AFD022D0CBF9C
:10AFB0004FF4E1614FF47A61644B1D704FF400402F
:10AFC0004FF47A740025E0FB01454FF4FA62002348
:10AFD0002046294606F040FB00220146BDE8F84025
:10AFE0005948FCF750B9FEF70FFD022D0CBFC821E0
:10AFF0004FF4C871E0E70020FEF7F8FC40B10020F4
:10B00000FEF70EFD4FF44871504B03221A70D5E73E
:10B01000FEF7FAFCC821F7E70020FEF7E7FC38B19D
:10B020000020FEF7FDFC4FF47A61484B0422EDE767
:10B03000FEF7EAFC4FF4C871F7E70020FEF7D6FCF4
:10B0400048B10020FEF7ECFC404B05221A7040F698
:10B05000CD410022C2E7FEF7D7FCF5E70020FEF75E
:10B0600009FD3A4B06221A70002240F26661B5E7EC
:10B070000020FEF7C9FC354B07221A7000248CE72C
:10B0800001202070FEF7F6FCEEE701202070FEF7AD
:10B09000F1FC00224FF40051A0E7FEF7DCFC2B4B43
:10B0A0000C22EAE72A482B4EFCF705F9D5F11105E9
:10B0B00004461CD0D8B9012D13D0C8235D434FF4EA
:10B0C00000474FF47A7000214FF4FA620023C7FB67
:10B0D000050106F0C1FA224601461D48FCF7D3F8E7
:10B0E00004460220FEF790FC0123337055E702204E
:10B0F000FEF796FC0023F8E7FFF716FF134B12222A
:10B10000BBE7FFF711FF0020FEF77EFC0F4B132279
:10B11000B3E7FFF709FF0120FEF776FC0B4B142283
:10B12000ABE7FFF701FF0020FEF76EFC0120FEF702
:10B130006BFC064B1522A0E7FEF78DFC034B1D7040
:10B140009CE700BFF0320020C0320020F83200201F
:10B150008032002079320020044B1B68DB0703D5C6
:10B16000034B1878FFF7F6BE704700BFEC320020A3
:10B17000F8320020032801D8FEF78EBC002070476B
:10B18000044B1B6813F0010301D0FFF7E3BE184620
:10B19000704700BFEC32002038B51C4B18601C4BC8
:10B1A00010F00204054619601AD01A4B1A480E22F4
:10B1B0001A700F22DA7010229A7111225A72042129
:10B1C00040F23332FBF7F2FE044648B9FBF744FF86
:10B1D000044628B90146114A1148FCF749F80446CB
:10B1E000EB0711D50120FEF77DFC6CB921460D4A15
:10B1F0000D48FCF73DF8044630B9BDE838400B4A2D
:10B200000B480121FCF734B8204638BDEC32002051
:10B21000F4320020E03200208024030021AF02003D
:10B22000A424030059B10200A82403007DAE02004B
:10B23000A0240300032811D8012A0AD101290FD123
:10B2400000F10E02D2B20D4B00EB40001A54002068
:10B2500070470129F7D0022904D049B1072070476F
:10B260000022F8E7054B00EB400018444270EEE77F
:10B27000024B00EB400018448270E8E7E032002007
:10B28000032808B512D8FEF727FC800000F1A04083
:10B29000D0F8003723F44033C0F80037D0F8003737
:10B2A00043F44033C0F80037002008BD0620FCE717
:10B2B00008B5012202210020FFF7BCFF08B10728D2
:10B2C00010D1072202210120FFF7B4FF08B107289F
:10B2D00008D100210A220846FFF7ACFF10B1072869
:10B2E00008BF002008BD00000388102B10B502D055
:10B2F000112B1ED010BD1A4C2168B1B9012208468D
:10B30000FFF798FF08B1072824D107220221012066
:10B31000FFF790FF08B107281CD10422022100206A
:10B32000FFF788FF08B1072814D123680133236091
:10B33000E0E70B4A1368013B1360002BDAD1FFF7FB
:10B34000B7FF0028D6D0074B1B68002BD2D0BDE832
:10B3500010401847034B1B68002BE6D09847E4E7E2
:10B36000043300200033002008B50020FFF788FFD9
:10B3700008B1062806D10120FFF782FF10B1062888
:10B3800008BF002008BD00000D4B10B518600C462A
:10B3900029B10120FFF7EEFE40B102232370094BD3
:10B3A0001B6853B9BDE81040FFF782BFFFF7E2FE0C
:10B3B00008B10B23F2E72070F1E7002010BD00BFB9
:10B3C000003300200433002076DF704777DF7047BA
:10B3D00078DF70477ADF70477CDF70478FDF704718
:10B3E00033DF7047FBF74EBE08B5FFF7C5F818B15D
:10B3F000BDE80840FBF746BE08BD08B50020FFF7D2
:10B40000BFFE08B1FBF73EFEFFF7AEFF08B1FBF74A
:10B4100039FEFFF7E5FF18B1BDE80840FBF732BE83
:10B4200008BD00000388212B13B504463AD005D887
:10B43000102B17D0112B0AD002B010BD3B2B01D01E
:10B44000562BF9D1A0881321FFF7BEFF25E0194B39
:10B4500019481A49C01AC008000440F00300FBF75D
:10B460001BFBE9E7134B14481549C01AC008000438
:10B4700040F00300FBF710FB0720FFF781FE08B147
:10B48000FBF700FEA1880F4803F0B8F908B1FBF7FD
:10B49000F9FDA1880C4801F075FC0028CCD0FBF721
:10B4A000F1FDC9E7002301A98088ADF80430FFF75A
:10B4B00095FFF2E74C1A03007C1A0300AC2403004A
:10B4C000BA240300503900209C2200200146014884
:10B4D00005F01CBD1839002038B50478002C65D162
:10B4E00040680121B0F90050FEF7F2FF08B1FBF708
:10B4F000C9FD4FF4167315FB03F3002BB8BF03F21D
:10B50000FF339B1203EB43035B0003F587739BB28E
:10B5100040F6B732934247D840F654318B421FD998
:10B52000C3F53B633A24083363436FF0630493FB32
:10B53000F4F46434E4B24FF6FE721D48214605F07F
:10B540000DFC30F0080231D020F00202112A2DD07B
:10B5500043F20142904229D0BDE83840FBF792BD4A
:10B5600040F6B422934208D9CB1A18245C436FF0FA
:10B570009F0394FBF3F42A34DCE740F688118B42F6
:10B5800006D9D41A6FF0180394FBF3F41234D1E700
:10B5900040F634029342CED9CB1A06245C43054BC5
:10B5A00094FBF3F40634C5E76424C4E738BD00BF58
:10B5B00040370020ACFEFFFF012808B514D0022858
:10B5C0001ED048BB154B16481649C01AC0080004C7
:10B5D00040F00300FBF760FA1120FFF7D1FDD8B16E
:10B5E000BDE80840FBF74EBD0C4B0D480E49C01A94
:10B5F000C008000440F00300FBF74EFA0D20ECE712
:10B60000064B07480949C01AC008000440F003006F
:10B61000FBF742FA1020E0E708BD00BF4C1A030018
:10B620007C1A0300C5240300CF240300DB2403009D
:10B630000B7813B94878FFF7BFBF70470B7823B971
:10B640004B6813B11878FFF7B7BF7047043810B5CF
:10B650000B2826D8DFE800F00A2525252525062514
:10B6600025251631BDE81040FFF7C7BE1B4B13213F
:10B670001889FFF7A9FE30F0080312D0BDE810408A
:10B68000FBF700BD164B1B785BB1164C23784BB90A
:10B690000221124805F0ACFC30B9237883F0010395
:10B6A000237010BD0021F4E71328FAD043F20143C0
:10B6B0009842F6D00528F4D0E0E70B4B0B480C4934
:10B6C000C01AC008000440F00300FBF7E5F91120A0
:10B6D000FFF756FD0028E4D0D0E700BF183900205E
:10B6E00039390020383900204C1A03007C1A030035
:10B6F000E724030008B598B1032815D10B4B0C487B
:10B700000C49C01AC008000440F00300FBF7C4F95C
:10B710000220FFF735FD38B1BDE80840FBF7B2BCA9
:10B72000BDE80840FFF769BE08BD00BF4C1A030022
:10B730007C1A0300F224030008B50A7812B1012A2A
:10B740000BD008BD07484FF4F011FBF79CFD002813
:10B75000F7D0BDE80840FBF795BC0248FBF7ABFD0E
:10B76000F5E700BF5837002008B50B7813B1022B5E
:10B770000CD008BD8A890748498805F063FC08B1E8
:10B78000FBF780FC044B01221A70F2E7024B002207
:10B79000FAE700BF183900203939002008B50548FC
:10B7A000032100F01AFD18B1BDE80840FBF76ABCA0
:10B7B00008BD00BF0C33002010B5044604F038FB70
:10B7C000204604F017F923780C2B03D1BDE8104074
:10B7D000FFF7E4BF10BDFBF755BCFBF753BC0000FF
:10B7E00000B54FF48041AFB00020FAF79FFF08B1D9
:10B7F000FBF748FCFAF7D0FEFBF708FD08B1FBF7B2
:10B8000041FCB04AB0480121FBF732FD08B1FBF71B
:10B8100039FCAE490320FFF7BFFC08B1FBF732FC4F
:10B8200003A90020FFF7B0FD08B1FBF72BFC9DF842
:10B830000C40FDF70FFE08B1FBF724FC05F026FDD8
:10B8400008B1FBF71FFC002303A90120039305F0B7
:10B85000E5FD08B1FBF716FC03A805F091FE08B161
:10B86000FBF710FC9A499B48FEF794FD08B1FBF7E3
:10B8700009FC994A10685168127A03AB03C303A903
:10B8800000201A70FEF7CAFD08B1FBF7FBFB9348D6
:10B890000121FEF71DFE08B1FBF7F4FB90480121E2
:10B8A000FEF716FE08B1FBF7EDFB11238D488DF86E
:10B8B000083006F025F88B4982B202A8FFF78CFD0C
:10B8C00008B1FBF7DFFB4FF41070FFF781FD08B103
:10B8D000FBF7D8FB0822002103A805F0DEFF824811
:10B8E0004FF0C873CDE9030303A8FFF773FD08B158
:10B8F000FBF7C8FB7D48002102F050FC08B1FBF7C4
:10B90000C1FB0021AC2203A805F0C7FF02238DF87C
:10B910000C3040F20153ADF80E300423ADF81C306A
:10B92000734B0893012328218DF8883044F250632B
:10B93000CDE925136F48704B2C9303A900F0CEFB83
:10B9400008B1FBF79FFB6B486C4E012100F0C3FB75
:10B950000822002103A805F0A0FF694B039303A868
:10B96000049601F0D1F908B1FBF78CFB654B6648F2
:10B97000039303A902F030FF08B1FBF783FB00211A
:10B98000022203A805F089FF4FF43E735F48ADF82B
:10B990000C3003A905F0EEFB08B1FBF773FB0021A7
:10B9A000082203A805F079FF594B03935948022355
:10B9B00003A98DF8103005F06EFA08B1FBF762FBB1
:10B9C0000C2200210DEB020005F067FF524B0393A0
:10B9D0004FF40073514DADF81430514804950223D3
:10B9E00003A98DF8163005F039FB08B1FBF74AFBC7
:10B9F0001022002103A805F050FF4A4B03930123B6
:10BA00008DF81030484B4948002203A9CDE90523A1
:10BA100005F030F908B1FBF735FB0C2200210DEBE6
:10BA2000020005F03AFF424B4248059600221A7088
:10BA3000414B03A9CDE9033505F0A8FA08B1FBF79E
:10BA400021FB1C22002103A805F027FF00234FF44F
:10BA5000A032CDE903324FF4F022059203228DF893
:10BA60001820ADF81A300122089303A8334B8DF843
:10BA70001C20099300F0F0FD08B1FBF703FB03F075
:10BA800089FC08B1FBF7FEFA0522002103A805F0A6
:10BA900004FF039B03F07C42294B134303939DF85F
:10BAA000103023F0030343F0030303A88DF8103094
:10BAB00003F00AFD08B1FBF7E5FA224803F0ECFCBD
:10BAC00042E000BFE9B30200482503004DB6020082
:10BAD000D9B40200412503003825030008330020B3
