:020000040000FA
:10000000102900202D030000350300001502000018
:10001000390300003B0300003D0300000000000026
:100020000000000000000000000000003F0300008E
:1000300041030000000000004303000045030000EE
:10004000ED07000047030000B10B0000470300006C
:100050004703000025060000470300004703000097
:100060004703000047030000470300004703000068
:100070004703000047030000470300004703000058
:100080004703000047030000470300004703000048
:100090004703000047030000470300004703000038
:1000A000470300004703000047030000610B000006
:1000B00047030000470300000000000000000000AC
:1000C0004703000047030000470300004703000008
:1000D0004703000047030000470300000000000042
:1000E0000000000000000000000000000000000010
:1000F0000000000000000000000000000000000000
:1001000000000000000000000000000000000000EF
:1001100000000000000000000000000000000000DF
:1001200000000000000000000000000000000000CF
:1001300000000000000000000000000000000000BF
:1001400000000000000000000000000000000000AF
:10015000000000000000000000000000000000009F
:10016000000000000000000000000000000000008F
:10017000000000000000000000000000000000007F
:10018000000000000000000000000000000000006F
:10019000000000000000000000000000000000005F
:1001A000000000000000000000000000000000004F
:1001B000000000000000000000000000000000003F
:1001C000000000000000000000000000000000002F
:1001D000000000000000000000000000000000001F
:1001E000000000000000000000000000000000000F
:1001F00000000000000000000000000000000000FF
:10020000DFF80CD000F0E4F8004800473912000095
:1002100010290020094B1EF0040F1CBFEFF30980CA
:100220001847EFF308800649064A884201D89042F1
:1002300002D88D464FF0000018470000310400003E
:10024000102900201009002030B4044654E8000FA3
:100250000D4644E80053002BF8D1156030BC7047C0
:1002600030B4044654E8000F40EA010544E8005366
:10027000002BF7D1156030BC704730B4044654E809
:10028000000F00EA010544E80053002BF7D1156088
:1002900030BC704730B4044654E8000F80EA0105D2
:1002A00044E80053002BF7D1156030BC704730B4E0
:1002B000044654E8000F00EB010544E80053002B0E
:1002C000F7D1156030BC704730B4044654E8000FD5
:1002D000A0EB010544E80053002BF7D1156030BCBA
:1002E000704770B404464FF0000054E8006F0D688A
:1002F000AE4207BF44E80023012044E800630E60DB
:10030000002B1CBF0020F0E770BC704730B40446DF
:1003100054E8000F88422CBF451A054644E80053B4
:10032000002BF5D1156030BC7047000006488047AF
:1003300006480047FEE7FEE7FEE7FEE7FEE7FEE7CA
:10034000FEE7FEE7FEE7FEE74508000001020000C9
:10035000202A04DB203A21FA02F00021704721FA1A
:1003600002F3D040C2F12002914008431946704781
:1003700000487047D83A000040EA01039B0703D0C9
:1003800009E008C9121F08C0042AFAD203E011F8D4
:10039000013B00F8013B521EF9D27047D2B201E096
:1003A00000F8012B491EFBD270470022F6E710B57A
:1003B00013460A4604461946FFF7F0FF204610BDD3
:1003C000421C10F8011B0029FBD1801A7047000065
:1003D000064C074D06E0E06840F0010394E8070092
:1003E00098471034AC42F6D3FFF70EFFAC40000044
:1003F000CC40000030B58C1810F8012B12F00F0320
:1004000001D110F8013B120906D110F8012B03E0CD
:1004100010F8015B01F8015B5B1EF9D101E001F806
:10042000013B521EFBD1A142E6D3002030BD0000AB
:100430001CB5814601F0DEFF01F018FE0028FBD15B
:100440002D485FEA090507682C482D494FF0010641
:10045000A0EB01004FEAD00006EB004417D0204685
:1004600028A1AA6901F01EFFD5E90201CDE900012A
:10047000D5E90023204629A101F024FFE869009076
:10048000D5E90423204633A101F013FF03E0204601
:100490003AA101F003FF1848001D0068800703D54A
:1004A0002046434901F0FAFEDFF80881002500BF2D
:1004B00006FA05F0384206D058F825201AB1204631
:1004C0003DA101F0EFFE6D1C1A2DF1D3380606D5C3
:1004D00009480C30026820463AA101F0E3FE3804D6
:1004E00006D505481030026820463EA101F0DAFE2C
:1004F000484600F085F8000028ED00E014410000B7
:10050000DC40000048415244204641554C54206193
:1005100074203078253038580000000020205230F8
:100520003A2020307825303858202052313A202087
:10053000307825303858202052323A202030782523
:10054000303858202052333A20203078253038581F
:100550000000000020205231323A20307825303817
:100560005820204C523A202030782530385820200E
:100570005053523A20307825303858005374616314
:100580006B2076696F6C6174696F6E3A2073746169
:10059000636B20706F696E746572206F7574736918
:1005A000646520737461636B20617265612E000065
:1005B000B43B00002C00002043617573653A202590
:1005C000732E00004D656D4D616E6167652046615B
:1005D000756C7420416464726573733A20307825B9
:1005E00030385800427573204661756C7420416440
:1005F00064726573733A20307825303858000000F3
:10060000BFF34F8F05480168054A01F4E0611143CB
:100610000160BFF34F8F00BFFDE700000CED00E06D
:100620000400FA052DE9FF5F4FF48274204601F0C3
:10063000C1FF48B1022001F0CDFF28B1204601F0F2
:10064000C1FF022002F008F94FF48C7001F0B2FFF4
:10065000DFF88491614F624E624C4FF000084FF416
:10066000947A4FF4867B78B3402001F0B3FF58B3FF
:100670004FF48C7001F0A6FFB069CDE90008D9F8FD
:10068000000003905448143000685546C0F30B0036
:100690001038C0F3CC000290504601F08BFF60B1DF
:1006A000381501F097FF40B1386800F00D00019057
:1006B000284601F087FF0D203860616809B168465F
:1006C0008847584601F07EFF4FF4887001F072FFB2
:1006D000A0B1102001F07EFF80B14FF4887001F0CE
:1006E00071FF06F128000FC88DE80F003E49182061
:1006F000C1F80803616809B1684688474FF4A670DD
:1007000001F058FF354D083D28B34FF4002001F0AB
:1007100061FF00B34FF4A67001F054FF4FF48C70EA
:1007200001F050FF504601F04DFF584601F04AFFDE
:100730004FF4887001F046FF002002F0FDF80D2014
:100740003860286006F138000FC88DE80F00616836
:1007500009B1684688474FF48E7A504601F02AFF67
:10076000C0B1802001F036FFA0B12F68504601F0E3
:1007700029FF483696E80F008DE80F00F80707D0EC
:10078000012028608DF80480616809B168468847B7
:100790000D2028605D46584601F00CFF002819D056
:1007A000082001F017FF002814D0284601F00AFFA6
:1007B000616800290ED008200090D9F8000002904E
:1007C00005480C30006840F2FF1202EAD0000190A8
:1007D00068468847BDE8FF9F105500400C54004014
:1007E000903900005C0200200050004070B54FF4CA
:1007F0008076304601F045F9114CB50560B13046C0
:1008000001F046F90120C5F80803607920B90120FC
:1008100060712168002088474FF48276304601F0ED
:1008200030F900280AD0304601F032F90220C5F82C
:1008300008032168BDE870400120084770BD000032
:100840000C000020F0B5B5480023021D0178101DF2
:1008500001254FF0805406290BD11678360708D1B0
:100860000678C6F30316032E06D0042E04D0052EF8
:1008700002D0062907D00EE0B4F82463A84FC6F3CF
:1008800004263E6002E01678360704D10678C6F3E7
:100890000316032E02D0062904D00FE0A24FA14E6A
:1008A0007E670EE01678360708D10678C6F3031681
:1008B000032E06D0042E04D0052E02D0062907D020
:1008C0000EE0D4F84462994FC6F342363E6002E02F
:1008D0001678360704D10678C6F30316032E02D025
:1008E000062906D011E0924E376827F080773760EE
:1008F0000EE01678360708D10678C6F30316032EE5
:1009000006D0042E04D0052E02D006290AD011E00C
:100910004FF08046C6F80C31C6F81031834E361FB2
:10092000336002E01678360704D10678C6F3031662
:10093000032E02D0062905D00CE07C4F0326643735
:100940003E600AE01678360704D10678C6F303162F
:10095000032E02D006290DD014E0764F05263E6006
:10096000744E78363560734E083633603F263F1D2F
:100970003E6002E01678360704D10678C6F3031607
:10098000052E02D0062957D062E06B4E36686B4FB9
:100990003E60694E361D36683F1D3E60664E083625
:1009A00036683F1D3E60644E0C3636683F1D3E6023
:1009B000614E103636683F1D3E605F4E1436366815
:1009C0003F1D3E605C4E183636685C4F20373E60F7
:1009D000594E1C3636683F1D3E60574E20363668ED
:1009E0003F1D3E60544E243636683F1D3E60524ED9
:1009F000283636683F1D3E604F4E2C3636683F1D08
:100A00003E604D4E303636684C4F40373E604A4E61
:100A1000343636683F1D3E60474E383636683F1DD7
:100A20003E60454E3C3636683F1D3E60424E403685
:100A300036683F1D3E6002E01678360708D106781A
:100A4000C6F30316032E06D0042E04D0052E02D0C2
:100A5000062907D019E0D4F85812394A01F04F019D
:100A6000116002E0117809070FD10078C0F303107C
:100A7000032803D0042801D0052806D13148016895
:100A8000C90702D06FF001010160D4F830010628D7
:100A900008D1D4F83401062804D12B48016841F468
:100AA0008061016022487438016841F4700101607E
:100AB000BFF34F8FBFF36F8F4FF01021D1F80002BB
:100AC000002803DBD1F80402002822DA1F4A15604F
:100AD0001F480468002CFCD01524C1F800420568AA
:100AE000002DFCD0C1F8044201680029FCD013603D
:100AF00001680029FCD0BFF34F8F0D48F038016822
:100B0000144A01F4E06111430160BFF34F8F00BF4D
:100B1000FDE7124910480860F0BD0000E00F00F04A
:100B2000403501400DF0ADBA00C007403C05004023
:100B3000FCED00E0105600400404001020C5004009
:100B4000E40E0040000400403C17004004E5014072
:100B500000E401400400FA050090D0030C010020DD
:100B60002DE9F047104E062700244FF4A0784FF4EB
:100B7000803900BF08EB840509FA04F0715961B1AE
:100B8000D6F80413014208D02946304601F07AFD18
:100B90000648D0E9002128469047641CE4B2BC42D4
:100BA000E8D3BDE8F087000000B001406C020020EF
:100BB00001480068004700002000002000F01F02EC
:100BC000012191404009800000F1E020C0F880122E
:100BD000704702E008C8121F08C1002AFAD1704706
:100BE0007047002001E001C1121F002AFBD17047AD
:100BF00070B5254CA0421ED1F1B1012936D0022991
:100C000028D0032917D1072000F0D2FB002812D1E9
:100C100094F8680094F8691088420CD194F86A003E
:100C2000002808D10023D4E901501A460321A8471F
:100C3000012084F86A0070BD052000F0B9FB00288F
:100C4000F9D1A06864680023A446BDE870401A4644
:100C50000121604710461900EDD00028EBD0027842
:100C6000302AE8D1BDE8704000F0C2BB082000F097
:100C70009FFB28B9A068002364681A460221A04798
:100C8000BDE8704000F068BC84080020054672B6DC
:100C900001F0B0FB01F0EAF90028FBD1114812493C
:100CA0002A46401AC408012000EB04400FA101F0BD
:100CB000F9FA13480068C00700D000BE022000EB1C
:100CC000044010A101F0EAFABFF34F8F0C48E4385A
:100CD0000168104A01F4E06111430160BFF34F8FD6
:100CE00000BFFDE71C410000DC400000466174616C
:100CF0006C206572726F72203078257800000000D9
:100D0000F0ED00E053797374656D2072657365745E
:100D1000000000000400FA050EB500210091CDE9A5
:100D200001106A4644F20100FFF7B0FF0EBD00F06B
:100D300003B800F009B8000072B602480168491C07
:100D4000016070472800002003490868401E0860C1
:100D500000D162B670470000280000202DE9F04164
:100D6000064608680C46411C4FF0A0474FF00105AD
:100D700006D005FA00F1C7F80815206801F078F8E8
:100D80006068411C02D0002101F060F83168A06960
:100D9000C1F82405607D227D31681043C1F86C05DF
:100DA000D4E900123068C0F81425C0F80C15207D75
:100DB000012815D1A068411C02D0002101F046F89D
:100DC000E068411C05D08540C7F80855E06801F08F
:100DD0004FF8D4E902123068C0F80825C0F81015A1
:100DE000BDE8F0812DE9F041064608680C46411C3B
:100DF0004FF0A0474FF0010506D005FA00F1C7F803
:100E00000815206801F03EF86068411C02D00021FE
:100E100001F025F83168A069C1F82405607D217DC5
:100E200032680843C2F86C05D4E900123068C0F893
:100E30000C15C0F81425207D012815D1A068411C8F
:100E400002D0002101F00BF8E068411C05D085407C
:100E5000C7F80855E06801F015F8D4E902123068C7
:100E6000C0F80825C0F81015BDE8F0812DE9FC4157
:100E70000646C0074FF000050ED0104F0024012297
:100E8000385D009500231146019500F097FF641C22
:100E9000042CF4D300F024F8B0070DD5074E00243D
:100EA000361D0022305D032300951146019500F0A8
:100EB00085FF641C042CF4D3BDE8FC818839000054
:100EC0000249085C012100F0E7BF000088390000FA
:100ED0000249085C002100F0DFBF000088390000F3
:100EE00010B500242046FFF7EBFF641C042CF9D357
:100EF00010BD00002DE9F0470546861C90460F46C0
:100F00004FF001090020FFF712FF1B4C20683860EA
:100F1000D4E90001401AA16804F21C47081A0EE047
:100F20000121384600F045FD00F038F90146384609
:100F300000F03FFDD4E90001401AA168081A401CE6
:100F40008642EDD8B8F1000F03D0052065F3891073
:100F500002E0062065F39F50A2682168114004EB6F
:100F60008101C8602068304420600020FFF7E1FE66
:100F70004846BDE8F08700006004002070B50D46CB
:100F800004460A2902D10D21FFF7F8FFA068226864
:100F9000411CA1601554D4E90101814204D32046CB
:100FA000BDE8704000F011BE70BD0000034803C8EA
:100FB000814201D101207047002070476004002069
:100FC00070B5084C050009D010342168002907D0FD
:100FD00008682060496828468847F6E70834F4E73F
:100FE00070BD000048020020002801D101F0CABDF8
:100FF00070470000054A012120B1012805D19170F8
:10100000FFF7DEBF51700020FAE77047480200206A
:1010100010B50021024800F0D7FC80F3100010BD8D
:101020007C0800202DE9FC5F0E008346DDE90C47BB
:10103000C6F1000098469246814600D40846012534
:1010400003E000BF90FBFAF06D1C5045FADAA845AA
:1010500000D9454624B1002E01DB780700D5641E77
:10106000B80702D5B8F1000F0AD0F80708D13CB193
:10107000A54205D220215846641EFFF77FFFF6E700
:10108000002E02DA4E462D2102E0780703D52B21EF
:101090005846FFF773FF07F0030002280BD1B8F1A1
:1010A000000F08D13CB1A54205D230215846641E3C
:1010B000FFF764FFF6E7CDE9004743465246314665
:1010C000584602F057FBBDE8FC9F000070B50D4686
:1010D000044600684FF4887101F0F0FA4FF4907103
:1010E000206801F0EBFA4FF49271206801F0E6FA03
:1010F0004FF4A271206801F0E1FA4FF4AC7120685E
:1011000001F0DCFA20681149C0F80413206869076F
:1011100040F30730090E002806DA00F00F0000F156
:10112000E02080F8141D03E000F1E02080F80014B6
:101130002068012140F3073000F01F029140400970
:10114000800000F1E020C0F8001170BD10034200E3
:10115000024600201268530713D502F0030001284D
:1011600002D002280CD105E0C2F383100B68801C6A
:10117000184404E00223086803EB9252104408600C
:10118000012070470268134602E08A4204D01268C8
:10119000002AFAD10B600160704700002DE9FF4181
:1011A0000026234800F002FC2148001F074600F0FB
:1011B000FDFB204C60680090A56800E0009869463F
:1011C000284004EB80000C30FFF7C2FF0028F5D167
:1011D00001AA009901EA050304EB8303491CDB68BB
:1011E00042F82030401C00910228F2D3019800F010
:1011F000030001280BD0022810D10198032101EB34
:1012000090500099BDF80A6001EB900005E001984C
:10121000BDF80A60C0F3831008440090384600F01F
:10122000C2FB08B10098606004B03046BDE8F081B0
:10123000780800206004002008B54FF48070002179
:101240000090084601F0A0F808B1FFF765FD00F036
:10125000FFFE0120FFF70AFE00210F4800F04AFBC5
:1012600008B1FFF759FD69460C4802F0DDFA08B1F4
:10127000FFF752FD0948009900F01CFB08B1FFF789
:101280004BFD00F085FA08B1FFF746FD00F0EEFED9
:101290000028FBD120BFF9E7FD1500004801002020
:1012A0002DE9F047C5881E1DB6FBF5F78946B6FB4C
:1012B000F5F1044605FB176C407916686843DDF8C4
:1012C00020A0F718001F874200D9C61A166001E057
:1012D0002468491E0029FBD1A5EB0C078846B742BC
:1012E00016D818E004EB0C00001D09EB0803BAF156
:1012F000000F3A4602D00146184600E01946FFF7B3
:101300003BF82468F61B4FF0000CB844B54201D9F5
:10131000374600E02F46002EE4D1BDE8F0870000FC
:1013200030B5024651B101F04DF80021074C08E0FC
:1013300034F821301568AB4202D11160002030BD75
:10134000491C8142F4D3052030BD0000000000009C
:1013500010B51C46934200D914462246FFF70CF8FC
:10136000204610BD10B51C46934200D914460A46CB
:101370002146FFF713F8204610BD00000B4900F18D
:10138000100213464A610A6913448B6128B14FF475
:101390007C73CB614FF4806301E00023CB61C01C00
:1013A000104480080B6281F86900704784080020AF
:1013B00070B50D4D0D4A00212C7800BF01EB4103A3
:1013C000D65CA6420AD113445B78834206D101EB76
:1013D0004100104480782870002070BD491C0E29FF
:1013E000ECD3082070BD000084080020100100200C
:1013F00070B50446022920D10620FFF7D9FF002846
:101400001BD10E4964784B69A2002046934208D84C
:101410008D69103D954204D3C968C3EB840008442C
:1014200003E000F017F805483830102100F014FAF6
:101430002046BDE8704000F0B3B870BD84080020BD
:10144000034902684A6242688A6200898885704757
:10145000840800202DE9F041334E840010252946F0
:101460003046FEF7A2FFA6F138077869A0420BD9F3
:10147000021B39192B4630462431FFF769FFD0F1A2
:101480001005044406444CD0B869A0420CD97869D0
:101490003969201A0A1AF9682B4601443046FFF7C9
:1014A00057FF2D1A04440644002D3AD0B869A042D3
:1014B0000ED1396A61B1F969884209D02B460122FF
:1014C000FE213046FFF74EFF2D1A0444064428D073
:1014D000F869A04209D9021B2B4600213046FFF7CC
:1014E00041FF2D1A044406441BD0386AA04210D98B
:1014F000021B2B46FF213046FFF734FFF969611AC2
:10150000C1F10E01A94201D83F2272542D1A06449E
:1015100007D02B463046BDE8F0411A460021FFF7C0
:1015200021BFBDE8F0810000BC08002070B50C466A
:101530000546914201D90C2070BD0120FFF738FF0C
:1015400008B1082070BD05B900240248C0E9035461
:10155000002070BD8408002070B5002103230A46D6
:101560000C460E4801260CE006FA03F50D43E9B2DD
:101570005B1E05D5831883F8481007230021521CF1
:10158000641C90F86950A542EEDC024482F84810D1
:10159000002100F8681F817070BD000084080020E1
:1015A000F0B5C208514200EBC1010024124BC1F159
:1015B00007010125042813D305FA01F603EB020CF9
:1015C000F7B29CF848603E4204D0BE438CF84860B5
:1015D0002E4600E0002693F868703E4483F8686069
:1015E000491E01D50721521C401C10F0FF0002D0FB
:1015F000641C042CDEDBF0BD84080020012904D02B
:10160000022905D10020FFF75BBC0020FFF760BC7A
:1016100070472DE9F8439046894607004FF00006D1
:1016200006D0B8F1000F03D03D680DB1002422E0D0
:101630000E20BDE8F88324B1611C884207D1402107
:1016400006E0012801D0802102E0C02100E0002155
:10165000D8F800006B46801B00904A46286800F0CE
:101660001FF80028E5D10098B9F1000F064400D01A
:101670008144641C2D1DB868A042DCD80020C8F845
:101680000060D6E7D0E901329A4201D304207047C6
:10169000036843F822108168491C8160002070476C
:1016A0002DE9F843144698460A4605004FF0000716
:1016B0004AD06878297A4618B61D00B1761C8CB3DA
:1016C00032F0C00002D00720BDE8F883D8F800004F
:1016D000B04201D20420F7E722702B78601C1A4335
:1016E00022702A7A00F8012B21460746041D6878EB
:1016F00028B104F8010B087840F0080008702A7A35
:101700002046E968FEF738FE287A6A7804442AB150
:1017100020466968FEF730FE68780444D8F8000077
:10172000801B00902B697BB16A4621466869984707
:101730000028C9D114B1009800BA38600098311857
:101740000020C8F80010BFE70E20BDE7006802289F
:1017500003D0042804D100F0A3B9024800F0B6B9C0
:101760007047000004010020084810B50649416098
:101770000021016000F0CEF9852803D0002800D0B8
:10178000032010BD002010BDE90F0000040100205F
:1017900010B50420FFF70CFE08B1082010BD00F0C2
:1017A00087F8002010BD000010B518B10A2902D03A
:1017B0000C2010BD0248FFF743FE002010BD0000C2
:1017C000393A0000FEB5224847780A2F23D0214A33
:1017D0000324072F167855789378D1788DF8006018
:1017E0008DF8015086EA05008DF802301AD04B4082
:1017F00058408DF803108DF80400FF2204210DF1EC
:101800000500FEF7CBFD00BF8DF809400A216846B0
:10181000FFF7CAFFFEBD03B00A21BDE8F0400D4846
:10182000FFF7C2BF83F0880358408DF803008DF89E
:10183000041013798DF8053050798DF806009279EF
:101840005940504041408DF807208DF80810DBE7E3
:101850003C010020000900201CB5CDE90010032147
:10186000684601F095F91CBD1CB50E4BD3E9022367
:10187000CDE900230C4AC2E90101507838B90720AC
:1018800050700A21094801F0DFF8002808D1FFF75D
:1018900099FFFFF769FF002802D1684601F068F858
:1018A0001CBD0000443A00003C010020000900205B
:1018B00000F05ABF10B54FF47772FFF737FE0400FF
:1018C00013D10B480322016900F8342FFE2902D8F6
:1018D0004170022005E0FF2242700A0A8270C17046
:1018E0000420FFF74BFDFFF737FE204610BD000038
:1018F0008408002070B50E46050005D00020FFF7D3
:1019000057FD18B1082070BD072070BD0B4C0C4866
:10191000C4E901561434FFF793FDFF20A076E0766A
:10192000E1202077102060777C20A0770F20E077DF
:10193000BDE8704001490348FFF796BF84080020C6
:10194000393A0000F10B00002DE9F0410446007A1D
:10195000164698B1420611D402060FD462686AB1E5
:1019600022695AB1E3684BB146B185186D1CB9B113
:101970003268AA4204D20420BDE8F0810720FBE7C8
:1019800022784F1C00EBC2100870227A384661683A
:10199000FEF7F2FC207AD4E903123844FEF7ECFC9F
:1019A00000203560E8E7002100F009B8012100F0CF
:1019B00010B808B56A46FEF77AFC009808BD08B56D
:1019C0006A46FEF75AFC08BD08B56A46FEF73CFCBD
:1019D00008BD08B56A46FEF743FC009808BD08B587
:1019E0006A46FEF771FC009808BD70B504460025F4
:1019F0002846FFF79CF921686268086890420ED972
:101A0000401E08600178238AE26801FB0325227AE0
:101A10002168101AC0B20A79824200D208710020EF
:101A2000FFF787F9284670BD70B505460C460020C3
:101A3000FFF77DF9E868298A201AB0FBF1F12A68DE
:101A40001068431C13600170BDE870400020FFF770
:101A500070B910B530B1017A42680368891AC9B209
:101A60001A6006E00E2010BD03681A68541C1C6042
:101A70001170491EC9B2F7D20068002101710846F1
:101A800010BD00F180400068002800D001207047A0
:101A900008B500F18040002101600068009008BD99
:101AA00010B50020FFF743F9074C6068401E6060E6
:101AB000606818B900F02AFE00206070BDE8104090
:101AC0000020FFF736B900004802002070B5104D25
:101AD0000446687838B114B1616800208847002056
:101AE000FFF725F90CE00020FFF721F924B10848A1
:101AF00021460830FFF746FB686808B900F0FAFD98
:101B00006868401C6860BDE870400020FFF711B9AC
:101B10004802002070B50A4C207808B185250CE0F9
:101B20000020A06060602061E060064800F004FED4
:101B3000054600F0C9FD01202070284670BD000058
:101B400048020020F50F0000F0B50546047815485E
:101B500089B0164640F82420124A0869121DA2F1E5
:101B6000080742F82400487F385520226846FEF7CF
:101B700003FC04942878385C48B10EB10A4A00E0AE
:101B800000226946281D01F037FA09B0F0BD0EB1F8
:101B9000064A00E00022694605F10C0001F0FEF85B
:101BA000F3E7000004000020313600007934000023
:101BB0000FB408B50399002904D004AA00926A461C
:101BC00000F00FF801B05DF814FB10B58268044610
:101BD000002A05D0D4E90403216898470020A060BA
:101BE00010BD2DE9FC4791460C00804676D014F8D4
:101BF000011B39B125290ED04046FFF7BFF92078E7
:101C00000028F4D198F80C00002867D04046BDE8C1
:101C1000FC47FFF7DABF0020012221782B291BD0D7
:101C20002D2902D0302908D102E040F0010001E066
:101C300040F00200641C002AEFD100252A290ED0B2
:101C40002178A1F130020A2A11D205EB850201EBBD
:101C50004205641C303DF1E740F00400EAE7D9F8A2
:101C600000100B1DC9F800300968641C0D44217870
:101C700000232E290BD114F8011FA1F130020A2AEA
:101C800005D203EB830201EB4203303BF3E76C29FF
:101C90000DD068290BD0692921D00BDC252918D05B
:101CA000582931D063290ED0642915D117E014F8D2
:101CB000011FECE7702969D0732932D075291BD038
:101CC000782909D120E0D9F80000011DC9F80010D9
:101CD00001784046FFF752F9641C90E76CE0D9F8B0
:101CE00000100A1DC9F800200968CDE900500A2239
:101CF0004046FFF797F9EFE7D9F800100A1DC9F839
:101D0000002009680A2206E0D9F800100A1DC9F867
:101D1000002009681022CDE90050404601F02AFD5C
:101D2000DAE7D9F8001000270A1DC9F800200E686C
:101D3000C00705D112E04046761C7F1CFFF71EF954
:101D400031780029F7D104E0202140466D1EFFF7CD
:101D500015F9BD42C0D9002DF6D1BDE74EB13046D0
:101D6000FEF72EFB074604E0202140466D1EFFF7DC
:101D700005F9BD4206D9002DF6D103E04046761C98
:101D8000FFF7FCF831780029F8D1A5E7D9F8000071
:101D9000011DC9F80010056830214046FFF7EEF834
:101DA00078214046FFF7EAF808200021CDE900013C
:101DB000034610222946B0E7BDE8FC8770B541EA2A
:101DC0004201DDE904564FF0A04441EA830141EAB3
:101DD000052104EB800041EA0641C0F8001770BD00
:101DE00070B541EA4201DDE904564FF0A04441EAF2
:101DF000830141EA052104EB800041EA0641C0F875
:101E0000001770BD70B541EA4201DDE904564FF09C
:101E1000A04441EA830141EA052104EB800041EA44
:101E20000641C0F8001770BD1CB5002100910B469B
:101E300001220191FFF7D4FF1CBD1CB500210091C8
:101E40000B4601220191FFF7DDFF1CBD1CB50022EE
:101E50000B46009211460192FFF7C2FF1CBD1CB554
:101E600000220B46009211460192FFF7CBFF1CBDEA
:101E70001CB5002100910B46012201911146FFF78C
:101E8000AFFF1CBD1CB5002100910B460122019142
:101E90001146FFF7B7FF1CBD01224FF0A04382405F
:101EA00011B1C3F808257047C3F80C25704700002E
:101EB00030B5154A01460020D2F8104423460AE006
:101EC000DB681D79854205D1401C0A28F6DB4FF0FE
:101ED000FF3030BD1B68002BF2D1431CF9D0CB681A
:101EE0001871D2F8103443B1DB68CC681B682360EA
:101EF000D2F81024D268116030BDC2F81014C9683D
:101F000000220A6030BD000060040020F0B595B0EA
:101F10001C4615460F4608461A9E00F025FB182160
:101F200009A8FEF742FA0E96CDE9095400230822CB
:101F300003A9384600F02DFB05980690BDF8100067
:101F4000ADF81C00BDF81200ADF81E0000208DF8A1
:101F500021000398082600F00300012802D002287F
:101F600018D032E003983346850AC0F3C2008DF8DA
:101F7000200003980FA9C0F38314A200384600F094
:101F800008FB09A8009006AB22460FA9284600F0DE
:101F900047FA1AE00398840DC0F3C2008DF82000C0
:101FA000082C01D2254600E0082533462A460FA911
:101FB000384600F0EEFA2E44641B09AB06AA294607
:101FC0000FA800F089F9002CEAD1384600F0D2FAC7
:101FD00015B0F0BD7047012001F06CBA084810B58B
:101FE0000178084A515C19B1001D01F09FF802E028
:101FF0000C3000F09FFFBDE81040002001F05ABAFD
:10200000980000200000002008B5034A00924023F9
:10201000024AFFF77BFF08BD59330000C8020020C9
:102020000A4A012902EBC00007D0022907D0032980
:1020300007D0042907D000207047022070470420F1
:10204000704700797047407970470000DC4000001D
:1020500010B5FFF7C0FF04210348FFF729FF02492D
:102060000120C968487110BDCC4000002DE9F0473F
:102070008CB0FEF79BFF18B100200CB0BDE8F087D4
:102080007D4C0020C4F81804BFF34F8F60680290A5
:10209000A5684FF00008284004EB80000CE000BF6A
:1020A000D4F8180470B921680298814201D861609F
:1020B000E2E7284004EB80000C3002A9FFF748F863
:1020C0000028EDD1002003AA029901EA050304EBE0
:1020D0008303491CDB6842F82030401C029102282F
:1020E000F2D3039800F00300022802D001284DD05B
:1020F000A7E003985022810D8946B2EB905F00D88B
:1021000050210E4666F39F50039008315B4800F063
:10211000E2F9070078D000F027FA4346082203A925
:10212000384600F03EFA029908F1080A2940681A78
:102130008000001D864222D94F4D0C3530B1C2B20D
:1021400004EB8101301A90460C3104E02946F2B2CA
:10215000002590462846C6B25346384600F021FA7C
:102160000AEB080325B132462946384600F019FA31
:10217000029909F1030001EB900002903BE004EBAF
:1021800081015346324638460C31EFE70398C0F3DD
:102190008310062800D30620039960F38911C1F348
:1021A0008310801C03918100344800F094F90700EB
:1021B00047D000F0D9F94346082203A9384600F079
:1021C000F0F908F1080800260FE00298434600EAFB
:1021D0000501401C04EB81010290042238460C31B9
:1021E00000F0DFF908F10408761C0398C0F38310AF
:1021F000B042EAD847B1D4F81054D4F8180478B1F2
:10220000384600F0B7F931E01BE0E8684079012872
:1022100004D12A682846394612689047E86805685C
:10222000002DF2D1384600F0A5F90020FEF77FFD21
:10223000D4F8180408B9029860600020FEF779FD10
:1022400014E0D4F8104405E02168204689688847E6
:10225000E0680468002CF7D109480A49401AC00810
:10226000022101EB004008A100F018F8FEF79EFEE5
:1022700080F0010001E7000060040020244100001C
:102280001C410000DC4000004261636B656E6473BA
:1022900020666C75736865640000000000231A46B0
:1022A00001F07AB808B5012300926A4601F074F88B
:1022B00008BD3EB5069C8DE81C0003236A4601F06C
:1022C0006BF83EBD7FB5DDE908458DE83C00042391
:1022D0006A4601F061F87FBD2DE9F0470E46804661
:1022E0001C469246082940D894F80C900020207390
:1022F0001946104600F0A8FF0025B54206D218F88E
:1023000005201BA12046FFF753FC03E01AA120463D
:10231000FFF74EFC6D1C082DEFD318A12046FFF7E8
:1023200047FC0025B54212D218F805707E2F08D858
:10233000FEF71EF80068C05D10F03E0F01D03A466F
:1023400000E02E220EA12046FFF732FC03E00DA193
:102350002046FFF72DFC6D1C082DE3D301222146FA
:10236000504600F053FF84F80C90BDE8F087000061
:102370002025303278000000202020007C00000062
:1023800025630000200000000B4810B5FF2181608C
:10239000002101604160C0F81814C0F8141480F8DE
:1023A0002014064800F0E4F8002803D1044800F0A7
:1023B0005BF9002010BD00006004002024410000F3
:1023C0002C3A000002480349401AC0087047000038
:1023D00024410000DC40000013B56846FEF7A0FF72
:1023E00008B100201CBD0248009950F831001CBD06
:1023F000DC40000070B509480125D0F8104480F891
:10240000205407E0E0684571216820464968884704
:10241000E0680468002CF5D170BD00006004002065
:102420002DE9FF4781460C9D00200C462F7B287329
:10243000984616462946184600F006FF072E42D257
:10244000DFE806F004090F161F2A36004946284621
:10245000FFF7AEFB37E0494628462268FFF7A8FBA6
:1024600031E0D4E9002349462846FFF7A1FB2AE0E2
:10247000A0680090D4E9002349462846FFF798FB5E
:1024800021E0D4E90201CDE90001D4E90023494665
:102490002846FFF78DFB16E004F1080007C88DE819
:1024A0000700D4E9002349462846FFF781FB0AE0EC
:1024B00004F108000FC88DE80F00D4E90023494655
:1024C0002846FFF775FB00222946404600F09EFE95
:1024D0002F73BDE8FF872DE9F041058A80462D1F47
:1024E0004819C01CB0FBF5F0C6B24046FFF77DFAB4
:1024F000041E19D00020207101206071E5800027A2
:102500002546761EC4F800800BE04046FFF76DFAC2
:1025100060B16179491C6171286005467F1CC0F873
:102520000080B742F1D32046BDE8F081204600F09C
:1025300002F80020F8E72DE9F041457901466B1ECD
:10254000002201E00968521C9A42FBD30F68014641
:10255000002605E038460C68FFF766FA2146761C2F
:10256000AE42F7D3BDE8F0810121001DFFF721BA8B
:10257000FFF76FBA10B504460121001DFFF72FFACF
:1025800010F0FF0F04D12046BDE81040FFF7D3BF85
:1025900010BD1CB501920122009201AAFEF780FE37
:1025A0001CBD1CB501920022009201AAFEF778FE24
:1025B0001CBD000002494058002800D0012070478F
:1025C00000500040024A00218150BFF34F8F7047F6
:1025D000005000400449D1F80413014201D0012009
:1025E000704700207047000000500040C02903D011
:1025F000E9B1802902D00DE040210BE010F8012B59
:1026000010F8013B120442EA032210F8013B1A437E
:102610000F4B1A6010F8012B10F8013B120442EA2C
:10262000032210F8013B1A43094B1B1F1A60026872
:10263000C07812BA22F0FF0202430548083802604F
:1026400003480830026822F0C0020A430260704763
:102650009855004003490A6822F0600242EA40109F
:1026600008607047A455004082680021916082682C
:102670001161826851618268D160826851608068AE
:102680000160704708B5002242504058009008BDD4
:102690004058002800D00120704708B50022425061
:1026A0004058009008BDD0F80403084000D0012035
:1026B00070474058002800D00120704708B500221C
:1026C00042504058009008BD08480068012110F0B1
:1026D000010F06D14FF0E020C02280F80024C0F89E
:1026E00000110349012008607047000000E100E08C
:1026F0001805004010B54FF48070FFF7C9F90120AC
:102700008107C1F80403086010BD000007490120DB
:10271000086007494FF001100A6802F00112824276
:10272000FAD00449002048717047000004000040BE
:102730000C0400400C0000200649024600200B79E2
:102740000BB1852070470A6001220A7100224A718C
:10275000704700000C0000200121B1EB507F01D137
:10276000012070470020704705490D200860054A88
:1027700001210832034811600349C0F8041370476F
:1027800004540040005000408200080070B5054627
:10279000FEF7DCFF2868294C40281DD00DDC0428FA
:1027A00037D0102848D1264800F0D2F96568002DAE
:1027B00042D000231A46032131E0802834D0B0F5FE
:1027C000002F39D11E4800F0C3F96568002D33D0C1
:1027D00000231A46194622E0686808B1292009E05A
:1027E00018480178302909D000785028F6D1012006
:1027F00020702820BDE8704000F008B96668002EFF
:102800001AD0AB68A068B446BDE870400D4A0221FA
:1028100060476568002D0FD000231A460121A0688B
:10282000AC46BDE8704060472879002804D1207884
:10283000002801D00020207070BD00003C01002065
:10284000443A0000F008002002480068800700D0E9
:10285000012070473C54004071B585B09DF81400CC
:10286000032807D1FFF7F0FF08B1022000E00120A4
:102870008DF814009DF8140000250126144C012841
:1028800014D0022810D1607A00280DD1114800F030
:10289000CCF9104800F0F8F90E4885606672022005
:1028A000009011E06846884706B070BD0A490A48A2
:1028B00008310E604FF48F61C0F808136572042070
:1028C0000090012000F038F861680029EAD1EBE7B8
:1028D0005C02002014000020005000407FB5FFF78C
:1028E000B3FF0F49002508B18D607FBD8868401C8B
:1028F00088600728F9D90B4B0FCB8DE80F000848EB
:1029000000F0B4F9084C6572012000F015F800F0F1
:10291000CBF861680029E8D0684688477FBD000091
:1029200014000020983900005C020020B0F5A07F60
:1029300001D1FFF7D3BF7047044908B1881402E002
:102940000348808980B20860704700000855004045
:102950005C020020054903200860044894300168A7
:1029600021F01F0141F00401016070470C55004047
:10297000FEB5214C217A09B10820FEBDD0E9001036
:1029800021606060FFF7E6FF0520FEF717F91B499D
:10299000C02081F8000401252020491FC1F8000152
:1029A0001749184AD1E90001CDE9010101A91648EA
:1029B00000F08EF90028E0D113480068D0F8100527
:1029C0000021C2B24FF4C860FDF7C2FC02460123E9
:1029D00000210D48009500F065F90721684600F0D8
:1029E00033F80646C0216846FFF700FE257228032B
:1029F000E0603046FEBD00005C02002005E000E023
:102A0000903900002D2900001400002010B501218C
:102A10000B4C292801D0204408E00A480068C00770
:102A200002D00748283001E0054824300160012029
:102A3000FFF782FF4FF48F60C4F8080310BD000059
:102A4000005000402054004030B5042905D007292B
:102A500003D00A2901D0092030BD124A1468121D82
:102A60001268104B08331B680470250A240C45704B
:102A70008470D4B2C470042912D0150A0571150CE3
:102A8000120E457182710A2902D0882C06D007E007
:102A9000C371190A0172190C417201E09921C170C8
:102AA000002030BD50040010F0B5264BA1B01868CE
:102AB000244982B2883168460C68224998310968F5
:102AC00011F0C00118D01F4D8C352D6880290BD115
:102AD0001C4E90363668370C8DF80070370A8DF82A
:102AE00001708DF80260C01C2E0C00F8016B2E0ADC
:102AF00000F8016B00F8015B250E0570250C457090
:102B0000250A8570C4700F489C3000680E4DC0F3D4
:102B10004116D5F804430D480027076007680127D0
:102B200007601A60684605F54175FFF75FFD30469E
:102B3000FFF790FDFFF70EFF2C604FF48F60686089
:102B400021B0F0BD0855004000500040FC5F00403F
:102B5000094A416800881160111DC0F3080008602F
:102B600006480749008800F48C60C1F80403044952
:102B700001201C3108607047105500405C020020A5
:102B800000500040014A0121815070470050004030
:102B900010B50268FAB1114C43682360231DC2F3DB
:102BA00008021A6000884FF6FF7202EAC0000B4A62
:102BB000C0F30B000C321060201F01600848094967
:102BC000007800F01800C1F80403064901200C3118
:102BD0000860002010BD092010BD00001055004005
:102BE0005C0200200050004070B50D4600F078FBFC
:102BF00004000FD00020FEF79AF8207920B10020C1
:102C0000FEF797F8112070BD01202560207100208B
:102C1000FEF78FF8002070BD10B500F061FB0028B2
:102C200002D000210160017110BD00680121C16066
:102C300070472DE9F04106460D464FF48034006898
:102C40001746AC404BB14FF4A07101EB8501FFF783
:102C500019FD3068C0F8044301E0C0F8084330684B
:102C600000EB8500C0F84075BDE8F08102680121E5
:102C700011610079034A00EB400002EB8000017211
:102C8000704700006C020020016801220A60007990
:102C9000034A00EB400002EB800002210172704702
:102CA0006C020020F0B40468049E40F20115D4F8D0
:102CB00000728D40AF43C4F800720468D4F800522B
:102CC0001D43C4F800523346F0BCFFF7B2BF00000A
:102CD0002DE9F04104460E4600792B4900EB4000F7
:102CE00001EB8007387A10B10820BDE8F0813A6026
:102CF000706800254FF4A078786006E008EB850145
:102D00002068FFF7BFFC6D1CEDB26079A842F5D8D2
:102D10002068F17840F3073000284FEA411106DAC5
:102D200000F00F0000F1E02080F8141D03E000F136
:102D3000E02080F800142068012140F3073000F003
:102D40001F0201FA02F24009800000F1E020C0F801
:102D5000002120687278D0F8043562F30103C0F8CE
:102D600004352068B278D0F8083562F30103C0F862
:102D7000083520683278D0F8103562F30303C0F8C4
:102D8000103539720020B0E76C020020014902487A
:102D900000F0B8BB78020020002000402DE9F0418F
:102DA0000546007916460F4600EB40012C4A01EB20
:102DB000C00102EB810494F82A1011B10820BDE88B
:102DC000F081284951F820102868FFF70DFF08B15D
:102DD0001120F4E739462846FDF7C0FF66603869E0
:102DE000206030004FF001062DD03F7F4FF48E71F0
:102DF0002868FFF752FC4FF4A2712868FFF74DFCDA
:102E000028681949C0F8041328684FEA471140F3AD
:102E10000730002806DA00F00F0000F1E02080F80B
:102E2000141D03E000F1E02080F80014286840F34E
:102E3000073000F01F0106FA01F14009800000F19F
:102E4000E020C0F8001128680421C0F80015002017
:102E5000A061E06184F8290044F8140FA675AEE77C
:102E600078020020E8390000800002002DE9F05FC0
:102E7000054600790B4600EB400101EBC0002449F8
:102E800001EB8004284600F045F810B11120BDE8A0
:102E9000F09F62614FF00009C4F82090A36084F8AD
:102EA00028904FF48E784E4641462868FFF7F5FB90
:102EB00028684FF0010AC0F808A02146286800F0F1
:102EC000B1FA606808BBD5F800B067690FE000BFD1
:102ED00094F8280008B10F2615E041465846FFF740
:102EE000D7FB0028F4D02146584600F09BFA206A10
:102EF000B842F2D3574641462868FFF7C9FB00287D
:102F0000F9D02868C760C4F814903046BFE70000C5
:102F100078020020007900EB400101EBC000044979
:102F200001EB80004069002800D0012070470000BC
:102F3000780200202DE9F047044600794FF000099F
:102F400000EB400101EBC000254901EB8007206840
:102F5000C0F80095786880B120682249C0F808134D
:102F60002068012140F3073000F01F029140400922
:102F7000800000F1E020C0F880112068D0F80C2516
:102F8000D0F81485D0F80865D0F810554FF0FF310F
:102F9000C0F81415C0F80C152068C0F80815C0F862
:102FA0001015501C02D01046FEF73EFFB8F1FF3F4F
:102FB00002D04046FEF738FF681C02D02846FEF7D4
:102FC00033FF701C02D03046FEF72EFF2068FFF75B
:102FD00023FE87F82A90C7F80490BDE8F087000028
:102FE00078020020840202000149024800F038BB48
:102FF000A4020020002000402DE9F04105461646BD
:1030000000790F46154A00EBC00102EB810494F8E9
:10301000201011B10820BDE8F081114951F82010AD
:103020002868FFF7E1FD08B11120F4E7394628468A
:10303000FDF7D8FE6660386920601EB1397F2846EA
:10304000FEF744F828680821C0F800150020A061A8
:10305000E0616061012184F82010DCE7A402002017
:10306000EC3900002DE9F04704460E460079274967
:1030700000EBC00001EB800517463046FFF76CFB04
:1030800030B1204600F044F820B11120BDE8F087AF
:103090001020FBE76F61AE604FF490774FF00008AF
:1030A00039462068FFF70AFB4FF4AC7631462068BA
:1030B000FFF704FB2068AA686969C0F84425C0F8D6
:1030C000481520684FF00109C0F808906868D0B929
:1030D000BA4651462068FFF7ECFA074631462068A9
:1030E000FFF7E7FA0743F4D010B14FF00F0808E0FC
:1030F0002068C0F80C9031462068FFF7DAFA002803
:10310000F9D0002068614046C0E70000A40200201A
:103110000079054900EBC00001EB80004069002800
:1031200000D0012070470000A40200202DE9F047E4
:1031300004460079334900EBC00001EB800701250C
:10314000786880B120683049C0F80813206840F3DF
:10315000073000F01F0105FA01F14009800000F17D
:10316000E020C0F880112068D0F8001221F0200182
:10317000C0F80012206845604FF4AC7631462068F4
:10318000FFF79CFA2068C56031462068FFF791FA86
:103190000028F9D020684FF00009C0F80095206899
:1031A000D0F80C25D0F81485D0F80865D0F8105563
:1031B0004FF0FF31C0F80C15C0F814152068C0F8A6
:1031C0000815C0F81015501C02D01046FEF735FE49
:1031D000B8F1FF3F02D04046FEF72FFE681C02D038
:1031E0002846FEF72AFE701C02D03046FEF725FE68
:1031F0002068FFF711FD87F82090C7F80490BDE81C
:10320000F0870000A40200201003420010B50C4615
:10321000017A052908D0407A38B1084808A1026827
:103220002046FEF7C5FC00E01AB106A12046FEF7D5
:10323000BFFC2046BDE81040FEF7C7BCE000002000
:10324000257300000D0A000038B5C3880D460446FA
:1032500033B114A0009015A216A12846FEF7A8FCD1
:10326000217A05291CD0607A48B1A088FEF7D8FEE3
:10327000164951F8202016A12846FEF799FCA0888F
:103280000021FFF7A9F803461049207A143951F8B4
:10329000202001B02846BDE830400EA1FEF788BCD2
:1032A00038BD00001B5B306D000000001B5B313B34
:1032B00033316D0025734C6F67732064726F7070CB
:1032C0006564202825642925730D0A00E00000208C
:1032D000257300003C25733E2025733A2000000032
:1032E0000349884201D1034870470020704700001D
:1032F000002000402000002070B5054688690C467B
:1033000000284FF4847128460AD0FFF7C6F9D5F893
:103310001805626AE1688854606A401C606270BD8A
:10332000FFF7BBF9D5F8180570BD1FB501238DF85F
:103330000030CDE90121D0E90012684690471FBD59
:103340001FB501238DF80030CDE90121D0E900122D
:10335000684690471FBD000070B50D4C0020D2B2EA
:103360002070201D0B4D0378EB5C1BB1001DFFF797
:1033700079FE02E00C30FFF779FD08B1FDF7CCFCD7
:103380006078002802D021780029FAD070BD0000B2
:1033900094000020000000202DE9F84F204D9246B7
:1033A000894606469846012269461846AF68FDF7E9
:1033B000A1FD58B3009800210446801C09E000BF1D
:1033C00000EA07035AF8212005EB8303401C491C3F
:1033D000DA604145F4D34FEA164AFDF719FE4AEA8E
:1033E0000041601C384005EB80003C4005EB840246
:1033F000C160D06866F3C50068F3891069F39F2047
:1034000020F00300401C20F00400D06095F8200458
:1034100002E000BFFEF72AFE0028FBD1BDE8F88FCE
:103420006004002070B50C4605464FF48E71FFF71E
:1034300034F9216AA068415C206A401C2062C5F80A
:103440001C1570BD1FB500228DF800200291816807
:1034500001914261D0E90012684690471FBD1FB537
:1034600000228DF800200291816801914261D0E92B
:103470000012684690471FBD1FB50A4601788DF8B7
:10348000001041680191017A8DF80810C06803901E
:10349000044850F82210001F50F822206846904738
:1034A0001FBD00000800002001490120087070477E
:1034B0009400002010B588B0044620220E496846CA
:1034C000FCF75AFF06200090C01F01900290039065
:1034D0004FF0EB7006900CB1084A00E000226946FC
:1034E0000748FEF731FB08B1FDF716FC0448001F42
:1034F000447008B010BD00000C3A0000A934000070
:10350000980000202DE9FF470C4605464FF4007156
:10351000FFF7C9F801274FF40178002618B34FF4DC
:10352000927949462846FFF7B3F8E0B14946284664
:10353000FFF7B3F8C5F8088394F8290000B96F6065
:1035400002208DF80000D5F88004C5F880040390AF
:10355000A0690290E0680190A661E661D4E90012DA
:103560006846904728E004212846FFF79CF818B3E6
:103570004FF484712846FFF78BF8E8B121462846BE
:10358000FFF7BAFE616AA069884215D1E06938B1D7
:10359000E268616AA0612069E6616662E06008E055
:1035A00094F8290000B96F60C5F80883A661E26845
:1035B000616A2046FFF7B9FE4FF48E7841462846EF
:1035C000FFF766F880B16069216A814202D294F8FF
:1035D000280028B341462846FFF75FF8606918B114
:1035E00061692046FFF72EFF4FF4A2784146284636
:1035F000FFF74EF8002818D041462846FFF74DF84F
:1036000094F8290000B12F60A06900280DD0A661B0
:10361000E268616A04B02046BDE8F047FFF785BE66
:1036200021462846FFF7FEFEDEE7BDE8FF870000E3
:103630001FB50A4601788DF8001041680191017AA2
:103640008DF80810C0680390044850F82210001F3D
:1036500050F82220684690471FBD00000800002057
:103660002DE9FF410C464FF4927705463946FFF7A6
:1036700020F80026B8B139462846FFF71FF8022087
:103680008DF80000D5F88004C5F880040390D5F8C3
:103690003C050290E0680190A661E661D4E9001261
:1036A0006846904723E04FF4887739462846FFF76D
:1036B00000F8E0B139462846FFF700F8D5F83C1588
:1036C000A069884213D1E06960B1E268D5F80002D0
:1036D00020F02000C5F80002E069A0612069E661E1
:1036E000E06001E0A661E2682046FFF729FE4FF4A2
:1036F000A27739462846FEF7DCFF68B139462846EE
:10370000FEF7DCFFA06938B1A661E661D5F83C158B
:103710002046E268FFF714FE4FF4907631462846C3
:10372000FEF7C7FF60B131462846FEF7C7FF01200C
:10373000E860606920B1D5F84C152046FFF78FFE90
:103740004FF4AC7631462846FEF7B3FF00280ED082
:1037500031462846FEF7B2FF6069002807D0D5F849
:103760004C1504B02046BDE8F041FFF778BEBDE837
:10377000FF8100002DE9F05F8346DDE90A4A9946A2
:1037800090460D460846012703E000BFB0FBF8F065
:103790007F1C4045FAD2B94500D94F465FEACA704E
:1037A00012D18CB15FEA8A7002D5B9F1000F01D055
:1037B000202607E0302605E031465846641EFDF716
:1037C000DDFB0CB1A742F7D35FF00106B9F1010FA1
:1037D00002D9A9F1010903E0B5FBF6F0404502D397
:1037E00006FB08F6F2E7DFF83C9000BFB5FBF6F009
:1037F00000FB165519F800105846FDF7BFFBB6FB45
:10380000F8F6002EF2D15FEACA7009D0002C07D07A
:10381000A74205D220215846641EFDF7AFFBF5E70D
:10382000BDE8F09FF039000030B5A7B00C46054662
:103830001422244915A8FCF79FFD224918221431AF
:1038400003A8FCF799FD15A81E49089014222C31F5
:103850001AA8FCF791FD1B491822403109A8FCF772
:103860008BFD1AA817490E90142258311FA8FCF797
:1038700083FD144918226C310FA8FCF77DFD114916
:103880001FA880311490D1E90201CDE9010124A8DB
:10389000009003A96846FDF7F5FE002810D109A99C
:1038A0006846FDF7EFFE00280AD10FA96846FDF72C
:1038B000E9FE002804D1224629466846FDF7A9FE04
:1038C00027B030BDF838000048656C6C6F20576F2A
:1038D000726C6421656E48616C6C6F205665726411
:1038E000656E214E4F576974616A20C59A77696584
:1038F00063696521504C000000000000D4380000CE
:1039000002000000C83800000C00000001000000A8
:103910000000000001000000383A000049190000D2
:103920000000000000000000E3380000020000007A
:10393000D63800000D00000001000000000000006B
:1039400001000000383A00004919000000000000A2
:1039500000000000F438000002000000E53800001C
:103960000F00000001000000000000000100000046
:10397000383A000049190000000000000000000073
:103980000300000000000000111213140D0E0F10B0
:103990000400000600000000040000000000000019
:1039A00000000000000000004000000000000000D7
:1039B00000000000000000001000000000000000F7
:1039C00000000000000000000000080000000000EF
:1039D0000000000000000000800000000000000067
:1039E00000000000000000008D2D0000E92F000005
:1039F0003031323334353637383941424344454625
:103A000009200000DD1F0000D51F0000FFFFFFFFA1
:103A1000FFFFFFFFFFFFFFFFFFFFFFFF00000000B2
:103A2000000000000000D60106010000C8030020CD
:103A30007F00000048040020540001020304050632
:103A40000708090010000000F008002050040000E2
:103A50008D270000004040404040404040404141F0
:103A60004141414040404040404040404040404053
:103A700040404040400502020202020202020202ED
:103A800002020202022020202020202020202002EA
:103A9000020202020202909090909090101010107A
:103AA0001010101010101010101010101010101016
:103AB00002020202020288888888888808080808AA
:103AC0000808080808080808080808080808080876
:103AD0000202020240000000553A00004461746195
:103AE00020627573206572726F722028726574751A
:103AF000726E206164647265737320696E207468ED
:103B00006520737461636B206672616D65206973F3
:103B1000206E6F742072656C6174656420746F2010
:103B200074686520696E737472756374696F6E2052
:103B300074686174206361757365642074686520BE
:103B40006572726F7229000044617461206275733E
:103B5000206572726F72202850432076616C756503
:103B600020737461636B656420666F72207468658E
:103B700020657863657074696F6E20726574757204
:103B80006E20706F696E747320746F207468652086
:103B9000696E737472756374696F6E207468617492
:103BA0002063617573656420746865206661756C57
:103BB0007429000043617573653A2042757346614C
:103BC000756C74206F6E206120766563746F72204F
:103BD0007461626C65207265616420647572696EDF
:103BE0006720657863657074696F6E2070726F63AB
:103BF000657373696E672E005468652070726F6319
:103C00006573736F7220686173206578656375747E
:103C1000656420616E2053444956206F72205544DC
:103C2000495620696E737472756374696F6E20777C
:103C300069746820612064697669736F72206F66A9
:103C4000203000005468652070726F636573736F75
:103C5000722068617320617474656D70746564208E
:103C6000746F206578656375746520616E20696E78
:103C7000737472756374696F6E2074686174206DFB
:103C8000616B657320696C6C6567616C2075736529
:103C9000206F662074686520455053520000000074
:103CA0005468652070726F636573736F722068610A
:103CB0007320617474656D7074656420616E206931
:103CC0006C6C6567616C206C6F6164206F66204569
:103CD00058435F52455455524E20746F20746865A6
:103CE0002050432C206173206120726573756C74C1
:103CF000206F6620616E20696E76616C6964206356
:103D00006F6E746578742C206F7220616E20696EFE
:103D100076616C6964204558435F52455455524E54
:103D20002076616C756500005468652070726F6361
:103D30006573736F7220617474656D70746564204F
:103D400061206C6F6164206F722073746F726520E4
:103D500061742061206C6F636174696F6E20746898
:103D6000617420646F6573206E6F74207065726D6E
:103D7000697420746865206F7065726174696F6E14
:103D80000000000041204D656D4D616E616765204A
:103D90006661756C74206F6363757272656420640C
:103DA0007572696E6720666C6F6174696E672D70DD
:103DB0006F696E74206C617A792073746174652008
:103DC000707265736572766174696F6E00000000D1
:103DD0004120627573206661756C74206F63637532
:103DE0007272656420647572696E6720666C6F61BB
:103DF00074696E672D706F696E74206C617A7920BA
:103E0000737461746520707265736572766174692C
:103E10006F6E00005468652070726F636573736F16
:103E2000722068617320617474656D7074656420BC
:103E3000746F206578656375746520616E20756E9A
:103E4000646566696E656420696E73747275637407
:103E5000696F6E00496E737472756374696F6E205A
:103E6000627573206572726F72000000546865207D
:103E700070726F636573736F722068617320617411
:103E800074656D7074656420746F2061636365731D
:103E900073206120636F70726F636573736F72005C
:103EA000556E737461636B20666F7220616E20655E
:103EB0007863657074696F6E2072657475726E20B8
:103EC00068617320636175736564206F6E65206F30
:103ED00072206D6F7265206163636573732076690C
:103EE0006F6C6174696F6E730000000053746163DE
:103EF0006B696E6720666F7220616E2065786365FE
:103F00007074696F6E20656E7472792068617320B9
:103F1000636175736564206F6E65206F72206D6FCD
:103F20007265206163636573732076696F6C617479
:103F3000696F6E73000000005468652070726F63D3
:103F40006573736F7220686173206D6164652061B1
:103F50006E20756E616C69676E6564206D656D6F4E
:103F6000727920616363657373000000556E73742A
:103F700061636B20666F7220616E20657863657087
:103F800074696F6E2072657475726E20686173203B
:103F9000636175736564206F6E65206F72206D6F4D
:103FA0007265204275734661756C74730000000081
:103FB000537461636B696E6720666F7220616E2057
:103FC000657863657074696F6E20656E74727920B0
:103FD00068617320636175736564206F6E65206F1F
:103FE00072206D6F7265204275734661756C7473D3
:103FF000000000007761726E696E6700646562752B
:10400000670000001B5B313B33306D001B5B306D84
:10401000000000001B5B313B33316D001B5B313B0B
:1040200033326D001B5B313B33336D001B5B313B27
:1040300033346D001B5B313B33356D001B5B313B13
:1040400033366D001B5B313B33376D00696E666F35
:1040500000000000636C6F636B000000434C4F4333
:104060004B0000004E4643540000000050525300E5
:1040700054494D4552000000554152540000000083
:104080005541525445000000686172646661756C68
:1040900074000000756172745F6C6F675F626163CA
:1040A0006B656E64000000006170700038410000B4
:1040B0000000002048010000F4030000D841000087
:1040C00048010020C8270000E20B0000003A000071
:1040D0000000000094400000AC00002054400000AC
:1040E000000000005C400000000000006440000090
:1040F000000000006C400000000000007040000064
:104100000000000078400000000000008040000037
:10411000000000008840000000000303A8400000E9
:1041200000000303BC000020B4000020BC000020FD
:10413000080300201800000001160613B00140001B
:104140000633143E73283D33A03E33EC3EB3843D2A
:1041500033543E33483B33DC3A336C3F33B03FB3E8
:10416000D03D33143E33443C33A03C03136C3E3308
:10417000383FC3F83B64200040942000400220FFF9
:1041800033643E33F43F334C4033FC3F330C403315
:104190000440331440331C40332440332C40333428
:1041A00040333C40C34440301C90D0030406050417
:1041B00008030409020507040508030509020305AD
:1041C000040309022A01010102020403020AF702A0
:0841D0000102020902000000D7
:0400000500000201F4
:00000001FF
