:1000000000000120750300005D0300005F03000095
:1000100061030000630300006503000000000000AE
:100020000000000000000000000000006703000066
:1000300069030000000000006B0300006D03000076
:100040006F0300006F0300006F0300006F030000E8
:100050006F0300006F0300006F0300006F030000D8
:10006000010600006F0300006F0300006F03000033
:100070006F0300006F0300006F0300006F030000B8
:100080006F0300006F0300006F0300006F030000A8
:100090006F0300006F0300006F0300006F03000098
:1000A0006F0300006F0300006F0300006F03000088
:1000B0006F0300006F03000000000000000000005C
:1000C0006F0300006F0300006F0300006F03000068
:1000D0006F0300006F0300006F03000000000000CA
:1000E0000000000000000000000000000000000010
:1000F0000000000000000000000000000000000000
:1001000000000000000000000000000000000000EF
:1001100000000000000000000000000000000000DF
:1001200000000000000000000000000000000000CF
:1001300000000000000000000000000000000000BF
:1001400000000000000000000000000000000000AF
:10015000000000000000000000000000000000009F
:10016000000000000000000000000000000000008F
:10017000000000000000000000000000000000007F
:10018000000000000000000000000000000000006F
:10019000000000000000000000000000000000005F
:1001A000000000000000000000000000000000004F
:1001B000000000000000000000000000000000003F
:1001C000000000000000000000000000000000002F
:1001D000000000000000000000000000000000001F
:1001E000000000000000000000000000000000000F
:1001F00000000000000000000000000000000000FF
:10020000354936480A1A02D0072291438D463449AF
:1002100034480A1A06D00722914381F30988022242
:1002200082F3148830483149314A00F044F83148AB
:100230003149324A00F03FF831483249324A00F041
:100240003AF832483249334A00F035F832483349F7
:10025000334A00F030F833483349344A00F02BF881
:1002600033483449344A00F026F8344834490022EF
:1002700000F02CF833483449002200F027F83348C6
:100280003349091A082902DB002202604160314A21
:1002900090471F481F49884205D00268043003B4C4
:1002A000904703BCF7E700208646EC46002000217B
:1002B000294A9047FEE7884207D0521A05D00378B2
:1002C00001300B700131013AF9D17047884202D0F8
:1002D00002700130FAE770470000012000E00020C2
:1002E0000000012000000120B409000000000020EF
:1002F00004000020D0030000D0030000A00900008B
:10030000B40900000000002000000020A009000047
:10031000A0090000A0090000A0090000A009000039
:10032000A0090000A0090000A0090000B409000015
:10033000B809000004000020040000200400002090
:1003400014000020140000201400002014000020DD
:10035000142000209D03000075060000FEE7FEE764
:10036000FEE7FEE7FEE7FEE7FEE7FEE7FEE7FEE765
:1003700000F002B8FFF7FCBF0F484FF007018843B9
:1003800085460E4880470E48016841F470010160BF
:10039000BFF34F8FBFF36F8FFFF732BF09480A4992
:1003A0000A4A884207D0521A05D0037801300B70F0
:1003B0000131013AF9D170470000012045070000E2
:1003C00088ED00E0A00900000000002000000020EF
:1003D000044B1A5C012393404FF0A042C2F8083549
:1003E000704700BFA009000008B50020FFF7F0FF2C
:1003F0000120FFF7EDFF0220FFF7EAFFBDE808400C
:100400000320FFF7E5BF0000074A4FF0A041105C52
:10041000D1F804350122824022EA03001340C1F8DA
:100420000805C1F80C357047A0090000C20708B5DF
:1004300001460CD54FF0A0430322C3F84427C3F86C
:100440004827C3F84C27C3F85027FFF7CDFF8B0789
:100450000AD54FF0A0430C22C3F83427C3F838273D
:10046000C3F83C27C3F8402708BD1FB500210390FF
:1004700001AA44F20100CDE9011100F003F805B032
:100480005DF804FB72B6094B1B68DB0700D500BEA4
:10049000BFF34F8F0649074BCA6802F4E06213436B
:1004A000CB60BFF34F8F00BFFDE700BFF0ED00E072
:1004B00000ED00E00400FA05F7B506792F4D0C2396
:1004C0007343EF183C7A002C56D1EA504B687B609E
:1004D000477903682246D0B2874244D843F30734B1
:1004E000C878002CA8BF04F16047C3F30732BABF35
:1004F000234F02F00F0C07F561474FEA4010C0B2DE
:10050000B4BF07F80C0087F80003640901201D4FF1
:1005100002F01F0200FA02F247F82420D3F8044543
:100520004A7824F0030402F003022243C3F80425AE
:10053000D3F808458A7824F0030402F0030222432A
:10054000C3F808250A78D3F8104502F00F0224F00A
:100550000F010A43C3F810250C2303FB065528722C
:10056000002003B0F0BD900000F5A07001321C50D7
:10057000185801900198AEE70820F2E70400002027
:1005800014ED00E000E100E0036801221A60037945
:10059000034A0C2101FB032302221A72704700BF99
:1005A0000400002037B54FF4803400688C407BB1E4
:1005B0008B0003F5A0730025C550C3580193019B20
:1005C000C0F8044301F5A87140F8212003B030BD04
:1005D000C0F80843F6E770B4046840F20116D4F896
:1005E00000528E4025EA0605C4F80052D4F80052A5
:1005F0002B43C4F800329DF80C3070BCFFF7D2BF1B
:100600002DE9F341104C114F114E00254FF4803865
:10061000236883B1D7F8043308FA05F21A420AD0E6
:100620000023236023680193A4F50040019B80B25E
:10063000D6E9003198470135042D04F10404E7D1CF
:1006400002B0BDE8F08100BF408100400080004062
:1006500004000020064A1368B0F5A07F03F10101F1
:10066000116003D103F00300FFF7CEBE704700BF57
:10067000100000201FB50120FFF7D8FE0F4A92E8B6
:10068000030002AB83E803000D4A0E481946FFF74A
:1006900013FF08B1FFF7E9FE0B4B0C49D3F8102507
:1006A00008480123D2B221FA02F200930021FFF799
:1006B00092FF0448FFF768FF30BFFDE7A409000080
:1006C00055060000AC0900000080004000127A00CE
:1006D0000C4B1B78062B10D10B4B1B681A070CD147
:1006E0000A4B186800F0F003302B08D000F0E0004F
:1006F000A0F1400358425841704700207047012044
:10070000704700BFE00F00F0E40F00F0E80F00F0CA
:10071000094B1B78062B0CD1084B1B681A0708D114
:10072000074B186800F0F000A0F130035842584120
:1007300070470020704700BFE00F00F0E40F00F0AA
:10074000E80F00F008B5FFF7C3FF28B17D4B7E4AE4
:100750001B68C3F304231360FFF7DAFF10B17B4B70
:100760007B4A1A60FFF7B4FF28B17A4B7A4A1B68BC
:10077000C3F342331360FFF7CBFF20B1774AD3684E
:1007800023F08073D360FFF7A3FF40B14FF08043A5
:100790000022C3F80C21C3F81021C3F83825FFF755
:1007A000B7FF10B16E4B03221A60FFF7B1FF40B1E3
:1007B0006C4B05221A6001229A6700229A603F2240
:1007C0005A60694B1B78062B50D1684B1B68190780
:1007D0004CD1674B1B6803F0F003502B46D14FF010
:1007E0008052644BD2F80414C3F82015D2F80814D0
:1007F000C3F82415D2F80C14C3F82815D2F8101435
:10080000C3F82C15D2F81414C3F83015D2F8181404
:10081000C3F83415D2F81C14C3F84015D2F82014CC
:10082000C3F84415D2F82414C3F84815D2F8281494
:10083000C3F84C15D2F82C14C3F85015D2F8301464
:10084000C3F85415D2F83414C3F86015D2F838142C
:10085000C3F86415D2F83C14C3F86815D2F84014F4
:10086000C3F86C15D2F84424C3F87025FFF730FFA5
:1008700028B1414B414A1B6803F04F031360FFF757
:1008800027FF48B14FF08043D3F80024D20744BF7C
:100890006FF00102C3F80024394B1B68062B08D106
:1008A000384B1B68062B01BF374A136843F480633B
:1008B0001360364AD2F8883043F47003C2F88830A7
:1008C000BFF34F8FBFF36F8F4FF01023D3F8002289
:1008D000002A03DBD3F80432002B2FDA2C4B012241
:1008E000C3F80425D3F80024002AFBD04FF01022CF
:1008F0001521C2F80012D3F80024002AFBD04FF0D3
:1009000010231522C3F80422214B1A46D3F80014F1
:100910000029FBD00021C3F80415D2F80034002BC5
:10092000FBD0BFF34F8F19491A4BCA6802F4E0623B
:100930001343CB60BFF34F8F00BFFDE7164B174A41
:100940001A6008BD240300104035014074C0074000
:100950000DF0ADBA440200103C050040F0ED00E09F
:10096000A005004010560040E00F00F0E40F00F03A
:10097000E80F00F000C0004058020010E40E0040F4
:1009800030010010340100103C17004000ED00E081
:1009900000E001400400FA05000000200090D003B0
:1009A0001112131400000306000000000080004034
:0409B000000400003F
:0409B4000090D003DC
:040000030000037581
:00000001FF
