:1000000000000120750300005D0300005F03000095
:1000100061030000630300006503000000000000AE
:100020000000000000000000000000006703000066
:1000300069030000000000006B0300006D03000076
:100040006F0300006F0300006F0300006F030000E8
:100050006F0300006F030000090600006F0300003B
:100060006F030000ED0800006F0300006F03000045
:100070006F0300006F0300006F0300006F030000B8
:100080006F030000BD0500006F0300006F03000058
:100090006F0300006F0300006F0300006F03000098
:1000A0006F0300006F0300006F0300006F03000088
:1000B0006F0300006F03000000000000000000005C
:1000C0006F0300006F0300006F0300006F03000068
:1000D0006F0300006F0300006F03000000000000CA
:1000E0000000000000000000000000000000000010
:1000F0000000000000000000000000000000000000
:1001000000000000000000000000000000000000EF
:1001100000000000000000000000000000000000DF
:1001200000000000000000000000000000000000CF
:1001300000000000000000000000000000000000BF
:1001400000000000000000000000000000000000AF
:10015000000000000000000000000000000000009F
:10016000000000000000000000000000000000008F
:10017000000000000000000000000000000000007F
:10018000000000000000000000000000000000006F
:10019000000000000000000000000000000000005F
:1001A000000000000000000000000000000000004F
:1001B000000000000000000000000000000000003F
:1001C000000000000000000000000000000000002F
:1001D000000000000000000000000000000000001F
:1001E000000000000000000000000000000000000F
:1001F00000000000000000000000000000000000FF
:10020000354936480A1A02D0072291438D463449AF
:1002100034480A1A06D00722914381F30988022242
:1002200082F3148830483149314A00F044F83148AB
:100230003149324A00F03FF831483249324A00F041
:100240003AF832483249334A00F035F832483349F7
:10025000334A00F030F833483349344A00F02BF881
:1002600033483449344A00F026F8344834490022EF
:1002700000F02CF833483449002200F027F83348C6
:100280003349091A082902DB002202604160314A21
:1002900090471F481F49884205D00268043003B4C4
:1002A000904703BCF7E700208646EC46002000217B
:1002B000294A9047FEE7884207D0521A05D00378B2
:1002C00001300B700131013AF9D17047884202D0F8
:1002D00002700130FAE770470000012000E00020C2
:1002E0000000012000000120980D00000000002007
:1002F00004000020D0030000D0030000800D0000A7
:10030000980D00000000002000000020800D00007B
:10031000800D0000800D0000800D0000800D0000A9
:10032000800D0000800D0000800D0000960D000083
:100330009C0D0000040000200400002004000020A8
:1003400090000020900000209000002090000020ED
:10035000902000209D030000790A0000FEE7FEE7E0
:10036000FEE7FEE7FEE7FEE7FEE7FEE7FEE7FEE765
:1003700000F002B8FFF7FCBF0F484FF007018843B9
:1003800085460E4880470E48016841F470010160BF
:10039000BFF34F8FBFF36F8FFFF732BF09480A4992
:1003A0000A4A884207D0521A05D0037801300B70F0
:1003B0000131013AF9D1704700000120250B0000FE
:1003C00088ED00E0800D000000000020000000200B
:1003D000044B1A5C012393404FF0A042C2F80C3545
:1003E000704700BF800D0000044B1A5C012393404E
:1003F0004FF0A042C2F80835704700BF800D0000E2
:1004000008B50020FFF7F0FF0120FFF7EDFF022005
:10041000FFF7EAFFBDE808400320FFF7E5BF000053
:10042000074A4FF0A041105CD1F804350122824008
:1004300022EA03001340C1F80805C1F80C357047E3
:10044000800D0000C20708B501460CD54FF0A0434F
:100450000322C3F84427C3F84827C3F84C27C3F83E
:100460005027FFF7CDFF8B070AD54FF0A0430C2292
:10047000C3F83427C3F83827C3F83C27C3F840270C
:1004800008BD1FB50021039001AA44F20100CDE987
:10049000011100F0E5FA05B05DF804FBB0F5A07FAE
:1004A0000AD1064B1B7813B9054B02221A70054B73
:1004B000054A1B6810681847704700BF04000020F9
:1004C00005000020080000200C00002007B5084AA5
:1004D00008480023CDE900236946074A00F056F991
:1004E00010B9064B01221A7003B05DF804FB00BF7F
:1004F00004000006840D00009D040000050000209B
:1005000010B5054C2378032B04D1044800F0B8F94A
:1005100002232370002010BD05000020840D000080
:100520002DE9F7430546174698460E46002935D073
:1005300001282ED0002833D14FF480791A4C23782B
:1005400083B3032B04D1FFF7DBFF08B1FFF799FF5B
:100550002378022B02D1154800F096F9144B13486A
:100560001D70144B1E60144BC3F8008001230093D0
:100570003A464B46002100F0A4F923780B48022BA1
:1005800009D100F079F903232370002003B0BDE8FE
:10059000F0838146D2E700F061F9F4E70E20F5E739
:1005A0000720F3E70820F1E705000020840D000094
:1005B00004000020080000200C000020024B034A29
:1005C0001B681068184700BF1800002010000020AA
:1005D00000F1804000F5C040002382B00360036852
:1005E0000193019B02B07047800000F1A040D0F859
:1005F000002722F44032C0F80027D0F8003743EA41
:100600000141C0F8001770472DE9F04F87B0002472
:100610005A4D03944FF48072012102F1804303F597
:10062000C04390B21B68012B06D1D5F804330B42AE
:1006300002D0FFF7CDFF0C430432B2F5907F4FEAB2
:100640004101EAD14E4B1B68012B0AD14FF4BE7019
:10065000FFF7BEFF4FF0A04344F00044D3F810353D
:10066000039314F0FF0F1AD0464F012600253442A1
:1006700010D0AB0003F1804303F5C043D3F810055D
:10068000D3F8101557F8253023B1C1F30141C0F359
:10069000042098470135082D4FEA4606E7D1002C83
:1006A00065DA00214FF0FF33CDE90413354D364EA6
:1006B0004FF00009CA4601274FF0A04816F9013B48
:1006C0005A1C45D0C3F3C20106AA5018DCB210F878
:1006D000042C03F03F0B03F0070307FA03F31A425D
:1006E00036D005EB0B02A40992F9302055F82220F0
:1006F00052B9032C2CD10DF1100E1EF801C04CEA9A
:10070000030C0EF801C001E0032CF4D00BF5E071EE
:1007100010F80C0C58F821101842C1F3014105D013
:10072000022915D1032C0FD1214604E003290FD152
:10073000032C09D102215846019209F10109FFF762
:1007400053FF019A5FFA89F912B121465846904742
:100750000AF1010ABAF1040FB0D1B9F1000F06D0C5
:100760004FF0A043039AD3F81035934202D107B05B
:10077000BDE8F08F0393049B059398E70060004069
:100780007C6100401C0000206C000020F7B5067959
:100790002F4D0C237343EF183C7A002C56D1EA50AE
:1007A0004B687B60477903682246D0B2874244D8C1
:1007B00043F30734C878002CA8BF04F16047C3F3A3
:1007C0000732BABF234F02F00F0C07F561474FEA1B
:1007D0004010C0B2B4BF07F80C0087F800036409EA
:1007E00001201D4F02F01F0200FA02F247F82420F8
:1007F000D3F804454A7824F0030402F003022243AC
:10080000C3F80425D3F808458A7824F0030402F0DD
:1008100003022243C3F808250A78D3F8104502F0F2
:100820000F0224F00F010A43C3F810250C2303FB29
:1008300006552872002003B0F0BD900000F5A070AE
:1008400001321C50185801900198AEE70820F2E7D9
:100850007800002014ED00E000E100E003680122D0
:100860001A600379034A0C2101FB032302221A7246
:10087000704700BF78000020036801221A607047AB
:10088000036801225A60704703680122DA607047EA
:1008900037B54FF4803400688C407BB18B0003F592
:1008A000A0730025C550C3580193019BC0F80443B1
:1008B00001F5A87140F8212003B030BDC0F808430D
:1008C000F6E770B4046840F20116D4F800528E4086
:1008D00025EA0605C4F80052D4F800522B43C4F8A8
:1008E00000329DF80C3070BCFFF7D2BF2DE9F34108
:1008F000104C114F114E00254FF48038236883B1FE
:10090000D7F8043308FA05F21A420AD0002323600C
:100910002368019304F5E040019B80B2D6E90031E1
:1009200098470135042D04F10404E7D102B0BDE875
:10093000F08100BF4091004000900040780000200E
:1009400010B50C46FFF76CFD094B0A4928221A60C6
:10095000094B0A221A60204600234CF25032FFF75E
:10096000DFFD18B1BDE81040FFF78BBD10BD00BF23
:1009700088000020B90900008C000020064B1A787E
:1009800002F0FF0122B1012902D01878FFF779BDEA
:100990000846FFF7D5BF00BF8400002038B5054DDD
:1009A0004FF47A7445F001054FF47A40A847013CB2
:1009B000FAD138BD900D000038B5254B1A781D4688
:1009C00002F0FF041AB1012C21D0187815E021495A
:1009D0000A68013A0A60A2B11F4B18680138186012
:1009E00018B90A221A60FFF71BFD00231B494CF2BD
:1009F00050321846FFF794FD48B3BDE83840FFF782
:100A000040BD01221A70BDE83840FFF7B7BF114B57
:100A100018680138186058B10F4A1368013B136019
:100A2000ABB90A2313602046BDE83840FFF7F8BC95
:100A3000FFF7CEFC2046FFF7CBFCFFF761FD08B1C6
:100A4000FFF71FFDFFF7AAFF00232B70DBE738BD80
:100A500084000020880000208C000020B9090000DC
:100A600008B5FFF7CDFCFFF799FF0020FFF7D8FC92
:100A70000120FFF7D5FCF6E708B5FFF727FD08B121
:100A8000FFF7FFFC0120FFF7DDFC0020FFF7A0FCD3
:100A90000120FFF79DFCFFF781FF044B00221A7035
:100AA000FFF76CFF20BF40BF20BFFBE784000020A2
:100AB0000C4B1B78062B10D10B4B1B681A070CD163
:100AC0000A4B186800F0F003302B08D000F0E0006B
:100AD000A0F1400358425841704700207047012060
:100AE000704700BFE00F00F0E40F00F0E80F00F0E7
:100AF000094B1B78062B0CD1084B1B681A0708D131
:100B0000074B186800F0F000A0F13003584258413C
:100B100070470020704700BFE00F00F0E40F00F0C6
:100B2000E80F00F008B5FFF7C3FF28B17D4B7E4A00
:100B30001B68C3F304231360FFF7DAFF10B17B4B8C
:100B40007B4A1A60FFF7B4FF28B17A4B7A4A1B68D8
:100B5000C3F342331360FFF7CBFF20B1774AD3686A
:100B600023F08073D360FFF7A3FF40B14FF08043C1
:100B70000022C3F80C21C3F81021C3F83825FFF771
:100B8000B7FF10B16E4B03221A60FFF7B1FF40B1FF
:100B90006C4B05221A6001229A6700229A603F225C
:100BA0005A60694B1B78062B50D1684B1B6819079C
:100BB0004CD1674B1B6803F0F003502B46D14FF02C
:100BC0008052644BD2F80414C3F82015D2F80814EC
:100BD000C3F82415D2F80C14C3F82815D2F8101451
:100BE000C3F82C15D2F81414C3F83015D2F8181421
:100BF000C3F83415D2F81C14C3F84015D2F82014E9
:100C0000C3F84415D2F82414C3F84815D2F82814B0
:100C1000C3F84C15D2F82C14C3F85015D2F8301480
:100C2000C3F85415D2F83414C3F86015D2F8381448
:100C3000C3F86415D2F83C14C3F86815D2F8401410
:100C4000C3F86C15D2F84424C3F87025FFF730FFC1
:100C500028B1414B414A1B6803F04F031360FFF773
:100C600027FF48B14FF08043D3F80024D20744BF98
:100C70006FF00102C3F80024394B1B68062B08D122
:100C8000384B1B68062B01BF374A136843F4806357
:100C90001360364AD2F8883043F47003C2F88830C3
:100CA000BFF34F8FBFF36F8F4FF01023D3F80022A5
:100CB000002A03DBD3F80432002B2FDA2C4B01225D
:100CC000C3F80425D3F80024002AFBD04FF01022EB
:100CD0001521C2F80012D3F80024002AFBD04FF0EF
:100CE00010231522C3F80422214B1A46D3F800140E
:100CF0000029FBD00021C3F80415D2F80034002BE2
:100D0000FBD0BFF34F8F19491A4BCA6802F4E06257
:100D10001343CB60BFF34F8F00BFFDE7164B174A5D
:100D20001A6008BD240300104035014074C007401C
:100D30000DF0ADBA440200103C050040F0ED00E0BB
:100D4000A005004010560040E00F00F0E40F00F056
:100D5000E80F00F000C0004058020010E40E004010
:100D600030010010340100103C17004000ED00E09D
:100D700000E001400400FA05000000200090D003CC
:100D80001112131400900040000400000000000045
:060D90000338FDD8704796
:040D98000090D003F4
:040000030000037581
:00000001FF
