:0200000270008C
:10800000000001205D8307004583070047830700C8
:10801000498307004B8307004D83070000000000E1
:10802000000000000000000000000000D5D10700A3
:1080300051830700000000005383070055830700A9
:1080400057830700578307005783070057830700AC
:10805000578307005783070057830700578307009C
:10806000578307005783070057830700578307008C
:10807000578307005783070057830700578307007C
:108080008DB4070057830700578307005783070005
:108090005783070057830700D5D30700578307008E
:1080A000578307005783070057830700578307004C
:1080B00057830700578307000000000000000000FE
:1080C000578307005783070057830700578307002C
:1080D00005B1070057830700578307000000000021
:1080E0000000000000000000000000000000000090
:1080F0000000000000000000000000000000000080
:10810000000000000000000000000000000000006F
:10811000000000000000000000000000000000005F
:10812000000000000000000000000000000000004F
:10813000000000000000000000000000000000003F
:10814000000000000000000000000000000000002F
:10815000000000000000000000000000000000001F
:10816000000000000000000000000000000000000F
:1081700000000000000000000000000000000000FF
:1081800000000000000000000000000000000000EF
:1081900000000000000000000000000000000000DF
:1081A00000000000000000000000000000000000CF
:1081B00000000000000000000000000000000000BF
:1081C00000000000000000000000000000000000AF
:1081D000000000000000000000000000000000009F
:1081E000000000000000000000000000000000008F
:1081F000000000000000000000000000000000007F
:10820000314932480A1A02D0072291438D4630493B
:1082100030480A1A06D00722914381F309880222C6
:1082200082F314882C482D492D4A00F03CF82D4843
:108230002D492E4A00F037F82D482E492E4A00F0DD
:1082400032F82E482E492F4A00F02DF82E482F499B
:108250002F4A00F028F82F482F49304A00F023F821
:108260002F483049304A00F01EF83048304900228B
:1082700000F024F82F483049002200F01FF82F4A60
:1082800090471F481F49884205D00268043003B454
:10829000904703BCF7E700208646EC46002000210B
:1082A000274A9047FEE7884207D0521A05D0037844
:1082B00001300B700131013AF9D17047884202D088
:1082C00002700130FAE770470000012000F800203A
:1082D000000001200000012020DC07007C59002064
:1082E000B4590020B8830700B8830700F6D607000A
:1082F00020DC07007C5900207C59002064D707004F
:1083000064D7070064D7070064D7070064D7070065
:1083100064D7070064D7070064D7070020DC070094
:1083200058DC0700B4590020B4590020B45900208B
:10833000647F0020647F0020647F00208583070025
:10834000319D0700FEE7FEE7FEE7FEE7FEE7FEE7FA
:10835000FEE7FEE7FEE7FEE700F002B8FFF7FCBF2E
:108360000F484FF00701884385460E4880470E4866
:10837000016841F470010160BFF34F8FBFF36F8F4D
:10838000FFF73EBF09480A490A4A884207D0521AF5
:1083900005D0037801300B700131013AF9D17047F3
:1083A0000000012079B5070088ED00E050D70700F4
:0883B000685900207C590020EF
:1083B8004B1C30B5DB00044612F003009BB20DD114
:1083C800074D2A601A44074B1A60074B1870074B71
:1083D8001870074B1C80074B198030BD0720FCE73D
:1083E800BC590020B8590020B4590020C4590020B5
:1083F800C0590020C25900202DE9F3472B4F3B8874
:108408008B4206460D4690464BD300240DF10700DB
:108418008DF8074000F086F8254B26481A78264B39
:10842800008893F800C084455FFA8CF138BF4C1C73
:10843800D2B238BFE4B2A2422DD01C781A78D1B299
:10844800904286BF0131C9B2002119709DF807001A
:1084580000F08CF84FF6FF739C4224D0DFF8609050
:10846800D9F800204FEAC40A42F8348002EBC4036A
:10847800A6B19DB1114B38881B682A4604FB003011
:10848800314605F0A8F8D9F80030534400209D8003
:1084980002B0BDE8F0874FF6FF74D7E70020988058
:1084A800F6E70920F4E70420F2E700BFC0590020EE
:1084B800C4590020C2590020B4590020B8590020DE
:1084C800BC590020F8B5114C114D264622782B785E
:1084D8009A4200D1F8BD0F480F4A237812680788DE
:1084E8000E4802EBC301006852F83320898803FB69
:1084F800070090470A4922780988D3B2914286BF7B
:108508000133DBB200233370E0E700BFC459002019
:10851800B4590020C0590020BC590020B859002087
:10852800C259002070B5EFF3108672B60C4A9468F1
:1085380001239CB993600B4B0B4DD3F88010294055
:108548001160C3F88050D3F8841051604FF0FF32A7
:10855800C3F88420047006B962B670BD0370FAE7E8
:10856800C859002000E100E0FC06FFBD084B9A68EE
:1085780010B55AB150B9EFF3108172B6054A1C68AC
:1085880014605C685460986001B962B610BD00BFA1
:10859800C859002000E100E030B53AB11368DB4368
:1085A8000A4D0144814204D1D84330BD4FF0FF3316
:1085B800F6E710F8012B5340082213F0010418BF06
:1085C8002C46013A84EA5303F7D1EBE72083B8ED50
:1085D80010B561B1B2FBF3F403FB1424A4B244B99F
:1085E800C0E9001484608281C381204610BD0E203A
:1085F800FCE70920FAE782B050E8022FC188B2EB05
:10860800324F4FF0000317BF92B241EA014142EAEC
:10861800014104E04268B2EB324F08BF012340E851
:108628000212002AE8D18DF807309DF80730002B98
:108638000CBF1120002002B0704737B550E8013F49
:108648009DB2C48925448489A54228BF2D1B04896D
:10865800A54202BFBFF32F8F002207E0C5EA03053A
:1086680040E80154002CE9D14FF001028DF80320B5
:108678000193019B9DF803200B6002F0FF0322B1D8
:108688000B880068184403B030BD1846FBE70A8819
:108698004B889A4209D150E8012FC2EA024240E8C9
:1086A8000123002BF7D1012070470020704737B510
:1086B80050E8023F1FFAA3F5C488A54202BFBFF3E2
:1086C8002F8F00220DE0C48925448489A54228BF44
:1086D8002D1BC3EA054540E80254002CE8D14FF0B1
:1086E80001028DF803200193019B9DF803200B6084
:1086F80002F0FF0322B14B880068184403B030BD74
:108708001846FBE70A884B889A4209D150E8022F9D
:10871800C2EA224240E80223002BF7D10120704729
:108728000020704710B5034653E8000F40EA0102E5
:1087380043E8002494F0000FF6D110BD10B50346AD
:1087480053E8002F02EA010043E8000494F0000F08
:10875800F6D110BD0121FFF7E5BF0021FFF7EEBFFD
:1087680010B590B1D0E9012301689B1ADBB20A6009
:10877800013BDBB2FF2B026802D10020107110BD53
:1087880011684C1C14600B70F2E70E20F7E737B540
:10879800054600240DF107008DF80740FFF7C2FEDB
:1087A8002A686B68116899420ED9481E106011F842
:1087B800014CEB68298A01FB0434AB6811791B1A58
:1087C800DBB2994238BF13719DF80700FFF7CEFE60
:1087D800204603B030BD37B5054600230DF107002C
:1087E8000C468DF80730FFF79DFE2A681368591C60
:1087F8001160E968641A298AB4FBF1F41C709DF8C9
:108808000700FFF7B3FE03B030BD0B6801601146E7
:10881800184710B40468E468A4465DF8044B604740
:1088280010B404682469A4465DF8044B604700004E
:1088380070B550B90E4D0F4C0026641B1423B4FBC1
:10884800F3F4B44208D1002010E00368002BF1D003
:10885800BDE87040DB6918472B6813B90136143539
:10886800EFE7DB69284698470028F7D070BD00BFBE
:10887800685900207C590020014B43600020704754
:1088880064D707000846704700207047024B1868F5
:10889800003818BF01207047D459002008B5024895
:1088A800FFF75BFF002008BDD459002008B510462B
:1088B8001A4604F090FE002008BD00002DE9F043A0
:1088C800814687B014480E4615469846FFF742FF82
:1088D8000446F0B90746BD4215D10F48FFF73DFFE2
:1088E800D9F808305BB102228DF800200022CDE9CA
:1088F8000126CDE90325CDF814806846984720461F
:1089080007B0BDE8F08306EB073001F071F80137D6
:10891800E1E71124F3E700BFD45900202DE9F04125
:10892800804686B011480F4616461D46FFF712FFCF
:108938000446C8B9AA083146384601F087F80B48FA
:10894800FFF70BFFD8F8083053B101228DF800204B
:108958000C9A0592CDE90147CDE903656846984729
:10896800204606B0BDE8F0811124F9E7D45900206B
:1089780029DF704728DF704770B503689E6886B0A6
:1089880004460D466EB114220021684604F04CFEE0
:10899800A3680593237901952BB1012B0DD0684667
:1089A800B04706B070BD01238DF8003023690293EB
:1089B800E368039363690493F1E702238DF80030B9
:1089C800E3681B030293F5E70846704700207047E9
:1089D800024B187A003818BF01207047C45B00208A
:1089E800034B187A0122B0FA80F05A744009704794
:1089F800C45B002008B510461A4604F0ECFD0020C0
:108A080008BD000008B514220021044804F00CFE3B
:108A18000348FFF7F0FD002008BD00BFC45B00203D
:108A2800B45B002010B5094C094B43602046FFF7A2
:108A380091FE48B904F0B0FC064920741C2306488E
:108A48004FF4EE72FFF7C4FD002010BDC45B002098
:108A580090D70700D8590020B45B002070B5234C8C
:108A6800234E237A25463BB922492348FFF71FFEA8
:108A7800306008B9606070BD022334682B722379B6
:108A880073B1012B22D020460321FFF775FF002385
:108A98002B726B6017491848BDE87040FFF732BE6B
:108AA800D4E90523D21A142AD4E9031028BF1422C2
:108AB8009208012A38BF012219441844FFF758FFC9
:108AC80050B11128DFD101232B72D4E7D4E9030375
:108AD8001844FFF74FFFF3E72B7C002BCBD101465F
:108AE800BDE87040022000F009B800BFC45B002058
:108AF800DC5B0020D85B0020B45B002038B5831E07
:108B0800012B43D8224C237A002B3FD0022B09D1CA
:108B180003282ED01F4B00221B68E2601A793AB155
:108B2800012A20D0637C6BBBBDE83840FFF796BFB5
:108B3800D3E905128D1A142D94BF521914329A6173
:108B48009142EFD102284FF0000308BF1946237263
:108B5800104B18BF0D211868FFF70EFF0E490F487C
:108B6800FFF7D0FDDEE71A6901321A615B699A42A4
:108B7800E7E7E3680133082B01D8E360D2E7002375
:108B8800E360DFE7BDE8384004F0F6BB38BD00BF5E
:108B9800C45B0020DC5B0020D85B0020B45B0020B5
:108BA80000F0FD03012B08D1044B00225A74421E29
:108BB800504250411874FFF751BF7047C45B002002
:108BC80010B5064C201DFFF7C5FD28B9637C1BB9FD
:108BD800BDE81040FFF742BF10BD00BFC45B0020D6
:108BE8002DE9F34180460D460F4801A916461F4658
:108BF800FFF723FD0446A8B11C22002104F014FD50
:108C08002D0B0123237101A90748C4F80080A76030
:108C1800E5606661FFF73BFDFFF7D2FF002002B079
:108C2800BDE8F0810420FAE7B45B00202DE9F743A2
:108C380081468846104801A917461E46FFF7FDFCE5
:108C48000446B0B11C22002104F0EEFC00250A9B6A
:108C5800A36001A9C4E9037807482571C4F8009006
:108C68006661FFF714FDFFF7ABFF284603B0BDE8C8
:108C7800F0830420FAE700BFB45B00200B684A6861
:108C88004360934208BF0023016008BF43607047F8
:108C9800436843B10268916852680B449342436049
:108CA80004BF0023436070472DE9F04FC9B008AAFC
:108CB80001F1400514464B780E781B0443EA06631D
:108CC800CE7833438E78043143EA06238D4244F844
:108CD800043BF0D11024916B16464FEAF14383EA26
:108CE800714383EA9123716A366852F8045F31440C
:108CF8000B444FEAB54181EAF51181EAD501013407
:108D08000B44402CD363E6D1D0E914E30093836D80
:108D18000193C36D0293036E0393436E0493836EB2
:108D28000593C36E0693DDE9057BDDE9031CDDE9E8
:108D380001592B4B009E079374464FF00008079B80
:108D480053F8042B07934FEAF12383EAB11383EA1C
:108D5800716A08AB53F828301A440AEB020327EA71
:108D6800010A01EA0C028AEA02021A444FEA743A3A
:108D780086EA05035A448AEAB40A06EA050B234040
:108D880083EA0B038AEAB45A08F101089A44B8F155
:108D9800400F02EB0903BB465244A94619D172445D
:108DA8000265009A22444265019A32448265029A19
:108DB8002A44C265039A1A44049B02660B4443661C
:108DC800059B63448366069B3B44C36649B0BDE884
:108DD800F08F674635468C46264619461446AEE758
:108DE800BCD7070030B5E0B10F4A10490024002570
:108DF800C0E91245C0E914120D4C0E4A0E4DC0E9E7
:108E080016420E4AC0E918520D4A826602F174529F
:108E1800A2F523020023A2F692420364C266184612
:108E280030BD0E20FCE700BF85AE67BB67E6096A68
:108E380072F36E3C3AF54FA57F520E518C68059B34
:108E4800ABD9831F70B5F0B1DAB900201CE00C462D
:108E58008D180026AC42F8D0036C14F8012BC254CC
:108E68000133402B0364F5D10146FFF71DFFD0E91C
:108E7800123213F5007342F10002C0E9123206649F
:108E8800E8E70029E3D10E2070BD70B50D461646FF
:108E98000446002875D0002973D0026C8021372A37
:108EA800815402F101034FF0000240D8382B39D128
:108EB800D4E91201226C0823E3FB020103BAE3633D
:108EC8000B0A84F83A300B0C84F839300B0EC4E9DD
:108ED800120184F83B1084F8383021462046FFF709
:108EE800E3FE691E76B30023E26EDA4001F8012F33
:108EF800A26EDA400A71626EDA400A72226EDA40B5
:108F08000A73E26DDA400A74A26DDA400A75626D7E
:108F1800DA400A76226DDA400833202B0A77E3D14B
:108F2800002070BDE2540133C0E7E25401333F2B07
:108F3800FBD921462046FFF7B7FE3822002104F06E
:108F480073FBB5E71823226DDA4001F8012F626D33
:108F5800DA400A71A26DDA400A72E26DDA400A73E9
:108F6800226EDA400A74626EDA400A75A26EDA403E
:108F78000A76E26EDA40083B13F1080F0A77E2D16D
:108F8800CEE70E20CDE743689B68184708B54368CD
:108F980008305A7900F079FE002008BD2DE9F0412B
:108FA8000C469CB008461F460392FFF7ECFFD4F826
:108FB8000480039998F80550BD4228BF3D460646EF
:108FC8002A4604A800F056FE98F8052022990CA815
:108FD80000F05BFE00960CAB2A4604A904F10800D9
:108FE80001F01EFD002848F2425018BF00201CB0B6
:108FF800BDE8F0810023C0E902328B881A44B1F938
:10900800063002611A44C0E900114261088800383C
:1090180018BF012070474268118838B503460029F7
:1090280037D0148A02F1100141602CB9C268016876
:10903800FFF7E0FF204638BD9078118900F0300531
:10904800302D14D1947C04F03004302C1BD190883E
:109058001969091A19610021908AB2F91620084481
:10906800196901441961114459610120E3E700F0CD
:10907800F004202C07D150894143002DECD1986889
:1090880001309860E8E700F0C000802808BF04219C
:10909800F3E70846CFE770B5466804460D466368AF
:1090A8001A88AA4204D19B7803F00F03082B07D132
:1090B8002046FFF7B0FF6368B342F0D1002070BDCF
:1090C8000120FCE743681A44426011B101399A4211
:1090D80001D10120704713F8010B01F8010FF6E7E1
:1090E80083682DE9F3410446884623B900263046B3
:1090F80002B0BDE8F081036801220DF1070198472D
:1091080006460028F2D0A3689DF80750013BA360EB
:109118009DF90730002B1ADA05F07F050727A368A9
:10912800002BE3D0236801220DF107012046984760
:109138000028DBD0A3689DF80720013BA36002F05C
:109148007F03BB401D43130607F1070702D4C8F885
:109158000050CCE7232FE2D1C8E770B54568AA785C
:1091680002F00F06082E86B003461FD103691C685B
:1091780000260CB906B070BD236862689D68267326
:1091880029466846FFF736FF6368049304F10C0329
:109198000593AB7803F0C003802B08BF231D6846F6
:1091A80008BF0493FFF7D9FFA468E2E712F0C001F3
:1091B8001CD102F0300010280AD15A691170072E0C
:1091C800EC68186909D10146204600F017F8D1E784
:1091D8009006F4D55B691980CCE72A89214614B139
:1091E80004F0F9F9C6E704F01FFAC3E78029C1D1F2
:1091F8000069002192060160BCD5EBE77FB50A46FD
:1092080001466846FFF7F6FE30B16846FFF7A5FF4E
:109218006846FFF700FFF7E707B05DF804FB0000BA
:1092280030B5044685B01546A9B90268114B9A4273
:1092380011D0102D06D82A4669462046FFF7F0FFC0
:1092480005B030BD102269462046FFF7E9FF002827
:10925800F6D0103DEDE7A368AB4201D20020EFE75E
:1092680023682A46204698470028F7D0A268521B50
:10927800A260E5E7CD900700F7B50E4601A90746BD
:109288001546FFF72DFFA8B1019A0123D3184FF017
:10929800000404D2B17801F0C001802901D1204630
:1092A80008E031899942FAD329463846FFF7B8FFD2
:1092B800019BEC5403B0F0BD73B50D4601A90646F9
:1092C8001446FFF70DFF98B1019AB2F5803F11D20D
:1092D800AB7803F0C003802B02F102010AD02B897E
:1092E8008B4207D32146304621F8022BFFF798FF1F
:1092F80002B070BD0020FBE710B5034C826000226D
:10930800C0E90041C26010BDCD9007002DE9F341CE
:10931800002604460F46B0463546A3682BB323689B
:1093280001220DF1070120469847F0B1A3689DF886
:1093380007C0013B0CF07F02C5F12001A360A5F135
:10934800200302FA03F322FA01F10B43AA401CF0AE
:10935800800F46EA020643EA080805F1070502D12C
:10936800C7E9006802E0462DD7D1002002B0BDE869
:10937800F08173B50C4669461646FFF7C7FF68B11A
:109388002389082B0CD1DDE90045C6E90045DDE954
:109398000023AB4206BFA2420120002002B070BDEC
:1093A800042B04D1009B33601C460025EFE7022BF9
:1093B8004FF0000004D1009B33809CB20546E6E7DD
:1093C800012BEBD1009B337003F0FF04F6E737B5B0
:1093D8000D4669461446FFF799FF30B12A89082AD5
:1093E800DDE9003103D1C4E9003103B030BD042AFE
:1093F80018464FEAE37108D123601A460B468B42A0
:1094080006BF824201200020EFE7022A04D11BB2E6
:1094180023801AB2D317F2E7012A03D15BB2237073
:109428005AB2F7E70020E0E7F7B51F4600233B7084
:109438000D460B70136001A904461646FFF750FE4F
:1094480030B9A36813B901233B70002003B0F0BD05
:10945800019C002CF7D0E30804F0070433602C705B
:10946800F4E713B5044605291FD8DFE801F0030F18
:10947800151E1E1C012201A92046FFF7D1FE18B1B6
:109488009DF90430002BF5DB02B010BD0822002145
:109498002046FFF7C5FEF7E701A9FFF721FE0028E0
:1094A800F2D0019AF3E70422F1E70020ECE773B564
:1094B8000D4601A90446FFF713FE064618B9002613
:1094C800304602B070BD94E80F0085E80F0001999E
:1094D8008A42F4D3A960A3685B1AA360F0E700008E
:1094E8002DE9F0435668B37813F0C00489B00746F5
:1094F8008C46154603D0402C67D000240CE003F0BE
:109508000F025D4903F03003202B51F8228023D04D
:1095180006D8E3B1102B17D0204609B0BDE8F08378
:10952800302BF9D16B6931881980072A09D1214676
:109538003289286904F078F86B682969D868FFF7D8
:109548005DFE2A6969683EE06B6901221A702A6922
:109558003146C0470446DFE7BCF1020FD5F8149046
:1095680024D1042A22D804A9FFF7A1FF0446002821
:10957800C3D0069B2BB16968B9F800304A899A4272
:1095880005D8059B7B60069B002BC5D0B5E70889ED
:109598002A6903FB002204A8C04728B1B9F80030A3
:1095A8000133A9F80030E4E70446EAE7B9F80030E7
:1095B80072899A42A1D931892A69581C03FB012270
:1095C800A9F8000031463846C3E7D2F8108046466D
:1095D80056F8043B13B9FFF744FFBBE7022914D13F
:1095E80004A9FFF764FF002887D0D8F8003069681D
:1095F800324604A89847044600283FF47EAF069BED
:10960800002BF2D1059B7B6086E7012925D005292F
:109618002BD000297FF471AF0C460DF104090134F9
:109628000B2C3FF46AAF012249463846FFF7F8FD94
:1096380000283FF462AF19F9013B002BEFDB0F4B19
:10964800049301ABCDE90534002307936968D8F882
:109658000030324604A898477CE7082201A9FFF7A2
:10966800DFFD08240028EAD147E704220DEB0201B8
:10967800FFF7D6FD0424F5E7C8D80700CD9007000A
:109688002DE9F04F91B00446002604A8CDE9026602
:10969800FFF7B0FCA3683BBBDDE9053404A89D785F
:1096A800FFF7B9FC0028F7D115F0300F03D1059B5F
:1096B8001B8803B10134002C00F0A9806309002243
:1096C80002A9934240F09C8010AA02EB830304F0A5
:1096D8001F0453F8383CC4F120044FF0FF30E04039
:1096E800C31A584258410DE00DF1030301AA0DF1C8
:1096F80002012046FFF798FE38B99DF80330002B89
:10970800CAD1002011B0BDE8F08F019904A8FFF775
:10971800C2FC002850D1019BB3427DD3059D059A18
:10972800937803F00F03082B7FD004A8FFF773FC8E
:10973800059B9D42F3D14FF0FF36019FB7426BD393
:10974800089B9DF802A0D4F808801D684FF0010915
:10975800A368002D5DD098459CD12B68D3F800B044
:10976800BBF1000F08D053463A4629462046D84751
:109778000028C6D0AD68EBE7D3F808B0BBF80030D6
:109788009F42F7D16A6859460AA8FFF733FC6B680D
:109798000E9305F10C030F939BF8023003F0C003FE
:1097A800802B04BF2B1D0E930AAA85F80C905146F6
:1097B8002046FFF795FEDBE7059B9B7813F0300FFB
:1097C8000FD1069A3F2A0CD8510910AB03EB81013F
:1097D80002F01F020123934051F8382C134341F83B
:1097E800383CE5682DB19DF80220019904AB20466C
:1097F800A8479DF8021004AA2046FFF771FE10E062
:1098080051F8225001357FF47DAF013259E701202C
:1098180078E798457FF43EAF9DF802102046FFF7A1
:1098280020FE00287FF436AF6BE7168885E737B54A
:109838000C460546114620460192FFF7DFFC019AC7
:109848002146284603B0BDE83040FFF719BF70B580
:1098580086B0CE6801920C4602A90546FFF727FE9E
:1098680068B1E06858B1A378019A03F03003202B5F
:10987800314602A805D1FFF7DAFF039B6B6006B0FB
:1098880070BDFFF7FDFEF8E7D3B50C466946FFF754
:109898003DFD80B1DDE9001300274A0801F001060B
:1098A80042EAC37256EA07014FEA53031CBFD24388
:1098B800DB43C4E9002302B0D0BD37B50D46694685
:1098C8001446FFF7E1FF68B12B89082B0CD1DDE9BD
:1098D8000001C4E90001DDE900238B4206BF824292
:1098E8000120002003B030BD042B03D10098206074
:1098F800C117F0E7022B04D1BDF90000208000B2A7
:10990800F6E7012B04D19DF90000207040B2EFE783
:109918000020E7E713B504220C460DEB0201FFF720
:109928007FFC08B1019B236002B010BD1146FFF710
:10993800F1BF13B508220C466946FFF771FC18B150
:10994800DDE90023C4E9002302B010BD1146FFF78A
:10995800F0BF0000044B1A5C012393404FF0A04273
:10996800C2F80C35704700BFECD80700044B1A5CEE
:10997800012393404FF0A042C2F80835704700BF5A
:10998800ECD8070008B50020FFF7F0FF0120FFF72B
:10999800EDFF0220FFF7EAFFBDE808400320FFF7CC
:1099A800E5BFC20708B501460CD54FF0A043032216
:1099B800C3F84427C3F84827C3F84C27C3F85027EF
:1099C800FFF7E0FF8B070AD54FF0A0430C22C3F83E
:1099D8003427C3F83827C3F83C27C3F8402708BD05
:1099E800024AD2F80034002BFBD0704700E0014057
:1099F8000A4908B50223C1F80435BFF36F8FBFF3D6
:109A08004F8FC1F80805FFF7EBFF0023C1F80435B5
:109A1800BFF36F8FBFF34F8F08BD00BF00E0014059
:109A280010B5094C0123C4F80435BFF36F8FBFF399
:109A38004F8F0160FFF7D4FF0023C4F80435BFF34C
:109A48006F8FBFF34F8F10BD00E001400E4B10B574
:109A58000124C3F80445BFF36F8FBFF34F8F01EBA9
:109A68008204401AA14208D1074B0022C3F80425FA
:109A7800BFF36F8FBFF34F8F10BD431851F8042BFE
:109A88001A60FFF7ADFFEDE700E0014028B139B1FA
:109A98000023C1E900301846704748F2105070475B
:109AA80048F21350704738B1006848F24053884272
:109AB80014BF18460020704748F21050704730B164
:109AC80048F21153914214BF18460020704748F2DB
:109AD8001050704770B506460C461D46FFF7D6FF76
:109AE80050B9B3794AB1AB420AD111462046FFF7C3
:109AF8004DFA08B9044B236070BD48F21050FBE7DB
:109B080048F21150F8E700BF7052464D2DE9F04772
:109B18000C4606460F492046DDE9088915461F46CA
:109B2800FFF7C1FFA0B963685A7949465200404619
:109B3800FFF7C5FF60B94DB1CDF820803B462A46F6
:109B480021463046BDE8F047FFF728BA48F21050E2
:109B5800BDE8F0877052464D10B5044638B149B19A
:109B68000B684160984708B9044B236010BD48F260
:109B78000150FBE748F21050F8E700BF6E52464824
:109B8800F0B4134648B10768094EB7420AD161B12B
:109B98002AB14368F0BC5B68184748F2015318467D
:109BA800F0BC704748F20253F9E748F21053F6E761
:109BB8006E524648F0B460B107680C4EB7420CD1FB
:109BC80071B143681568DC68A5420CD3F0BC9B688A
:109BD800184748F20150F0BC704748F20250FAE7C3
:109BE80048F21350F7E748F21450F4E76E5246482B
:109BF800F7B50446DDE9086715460193FFF7ACFFA2
:109C080068B9019A29462046FFF7BAFF38B93A469B
:109C18003146204603B0BDE8F040FFF7CBBF03B0A4
:109C2800F0BD0000F8B50A4F0A4C0B4DE41B0121AA
:109C3800E40829700026A64203D102232B700020D5
:109C4800F8BD57F8363098470028F9D10136F2E7C1
:109C5800F8D60700F8D60700E05B00200139014478
:109C6800814200D2704703780A7800F8012B01F886
:109C78000139F5E7013A02440139824200D27047BE
:109C880011F8013F02F80139F7E770B516460D469D
:109C9800FFF7F0FF3246A9193044BDE87040FFF7DE
:109CA800E9BF38B50D460446FFF7D8FF29466019C5
:109CB800BDE83840FFF7D2BFBFF34F8F0549064BC9
:109CC800CA6802F4E0621343CB60BFF34F8F00BF52
:109CD800FDE700BF00ED00E00400FA0508B507281D
:109CE8001BD8DFE800F004121A1A1A041A0401201B
:109CF800FFF757FE0020FFF72DFE0120FFF72AFE91
:109D0800BDE808400220FFF731BE0120FFF72EFE14
:109D1800BDE808400220FFF71DBE08BD08B5FFF7E3
:109D2800CBFF08B5FFF7C8FF08B501F077FB0022A5
:109D380010464FF4805101F007F9024608B1FFF7C9
:109D4800BBFF0548C0F5FC2101F0FEF80028F6D15C
:109D5800024801F021F8F2E700800700E59C0700BF
:109D68008B1802448B4200D1704713F8010D02F89A
:109D7800010DF7E700000000C3F10803DB0070B530
:109D88000133002403A500BF5B1920C940CAAD19DF
:109D980020C0184720C940CA754120C020C940CA00
:109DA800754120C020C940CA754120C020C940CA99
:109DB800754120C020C940CA754120C020C940CA89
:109DC800754120C020C940CA754120C06441204661
:109DD80070BD00BF00000000C3F10803DB0070B5D0
:109DE8000133002403A500BF5B1920C940CAAD1B7D
:109DF80020C0184720C940CAB54120C020C940CA60
:109E0800B54120C020C940CAB54120C020C940CAB8
:109E1800B54120C020C940CAB54120C020C940CAA8
:109E2800B54120C020C940CAB54120C06441B4FA38
:109E380084F0400970BD00BF2DE9F04F08B4F8CA9E
:109E480004B451F8042BA3FB028940F8048B4FF0AB
:109E5800000AE4FB629A4FF0000BE5FB62AB4FF09F
:109E6800000CE6FB62BC4FF0000EE7FB62CE51F837
:109E7800042B4FF00008E3FB628940F8048BE4FBF5
:109E8800629AE5FB62ABE6FB62BCE7FB62CE51F887
:109E9800042B4FF00008E3FB628940F8048BE4FBD5
:109EA800629AE5FB62ABE6FB62BCE7FB62CE51F867
:109EB800042B4FF00008E3FB628940F8048BE4FBB5
:109EC800629AE5FB62ABE6FB62BCE7FB62CE51F847
:109ED800042B4FF00008E3FB628940F8048BE4FB95
:109EE800629AE5FB62ABE6FB62BCE7FB62CE40F838
:109EF800049B40F804AB40F804BB40F804CB40F89E
:109F080004EB0CBC052B00F01E810C68A0F11400BA
:109F1800A1F11401A2F1140252F804EB4FF000056C
:109F280050F8046BE4FB6E5652F804EB50F8047BCF
:109F3800E4FB6E6752F804EB50F8048BE4FB6E7890
:109F480052F804EB50F8049BE4FB6E8952F804EBDA
:109F580050F804ABE4FB6E9AA0F1140052F8044BDD
:109F680051F804EB4FF0000CE4FB6EC540F804CB4D
:109F780051F804EBE4FB6E5640F8045B51F804EB2F
:109F8800E4FB6E6740F8046B51F804EBE4FB6E7871
:109F980040F8047B51F804EBE4FB6E8940F8048B2D
:109FA80051F804EBE4FB6E9AA0E80006062B00F0DB
:109FB800CA800C68A0F11800A1F11801A2F11802DA
:109FC80052F804EB4FF0000550F8046BE4FB6E56B2
:109FD80052F804EB50F8047BE4FB6E6752F804EB8C
:109FE80050F8048BE4FB6E7852F804EB50F8049BAD
:109FF800E4FB6E8952F804EB50F804ABE4FB6E9A6C
:10A0080052F804EB50F804BBE4FB6EABA0F1180067
:10A0180052F8044B51F804EB4FF0000CE4FB6EC50A
:10A0280040F804CB51F804EBE4FB6E5640F8045BAF
:10A0380051F804EBE4FB6E6740F8046B51F804EB4D
:10A04800E4FB6E7840F8047B51F804EBE4FB6E897E
:10A0580040F8048B51F804EBE4FB6E9A40F8049B3B
:10A0680051F804EBE4FB6EABA0E8000C072B6AD0B8
:10A0780008B40C68A0F11C00A1F11C01A2F11C029B
:10A0880052F804EB4FF0000550F8046BE4FB6E56F1
:10A0980052F804EB50F8047BE4FB6E6752F804EBCB
:10A0A80050F8048BE4FB6E7852F804EB50F8049BEC
:10A0B800E4FB6E8952F804EB50F804ABE4FB6E9AAB
:10A0C80052F804EB50F804BBE4FB6EAB52F804EB17
:10A0D80050F804CBE4FB6EBCA0F11C0052F8044B12
:10A0E80051F804EB4FF00003E4FB6E3540F8043BF5
:10A0F80051F804EBE4FB6E5640F8045B51F804EBAE
:10A10800E4FB6E6740F8046B51F804EBE4FB6E78EF
:10A1180040F8047B51F804EBE4FB6E8940F8048BAB
:10A1280051F804EBE4FB6E9A40F8049B51F804EBF9
:10A13800E4FB6EAB40F804AB51F804EBE4FB6EBCF7
:10A14800A0E8001808BCBDE8F08F002310B51C4635
:10A158005AB2914200DC10BD40F823400133F7E7C2
:10A1680010B500231A465CB2A14203DCB2FA82F0B1
:10A17800400910BD50F8234001332243F3E74A1148
:10A18800012350F8220001F01F0103FA01F10840F1
:10A198007047013949B20A06CBB205D4013900EB40
:10A1A80081025268002AF6D001335BB273B103F121
:10A1B8008042013A50F82220002022B9013B00EBEE
:10A1C800431318B2704752080130F6E71846704733
:10A1D80010B500235CB2A24200DC10BD51F8234048
:10A1E80040F823400133F5E710B5013A52B213069F
:10A1F80001D5002010BD50F8224051F822309C4271
:10A2080005D802F1FF32F2D24FF0FF30F2E7012019
:10A21800F0E700EB81010023884200D3704751F832
:10A22800042D43EA52030B60D307F5E770B59DF997
:10A2380010401E4623460546FFF79EFD30B92246CC
:10A2480029463046FFF7D0FF012807D0234632467B
:10A2580029462846BDE87040FFF7BEBD70BD70B501
:10A268009DF910401E4623460546FFF7B5FD38B157
:10A278002346324629462846BDE87040FFF77CBD94
:10A2880070BD2DE9F04FB5B004AD9DF9F8401F46FB
:10A29800814623462846FFF7CFFD24AB21463846A2
:10A2A800CDE90235FFF775FFC0EB841005B26B42AC
:10A2B80003F01F034FF0200695FBF6F676B205F083
:10A2C8001F0814A858BFC3F100083146FFF73DFF27
:10A2D800B8F1000F30B22DDD14AB002203EB800083
:10A2E800C8F1200C1346A34219D327B27B0001936F
:10A2F80014AB03EB870704F1FF3834AB012603EBFB
:10A308008808002D53DA34AB03EB8606224656F84C
:10A31800C81C4846FFF75CFF35B0BDE8F08F57F81A
:10A32800236006FA08F10A4340F8232026FA0CF2C3
:10A338000133D8E714AB2246394603EB8000FFF718
:10A3480047FFD2E70FFA82FE5AF8C83C53F82EB0FE
:10A3580034AB03EB820252F8803CABEB03031B1ACD
:10A368009B4502D034BF012000205CF8C82C42F87D
:10A378002E300131019B4AB29A42E3DB331A5E4226
:10A38800214614A85E41FFF744FF34AB03EB840376
:10A39800214653F8802C58F8803C384643EAC2736B
:10A3A800013D48F8803C2DB2FFF733FFA9E734ABF5
:10A3B8000021C6F1010C084603EB860A03EB8C0C5E
:10A3C800D8E730B51C4691B0054693F90030684689
:10A3D800FFF732FDD4F8AC3069462846984711B0EB
:10A3E80030BD13460A46FFF7ECBF2DE9F04793F955
:10A3F800006092B004468946104631461546984694
:10A40800FFF7AEFE002840F091804246494602A878
:10A41800FFF7E7FF434602AA21460AA8FFF7D1FF44
:10A4280002A908464246FFF7DCFF43462A4649464A
:10A438004846FFF7C6FF08F1040742462946284662
:10A44800FFF7CFFF3B462A46214620460096FFF7F6
:10A45800EDFE3B462A46294628460096FFF7E6FECB
:10A468003B462A46214628460096FFF7F8FE434613
:10A478002A4621462046FFF7A4FF3B4622462146AE
:10A4880028460096FFF7D2FE3B4600962A4621460C
:10A498002046FFF7CBFE2368DB074AD533463A460A
:10A4A80021462046FFF768FC314682462046FFF7E2
:10A4B800B0FE06F18043013B54F8230040EACA701D
:10A4C80044F82300424621462846FFF78AFF3B46C8
:10A4D8000AAA294628460096FFF7C1FE3B460AAA63
:10A4E800294628460096FFF7BAFE0AA908463B46C1
:10A4F8002A460096FFF7B3FE43460AAA214620469D
:10A50800FFF75FFF02AA3B46104621460096FFF779
:10A51800A6FE324629462046FFF75AFE49462846F7
:10A52800FFF756FE02A94846FFF752FE12B0BDE8F3
:10A53800F08731462046FFF76CFEC3E72DE9F0436C
:10A548008BB00446154689460AAE1C22002103A892
:10A5580003F06AF8032346F8203D95F900802A465F
:10A56800494620462F1DFFF73CFF3B463246214611
:10A578002046CDF80080FFF772FE2B464A4621465A
:10A588002046FFF71EFFCDF800803B4605F1840208
:10A5980021462046FFF74AFE0BB0BDE8F0830000D5
:10A5A800F0B5082289B00C460646FFF711FECB6AC3
:10A5B80003930B6B04934B6B05938B6B0693CB6BDD
:10A5C8000793002708236A4669466846CDE901775C
:10A5D8000097FFF7D1FB082305466A463146304607
:10A5E800FFF7CAFB236B0393636B0493A36B059379
:10A5F800E36B0544CDE906376A4608236946684691
:10A60800FFF7BAFB082305446A4631463046FFF790
:10A61800B3FB236A0093636A0193A36A0293A36B53
:10A628000693E36B0793054408236A463146304690
:10A63800CDE904770397FFF79FFB636A0093A36A4A
:10A64800A26B0193E36A02930492636BE26B039338
:10A65800CDE90523236A0793054408236A46314652
:10A668003046FFF789FBE36A0093236B0193636B22
:10A678000293236A0693A36A0793054408236A464C
:10A6880031463046CDE904770397FFF7A5FB236BE6
:10A698000093636B0193A36B0293E36B0393636A69
:10A6A8000693E36A07932D1A08236A463146304613
:10A6B800CDE90477FFF790FB636B0093A36B0193DD
:10A6C800E36B0293236A0393636A0493A36ACDE955
:10A6D8000537236B07932D1A08236A4631463046FF
:10A6E800FFF77AFBA36B0093E36BCDE90137636A4D
:10A6F8000393A36A0493E36ACDE90537636B079371
:10A708002D1A08236A4631463046FFF765FB2D1A95
:10A718000D4C0FD435B9082231462046FFF764FDA9
:10A7280001280FD00823224631463046FFF754FB54
:10A738002D1AEFE70823224631463046FFF71CFB67
:10A748002D18F7D409B0F0BD34D90700F0B5154677
:10A7580089B01C4607460E461A4629466846FFF742
:10A7680040FE23466A4639463846FFF72AFE234606
:10A778002A4669466846FFF724FE23466A4631465C
:10A788003046FFF71EFE09B0F0BD2DE9F0438BB04F
:10A798001446129D15F9046B00961F46804689469B
:10A7A8002B460246214602A8FFF759FD02A9129A34
:10A7B8000846FFF716FE129B02AA41464046FFF7DD
:10A7C80000FE129B02AA21462046FFF7FAFD2B46FF
:10A7D8004A46394638460096FFF741FD129A3946EF
:10A7E80002A8FFF7FEFD02A92B464246084600963E
:10A7F800FFF735FD02A92B46224608460096FFF7CB
:10A808002EFD2B464246214620460096FFF727FD9F
:10A81800129B224649464846FFF7D3FD2B4602AA1B
:10A82800414620460096FFF71AFD129B22463946FC
:10A838003846FFF7C6FD2B464A4639463846009645
:10A84800FFF70DFD324602A92046FFF7C1FC0BB009
:10A85800BDE8F0832DE9F047B3F9024088461E466B
:10A8680004F11F012023073491FBF3F708234FFA63
:10A8780087F994FBF3F4944228BF144649460546E9
:10A88800FFF763FC22464146FFF76AFAB6F9023041
:10A89800E4009C421FD9E41A05EB87010022C4F1A9
:10A8A80020078D420ED324364A4629463046FFF704
:10A8B8009BFC01280FD04B4632462846BDE8F0479E
:10A8C800FFF78ABA51F8040D20FA04F313430B601A
:10A8D80000FA07F2E5E7BDE8F08770B5036813F002
:10A8E80001050646144605D013460A460146FFF7F9
:10A8F80043FA054621463046FFF78BFC45B104F183
:10A908008042013A56F8223043F0004346F822309C
:10A9180070BDF0B50F46A1B0064619463846154633
:10A928001C46FFF71DFC20B13046FFF70EFC21B096
:10A93800F0BD224639466846FFF74AFC294608A872
:10A94800FFF746FC10A82146FFF7FFFB012318A8D4
:10A958001093FFF7FAFB224608A96846FFF744FC64
:10A9680028B9224610A93046FFF732FCDFE7009BE2
:10A97800DA0709D421466846FFF74BFC22462946E8
:10A9880010A8FFF7AAFFE6E7089BDB0707D42146D4
:10A9980008A8FFF73EFC2246294618A8F1E7002838
:10A9A80023461CDD08AA69466846FFF715FA2146C2
:10A9B8006846FFF72EFC224618A910A8FFF714FCDA
:10A9C800002805DA10A923462A460846FFF7D4F9D5
:10A9D80010A9234618AA0846FFF7FEF9CEE708A9EA
:10A9E8006A460846FFF7F8F9214608A8FFF711FC60
:10A9F800224610A918A8FFF7F7FB002805DA18A9BE
:10AA080023462A460846FFF7B7F918A9234610AA8D
:10AA18000846FFF7E1F9BEE70048704730D907005C
:10AA28002DE9F04FEDB01F46DDF8D8810590B8F953
:10AA3800026098F9004020231F3696FBF3F676B2A1
:10AA480006F1FF3924AB002543F829506CAB03EB22
:10AA580089034CA88A469346394698F9012043F859
:10AA6800805C43F8605CFFF77BF998F9012054A8F3
:10AA7800B918FFF775F921464CA8FFF771FB07468F
:10AA8800002840F02E8154A8FFF76AFB02900028A6
:10AA980040F0298108F1240332464CA91846039353
:10AAA800FFF7A2FB012840F02081324654A9039801
:10AAB800FFF79AFB0128069040F017811CAD0CAFF8
:10AAC8003346039A54A92846FFF723FF029B47F809
:10AAD80029305A46514638464346FFF7BBFE3946A9
:10AAE8003846039B00962A46FFF7CBFB0DF5B8794D
:10AAF800039B00962A464CA914A8FFF7C2FB2246DE
:10AB080048460599FFF764FBA30009EB030A07937E
:10AB1800059BA100591808F1440B5046FFF758FB54
:10AB2800594634A8FFF754FBA3000BEB03013CA8DC
:10AB3800FFF74EFB08F10403494634AA284600945F
:10AB48000493FFF78CFB53464A463CA934A8CDF83A
:10AB58000080FFF71AFE2346049A29462846FFF785
:10AB6800D8FE2A46514648464346FFF7EFFD029B6A
:10AB7800CDE9083B059B31463846CDE90A39FFF750
:10AB880008FB3146814614A8FFF703FB8145B8BF8F
:10AB980081461FFA89F909F1FF3B0FFA8BFB5946E9
:10ABA8003846FFF7ECFA5946071C14A818BF0127C6
:10ABB800FFF7E5FA002814BF022300231F430DF115
:10ABC800200A22465AF8277024A83946FFF700FBC6
:10ABD8000DF1B00BA300F9185846FFF7F9FA214612
:10ABE8002846FFF7B2FAA9F10209069B2B600FFA73
:10ABF80089F90DF1900AB9F1000F23DA2346049A76
:10AC080029462846FFF785FE43462A4659465046B8
:10AC1800FFF79CFD324651460398FFF7E5FA0128F5
:10AC280004D03346039A5046FFF7D6F8013C64B285
:10AC38004CAA23064BD5029BB3FA83F040096DB0AA
:10AC4800BDE8F08F43462A46D8F8A47059465046C6
:10AC5800B84749460CA8FFF792FA4946071C14A8BA
:10AC680018BF0127FFF78BFA002814BF022300231F
:10AC78001F4308AB53F8277027B32246394634A838
:10AC8800FFF7A6FA079B3CA8F918FFF7A1FA434675
:10AC98002A463CA934A8FFF759FD049B009434AA1E
:10ACA800514644A8FFF7DBFA5B4652463CA934A854
:10ACB800CDF80080FFF769FD434644AA2946284697
:10ACC800FFF77FFB09F1FF390FFA89F993E752F88B
:10ACD80024105AF824304B40029919430291013C40
:10ACE800A7E72846ABE73846A9E70298A7E7007820
:10ACF80000F00100704741DF70470000014B01225E
:10AD08001A70704704600020BFF34F8F0549064B47
:10AD1800CA6802F4E0621343CB60BFF34F8F00BFF1
:10AD2800FDE700BF00ED00E00400FA05024B034810
:10AD380000221A7001F074BC0460002011AD0700F5
:10AD4800042810B5044609D8022811D816D00D4B8E
:10AD58001B68B3B12046BDE810401847831F012B7C
:10AD6800F5D8094B094800221A7001F059FCEEE7A2
:10AD780007494FF4702000F01FFAE8E701F098FB4C
:10AD8800E5E710BD086000200460002011AD070051
:10AD980035AD07000020704738B5554B554A186047
:10ADA8004FF0A0430020C3F8402701F04FFC0446B1
:10ADB800002840F0988000F0DBFA012800F08E802F
:10ADC800022800F09280002840F08D804FF08043E8
:10ADD800D3F8004414F4803435D04FF48032C3F8EB
:10ADE80000240446444D2B6A012B3FD04FF47024B5
:10ADF80000F054FB414A20211820FDF7D9FA08B188
:10AE0800FEF78FFF3E4B1A6802F0F802B02A06D10F
:10AE18001A68D20742BF1A6802F04E021A60FFF79A
:10AE2800B9FF00285FD12046364900F0C5F93648F9
:10AE380000F0F4FC002856D100F056FBFDF742FB69
:10AE4800FFF759FFF8E7D3F8202502F0F802A82AFF
:10AE58000AD1D3F82025D00706D5D3F8202502F04B
:10AE68005602C3F82025BDE70124BBE743F20403DB
:10AE78001A68264B9A4209D001F084FCAA69014657
:10AE880094B1234801F074FF90B9AFE76A6B1CB91D
:10AE980095F86032012BEFD01E484FF4805101F035
:10AEA80067FF0028E8D1A1E795F8A132012BE8D186
:10AEB8004FF0A043D3F81035D90397D5104B1B6832
:10AEC80013F0B10F92D101F009FC60B9124B187060
:10AED800124801F0A5FB00F025F804E00E4B1048DD
:10AEE8001C7001F09DFB032038BD4FF4A0247FE7C0
:10AEF800086000200C000300D4770020E45B0020E9
:10AF08001C05004035AD070049AD0700DBE5B15130
:10AF1800757A0020347A00200460002005AD07000F
:10AF280011AD070008B5074B4FF0FF32C3F880207A
:10AF3800C3F8802101F0E0F8BDE808404FF48050E4
:10AF480000F030B800E100E070B5C1F30B0434BB89
:10AF5800B0F5FE2F23D84B1E1B0B020B03EB103151
:10AF680001264FF08040914201D2204670BD02F088
:10AF78001F03550906FA03F3032D05D8DFE805F08A
:10AF88000206090CC0F800360132ECE7C0F80436B6
:10AF9800FAE7C0F81036F7E7C0F81436F4E70724E4
:10AFA800E3E7000010B5044617480022C0F5FE216B
:10AFB800FFF7CAFF08B1FEF7B4FE01F0E3FB134B3D
:10AFC8009B6903F6FF7323F47F6323F00F030022CA
:10AFD80019181046FFF7B8FF08B1FEF7A2FEEFF305
:10AFE80005830023D4E9001283F3148883F31088BF
:10AFF80083F3118883F3138881F308884FF0FF33B4
:10B008009E46104710BD00BF00800700D47700207F
:10B0180037B56FF07F42154C057BD4F804358A426A
:10B0280028BF0A46891A13444A1E942A23F07F43EC
:10B0380005F5A8729BBF963B96314160416044F884
:10B0480022300B4B4FF4F86043F001039847094B4B
:10B05800AA00134400221A601B680193019B4FF455
:10B068008033AB40C4F8043303B030BD0040024025
:10B07800E0D907004041024018490A7884B0002A04
:10B0880029D14FF08043A020D3F81834DB035EBFEA
:10B09800134B01221A60134A0023136012680392AB
:10B0A800039A114A136012680292029A0F4A1360B7
:10B0B80012680192019A0E4A82F824031020506007
:10B0C8000C4A0D48C2F808350123036002201360BA
:10B0D800C2F804030B7004B0704700BF1060002072
:10B0E8000800004000410240404102404441024003
:10B0F80000E100E00040024008400240284B1A6886
:10B1080013B542B127490A6801320A6000221A6061
:10B118001B680093009B244B1A68A2B100221A6096
:10B1280022481B68027B0193019B4FF480339340B4
:10B138001F4AC2F808334168044601BB8168D9B97F
:10B14800236803B198471B4B1A6832B300221A6070
:10B1580016481B68027F0193019B4FF4803393408C
:10B16800134AC2F808334169044659B1103002B095
:10B17800BDE81040FFF74CBFFFF74AFFE0E7FFF7D5
:10B1880047FFE0E7816911B11030FFF741FF2369FC
:10B198001BB102B0BDE81040184702B010BD00BF97
:10B1A800044102400C600020404102407C590020CC
:10B1B800004002404441024070B50B4B1D682A7B99
:10B1C8004FF480339340094A0E46C2F808330446C8
:10B1D80040B1FFF751FF2E6021462846BDE8704078
:10B1E800FFF716BF70BD00BF9C5900200040024009
:10B1F80070B5074B1D6804460E46A860FFF73CFF74
:10B208002E6021462846BDE87040FFF701BF00BF09
:10B21800A0590020014B01221A70704711600020CC
:10B2280070B5154DEA6A6E6AAC6CAC2A13D16B6BBB
:10B238001C44F61AEB6AAC2B13D010483246214650
:10B2480002F096F9A8B100F04FF931462046BDE862
:10B25800704000F033BF002CECD101F0A9FA04468D
:10B26800E8E706483246A4F5804102F081F9002853
:10B27800E3D1002070BD00BFD47700200080070014
:10B288002DE9F74F06468846A8EB06052D0B02F672
:10B29800FF77144600F002F9082D28BF08252B0374
:10B2A800DFF868B001933F0B0CB9234629E0BD4293
:10B2B8002CBFBA46AA464FF000025146304634BF6A
:10B2C800DDF80490A14600F0E1FE0346C8B909F193
:10B2D800030222F003024146304600F0C9FE03464D
:10B2E80078B9DBF830304B44CBF8303001F09EF9B8
:10B2F800A7EB0A07A4EB09044E44C84403460028F8
:10B30800D2D0184603B0BDE8F08F00BFD477002034
:10B3180010B501F05DFA154A42F20403916CCC585D
:10B3280003F1A34303F5471303F2D7539C4218D103
:10B33800D2E90C32934216D0884204D1BDE81040BD
:10B34800002001F073B9D21A02F6FF7222F47F626C
:10B3580022F00F0219441844FFF792FF0028EDD09D
:10B3680010BD0320FCE70020FAE700BFD4770020D7
:10B3780070B5264CE36AAA2B37D005D8012B0BD021
:10B38800A52B2ED0002070BDAC2BFBD1FFF7C0FF42
:10B3980048BBFFF745FF26E0A66C656A01F0F2F9A5
:10B3A800864229D101F0EEF900222946FDF7F4F88A
:10B3B800A36A984202BF0123C4E90703A5610025D7
:10B3C800134801F0D3F9134B134800221A7001F007
:10B3D8002DF968B975B1236A012B14BF0120022029
:10B3E800D1E7FFF795FF0125EAE7FFF719FFE6E741
:10B3F8000320C8E70120C6E7236BEA1AF1181844AE
:10B40800FFF73EFF0028DAD1CCE700BFD477002051
:10B41800F8770020116000201DB2070040F6F87090
:10B4280008B50368013302D10749FEF7F9FA40F677
:10B43800FC700368013305D1BDE808404FF4FC21D6
:10B44800FEF7EEBA08BD00BF008007000A4AD2F82E
:10B4580000347BB109480023D2F80815D940C90740
:10B4680048BF03F5C07103F1010348BF42F821004A
:10B47800072BF1D1704700BF000001403546526EDE
:10B48800FFF7E4BF044B002282B01A601B680193E7
:10B49800019B02B0704700BF0001014038B50E4C57
:10B4A8002278BAB90D4BD3F800248AB1D3F80455E1
:10B4B800FFF7CCFF40F61650A842B8BF2846084907
:10B4C800A0F54860FFF794FE064B4FF480321A60EF
:10B4D8000123237038BD00BF126000200000014026
:10B4E80089B4070000E100E0034BD3F800340BB146
:10B4F800FFF7ACBF704700BF000001400C4B1B7842
:10B50800062B10D10B4B1B681A070CD10A4B186875
:10B5180000F0F003302B08D000F0E000A0F1400369
:10B52800584258417047002070470120704700BFBB
:10B53800E00F00F0E40F00F0E80F00F0094B1B7873
:10B54800062B0CD1084B1B681A0708D1074B186843
:10B5580000F0F000A0F13003584258417047002035
:10B56800704700BFE00F00F0E40F00F0E80F00F0B4
:10B5780008B5FFF7C3FF28B17D4B7E4A1B68C3F3AC
:10B5880004231360FFF7DAFF10B17B4B7B4A1A6084
:10B59800FFF7B4FF28B17A4B7A4A1B68C3F34233EA
:10B5A8001360FFF7CBFF20B1774AD36823F080738D
:10B5B800D360FFF7A3FF40B14FF080430022C3F8E8
:10B5C8000C21C3F81021C3F83825FFF7B7FF10B1D5
:10B5D8006E4B03221A60FFF7B1FF40B16C4B052296
:10B5E8001A6001229A6700229A603F225A60694BCA
:10B5F8001B78062B50D1684B1B6819074CD1674B39
:10B608001B6803F0F003502B46D14FF08052644B77
:10B61800D2F80414C3F82015D2F80814C3F8241576
:10B62800D2F80C14C3F82815D2F81014C3F82C1546
:10B63800D2F81414C3F83015D2F81814C3F8341516
:10B64800D2F81C14C3F84015D2F82014C3F84415D6
:10B65800D2F82414C3F84815D2F82814C3F84C15A6
:10B66800D2F82C14C3F85015D2F83014C3F8541576
:10B67800D2F83414C3F86015D2F83814C3F8641536
:10B68800D2F83C14C3F86815D2F84014C3F86C1506
:10B69800D2F84424C3F87025FFF730FF28B1414B96
:10B6A800414A1B6803F04F031360FFF727FF48B1B7
:10B6B8004FF08043D3F80024D20744BF6FF0010253
:10B6C800C3F80024394B1B68062B08D1384B1B687C
:10B6D800062B01BF374A136843F480631360364A68
:10B6E800D2F8883043F47003C2F88830BFF34F8F24
:10B6F800BFF36F8F4FF01023D3F80022002A03DB2B
:10B70800D3F80432002B2FDA2C4B0122C3F804257E
:10B71800D3F80024002AFBD04FF010221521C2F8DC
:10B728000012D3F80024002AFBD04FF01023152272
:10B73800C3F80422214B1A46D3F800140029FBD081
:10B748000021C3F80415D2F80034002BFBD0BFF356
:10B758004F8F19491A4BCA6802F4E0621343CB6051
:10B76800BFF34F8F00BFFDE7164B174A1A6008BD9D
:10B77800240300104035014074C007400DF0ADBAF5
:10B78800440200103C050040F0ED00E0A005004038
:10B7980010560040E00F00F0E40F00F0E80F00F052
:10B7A80000C0004058020010E40E004030010010B4
:10B7B800340100103C17004000ED00E000E00140BB
:10B7C8000400FA05A45900200090D00313681F2B29
:10B7D80010B5144607D900220830FDF756FB08B902
:10B7E8002023236010BD48F21450FBE70830FDF712
:10B7F80029BB0830FDF7F6BA831F012B10B50446A4
:10B8080002D8002000F09AFF034B1B681BB12046AA
:10B81800BDE81040184710BD1460002008B5074B5C
:10B8280018600020FFF7E8FF054800F06FFF20B917
:10B83800BDE80840024800F0EFBD08BD14600020D4
:10B8480001B807006CDF70476DDF704772DF704723
:10B8580073DF704774DF704775DF704776DF7047B6
:10B868007ADF70477CDF70477DDF70477FDF704786
:10B8780086DF70478FDF704790DF7047A8DF70471B
:10B88800AADF7047ADDF7047AEDF7047B0DF7047A3
:10B89800B1DF7047B5DF704762DF704766DF70471A
:10B8A80013DF70477FB50023CDF80B308DF80F30CC
:10B8B8000A4BADF806109B89ADF8083001238DF8C6
:10B8C8000A300DF10603CDE90430054B02A91888AA
:10B8D800FFF7DAFF07B05DF804FB00BF82700020B5
:10B8E800AA59002001460148FCF775BF0CD707008C
:10B8F80070B518228CB000210DEB020001F094FE07
:10B908002823089316231E4CADF806300023CDE9F2
:10B918000333059302230926062223702371592332
:10B928000125A27063710322FE230DF10601A019FF
:10B938008DF818508DF82D500294ADF80C60657094
:10B94800E270A371FFF790FFB8B9BDF80630267210
:10B958005A19E271BDF80C200A4C134402A906AA30
:10B968002046ADF80C30FFF771FF30B92078FFF7AB
:10B9780071FF20782946FFF76BFF0CB070BD00BF40
:10B9880096700020A85900202DE9F0410388232B48
:10B998008AB0044636D80F2B05D8012B00F0F28068
:10B9A8000AB0BDE8F081103B132BF9D801A252F878
:10B9B80023F000BF3DBA070059BA0700A9B907002C
:10B9C80029BB070089BC0700A9B90700A9B9070066
:10B9D800A9B90700A9B90700A9B9070097BC0700CA
:10B9E800A9B90700A9B90700A9B90700A9B90700AB
:10B9F8005BBB0700A9B9070069BB0700A9B9070025
:10BA080019BB0700503B9AB2062AC9D8062BC7D8DB
:10BA180001A252F823F000BF81BA070099BB0700C2
:10BA280097BC0700A9B90700A9B90700D9BA070048
:10BA380079BB0700994B82881A80994A12681C467C
:10BA48000AB10120904797492088FFF705FFA7E72B
:10BA5800924B4FF6FF721A80934B1B685A0704D417
:10BA6800FFF746FF08B1FEF75CF98D4B1B68002B0A
:10BA780096D00220984793E78C4EE288B3889A4282
:10BA88008ED18B48FCF783FE0546002888D0228A91
:10BA980004F1120101F09FFD1822002104A801F011
:10BAA800C3FD08238DF81030824B0693824B059610
:10BAB800CDE9073504A8238AADF8243000F0A2FCAC
:10BAC80000283FF46DAF7A482946FCF784FE67E703
:10BAD800E188F6291AD8CB1E9B070DD0CB1F9BB245
:10BAE800013B5A4202F0030203F0030301F1FF3164
:10BAF80058BF5342C91A89B2684B1888FFF7CAFE63
:10BB080000283FF44DAFFEF70CF949E7F721F3E7BA
:10BB1800002204A98088CDE90422FFF7ADFEEFE7F3
:10BB280000235E4CADF812300223ADF810302088A7
:10BB380002AB04AA42F605210593FFF7A3FE08B15C
:10BB4800FEF7EFF8002320881A468521FFF78EFEBE
:10BB5800D6E7524B00F108011888FFF77DFECFE7C2
:10BB6800002304A98088ADF81030FFF783FEC7E7EB
:10BB7800A379002B7FF414AF484B13211888FFF7E3
:10BB88006DFEBDE7454B00211888FFF787FEB7E734
:10BB9800A379002B3FF404AF022B7FF401AF434994
:10BBA80020898A8990420E467FF4FAAEA27B012A48
:10BBB8007FF4F6AE00220120CDE904228DF81600AC
:10BBC800208A364DADF81800608AADF81A0004F1E5
:10BBD80014000790ADF80A20098A28888DF81030DB
:10BBE80001AF02AAADF808300397FFF74BFEA8464D
:10BBF80060B93846FFF77BF840B940F2FD13288852
:10BC0800ADF8143004A9FFF741FEC9E6002304A9E2
:10BC1800B8F80000ADF81430FFF738FE01460028E8
:10BC28007FF4BEAE182204A801F0FEFC237D214A51
:10BC38008DF81030022B0596069218D0062B10D0DE
:10BC4800012B10D11D4B1A881D4B1A80637DD4F827
:10BC580016200893012B099205D11A4800F06EFDB1
:10BC680001E0637D089304A800F0CCFB98E6A27D70
:10BC7800637D43EA0223114A1380114A1380F2E7D5
:10BC880000231A4619468088FFF7F2FD38E700239B
:10BC9800A0881A461946FFF7FBFD31E7AA5900208C
:10BCA800BC700020D6DB0700B8700020827000202E
:10BCB8000CD707003DBD0700EDB80700C070002095
:10BCC800C2700020F8D60700154938B50B6802463F
:10BCD80013F0010022D0134882421ED0124A108865
:10BCE8004FF6FF72904213D043F004030B60132108
:10BCF800FFF7B4FD90B90D4DC82445F001054FF488
:10BD08007A40A847013CFAD1BDE8384001F004BBAD
:10BD1800074B1878FFF79EFDF6E7002038BD00BFF7
:10BD2800B8700020F8D60700AA590020D0DB070019
:10BD3800A859002010B5044686B000210D2202A89B
:10BD4800019101F071FC2378082B0BD1364A374951
:10BD580013880988013B9BB21380D9B1D3B9032357
:10BD680011802370627823788DF805306021012ACC
:10BD78008DF804108DF806200ED00B2A12D100F091
:10BD880093F98DF80700002000F088F9042101A834
:10BD9800FFF788FD06B010BD062B05D0082B29D06B
:10BDA800032B27D00321F2E7E1688DF80710D4E9C7
:10BDB8000123080A8DF80800080C090E8DF80A10EE
:10BDC800110A8DF80B208DF80C10110C120E8DF83D
:10BDD8000E201A0A8DF80F308DF810201A0C1B0E41
:10BDE8008DF80D108DF809008DF811208DF812309E
:10BDF8000F21CCE7D4E90123110A8DF807208DF82B
:10BE08000810110C120E8DF80A201A0A8DF80B3042
:10BE18008DF80C201A0C1B0E8DF809108DF80D20CA
:10BE28008DF80E300B21B2E7C2700020C0700020E0
:10BE38002DE9F043444B95B005464FF6FF721A8042
:10BE480001204FF659632A4602A98DF80A00ADF879
:10BE58000830FFF713FD0446002871D13B4B04AAB4
:10BE680003F11007164618685968144603C40833C6
:10BE7800BB422246F7D1A91C3046FFF70DFD044608
:10BE880000285DD101461C220DA801F0CDFB9DF8CC
:10BE98003430ADF8044043F004038DF83430022305
:10BEA800ADF80C30AB788DF80E3004F0F80343F0A1
:10BEB80003038DF80630F423CDE90A44ADF82C309D
:10BEC8002B4601AE33F8040B0C944FF0110903AF65
:10BED80008AA0DA9CDE908768DF80590FFF7D0FCE2
:10BEE800A046044660BB01461C220DA801F09CFB3D
:10BEF8009DF83430ADF8044023F0180343F01803DC
:10BF08008DF834300123ADF80C30AB788DF80E3055
:10BF18001723CDE90A44ADF82C302B4608F0E80881
:10BF280033F80C0B0C9448F0130808AA0DA9CDE9B6
:10BF380008768DF805908DF80680FFF7A1FC044679
:10BF4800204615B0BDE8F083AA590020BCDB0700E5
:10BF580030B5334C236813F0010585B05DD1314B02
:10BF680018603148FCF7FCFB029500F0B8F800288F
:10BF78004CD12E48FFF794FC002847D101F08EF9E8
:10BF8800002843D102A801F057FA00283ED102A99F
:10BF9800012001F05BFA002838D102A801F0BEFAAE
:10BFA800002833D100F08AFB30B1214800F07AFB39
:10BFB800236843F002032360112302A88DF804309C
:10BFC800FFF742FC10BB9DF8093002A801338DF839
:10BFD8000930FFF737FCC8B923689B0718D51449FF
:10BFE8008869043182B201A8FFF73CFC70B9114896
:10BFF800FFF736FC50B91048FFF71AFF30B9FFF7C2
:10C0080077FC18B9236843F00103236005B030BDFD
:10C018000A4801F03CFB0949E4E70020F6E700BFC5
:10C02800B8700020BC7000200CD707000080070003
:10C0380018600020D6DB070082700020B4DB070000
:10C0480043690BB1C06818477047000010B4054930
:10C05800054C0022904218BF214604485DF8044B65
:10C06800FCF7D3BB70D707009CD70700685900209E
:10C0780007B5009313460A4601460348FCF7C9FB77
:10C0880003B05DF804FB00BF6859002013460A4658
:10C0980001460148FCF7C4BB68590020014B1870E1
:10C0A8000B207047C4700020024B002218781A70C9
:10C0B800704700BFC470002018DF704730B585B0E6
:10C0C800054610220C466846002101F0ADFAA40886
:10C0D800684601950294FFF7EFFF05B030BD1FB524
:10C0E8000023CDE901330393684602230093FFF749
:10C0F800E3FF05B05DF804FB4FF000534FF48052A6
:10C108001A60002070470000014B06201B68184782
:10C11800D07000200A2803D90B38C0B2FFF7BEBF81
:10C128007047000010B5044686B00020FCF780FB7D
:10C13800014630B1164A18212046FCF75DF906B0D1
:10C1480010BD1822684601F06FFA0423114A8DF8D1
:10C158000030114B116D1B68994211D10F4B1868B3
:10C1680000F066FF8DF80100FFF7D4FFD4E9011352
:10C178008DF8010068469847094800F057FADEE74D
:10C1880001238DF801306846D4E901139847D6E7B2
:10C198002DC10700D4770020C8700020CC70002083
:10C1A80011C10700F0B5044687B01822002168467F
:10C1B80001F03AFA22788DF8002001238DF8013039
:10C1C800531E0B2B00F21281DFE813F01D00100044
:10C1D8001D001D0010011D0010011D00100110019F
:10C1E80010010C00824B07201B689847D4E9011303
:10C1F800684698479DF80130012B00F0EC807C4B95
:10C2080005201B68E6E0062A7A4901D0012A01D1F7
:10C2180022690A700A78012A04D0022A53D000231E
:10C228000B7093E0072BE1D801A252F823F000BF6E
:10C2380059C20700F5C10700C3C2070097C207002B
:10C24800F5C10700BDC20700F5C1070071C20700AC
:10C25800674B03201B689847606900F0D1FCFFF723
:10C2680059FF8DF80100C1E7A18A206900F0E0FCC0
:10C27800FFF750FF604B8DF80100DA6B1B6C0293DF
:10C28800E3680192002BB1D020699847AEE75B497B
:10C298005B4800F01BFDFFF73DFF01288DF801000A
:10C2A800A4D1002000F0C2F900289FD00A238DF8FD
:10C2B80001309BE74FF4007303934F4BDA6B1B6C11
:10C2C8000192029392E7072B90D801A252F823F02B
:10C2D800F9C20700F5C10700AFC30700B9C30700DB
:10C2E800F5C10700E3C30700F5C1070059C30700FC
:10C2F80000F0BEFC08B90823D9E762690AB903232C
:10C30800D5E7C2F30B0333B13B4B3C495B6D09687E
:10C3180013448B42F3D1B2F5805F01D90423C6E7F9
:10C32800354B3649586D096815188D42E3D85A645B
:10C33800DA6C9A6418651863314B1B680022012176
:10C348001844FFF7A3FE00283FF450AF0523AEE7DB
:10C3580000F08EFC0028CED0274DA18AD5E91432F2
:10C368009B1A6A6C0B449342C9D8254B2F6B1B68E8
:10C37800206905F148021F44FCF70EF9E368A28A18
:10C38800216906463846FFF773FE08B1E3687BE784
:10C39800A38A2A6BAE641A442A632A6D0296134450
:10C3A8002B65019322E7144B9A6C02921B6DF8E7F8
:10C3B800114BD3E91402596C821A8A429BD19A6CA8
:10C3C8005865002120465964DA64FFF7ABFE084B34
:10C3D8001B680420984707B0F0BD074B9A6C1B6D8B
:10C3E80001934FF4805302920393FFE602235EE722
:10C3F800D0700020AC590020D4770020C8700020ED
:10C40800CC70002083681BB1024A1821FBF7F4BFE7
:10C4180007207047ADC1070038B50546C0B10120F7
:10C42800FFF714FE044648B900F0DCFB00F020FCDE
:10C4380030B9084B00201D60FFF730FE204638BD9C
:10C448000549064800F042FC0128F2D00324F5E72C
:10C458000724F3E7D0700020C8700020CC700020BB
:10C468002DE9F04115464FF46072064688461F468E
:10C4780001F07EF828B915B90020BDE8F081A84779
:10C48800FAE7002201213046FFF700FE70B94FF4A9
:10C4980060724146384601F09EF82B464FF46072B0
:10C4A80039463046FFF7E4FD0028E5D00320E4E7ED
:10C4B8002DE9F0413D4C236801335CD0002258211E
:10C4C800201DFCF769F8D4F80080A8EB0002D2F12F
:10C4D800000848EB0208364D364E2F683B6801339A
:10C4E8005ED000225821381DFCF756F83B6883427D
:10C4F80044D17C68012C0AD00022C32107F51870AA
:10C50800FCF74AF8D7F85C42231A5C425C41B8F160
:10C51800000F35D0254927484FF4607201F05BF8C9
:10C5280064B1296824485422043101F054F8296878
:10C5380022484FF432725C3101F04DF87468012CD6
:10C548002CD11F49402201F5E47001F044F81D493F
:10C558001C2201F5E47001F03EF81B4986F8A1425F
:10C568000023042201F2862086F8603286F8E2323F
:10C5780001F031F810E04FF00008ACE70024C6E7FE
:10C5880024B129680B484FF46072D5E709484FF485
:10C598006072002101F048F802237360BDE8F08161
:10C5A800B8F1000FF2D00024B4E700BF00F0070094
:10C5B800B0590020D4770020D877002030780020A8
:10C5C8003079002070790020F077002070B50C4C8D
:10C5D800054600225821201DFBF7DEFF00222060BF
:10C5E800C32104F51870FBF7D7FF2A46C4F85C028C
:10C5F8002146044B0448BDE87040FFF731BF00BF37
:10C60800D4770020D470002000F0070002460248CA
:10C61800024B0068FFF724BFB05900205474002073
:10C628000149FFF7F3BF00BF00F0070038B5054622
:10C638000020FFF7CBFF044618B903492846FFF747
:10C64800E5FF204638BD00BFD477002010B5FFF7BE
:10C65800FDFC044628B9FFF72BFF2046FFF7E6FF4D
:10C6680000B1032010BD29DF7047000038B50C4D1C
:10C678000446D5F8643378B101330FD1002218216C
:10C688000430FBF789FF21462060072205F5597021
:10C69800BDE83840FFF7E7BF0E2038BD0820FCE7AB
:10C6A80000F0070008B528B103491C2200F093FFE9
:10C6B800002008BD0E20FCE764F3070010B5064C07
:10C6C800002218212046FBF767FF54F8043C1B1A88
:10C6D8005842584110BD00BF68F3070010B50A4C16
:10C6E800D4F82433D4F864231340013309D04FF429
:10C6F800FE20FDF77DF9C92221464FF4FE20FDF703
:10C70800A5F9002010BD00BFD4770020F8B5094E68
:10C71800094CA41B0746E4080025A54201D10020C6
:10C72800F8BD56F83530384698470028F8D1013515
:10C73800F3E700BFF8D6070000D70700F8B5094EA1
:10C74800094CA41B0746E40800250436A54201D17C
:10C758000020F8BD56F83530384698470028F8D1FB
:10C768000135F3E7F8D6070000D7070008B50C2213
:10C77800002100F059FF024B00221A6308BD00BFD8
:10C78800D477002043F204031A68084B9A4201BF89
:10C7980043F20803186800F6FF7020F47F600CBFAE
:10C7A80020F00F004FF48050704700BFDBE5B15117
:10C7B80008B5FFF7E7FF054B9B69184400F6FF70C3
:10C7C80020F47F6020F00F0008BD00BFD477002060
:10C7D8004FF48050704700002DE9F74F0193244B28
:10C7E800DFF894B01B6ADFF894900093054616466C
:10C7F8004FF0000843F2040AB8F1010F5FFA88F716
:10C8080014D0022F1FD0FFF7D3FF6EB1009B013B5E
:10C818005C425C41A9EB0000A84200D3F9B1B4B175
:10C82800A8421CD204201FE03446F3E7FFF7AAFF12
:10C83800019B33B9DAF80040B4EB0B0418BF0124AC
:10C84800E8E74446E6E701244FF48050E2E708F1C0
:10C858000108B8F1030FCFD1A842E3D300E017B124
:10C868000448FFF783FF002003B0BDE8F08F00BF46
:10C87800D4770020EC770020DBE5B15100500700A9
:10C8880090F8552012F0FB0F07D190F8643023B1CF
:10C89800836ECBB10B600120704712F0010303D007
:10C8A80090F8563003B1836D9207F2D590F85C206A
:10C8B800002AEED0054A006EC2F5FC22904201D84B
:10C8C8000344E6E7042070470F2070470080070004
:10C8D80010B5084C4FF40072FF21204600F0A4FE6A
:10C8E80020220021A4F1240000F09EFE002344F839
:10C8F8002C3C10BD307800205B68DA680D4B9A42FA
:10C9080030B508D10C490A6812B90C4A14681CB130
:10C918000B4B00221A7030BDD0E90134181913F9F5
:10C92800015B002DA0EB0304F9DB0B601460044BE2
:10C938000122EFE790DA07007C7B0020787B00205B
:10C94800807B002043F2040310B519491C688C420F
:10C9580002462BD042F20403C358581A43424341BB
:10C968008C42184621D142F20403D358A3421CD169
:10C978004FF4405302F500511B780978142B81BFFE
:10C9880043F214030B481B68B3FBF0F398BF002372
:10C99800142989BF42F2140100205058054A88BF63
:10C9A800B0FBF2F0181A18BF012010BD0023D7E71A
:10C9B800DBE5B15140420F002DE9FF472F49304DCB
:10C9C8008A6B304C304FDFF8D490DFF8D4A06E4635
:10C9D8005C313046FCF790FC96E80F0085E80F00C4
:10C9E80000212A4B39704FF447722046C9F80010CD
:10C9F800CAF80010EB6000F017FE254922462846C9
:10CA0800FCF715FF20B90027384604B0BDE8F087C9
:10CA18003F78002FF7D094F86C3194F800801BB35E
:10CA2800B8F1000FEFD194F87231002BEBD0DAF89F
:10CA38000020D9F800103046FCF75EFC96E80F009D
:10CA480085E80F004FF4B272414604F5BA7000F061
:10CA5800EBFD104904F5BA722846FCF7E8FE0028F9
:10CA6800D1D004F5BA7406E0B8F1000FCBD0A379A1
:10CA7800002BC8D00834084B1C60C5E7D4770020C9
:10CA8800A07E0020847B0020807B002001C9070055
:10CA980044DB070090DA07005C7F00207C7B0020E5
:10CAA800787B002000B591B0FDF7BCF868460849CE
:10CAB8002022FDF7EAF86A46064907484023FDF7B1
:10CAC80009F8064B01221A7011B05DF804FB00BF8B
:10CAD800F0D80700B07E0020BCD80700547B0020A7
:10CAE800F0B5A3B007460D4614461E46782220230B
:10CAF800002104A8029300F097FD00230393194B2B
:10CB08001B780BB9FFF7CEFF2DB337BB02AB164F1F
:10CB180001931649289B0097324604A8FDF768F848
:10CB2800E8B9402C1BD1124E22462946304600F067
:10CB380052FD20213046FDF7B4F8CDE90064029B90
:10CB48000C493A4603A8FCF7E1FF00280CBF012076
:10CB5800052023B0F0BD1320FBE71620F9E70A20D3
:10CB6800F7E700BF547B0020F87E0020E8D90700D3
:10CB7800187F0020B07E0020F0B5ABB004460D460B
:10CB880016461F467822202300210CA8039300F0A4
:10CB98004BFD114B1B780BB9FFF784FF2FB12146D2
:10CBA800202204A8FDF766F804AC03AB0B4F0193F1
:10CBB8000B49009733462A460CA8FDF719F848B9DF
:10CBC80020222146384600F0D3FCB0FA80F0400914
:10CBD8002BB0F0BD0020FBE7547B0020557B0020E4
:10CBE800E8D9070008B5044B986B08B1FFF7E4FED5
:10CBF800024B187008BD00BFD4770020587F002072
:10CC080010B5044658B1B0F5007F0AD8064B00228B
:10CC18001A70FFF75DFE054B01209C6310BD0320D1
:10CC2800FCE70420FAE700BF587F0020D4770020F3
:10CC380070B50E4C0646E06BA36B42189A420D463F
:10CC480011D85C300A462044314600F0C4FCE36B3E
:10CC580004F140022B4429463046E363FBF79CFC71
:10CC68002064012070BD0320FCE700BFD4770020BA
:10CC7800014B1878704700BF587F002013B5104C3F
:10CC880094F86C21B2B194F8D802B4F8DA2204F519
:10CC9800377104F5B8740B4B1B6800930A4B1B687B
:10CCA800FFF71EFF012809D1201D02B0BDE8104082
:10CCB80000F0C2B9114610460434ECE702B010BDCA
:10CCC800847B0020787B00207C7B00202DE9F843C2
:10CCD800224BD3E90E329A4206460D463AD1DFF886
:10CCE800848098F800704FB1FFF762FD1C4B3060EC
:10CCF80029461868BDE8F843FFF7C2BDFFF75CFE98
:10CD080050B3FFF7BBFF0128376004462F601ED1E0
:10CD1800134BD3F8009029464846FFF7B1FD012888
:10CD2800044614D199F85510012903468CBF0021F7
:10CD3800012128683A46FFF74FFD38B9FFF738FD5B
:10CD480088F8004030602046BDE8F8830424FFF7E7
:10CD5800BFFDF8E70824F6E70524F4E7D4770020B8
:10CD68005C7F0020587F002001237230FFF704BF4A
:10CD780013B50446084623781146032B03D8DFE889
:10CD880003F021050F18002002B010BD0022D4F8CE
:10CD98000140FBF701FC844214BF00200120F3E7A7
:10CDA8000A4600230146601C02B0BDE81040FFF7A8
:10CDB800E3BE009103464022611C0020FFF790FE6D
:10CDC8000128E9E70120DFE72DE9F041A2B0044698
:10CDD8000D461646002178221F4604A820230393F7
:10CDE8009DF8A08000F020FC41220021204600F0A0
:10CDF8001BFCB5F894300BB195F8968084F8008048
:10CE0800B8F1030F1ED8DFE808F00902111F00224D
:10CE180039463046FBF7C0FBC4F801003A463146B4
:10CE28002046FFF7A5FF22B0BDE8F08103AB0193D0
:10CE3800631C009308493B46324604A8FCF7D8FE19
:10CE48000028EBD00020EEE7B5F8982005F19A010C
:10CE5800601C00F0C0FBE1E7E8D907002DE9F047C6
:10CE68006D4B1D68A4B004460F4690460A4601461D
:10CE78002846FFF779FF002800F0CC8095F8556028
:10CE88001EBB4FF00109CDF800903B4622462946CB
:10CE980013A8FFF799FF00287FD0B8F1000F6DD0D5
:10CEA80041225E4813A900F096FB5D4B6A68C3F8FF
:10CEB8002C901E629A60002239462046FBF76CFBD4
:10CEC800574B0125C3E909709FE04122002102A8C0
:10CED80000F0AAFB06F001094122002113A806F080
:10CEE800020600F0A1FBB9F1000F4BD042F2040397
:10CEF800E15803F1A34303F5471303F2D7539942CB
:10CF08004BD1D5F858A00AF5FF520AF6FF73C3F3C0
:10CF18000B031F32D21A42F20803E35893423CD360
:10CF280043F204031B688B4213D14FF440531B7820
:10CF3800102B8ABF43F2100300221A6804F500532D
:10CF48001B78102B8ABF42F210030023E3589A4241
:10CF580023D12046FFF7F6FC00B1F6B10123009378
:10CF680022465346294602A8FFF72EFFA8B1AB6D0B
:10CF7800E218FB1A4EB9B8F1000F18D1284B012559
:10CF88005D6110E03B462246F4E70021009113A8BA
:10CF98002946FFF719FF0028EDD10525B8F1000F44
:10CFA80030D1FFF795FC284624B0BDE8F087DFF8BC
:10CFB8007080B9F1000F21D02046FFF7C3FC18B1EB
:10CFC80008F11800FFF7D2FB1648412202A900F029
:10CFD80002FB002E14BFAC23A523C8F82C30AB6D80
:10CFE800C8F83430002E3FF466AF0F48412213A929
:10CFF80000F0F1FA6B68C8F80C305CE7AA23C8F8AF
:10D008002C30EFE70948FFF7B1FBFFF761FC044B51
:10D018009C64C8E71725C1E75C7F0020757A00206B
:10D02800D4770020347A0020B67A0020F8770020E0
:10D038000122FFF713BF000090F85420F0B5034613
:10D04800002A51D090F8550003284DD893F86E2047
:10D05800032A47D11A7A002A46D0DA68342A45D1F9
:10D0680043F204011A8A0C6821498C422AD152B130
:10D078005969E9B1D2B2002103F1140543F20C0653
:10D08800CCB2A24201D8122011E055F821703488A0
:10D09800A74201F10101F3D11A78FAB101285B68BE
:10D0A800144A15D89068834234BF10200120F0BD7F
:10D0B80010B9012AE7D8EFE7421E18BF0122002A5B
:10D0C800EAD1E0E712B15A69002ADCD11A78F6E70A
:10D0D800D06883428CBF01201020E8E7012818BFE0
:10D0E8000F20E4E71420E2E70F20E0E71120DEE755
:10D0F800DBE5B151D477002038B1054B0360054B0F
:10D10800436001230372002070470E20704700BF60
:10D1180047D1070021D1070069B10B78022B0CD148
:10D12800022804D0032814BF0820112070470323C5
:10D138000B70002070470E2070470820704710B50C
:10D148000C4681B10B78012B06D00ED9033B012B7D
:10D1580094BF0820112010BDFFF788FA0028FAD1E3
:10D1680002232370F7E70E20F5E70820F3E7000015
:10D1780070B5144B144A0C21D21AB2FBF1F2816932
:10D1880011F8025C044635B900690021914205D1C5
:10D19800012323600EE04FF0FF30F6E71E68AE4231
:10D1A8000CD1461C07D19D68D4E90001D4E90223BB
:10D1B800A847206070BD5E688642F4D001310C3308
:10D1C800E4E700BF00D707000CD707001EF0040FE4
:10D1D8000CBFEFF30880EFF30980FFF7C9BF00BF6A
:10D1E80010DF704711DF704713B5044609496846D8
:10D1F800FBF744FD019808B902B010BDD0E9002141
:10D208002046904718B16846FBF742FDF2E7112027
:10D21800F2E700BFE4DB070013B504460749684698
:10D22800FBF72CFD019B0BB902B010BD2046D3E9DA
:10D23800002190476846FBF72BFDF3E7FCDB07006E
:10D24800064B9A6822B11A6822F480021A60704765
:10D25800034B4FF48002C3F880207047C859002060
:10D2680000E100E00B4991F816335A09EC23134109
:10D27800DB0706D5084B9A683AB94FF480030B6070
:10D28800704742F20200FCF74CBD1A6842F4800273
:10D298001A60704700E100E0C8590020F7B5194F3F
:10D2A8003C7864BB184E012520463570FFF79CFF7B
:10D2B800112821D02046FFF7AFFF144B8DF803400B
:10D2C800186801900DF10300FBF72CF9104901A82B
:10D2D800FFF786FF0446B0FA80F0400938709DF8E1
:10D2E8000300FBF743F93CB90A4B34701C70FFF795
:10D2F800B9FF2846FFF790FF204603B0F0BD082489
:10D30800FAE700BF617F0020607F0020DEDB0700B6
:10D31800259D0700627F0020F7B5154F3B781BB3AA
:10D32800144E01203070FFF75FFF11284FF0000501
:10D338001CD00220FFF770FF0DF107008DF8075091
:10D34800FBF7F0F8FFF74EFF04469DF807003D7025
:10D35800FBF70CF92CB93470FFF772FF0320FFF7C5
:10D368005BFF204603B0F0BD0824FAE72C46F8E737
:10D37800617F0020607F0020054B1B7833B1054B8F
:10D388001B780BB1FFF7C8BFFFF788BF08207047AD
:10D39800607F0020617F0020014B1878704700BF34
:10D3A800617F002007B508496846FBF767FC019BC9
:10D3B80013B903B05DF804FBD3E900209047684631
:10D3C800FBF766FCF3E700BFF0DB0700FFF7EABFF7
:10D3D80060DF704769DF704761DF704730B5114D16
:10D3E800ADF5017D4FF4FA740DF1020103A8ADF813
:10D3F8000240FFF7F1FF70B9294601A8FBF73EFC90
:10D40800029B002BF0D003A8D3E90021904701A884
:10D41800FBF73EFCF4E7052801D0FCF782FC0DF58C
:10D42800017D30BD08DC0700024B1B780BB1FFF70C
:10D43800D5BF7047637F002018B1034B03600020FD
:10D4480070470E20704700BF68590020F0B50746A6
:10D4580085B00D4600295DD02F4B0B600C220021B2
:10D4680001A800F0E1F8012606232A68ADF8083083
:10D4780001A920208DF804708DF80660FFF7AAFF37
:10D488000C22002101A800F0CFF800242A688DF8AA
:10D49800056001A94020ADF80640FFF79BFF0C226C
:10D4A800214601A800F0C0F8F7232A68ADF8063035
:10D4B80001A923208DF80470FFF78CFF0C22214668
:10D4C80001A800F0B1F82A688DF8046001A9304677
:10D4D800FFF780FF0C22214601A800F0A5F84FF4C1
:10D4E800B0632A68019301A9A120FFF773FF0C22FA
:10D4F800214601A800F098F89DF804302A6864F3E2
:10D50800000301A9A0208DF80430FFF763FF20462F
:10D5180005B0F0BD0E20FBE76859002008B5FFF7FD
:10D5280057FF10B9014B01221A7008BD637F002014
:10D538004BDF70471FB50D4C01A8FFF7F9FF70B915
:10D54800214602A8FBF79AFB039B002BF4D0019815
:10D55800D3E90021904702A8FBF79AFBF4E70528D6
:10D5680001D0FCF7DEFB04B010BD00BF14DC0700DF
:10D578007AB370B414460F2A15D902460B4640EA0E
:10D58800010515F0030F01D0013C0EE019461046C5
:10D598000432043306680D68AE4204D110461946B9
:10D5A800043C042CF2D8013C0ED00A46034604443D
:10D5B800114618460133013206780D78AE4203D180
:10D5C80018461146A342F3D100780B78C01A70BCF4
:10D5D800704700207047844640EA010313F0030FA8
:10D5E80018D18446202A0BD32DE9F007B1E8F807B3
:10D5F800A0E8F807A2F12002202AF7D2BDE8F00738
:10D60800042A07D351F8043B40F8043BA2F1040272
:10D61800042AF7D2002A05D011F8013B00F8013B93
:10D62800013AF9D1604670478446002A2DD010F09F
:10D63800030F04D000F8011B013A26D0F7E7C9B25E
:10D6480041EA012141EA0141202A12D3A2F1200234
:10D658002DE9F0030B460C460D460E460F4688464C
:10D668008946A0E8FA03203AFBD2BDE8F00320324D
:10D678000BD0042A05D340F8041B043A05D0042A29
:10D68800F9D200F8011B013AFBD16046704700F15E
:10D69800010110F0030F11D010F8012B002A23D03C
:10D6A80010F0030F0AD010F8012B002A1CD010F03C
:10D6B800030F03D010F8012B002A15D02DE97000B4
:10D6C8004FF001324FF0803350F8044BA4EB0205C1
:10D6D80025EA04051D4000D1F6E7A0F1040070BC5E
:0ED6E80010F8012B002AFBD1A0EB01007047C7
:08D6F80059BF0700D1BC070077
:0CD70000000000000300000001D1070041
:10D70C003460002070700020817000203C6000208C
:04D71C00F400000015
:08D7200091B9070000000000B0
:08D72800A98B070000000000BE
:10D7300031D40700000000003DD5070000000000C4
:08D74000E98907000000000068
:08D74800058B07000000000042
:10D75000000000000000000049C0070000100000A9
:04D7600000000800BD
:10D764000010000004000000010000008188070090
:10D77400A5880700B588070025890700C588070024
:10D784008D88070091880700958807000010000025
:10D7940004000000010000002D8A07000D8A070024
:10D7A400FD890700358C0700E98B0700D189070044
:10D7B400D5890700D9890700982F8A429144377187
:10D7C400CFFBC0B5A5DBB5E95BC25639F111F15900
:10D7D400A4823F92D55E1CAB98AA07D8015B831242
:10D7E400BE853124C37D0C55745DBE72FEB1DE80EE
:10D7F400A706DC9B74F19BC1C1699BE48647BEEF1D
:10D80400C69DC10FCCA10C246F2CE92DAA84744AA7
:10D81400DCA9B05CDA88F97652513E986DC631A81D
:10D82400C82703B0C77F59BFF30BE0C64791A7D5FC
:10D834005163CA0667292914850AB72738211B2E84
:10D84400FC6D2C4D130D385354730A65BB0A6A766C
:10D854002EC9C281852C7292A1E8BFA24B661AA878
:10D86400708B4BC2A3516CC719E892D1240699D688
:10D8740085350EF470A06A1016C1A419086C371E01
:10D884004C774827B5BCB034B30C1C394AAAD84EDF
:10D894004FCA9C5BF36F2E68EE828F746F63A5781A
:10D8A4001478C8840802C78CFAFFBE90EB6C50A4AD
:10D8B400F7A3F9BEF27871C64800280000204000A2
:10D8C40021AA0700D79307007B930700C39807009A
:10D8D4003599070055990700C19207008192070006
:10D8E400579807000000000011121314AD3F39C20D
:10D8F400861BE0B7A561B8532DD1F124BC000D53AC
:10D904009CDFE885FCAAF860E1511FFB499461F7AC
:10D91400E485C82C66340A4EB8DF85F14C39C62C30
:10D924008CFC07C901DC6E90887C36F1082000016C
:10D93400FFFFFFFFFFFFFFFFFFFFFFFF00000000EF
:10D94400000000000000000001000000FFFFFFFFD6
:10D95400512563FCC2CAB9F3849E17A7ADFAE6BC8D
:10D96400FFFFFFFFFFFFFFFF00000000FFFFFFFFBF
:10D9740096C298D84539A1F4A033EB2D817D037765
:10D98400F240A463E5E6BCF847422CE1F2D1176B00
:10D99400F551BF376840B6CBCE5E316B5733CE2BD3
:10D9A400169E0F7C4AEBE78E9B7F1AFEE242E34F02
:10D9B4004B60D2273E3CCE3BF6B053CCB0061D653F
:10D9C400BC86987655BDEBB3E7933AAAD835C65AC8
:10D9D400F3A3070045A50700A9A507000338FDD850
:10D9E40070470000FBB70700F5B70700D5B707007D
:10D9F4002000000078000000000000000100010089
:10DA0400000000000100000000000000020005000A
:10DA140001000000420000000000000000000000BF
:10DA240000000000000000000000000001001100E0
:10DA34000100FFFF010000000000000002001700C9
:10DA44000200FEFF6401000090DA070000000000FD
:10DA540000000000000000000000000001000100C0
:10DA640000000000010000000000000002000500AA
:10DA7400010000002200000000000000000000007F
:10DA84000000000000000000000000000100110080
:10DA94000400FCFF0400000000000000020011006C
:10DAA4000400FCFF0400000000000000030021004B
:10DAB4000400FCFF0400100000000000040011003A
