:1000000000000120750300005D0300007D11000069
:1000100061030000630300006503000000000000AE
:100020000000000000000000000000006703000066
:1000300069030000000000006B0300006D03000076
:10004000651B00006F030000C12100006F0300006A
:100050006F030000E11F00006F0300006F0300004A
:100060006F0300006F0300006F0300006F030000C8
:100070006F0300006F0300006F0300006F030000B8
:100080006F0300006F0300006F0300006F030000A8
:100090006F0300006F0300006F0300006F03000098
:1000A0006F0300006F0300006F0300006D2300006A
:1000B0006F0300006F03000000000000000000005C
:1000C0006F0300006F0300006F0300006F03000068
:1000D0006F0300006F0300006F03000000000000CA
:1000E0000000000000000000000000000000000010
:1000F0000000000000000000000000000000000000
:1001000000000000000000000000000000000000EF
:1001100000000000000000000000000000000000DF
:1001200000000000000000000000000000000000CF
:1001300000000000000000000000000000000000BF
:1001400000000000000000000000000000000000AF
:10015000000000000000000000000000000000009F
:10016000000000000000000000000000000000008F
:10017000000000000000000000000000000000007F
:10018000000000000000000000000000000000006F
:10019000000000000000000000000000000000005F
:1001A000000000000000000000000000000000004F
:1001B000000000000000000000000000000000003F
:1001C000000000000000000000000000000000002F
:1001D000000000000000000000000000000000001F
:1001E000000000000000000000000000000000000F
:1001F00000000000000000000000000000000000FF
:10020000354936480A1A02D0072291438D463449AF
:1002100034480A1A06D00722914381F30988022242
:1002200082F3148830483149314A00F044F83148AB
:100230003149324A00F03FF831483249324A00F041
:100240003AF832483249334A00F035F832483349F7
:10025000334A00F030F833483349344A00F02BF881
:1002600033483449344A00F026F8344834490022EF
:1002700000F02CF833483449002200F027F83348C6
:100280003349091A082902DB002202604160314A21
:1002900090471F481F49884205D00268043003B4C4
:1002A000904703BCF7E700208646EC46002000217B
:1002B000294A9047FEE7884207D0521A05D00378B2
:1002C00001300B700131013AF9D17047884202D0F8
:1002D00002700130FAE770470000012000E00020C2
:1002E0000000012000000120385100000000002023
:1002F00044000020D0030000D00300001845000097
:10030000385100000000002000000020844500005B
:1003100084450000844500008445000084450000B9
:1003200084450000844500008445000036510000EB
:100330007C510000440000204400002044000020C4
:10034000542000205420002054200020542000205D
:10035000544000209D030000312E0000FEE7FEE720
:10036000FEE7FEE7FEE7FEE7FEE7FEE7FEE7FEE765
:1003700000F002B8FFF7FCBF0F484FF007018843B9
:1003800085460E4880470E48016841F470010160BF
:10039000BFF34F8FBFF36F8FFFF732BF09480A4992
:1003A0000A4A884207D0521A05D0037801300B70F0
:1003B0000131013AF9D170470000012035310000C8
:1003C00088ED00E0844500000000002000000020CF
:1003D0007047000007B5044B0093044A402300F027
:1003E00032F803B05DF804FBF10300004500002083
:1003F0002DE9F84388461446B2B10F4B0F4E032542
:10040000002743F00109224608EB0701002002F013
:1004100021FE0744241A48B933782BB14FF47A40AF
:10042000C847013D02D13570BDE8F8830123337020
:10043000002CE8D1F8E700BF904500004400002000
:10044000704702F03BBEF0B595B01D461646084613
:100450000C4601F02BFA1A9B0D93CDE90865002597
:100460002B46082205A920460A958DF82C500C959C
:1004700001F039FA079B0293069B03939DF8143011
:100480008DF8115003F00302012A1DD1BDF814208C
:10049000059DC3F3C203C2F383168DF81030B2007A
:1004A00008230EA9204601F01EFAC5F3952508ABD6
:1004B0000093324602AB0EA9284600F05DFB2046B1
:1004C00001F0F8F915B0F0BD022AF8D1BDF81650C8
:1004D000C3F3C203C5F389158DF810300827082D22
:1004E0002E4628BF08263B4632460EA9204601F07C
:1004F000FAF9AD1B08AB02AA31460EA8374400F04A
:100500009FFB002DEBD1DAE708B5FFF79AFF04480F
:10051000042100F099FA034B01225A7108BD00BF73
:100520006045000000000020037813F0040216D09C
:1005300003F00303012B03D0022B09D001207047E5
:100540000A6800880232C0F3831002440A60F5E7AB
:100550000B684288023303EB92130B60EEE7104600
:10056000704700002DE9F04F044685B0861C00203E
:100570000F46154600F0FEFD454801683960D0E998
:100580000132134401335B1A824600F21C4700F526
:10059000836900F21448B3421BD30020002D72D0AF
:1005A00004F00F039B0143F0050363F30F00DAF837
:1005B0000020DAF808301340033316444AF82300C9
:1005C0000020CAF8006000F0D7FD012005B0BDE8AA
:1005D000F08F0121384600F09CFE484600F0B1FE45
:1005E000404600F0AEFEDAF80400DAF808B00090F9
:1005F00000EA0B0003300AEB80006946FFF794FF26
:10060000009B50BB0BEA03020AEB820203F1020CCF
:10061000D2680192013303EA0B0B0AEB8B0B02F059
:100620000302012ADBF80C10CDF800C023D0022A07
:1006300016D08346404600F087FE10B1009BCAF8F2
:1006400004305946384600F064FEDAE901231344C9
:10065000DAF8002001339B1A9DE70BEA0300C9E793
:10066000BDF80630C3F3891303334FEA114B0CEB8B
:1006700093030093DEE7BDF80430C3F383134FEA1E
:10068000114B6344F5E7A40544F006008FE700BF73
:10069000580100200B4B0C48FF2210B59A60002235
:1006A000C3F81824C3E90022C3F8142483F82024D3
:1006B00001F0B5F8044610B9044801F01EF92046CF
:1006C00010BD00BF5801002070450000CC4500005F
:1006D00030B50A4C71B10A4A0A49121BD2080023EC
:1006E0009A4201D1002030BD31F82350854202D01A
:1006F0000133F5E7034654F83300F4E718450000EA
:100700006045000000000020094B013903EBC000E8
:10071000032909D8DFE801F00A0204060420704723
:100720000079704740797047002070470220704779
:1007300018450000034BD3E90030C31A5842584112
:10074000704700BF580100202DE9F04385B0FFF746
:10075000F1FF0646002840F0F5807B4DC5F81804EF
:10076000BFF34F8F6B68AC6800932340033305EBF6
:1007700083006946FFF7D8FE009B18B1D5F818240E
:10078000002A5FD004EA0302991C013305EB8202C0
:10079000234005EB8303D268DB68029302F0030376
:1007A000022B0192009160D1BDF806306748C3F377
:1007B0008917502FB84628BF4FF0500868F38F13A1
:1007C00008F10801ADF8063001F041F806460028AE
:1007D00000F0A38001F06AF80023082201A9304646
:1007E00001F077F8009924EA01020132B8EB820F98
:1007F0004FEA820332D95FFA88F85BB32140DCB25A
:10080000A8EB040803315FFA88F9A046504C05EBC9
:10081000810108234246304601F05BF834B108F10B
:1008200008034A462146304601F053F8009B03373F
:1008300003EB97070097D5F81834002B49D1D5F86A
:10084000104459E02A689A428FD86A60304605B051
:10085000BDE8F0833E491C469946DAE70C40E11CAE
:100860000823424605EB8101DDE7012B55D1BDF898
:1008700004303648C3F38311062928BF062161F3EB
:10088000891302318900ADF8043000F0E0FF06461C
:10089000002842D001F00AF80023082201A93046BE
:1008A00001F017F80027BDF80420C2F38312BB0043
:1008B000974203F10803BED200994A1C214003313C
:1008C000009205EB81010422304601F002F8013765
:1008D000E9E7304600F0EEFFFFF72CFF80F0010063
:1008E000C6B2B3E7E3685B7923B1236831461B687E
:1008F00020469847E3681C68002CF3D1304600F08E
:10090000D9FF204600F036FCD5F818340BB9009B0F
:100910006B60002000F030FCDEE7D5F8104454B9DD
:100920000C4B0D480D49C01AC008000440F00200ED
:1009300000F062F8D0E7236820469B689847E36898
:100940001C68ECE7002681E7580100207045000094
:10095000640100201845000048450000B44500002F
:100960002DE9F74F224D04460F46924601A9012278
:100970001846D5F808909B46FFF7F4FD20B3019E7A
:100980004FF00008B21CD84508EB020126D11948E7
:10099000002100F09BFC80F31000000440EA1440AA
:1009A000E400731C04F0380403EA090306EA0906AC
:1009B00044F0010405EB8303033644EA881444EA57
:1009C0008724D86045F8264095F820341BB1FFF7FE
:1009D000BBFE0028FBD103B0BDE8F08F09EA01019E
:1009E00005EB81015AF82830CB6008F10108CAE70D
:1009F000580100207405002000231A46FFF7B0BFFD
:100A000007B50123019201AAFFF7AAFF03B05DF821
:100A100004FB1FB5CDE90123069B039301AA032321
:100A2000FFF79EFF05B05DF804FB1FB5CDE900237D
:100A3000069B0293079B03936A460423FFF790FFEC
:100A400005B05DF804FB000030B50F49D1F8102463
:100A500003460020144634B9DC6820714AB9C1F855
:100A60001034226030BDE4682579854206D02468C0
:100A7000F1E7D268116821601360F3E701300A28BA
:100A8000E8D14FF0FF30EDE758010020094A38B5B2
:100A90000123D2F8104482F820341D4604B938BD31
:100AA000E3685D71236820465B689847E3681C68CB
:100AB000F4E700BF5801002007B503460846197A3D
:100AC000052911D05B7A2BB1094A0A49019000F03F
:100AD00095FC01980849019000F090FC019803B042
:100AE0005DF804EB00F07FBC002AF8D0F2E700BF0D
:100AF000D8450000DD450000FD45000030B5C38845
:100B000085B004460D4633B1144A00921449154A83
:100B1000284600F073FC217A05291DD0637A4BB179
:100B2000A088FFF7F1FD104B104953F8202028460C
:100B300000F064FC227A0E4BA08853F82220039226
:100B40000021FFF7C5FD039A0A490346284605B070
:100B5000BDE8304000F052BC05B030BDD8450000C3
:100B6000E8450000E045000064460000DD45000067
:100B700088460000004600002DE9F04385B01F467E
:100B80000C9D002395F80C902B7306460C4690465E
:100B900029463846FFF7B2FFB8F1060F09D8DFE85B
:100BA00008F00412181F283340003146284600F090
:100BB00025FC002229463846FFF77EFF85F80C9079
:100BC00005B0BDE8F08322683146284600F016FCE7
:100BD000EFE7D4E900233146284600F00FFCE8E7B0
:100BE000A36800933146D4E90023284600F006FCB0
:100BF000DFE7E3680193A36800933146D4E900235B
:100C0000284600F0FBFBD4E723690293E3680193D5
:100C1000A36800933146D4E90023284600F0EEFB98
:100C2000C7E76369039323690293E3680193A368A9
:100C300000933146D4E90023284600F0DFFBB8E7F3
:100C400008292DE9F74F80460E4617461C463CD82A
:100C5000002593F80C901D7319461046FFF74EFFC0
:100C6000DFF888A0DFF888B0AE4231D918F8052047
:100C70005946204600F0C2FB0135082DF4D1194930
:100C8000194DDFF870A0204600F0B8FB4FF0000BC4
:100C90005E4522D918F80B207E2A05D8104601920D
:100CA00003F054FB019A00B92E225146204600F071
:100CB000A5FB0BF1010BBBF1080FE9D10122214685
:100CC0003846FFF7F9FE84F80C9003B0BDE8F08FCA
:100CD0005146204600F092FBCEE72946204600F020
:100CE0008DFBE6E7144600001246000010460000A7
:100CF0000A46000016460000044B1A5C012393408C
:100D00004FF0A042C2F80C35704700BF9C4600006F
:100D1000044B1A5C012393404FF0A042C2F80835FF
:100D2000704700BF9C46000008B50020FFF7F0FFA9
:100D30000120FFF7EDFF0220FFF7EAFFBDE80840C2
:100D40000320FFF7E5BFC20708B501460CD54FF0F9
:100D5000A0430322C3F84427C3F84827C3F84C270D
:100D6000C3F85027FFF7E0FF8B070AD54FF0A043E9
:100D70000C22C3F83427C3F83827C3F83C27C3F83C
:100D8000402708BD1FB50021039001AA44F20100CD
:100D9000CDE9011100F004F805B05DF804FB000096
:100DA00038B5054672B6FFF771FEFFF7CDFC002897
:100DB000FBD1114B114C1249E41AE40824042A46D1
:100DC00044F00100FFF71CFE0E4B1B68DB0700D54B
:100DD00000BE0D4944F00200FFF70EFEBFF34F8F37
:100DE0000A490B4BCA6802F4E0621343CB60BFF3BD
:100DF0004F8F00BFFDE700BF1845000048450000C9
:100E0000A0460000F0ED00E0B146000000ED00E07B
:100E10000400FA0549B152B1531E1A4007D182604D
:100E200001608380C260104670470E207047092021
:100E3000704710B58468C2688388121B934208D338
:100E4000C26813400268D154C3680133C3600020F4
:100E500010BD0420FCE78268C3689A420AD0826809
:100E6000838813400268D35C0B708368013383600E
:100E70000020704705207047C368836000207047DA
:100E800070B5D8B1D2B18468C3681B1B14681360F5
:100E9000B3B1B9B1A34228BF2346CD188D4202D1C8
:100EA0001360002070BD8668848834400668345D15
:100EB00001F8014B846801348460EFE70E20F1E70C
:100EC0000520EFE70846EDE7F0B5F0B1EAB1846838
:100ED0008388C568013423445B1B14681360B3B175
:100EE000B9B1A34228BF2346CD188D4202D1136069
:100EF0000020F0BDC668848811F8017B3440066884
:100F00003755C4680134C460EFE70E20F1E70420D0
:100F1000EFE70846EDE700000648074A037807496F
:100F2000D35C012213B1043001F07CBE0C3001F01F
:100F300041BC00BF08000020600600203C060020E5
:100F40000648074A03780749D35C012213B10430ED
:100F500001F014BE0C3001F0DBBB00BF0800002024
:100F6000600600203D06002037B50578012D0BD026
:100F7000022D2ED065B91E491E48FFF76CFF0028D0
:100F800032D1FFF7DDFF03E0037A1BB9FFF7C4FF9F
:100F900003B030BD4368184C19782046FFF749FF6D
:100FA00080B18DF800500190144B68461B6898473B
:100FB000A168E368A2885B1A9A42E7D2104B01222B
:100FC0001A70E5E7A268E3689A42F1D08DF8000054
:100FD000EAE7C3688DF800500193FFF79DFF074BC8
:100FE00068461B689847D3E703238DF80030F6E77F
:100FF0003D0600202C0600201806002014060020C4
:1010000028060020F0B51F46234B89B004461A601D
:101010000D4600293DD08A8820480968FFF7FAFE6E
:10102000002834D1AA89A9681D48FFF7F3FE0028DB
:101030002DD11C4E0FCE6D460FC596E80F0085E8EA
:101040000F0063690693237C174A18488DF81C70BB
:10105000003B18BF01238DF81430637C002B14BFB4
:101060000E2300238DF81530E3680293A3680393E1
:101070002368019369466368009300F0F1FC30B97E
:101080000B4B18702368013301D0FFF745FF09B0FF
:10109000F0BD0720FBE700BF140600201806002063
:1010A0002C060020C0460000690F00000800002048
:1010B0002806002008B50548FFF7DEFE20B9BDE888
:1010C00008400348FFF7D8BE08BD00BF180600203F
:1010D0002C06002070B5084D014608482E78FFF711
:1010E000BAFE044636B100232B70FFF715FF08B196
:1010F000FFF748FE204670BD280600201806002095
:1011000010B501460E48FFF794FE0446A8B90D48F5
:101110000D4A0378D35C63B1043001F077FD60B908
:101120000A490748FFF797FE38B9BDE81040FFF7B6
:1011300007BF0C3001F032FBF1E7204610BD00BFC5
:101140002C06002008000020600600203D0600203C
:1011500072B6024A136801331360704740060020DC
:10116000034A1368013B136003B962B6704700BFBE
:1011700040060020FFF7ECBFFFF7F2BF1EF0040FA0
:101180001CBFEFF309800AE0EFF308800549064A27
:10119000884201D8904202D88D464FF00000034BA0
:1011A000184700000000012000E00020D5110000D9
:1011B000BFF34F8F0549064BCA6802F4E062134340
:1011C000CB60BFF34F8F00BFFDE700BF00ED00E035
:1011D0000400FA052DE9F3470546FFF757FCFFF732
:1011E000B3FA0028FBD12D4C2D482E4B241AE408CD
:1011F00024049F6A44F00104002D49D0AA692A49B9
:101200002046FFF7FDFBEB680193AB68274900938D
:101210002046D5E90023FFF708FCEB690093244939
:10122000D5E904232046FFF7F4FB1E4BDB6A990740
:1012300003D520492046FFF7DFFBDFF88890DFF871
:1012400088A000264FF0010808FA06F33B4206D0BA
:1012500059F826201AB151462046FFF7D1FB013636
:101260001A2EF1D13A0605D50E4B13495A6B20467A
:10127000FFF7C6FB3B0405D50A4B10499A6B204685
:10128000FFF7BEFB2846FFF793FF02B0BDE8F087EB
:101290000B492046FFF7B0FBC7E700BF58450000E9
:1012A0001845000000ED00E0E0460000F5460000B3
:1012B0002A47000085470000D4470000F44700009B
:1012C00052470000D04C0000C947000010B503464B
:1012D00053E8000F0A4643E8002494F0000FF7D1CA
:1012E00010BD10B5034653E8002F42EA010043E861
:1012F000000494F0000FF6D110BD10B5034653E87A
:10130000000F00EA010243E8002494F0000FF6D138
:1013100010BD10B5034653E8002F02EB010043E86F
:10132000000494F0000FF6D110BD10B5034653E849
:10133000002FA2EB010043E8000494F0000FF6D167
:1013400010BD0121FFF7CDBF0021FFF7D6BF10B5BB
:1013500090B1D0E9012301689B1ADBB20A60013B1E
:10136000DBB2FF2B026802D10020107110BD1168A2
:101370004C1C14600B70F2E70E20F7E738B50446FA
:101380000020FFF7F7FE226863681168994213D9BD
:10139000481E106011F8015CE368218A01FB0535E5
:1013A000A36811791B1ADBB2994200D21371002095
:1013B000FFF7E2FE284638BD0025F8E738B50546B8
:1013C00000200C46FFF7D6FE2A681368591C1160EE
:1013D000E968641A298AB4FBF1F41C70BDE838404E
:1013E0000020FFF7C9BE826810B504462AB14369E0
:1013F0000168006998470023A36010BD0EB403B5CF
:10140000039921B104AB01AA019300F077F802B06F
:101410005DF804EB03B070470A2938B504460D4661
:1014200002D10D21FFF7F8FFA3682268591CA160C3
:10143000D554D4E901329A4204D32046BDE838405D
:10144000FFF7D1BF38BD00002DE9F84F9846DDE920
:101450000A43154682460F460A464FF00109AA4242
:101460000FD2C14538BFC14613F0010B01D16CB991
:1014700000240126B8F1010F1BD908F1FF386E4393
:10148000F8E709F10109B2FBF5F2E8E79B070ED591
:10149000B8F1000F0CBF30262026A145E9D2013C4F
:1014A00031465046FFF7B8FF002CF6D1E0E7202682
:1014B000F3E7B7FBF6F39D42E1D9DFF83C80B7FBD9
:1014C000F6F3504618F8031006FB1377FFF7A4FF56
:1014D0003346AB42B6FBF5F6F1D2BBF1000F02D0BA
:1014E0000CB1A14501D3BDE8F88F20215046013C45
:1014F000FFF792FFF4E700BF384D00002DE9F74FEA
:10150000054617468846002900F0428118F8011B5D
:1015100049B92B7B002B00F03B81284603B0BDE886
:10152000F04FFFF760BF252940F0B780002698F8FC
:1015300000302D2B424608F1010823D0302B24D057
:101540002B2B25D000242A2B02F1010123D13B684B
:101550001A1D1B683A601C440A4613782E2B26D1AC
:1015600001324FF0000A104610F8011BA1F1300CB7
:10157000BCF1090F1DD80A2303FB0A13A3F1300A9B
:101580000246F0E746F00106D1E746F00206CEE754
:1015900046F00406CBE711F8013CA3F1300009281E
:1015A000DBD80A2202FB0434303C0A46CBE74FF07A
:1015B000000A12F8011B01F0FB0068289046F8D0E1
:1015C000782909D86F290CD8632962D022D8252917
:1015D00063D0582900F0888098F80030002B95D10E
:1015E00097E770390829F7D801A353F821F000BF15
:1015F0006B170000D9150000D9150000F91600007E
:10160000D9150000D7160000D9150000D915000023
:10161000E9160000642901D06929DDD13A68D2F8C1
:101620000090111D89EAE9723960A2EBE9724FF06E
:10163000010B092A35DCD34538BFD3462CB1B9F1AB
:10164000000F01DB720700D5013CB30702D5BAF1E8
:10165000000F03D0F00701D44CBB0024B9F1000FF8
:101660002DDAC9F100092D212846FFF7D5FE06F035
:101670000302022A04D1BAF1000F01D11CBB0024DD
:10168000CDE9004653460A2249462846FFF7DCFECC
:10169000A2E73B681A1D19783A602846FFF7BCFE9E
:1016A0009AE70A230BF1010BB2FBF3F2C1E7A34562
:1016B000D4D220212846013CFFF7AEFECCE77107CB
:1016C000D5D52B21D0E7A345DAD230212846013CDD
:1016D000FFF7A2FED2E73968CDE900460A1D3A605D
:1016E00053460A220968D0E739680A1D3A60CDE9F5
:1016F000004653461022F5E73B681A1D3A6016F083
:101700000106D3F8009028D1B9F1000F03D0484664
:1017100002F0D2FE0646B44200D904BB09F1FF39FB
:1017200019F8011F00293FF457AF2846FFF774FE50
:10173000F6E728460136FFF76FFE19F80610002974
:10174000F7D1A642BFF448AF002C3FF445AF2021AB
:101750002846013CFFF760FEF3E70026EDE7202175
:101760002846013CFFF758FED5E73B681A1D3A6052
:10177000302128461C68FFF74FFE78212846FFF7E6
:101780004BFE00220823CDE90032214610227CE7DF
:1017900003B0BDE8F08F00BF2DE9F84FB0F806A008
:1017A0004579D2F800B09DF828900AFB05F5043D74
:1017B00088460BEB0301A94203F1040488BFA5EBA3
:1017C000030BB4FBFAF607460AFB1644C2F800B056
:1017D0004EB9AAEB04055D4528BF5D46BBF1000F7D
:1017E00004D1BDE8F88F3F68013EF1E7043408EB0F
:1017F00006003C442A46B9F1000F0DD02146ABEB60
:10180000050B02F0DBFDDA452E443F6855464FF0EC
:10181000000428BF5D46E1E701462046EFE7FFF7F9
:1018200096BDF8B546790146721E054600239342DF
:101830002D6803D30024A64202D8F8BD0133F6E791
:101840000F682846FFF7BAFD01343946F3E72DE962
:10185000F843068ACD1C0746FFF790FD043E354449
:101860000446B5FBF6F5F0B14FF48073EDB283801A
:10187000C680013D076081464FF00008A84512D29E
:101880003846FFF77BFD064648B163790133637143
:1018900008F10108C9F8000007608146EEE720461C
:1018A000FFF7BFFF34462046BDE8F883012104302E
:1018B000FFF72FBD10B5012104460430FFF735FDB9
:1018C00010F0FF0F04D12046BDE81040FFF7A9BF7C
:1018D00010BD1FB503920022009203AAFFF75CFF20
:1018E00005B05DF804FB1FB503920122009203AA24
:1018F000FFF752FF05B05DF804FB836800225A60D1
:10190000C3E904229A60DA601A60704738B5074C60
:10191000051E04F1080318BF1C4623682BB11A6882
:1019200022605B6828469847F7E738BD4C060020E0
:1019300020B9054B01225A70FFF7E8BF012802D1F8
:10194000014A9070F8E770474406002038B5094C0A
:1019500023786BB908486360A3602361E36000F0FB
:10196000BDF8054600F0C6F801232370284638BDAF
:101970008525FBE7440600203119000038B5134CDB
:101980006378054603F0FF0073B115B16B68002062
:1019900098470020FFF7EEFB636801336360002087
:1019A000BDE83840FFF7E8BBFFF7E4FB25B1A268CC
:1019B00013463BB92A60A5606368002BECD100F0A8
:1019C000ABF8E9E79D42F7D01B68F2E74406002038
:1019D00038B5084C0020FFF7CDFB6368013B63601E
:1019E000656815B900F0AAF86570BDE838400020B8
:1019F000FFF7C2BB440600201FB503788DF8003006
:101A00004368019383688DF80830C368054A0393DF
:101A1000054B684653F8213052F82110984705B01D
:101A20005DF804FB580600205C0600201FB5037813
:101A30008DF800304368019383688DF80830C368DF
:101A4000054A0393054B684653F8213052F821109C
:101A5000984705B05DF804FB580600205C0600209E
:101A6000F0B5194B90F800C091F81DE043F82C2018
:101A7000164B16460A6943F82C20154B03F80CE068
:101A80000C4607460FCC89B06D460FC594E80F0091
:101A900085E80F00CDF810C0BEF1000F09D0002E70
:101AA0000C4A694608BF3246381D00F09FFF09B056
:101AB000F0BD002E084A694608BF324607F10C0007
:101AC00000F06AFDF3E700BF5C0600205806002026
:101AD00060060020F91900002D1A0000044A13794D
:101AE00023B9012110609180184670478520704706
:101AF00064060020074B1A68D2075FBFC02283F834
:101B0000002301221A604FF080430122C3F81825F8
:101B1000704700BF00E100E0074B00221A6082B06E
:101B20001B680193019B4FF080430122C3F80423FB
:101B30001A6002B0704700BF00010040074B01224D
:101B40001A604FF08042D2F80C3403F00113B3F165
:101B5000011FF8D0024B00225A7170470400004068
:101B600064060020154B07B51A687AB100221A6086
:101B70001B680093009B4FF080430122C3F80823A9
:101B80000F4B587910B95A711B6898470D4B1A685A
:101B900082B100221A601B680193019B4FF08043C1
:101BA0000222C3F80823064B1B68012003B05DF82E
:101BB00004EB184703B05DF804FB00BF00010040D0
:101BC0006406002004010040C02910B525D0B9B139
:101BD00080290AD14378047882781B0243EA0443BF
:101BE00013430F4A0330C2F89835437802781B023A
:101BF00043EA024382781343094A0330C2F894351A
:101C00000368074A1BBAC2F89035D2F8A03523F012
:101C1000C0031943C2F8A01510BD4021E5E700BF7D
:101C200000500040054B0D22C3F80424044A012152
:101C30001160044AC3F80423704700BF00500040FD
:101C40000850004082000800034BD3F83C0410F019
:101C5000030018BF0120704700500040F0B5B0F5F8
:101C6000A07FA5B070D1FFF7EFFF04463A48002CE3
:101C70006ED183680133072B836065D904230093F9
:101C8000CDE90144354D039400F032FB344B6C72C6
:101C90004FF48052C3F80825D3F80825D3F89005EF
:101CA000D3F8A01511F0C0011FFA82FC4ED0802994
:101CB000D3F8944501BFD3F898358DF812301A0C3B
:101CC0008DF8102009BF1A0A04AA8DF811200DF111
:101CD0001302230C1370230A53709470D31C020E4A
:101CE0001A70020C5A70020A1D4C9A70D8701D4B63
:101CF000D4F8A475D4F8046300221A601A6801228B
:101D00001A6004A8C4F808C5FFF75EFFD4F8A4352C
:101D100007F0600723F060033B43C4F8A4350323B6
:101D2000C4F80C35D4F8A03523F01F0343F00403A6
:101D3000C4F8A0354FF48F63C4F80463C4F80833C3
:101D40006B680BB16846984725B0F0BD04ABC6E799
:101D500000238360F8E700BF1C0000206C06002011
:101D600000500040FC5F00400288084B4168C3F807
:101D70001015C2F30802C3F81425054A126802F4CC
:101D80008C62C3F804230122DA61704700500040DE
:101D90006C0600200268CAB10D4B4068C3F81005FC
:101DA000C2F30800C3F81405D20040F6F8701040E2
:101DB000084AC3F81C05C3F80C15126802F0180293
:101DC000C3F804230122DA6000207047092070471D
:101DD000005000406C06002000F1804000F5A0405B
:101DE0000123036070470000292812D10C4B1B68A7
:101DF00013F0010F14BF0B4A0B4A012313600B4B66
:101E00004FF48052C3F808254FF48F62C3F80823BB
:101E1000704700F1804000F5A04001230360EEE729
:101E20002054004028500040245000400050004002
:101E300008B50378012B0FD0022B1AD053B9426892
:101E4000B2F5803F21D812494FF6FF70824294BF0D
:101E5000CA60C860002008BD0179032915D80D4A61
:101E6000D2F8A43523F0600343EA4113C2F8A43545
:101E7000F0E7037A4068043BDBB2062B96BF064AC4
:101E80004021D15CFFF7A0FEE4E70720E3E700BFB5
:101E90006C06002000500040594D00000A2970B522
:101EA000024630D84FF49263CB40DB4313F001007D
:101EB00029D14FF080540429D4F85054D4F8543424
:101EC000D4F8584415704FEA15264FEA1545957019
:101ED000DDB25670D57001D1002070BD1E0A16719A
:101EE0000A294FEA13464FEA13635671937105D1DD
:101EF000230AD471240C13725472EEE7882DEBD1AF
:101F00009923D370E9E70920E7E700002DE9FF41B5
:101F1000264D2A7A002A47D103C885E803002449C0
:101F2000244F0323C1F80C35D1F8A03523F01F034B
:101F300043F00403C1F8A0351F4B20214FF0C00827
:101F4000C3F8801183F8058319600423CDE90222C8
:101F500002A98DF80830194A062338468DF80B304F
:101F600000F050F90446D8B93B68D3F81025012693
:101F70004FF4C861D2B2334621FA02F2009601460C
:101F8000384600F0DEF9072102A8FFF787FF414637
:101F9000044602A8FFF718FE4FF480532E72EB6040
:101FA000204604B0BDE8F0810824F9E76C06002063
:101FB000005000401C00002000E100E05D1C00001B
:101FC000024A136823F00103136070479C550040D8
:101FD000024A136843F00103136070479C550040A8
:101FE0007FB56D4B1A68EAB16C4AD2F804239207A8
:101FF00018D500221A60BFF34F8F694C637A03F043
:10200000FF067BB9674D284600F07EF9284600F0B0
:1020100061F901236372022300936368AE600BB120
:1020200068469847604D614C2B688BB35B4AD2F889
:1020300004335B062CD500212960BFF34F8F40236A
:10204000CDE90031D2F810350393D2F82435584841
:10205000C3F30B03103BC3F3CC030293036873B1C8
:10206000D2F804335E050AD5D2F80C3403F00D0320
:1020700001930160BFF34F8F0D23C2F80C34484B1E
:102080005B680BB16846984700232360BFF34F8F0E
:10209000484E3368ABB1414AD2F80433D90610D563
:1020A00000233360BFF34F8FCDE901330393102337
:1020B00000931823C2F80833394B5B680BB16846AC
:1020C00098473D490B6843B3344AD2F804331B03A5
:1020D00023D500230B60BFF34F8F2B60BFF34F8FCF
:1020E00041F8243CBFF34F8F2360BFF34F8F336021
:1020F000BFF34F8F2A498889C2F808050D20C2F81E
:102100000C04C2F80404CDE9013303934FF4002317
:1021100000934B680BB16846984728490B68FBB1A0
:102120001E4AD2F8043318061AD50023D2F8040444
:102130000B60BFF34F8F80210091C107CDE90133C0
:10214000039309D50121C2F804148DF80430144B0F
:102150005B680BB168469847104B0D22C3F8042406
:102160002368BBB10D4BD3F80423120712D500220C
:102170002260BFF34F8F0A4A52685AB1082100917A
:10218000D3F810150291D3F81C35C3F3C80301939B
:102190006846904704B070BD0451004000500040B4
:1021A0006C0600201C000020185100400C5100401B
:1021B00028510040105100404C5100401C5100403B
:1021C000014B1B68184700BF7C06002038B50B4B3D
:1021D00098420C4601D0002038BD0020FEF7CAFF0F
:1021E000074B1D7915B901221C601A710020FEF7FA
:1021F000C3FF002DEFD01120EEE700BF002000400C
:102200007C060020F7B506792F4D0C237343EF1899
:102210003C7A002C56D1EA504B687B6047790368C2
:102220002246D0B2874244D843F30734C878002C02
:10223000A8BF04F16047C3F30732BABF234F02F0CF
:102240000F0C07F561474FEA4010C0B2B4BF07F862
:102250000C0087F80003640901201D4F02F01F02E3
:1022600000FA02F247F82420D3F804454A7824F013
:10227000030402F003022243C3F80425D3F80845FF
:102280008A7824F0030402F003022243C3F80825ED
:102290000A78D3F8104502F00F0224F00F010A4328
:1022A000C3F810250C2303FB06552872002003B049
:1022B000F0BD900000F5A07001321C50185801903C
:1022C0000198AEE70820F2E78406002014ED00E054
:1022D00000E100E0036801221A600379034A0C213F
:1022E00001FB032302221A72704700BF84060020FC
:1022F0000368044901221A6103790C2000FB0313CF
:102300001A7270478406002003680122DA60704761
:1023100037B54FF4803400688C407BB18B0003F5F7
:10232000A0730025C550C3580193019BC0F8044316
:1023300001F5A87140F8212003B030BDC0F8084372
:10234000F6E770B4046840F20116D4F800528E40EB
:1023500025EA0605C4F80052D4F800522B43C4F80D
:1023600000329DF80C3070BCFFF7D2BF2DE9F3416D
:10237000104C114F114E00254FF48038236883B163
:10238000D7F8043308FA05F21A420AD00023236072
:102390002368019304F5A040019B80B2D6E9003187
:1023A00098470135062D04F10404E7D102B0BDE8D9
:1023B000F08100BF40B1014000B001408406002020
:1023C0000023435082B043580193019B02B07047F1
:1023D0000A4610B54FF48E71FFF7F2FF136A916849
:1023E000C95C136A01331362C0F81C1510BD0246A4
:1023F00008B500684FF49271FFF7E2FF4FF4847163
:102400001068FFF7DDFF136801221A6008BD8B69B1
:102410000A4610B54FF4847123B9FFF7D1FFD0F805
:10242000183510BDFFF7CCFF536AD168D0F81805F6
:10243000C854536A01335362F3E700001FB5012308
:102440008DF80030044BCDE90110D3E90012684645
:10245000904705B05DF804FB9006002030B54C486D
:10246000D0F8043313F4007F85B005464DD0D0F882
:102470002431002B49D04FF49271FFF7A1FF4FF4A4
:102480000173C0F80833434B93F829200AB901229D
:1024900042603F4902228DF80020D1F88024C1F823
:1024A000802403929A690292DA6801920022C3E9B9
:1024B00006226846D3E9001290473548D0F81C310F
:1024C0005BB134494A690B6A9A420A464AD991F883
:1024D0002830002B46D1FFF77BFF2D48D0F8443140
:1024E0008BB14FF4A271FFF76BFF2A4B93F82920B1
:1024F0000AB1012202609A692AB10022586AD96899
:102500009A61FFF79BFF05B030BDD5F804335B0738
:10251000D3D5D5F80831002BCFD01E4C1C4821460E
:10252000FFF775FF636AA2699A422346C5D1E26943
:10253000E1684AB12369E3600023606AA261E36154
:102540006362FFF77BFFB8E794F829200AB90122FC
:102550006A600F4A4FF40170C2F808030022586AFB
:102560009A61EEE70A484FF48E71FFF729FF53692D
:10257000002BB2D051690291002391688DF8003090
:10258000019153616846D2E900139847A5E700BF5F
:1025900000200040900600202DE9F843574B0579B4
:1025A00091462C2202FB0532064692F82A200C4660
:1025B0009846002A40F09D8051490068FFF706FECA
:1025C0000746002840F0978021683368481C0BD0EC
:1025D0004FF0A04001228A40C0F8082501F5E072C2
:1025E0004FF0030C40F822C06068421C1FBF00F58A
:1025F000E0724FF0A04C4FF0000E4CF822E0A269C0
:10260000C3F8242594F814C0627DBCF1010F4CEA94
:102610000202C3F86C25C3F81405C3F80C151DD1CC
:10262000A1684A1C1FBF01F5E0724FF0A0404FF0B7
:10263000000C40F822C0E268501C0BD04FF0A04CB8
:1026400001209040CCF8080502F5E0704FF0030E31
:102650004CF820E0C3F80825C3F810152C236B4371
:1026600008EB0302C2F80490226948F80320B9F18C
:10267000000F2BD03068247F4FF48E71FFF7A0FE3F
:1026800030684FF4A271FFF79BFE32681D4BC2F811
:102690000433110B42F30732002AA8BF02F1604055
:1026A0004FEA4413BABF184801F00F0400F5614027
:1026B000DBB2B4BF035580F8003301F01F010123E2
:1026C00003FA01F15209114B43F822103368042236
:1026D000C3F800252C2303FB05830022C3E906224F
:1026E00083F829205A61012283F82A203846BDE860
:1026F000F8830827FAE71127F8E700BF90060020C3
:102700005D2400008000020014ED00E000E100E024
:102710002DE9F047204F90F804904FF02C0808FB6B
:10272000097405466669002E34D162610068A160B3
:1027300026624FF48E7184F82860FFF741FE286806
:10274000012383602146FFF743FE6368A0468BB9EF
:102750002868D4F814A0236A9A4511D82A68D2F8B8
:102760001C31002BFBD00123D3602C2303FB097306
:1027700000225A613046BDE8F08794F828303BB912
:10278000D0F81C31002BF8D04146FFF721FEE2E7DC
:102790000F26EAE71126EDE7900600200379044AA8
:1027A0002C2101FB03235869003818BF0120704712
:1027B000900600202DE9F843394F05792C2303FBBF
:1027C000057306465C6824B103684FF40170C3F8D2
:1027D00008032C2303FB0573986950B1D8690028BE
:1027E0003ED024B133684FF40172C3F8042311249E
:1027F00033E09A61D9605862D8612C2303FB0573DA
:1028000093F829301BB910B93046FFF7F0FD4FF0AF
:102810002C0909FB05783068D8F80430002B34D136
:102820004FF4A271C146FFF7CBFD3068D0F82431D8
:10283000D0F80821D0F84441B2B90CB9002BF4D03B
:102840002C2202FB05750022AA6123BB2CBB95F844
:10285000291033680122B1B11A602046BDE8F8831F
:102860001961DA610120C8E7002BE9D1002CE7D11A
:102870004946FFF7CCFDD8F82430D8F818209A4202
:10288000D3D82346DCE75A60E7E74FF40173C0F87A
:1028900004330024E1E70324DFE70F24DDE700BF72
:1028A000900600200023435082B043580193019BBF
:1028B00002B070471FB501238DF80030044BCDE9FD
:1028C0000110D3E900126846904705B05DF804FB9B
:1028D000BC0600207FB5434AD2F82461002E60D0A8
:1028E00010464FF49271FFF7DDFF02238DF80030A0
:1028F000D2F88034C2F880340393D2F83C35029386
:10290000394BDA6801920022C3E906226846D3E90E
:10291000001290473348D0F8443173B14FF4A2719C
:10292000FFF7C0FF304B9A693AB10022C3E9062293
:10293000D968D0F83C05FFF7BDFF2A48D0F8203110
:10294000ABB14FF49071FFF7ADFF0123C360264B8D
:102950005A6962B1D0F84C150291002299688DF83D
:10296000002001915A616846D3E9001290471D4842
:10297000D0F858319BB14FF4AC71FFF793FF1A4B6D
:102980005A6962B1D0F84C150291002299688DF80D
:10299000002001915A616846D3E90012904704B0C3
:1029A00070BDD2F81031002BB4D04FF488711046AE
:1029B000FFF778FF0C4BD2F83C0599698842A9D102
:1029C000DC69D96864B1D2F8005225F02005C2F85C
:1029D00000521A699C61DA60DE61FFF76BFF99E7CC
:1029E0009C61FAE700200040BC0600202DE9F84376
:1029F0005D4B06799146242202FB0632044692F88A
:102A000020200D469846002A40F0AA8057490068C9
:102A1000FFF7DCFB0746002840F0A4802968236804
:102A2000481C0BD04FF0A04001228A40C0F8082576
:102A300001F5E0724FF0030C40F822C06868421CB8
:102A40001FBF00F5E0724FF0A04C4FF0000E4CF8A5
:102A500022E0AA69C3F8242595F814C06A7DBCF168
:102A6000010F4CEA0202C3F86C25C3F80C15C3F839
:102A700014051DD1A9684A1C1FBF01F5E0724FF073
:102A8000A0404FF0000C40F822C0EA68501C0BD068
:102A90004FF0A04C01209040CCF8080502F5E07002
:102AA0004FF0030E4CF820E0C3F80825C3F81015CA
:102AB0002423734308EB0302C2F804902A6948F800
:102AC0000320B9F1000F3AD020682A7F4FF48871B3
:102AD000FFF7E8FE20684FF49071FFF7E3FE2068EF
:102AE0004FF49271FFF7DEFE20684FF4A271FFF7FA
:102AF000D9FE20684FF4AC71FFF7D4FE23681C495F
:102B0000C3F80413190B43F30733002BAEBF03F1D3
:102B1000604001F00F0517484FEA4212A8BF00F5C8
:102B20006140D2B2B4BF425580F8002301F01F01CA
:102B3000012202FA01F15B090F4A42F823102368CF
:102B40000822C3F80025242303FB06830022C3E9DF
:102B500006225A61012283F820203846BDE8F88316
:102B60000827FAE71127F8E7BC060020D52800005F
:102B70001003420014ED00E000E100E001F06043CA
:102B8000B3F1005F2DE9F041064638D11E4B0779BD
:102B9000242505FB073598466C69002C31D16A6104
:102BA0000068A9604FF49071FFF77CFE4FF4AC71A0
:102BB0003068FFF777FE33686A69A968C3F844157F
:102BC000C3F8482501229A606A68AAB9D3F820217F
:102BD000D3F858411AB9002CF8D00F2407E0002C84
:102BE000FBD10122DA60D3F85821002AFBD024233C
:102BF00003FB078700237B612046BDE8F08110249A
:102C0000FAE71124F8E700BFBC0600200379044A64
:102C1000242101FB03235869003818BF01207047A5
:102C2000BC060020F8B501F06043B3F1005F044634
:102C30000F465ED10379304D242101FB03514968D1
:102C400021B100684FF40476C0F80863242000FB2B
:102C500003539E6956B1D869002839D021B1236841
:102C60004FF40472C3F80423112030E09A61DF604E
:102C7000DE6120684FF48871FFF714FE20684FF47E
:102C8000A271FFF70FFE2368C3F83475C3F8382527
:102C900016BB01221A602179242202FB01525268DC
:102CA0000ABBD3F81041D3F84421D3F824011443CC
:102CB00002D10028F5D02246242303FB015500232E
:102CC000984218BF03209A42AB6118BF0F20F8BD8D
:102CD0001F61DA610126CCE7D3F8002242F020021E
:102CE000C3F80022D7E74FF40472C3F8042300208E
:102CF000EDE71020EBE700BFBC0600200378022BB5
:102D000002D14068FEF73EB8012BFAD070470000B0
:102D1000F0B5084685B002280A9E11461C461AD016
:102D2000062825D0012814D1374B38483849C01A15
:102D3000C008000440F00300FDF75EFE0020FDF730
:102D4000DBFFFEF7B7F93348FEF796F83248FEF797
:102D500093F805B0F0BD2C4B2C483049C01AC00880
:102D6000000440F00300FDF747FEFDF7DDFFF0E74C
:102D70002B4D2B682344B3F5806F04D904200192B6
:102D8000FEF700F801992868264F2246384401F0E2
:102D900015FB2A68012E14442C6031D0012C17D960
:102DA000013C03AA1B482C60791C0394FEF78CF8A5
:102DB0002B68039A9A4201D1042809D11348124B77
:102DC0001949C01AC008000440F00200FDF714FEC3
:102DD000164911480024F02303AA2C600393FEF740
:102DE0004FF8052808BF039403990E48013100F0FD
:102DF000EBFC08B1FDF7C6FF0120FDF789FFA8E74E
:102E00003046FDF779FFA4E718450000484500006B
:102E1000754D0000E40A0020F40A0020AF4D0000C8
:102E2000E00A0020E0060020E34D0000E10600205B
:102E30002DE9F04100218AB00846FDF72BFC08B1CE
:102E4000FDF7A0FF344DFDF75FFB0120FDF77BFF91
:102E50000FCD04AC0FC495E80300304B304A00930B
:102E60004FF4806384E80300CDE9022301932D4AE7
:102E70000723694604A8FEF7C5F808B1FDF782FFED
:102E800029492A484FF48062FDF7C4FF30B9284928
:102E900028484FF48062FDF7BDFF08B1FDF772FFCF
:102EA0002548002100F056FC08B1FDF76BFF234BCD
:102EB000234C2449E41AE408240444F00300FDF7F9
:102EC0009BFD00F099FC08B1FDF75CFF174D194E12
:102ED0001D4F04A92846FDF7BEFF50B144F002087B
:102EE00004A8FEF7F7F858B1FDF72EFC0028FBD137
:102EF000EFE79DF81000FEF703F90028F9D1E8E7A5
:102F00009DF810103046FDF794FF0028E8D03946B0
:102F10004046FDF771FDE3E73C4E0000041300203E
:102F200004170020FD2C0000040B0020E40A002000
:102F3000040F0020F40A0020112D000018450000A5
:102F400048450000FF4D00001D4E00000369C168A8
:102F50008B429DBF8268D21802F1FF3203F1FF332A
:102F600094BF501A581A70472DE9F843D0E90294DB
:102F70000546A9EB04084068904520440F461444D8
:102F800004D901F01BFAEC60BDE8F8834246A4EBDB
:102F9000090401F013FA6868224607EB0801F0E71C
:102FA0002DE9F843C5680646894617464FF00008E4
:102FB0003469B3687068A54228BFE418013C621BFD
:102FC0005C1BBC4228BF3C46944228BF144649467D
:102FD0002844224601F0F2F9B3682544AB4208BF09
:102FE00000253F1BA044A144F560E1D14046BDE867
:102FF000F883000010B5114C114AA2610223C4E904
:103000000433104BE361A2644FF400730E4A0F497E
:103010002362E26400231022E01DA3626362E36284
:10302000A3656365E365226501F024FA084920463B
:1030300001F020FA2023A37110BD00BF041B002063
:10304000544E00008C1B00207C1B00205D4E0000B5
:10305000614E0000F8B5184C182300FB033503FB44
:1030600000402544C46A012C0F4616460FD0022C9E
:103070001AD0F4B92846FFF769FF864205D83246D0
:1030800039462846FFF770FF34462046F8BD2846EB
:10309000FFF75CFF8642344628BF04462246394685
:1030A0002846FFF761FFF0E72846BDE8F840FFF744
:1030B00077BF0024E9E700BF041B0020FFF79ABF99
:1030C0000C4B1B78062B10D10B4B1B681A070CD12D
:1030D0000A4B186800F0F003302B08D000F0E00035
:1030E000A0F140035842584170470020704701202A
:1030F000704700BFE00F00F0E40F00F0E80F00F0B1
:10310000094B1B78062B0CD1084B1B681A0708D1FA
:10311000074B186800F0F000A0F130035842584106
:1031200070470020704700BFE00F00F0E40F00F090
:10313000E80F00F008B5FFF7C3FF28B17D4B7E4ACA
:103140001B68C3F304231360FFF7DAFF10B17B4B56
:103150007B4A1A60FFF7B4FF28B17A4B7A4A1B68A2
:10316000C3F342331360FFF7CBFF20B1774AD36834
:1031700023F08073D360FFF7A3FF40B14FF080438B
:103180000022C3F80C21C3F81021C3F83825FFF73B
:10319000B7FF10B16E4B03221A60FFF7B1FF40B1C9
:1031A0006C4B05221A6001229A6700229A603F2226
:1031B0005A60694B1B78062B50D1684B1B68190766
:1031C0004CD1674B1B6803F0F003502B46D14FF0F6
:1031D0008052644BD2F80414C3F82015D2F80814B6
:1031E000C3F82415D2F80C14C3F82815D2F810141B
:1031F000C3F82C15D2F81414C3F83015D2F81814EB
:10320000C3F83415D2F81C14C3F84015D2F82014B2
:10321000C3F84415D2F82414C3F84815D2F828147A
:10322000C3F84C15D2F82C14C3F85015D2F830144A
:10323000C3F85415D2F83414C3F86015D2F8381412
:10324000C3F86415D2F83C14C3F86815D2F84014DA
:10325000C3F86C15D2F84424C3F87025FFF730FF8B
:1032600028B1414B414A1B6803F04F031360FFF73D
:1032700027FF48B14FF08043D3F80024D20744BF62
:103280006FF00102C3F80024394B1B68062B08D1EC
:10329000384B1B68062B01BF374A136843F4806321
:1032A0001360364AD2F8883043F47003C2F888308D
:1032B000BFF34F8FBFF36F8F4FF01023D3F800226F
:1032C000002A03DBD3F80432002B2FDA2C4B012227
:1032D000C3F80425D3F80024002AFBD04FF01022B5
:1032E0001521C2F80012D3F80024002AFBD04FF0B9
:1032F00010231522C3F80422214B1A46D3F80014D8
:103300000029FBD00021C3F80415D2F80034002BAB
:10331000FBD0BFF34F8F19491A4BCA6802F4E06221
:103320001343CB60BFF34F8F00BFFDE7164B174A27
:103330001A6008BD240300104035014074C00740E6
:103340000DF0ADBA440200103C050040F0ED00E085
:10335000A005004010560040E00F00F0E40F00F020
:10336000E80F00F000C0004058020010E40E0040DA
:1033700030010010340100103C17004000ED00E067
:1033800000E001400400FA05280000200090D0036E
:1033900008B9FEF721BD7047074B084A10B5002455
:1033A0005A601C60FEF7D2FA852803D0A04218BFED
:1033B000032010BD2046FCE78C1D00209133000047
:1033C0000368022B02D0042B03D070470248FEF79B
:1033D000D5BAFEF7FDBA00BF8C1D002070B51B4C9E
:1033E000E26A0D2A0ED0636A194D013302D0E26AF7
:1033F000072A12D0606B17492B460022BDE87040A7
:1034000000F082BB1449A06A00F0A5FF0028EAD1B1
:10341000E26A6062072A114DECD11149A06A00F0FE
:103420009AFF70B9E26A0D4D6062072AE2D10D4938
:10343000A06A00F090FF0028DCD101236362074DF1
:10344000D8E7636A0133D5D0E26AEEE7A41D002015
:10345000684E0000844E0000884E00006C4E000054
:10346000984E0000A04E0000F0B5254CE26A042AF8
:1034700083B002D9636A012B08D0224B606B2249CA
:10348000002203B0BDE8F04000F03EBB94F83930B4
:10349000002BF2D0A16A206A8B78CD780E7905EBEB
:1034A0000325AB198342E8D8053AB24211D0276B05
:1034B000012FE2D120690531284400F07FFFE36A43
:1034C000124A053B2B4493601773C2E9006503B0B1
:1034D000F0BD20690531284400F070FF012D0CDC9F
:1034E0002269A068117853786568002203EB0123F4
:1034F00000920421A847064BC0E7054BBEE700BF7A
:10350000A41D0020704E0000844E0000941D002079
:103510006C4E000070B51C4C1C4D2069AB68D4E9A2
:103520000A12184482B000F049FFD4E90B12AB68CC
:10353000012A0B44AB6022D0D5E900129B1A8B42C2
:103540000ED0134D11481022002100F060FF606B77
:1035500010492B46002202B0BDE8704000F0D4BAFA
:10356000012A0ED82269A0681178537866680A4D3E
:10357000002203EB012300920421B047E2E702B0EE
:1035800070BD054DDEE700BFA41D0020941D002086
:10359000704E0000844E00006C4E0000F0B5364CBA
:1035A0002378022B83B001D003B0F0BD2369F3B1BF
:1035B000324B1B7B3BBBE36A012B0ED9A26A10780E
:1035C00030B95178A42928D0B0292BD0D6291FD0C2
:1035D000606B2B4B2B49002204E0606B002BF7D172
:1035E00028491A4603B0BDE8F04000F08DBAA3693F
:1035F000002BDDD1216BA068D4E90A230091646817
:103600000621A047D0E703B0BDE8F040FFF782BF36
:1036100003B0BDE8F040FFF727BF03B0BDE8F040BE
:10362000FFF7DCBE042B14D9656A9678D37812793B
:1036300004EB850103EB0623C9699E188E4208D866
:1036400004EB8501012D4969194406D00E4B606BCE
:10365000C8E702460B490D4BF9E7A5692F786D784D
:1036600005EB0725AB4203D2AE4234BF0020012058
:1036700084F83800044BEAE7A41D0020941D0020C4
:10368000684E0000844E00006C4E0000704E00003A
:1036900070B52E4C82B08442069D01D002B070BD40
:1036A0000139C4E90A2325630529F7D801A353F892
:1036B00021F000BF2F3700000F3700009D360000BB
:1036C0009D360000D7360000CD36000002B0BDE8C0
:1036D0007040FFF763BF94F838304BB10025D4E950
:1036E00001602B4600952A460321B04784F83850E4
:1036F0002369002BD2D1A369002BCFD1216BA06805
:10370000D4E90A23069164680521A4460BE06568A4
:103710004FF0FF336362002DC0D00023A0680693F2
:103720001A460221AC4602B0BDE870406047102244
:103730000021074800F06BFE6568002DAED0002325
:10374000A06806931A460121ECE700BFA41D0020E3
:10375000941D002070B32DE9F041174C2578022DFF
:1037600025D025BBDFF85C8006460F4601231349B0
:10377000237040460F2200F021FE4FF00F0C4FF057
:10378000FF3304F134022046C4F80C80C4F81480DE
:103790002561A561256284F83950C4E90167C4F840
:1037A0001CC063620649BDE8F04100F043BA08203E
:1037B000BDE8F08107207047A41D0020744E000072
:1037C00091360000FC1E00204A1E4FF6EF739A420D
:1037D0000CD868B1074B1A78022A01D0082070472C
:1037E0000A460146586B002300F08EB90C20704742
:1037F00007207047A41D002008B5074A1378022B44
:1038000000D00BB9082008BD012BFBD10223137097
:1038100000F06AF9002008BDA41D002070B5044620
:10382000FFF7CEFD2368102B4AD007D9802B22D07A
:10383000B3F5002F34D0402B26D070BD042B59D0C7
:10384000082BFAD14F4B1B78002BF6D0A2681378C7
:1038500003F0F703C22B02D14B4B012119704B4BE4
:103860001D68002DE9D04A4963680868AC46042108
:10387000BDE8704060472379002BDED1454A1178BE
:103880000029DAD0137070BD6368002B41D03D4B26
:103890001B78002B5BD12920BDE87040FEF7A4BA4D
:1038A0003D48FEF761FA394B1C682CB1384A0023B9
:1038B000106819461A46A047324B00221A7070BD94
:1038C000314C2378002B3ED0FEF77AFB2820FEF700
:1038D0008BFA2C4A0023237013702C4B1C68002C8D
:1038E000ABD02B4A00231068A4461A460321BDE83A
:1038F00070406047FEF764FB244B1C68002C9CD092
:10390000234A00231068A4461A460121BDE87040EE
:1039100060471C4D2B78FBB9204B1A78E02A1FD04A
:103920001B78502B26D02920FEF75EFA174B1D6816
:10393000002D82D0164AA3681068184AAC460221AE
:10394000BDE8704060471448FEF70EFAC5E712481C
:10395000BDE87040FEF708BA0F48FEF705FAE5E744
:103960005A7802F00F020F2ADAD0FEF731FB01235A
:103970002B70DBE7074B012228201A70FEF734FA80
:10398000D4E700BFF81E0020E01D0020E41D002049
:10399000E81D0020F71E0020B04E0000EC1D0020A6
:1039A000F0B5194B194A1A4D1A4E04460F4693E8C2
:1039B000030087B0146001AC84E803002A78376004
:1039C000012303A88DF810208DF80C30FEF730FA93
:1039D00070B9114E9DF8102037788DF80C004FF417
:1039E0008053BB4003A804932A70FEF721FA08B164
:1039F00007B0F0BD3770FFF7CFFC0028F8D12046A4
:103A0000FEF784FAF4E700BFA84E0000E41D002092
:103A10002D000020E81D00202C00002010B50128FA
:103A200084B013460BD0022804D0032828D00020ED
:103A300004B010BD012A14D0092004B010BD012A21
:103A4000FAD10C784FF48053A340002201A80293CE
:103A50008DF80420FEF7ECF90028E9D11E4B1C700C
:103A6000E6E70A788DF8082001A88DF80430FEF703
:103A7000DFF90028DCD1194B9DF808201A70D7E730
:103A8000012A18D00A2AD7D84FF49260D040C00734
:103A9000D2D5134C1348227000F090FC2278114BC1
:103AA0008DF80C2001A802228DF804200293FEF765
:103AB000BFF904B010BD0A780A2ABDD84FF492634A
:103AC000D340DC07B8D5064C064822700A21FEF721
:103AD000E5F90028E2D0ABE72C0000202D00002003
:103AE000F61E0020EC1E0020FEF79CB800B5002A50
:103AF00083B0CDE9001014BF022103216846FEF710
:103B000049F903B05DF804FBF8B5484C844201D094
:103B10000720F8BD0029FBD04FF6F0708242F7D89D
:103B2000D4F8400108B10820F8BD94F8220100281B
:103B3000F9D013B1C4F844310223207FC4F83C31DA
:103B400094F82951C4F8401100F0010343F0020336
:103B50000020C4F834216377C4F83801002D40D127
:103B600001262569AD1BAA428ABF43F01003154602
:103B70006377002D3CD12846A919DD061ED4D4F860
:103B80003C71DFB12569A94244D2D4F844C1C7F1E0
:103B9000020663181CF806605E777B1EC4F83C3191
:103BA0004E1CDBB3B5423BD9C3F1020326441CF8DB
:103BB00003307377023FC4F83C7102319042616177
:103BC000C4F8380105D3D4F83C3113B9012384F883
:103BD000263194F82421C2B1012384F82531002034
:103BE000F8BD43F0080320796377A0770226B8E791
:103BF00006F11D002A46204400F0E0FBD4F838010D
:103C0000637FD4F834212844B6E70948BDE8F8407A
:103C1000FFF76CBF43F010036377CFE73146CDE782
:103C2000637F43F0100331466377C7E70C1F002022
:103C3000291F0020F0B5194C83B094F827310425D2
:103C40008DF807503BBB32B315460F460646194662
:103C50004FF4A472204600F0DAFB02A94FF4807002
:103C600011F8013DA371012202232060E371104687
:103C70002C60C4F82C71C4F83061FFF7CFFE58B93E
:103C800021460748FFF78CFEB0FA80F35B0984F801
:103C9000273103B0F0BD072003B0F0BD0C1F00209A
:103CA000213F0000F8B5037F90F82921D0F8387142
:103CB00003F0010343F00203044643770AB1002FE7
:103CC00052D001262269D4F83401921BC51BAA42A6
:103CD00003D243F0100363771546002D4BD1DA066B
:103CE00005EB060102D4D4F83C21EAB93D448542F3
:103CF000C4F83851616102D3D4F83C313BB194F837
:103D000024215AB1012384F825310020F8BD94F80C
:103D10002421012384F82631002AF3D104F11D0067
:103D2000BDE8F840FFF7E2BE26698E4232D9D4F8EA
:103D300044E1C2F1020C63181EF80CC083F81DC0E8
:103D4000531EC4F83C3101F1010C3BB3664527D941
:103D5000C3F10203A4441EF803308CF81D30023A6C
:103D6000C4F83C210231C1E743F0080302794377EC
:103D700082770226A6E7D4F8401106F11D003944E7
:103D800020442A4600F01AFB637FD4F83871D4F837
:103D90003401A4E743F010036377A7E76146A5E782
:103DA000637F43F01003614663779FE70368102B3E
:103DB00012D0182B29D0202B29D0282B29D0302BFA
:103DC00029D0402B29D0602B2BD0802B2BD0B3F5C2
:103DD000807F24D003207047002130B48479C279D9
:103DE000034641F07001817742EA041280250224E3
:103DF000052180F82020C57780F8214003F81D1F99
:103E00000022184630BCFFF771BE0121E5E7022110
:103E1000E3E70321E1E70421DFE70521DDE70821EE
:103E2000DBE70621D9E70721D7E700BF10B4837984
:103E300090F829110122C3F10703F22402FA03F3D7
:103E400080F81F41DBB2A1B1FA21027980F81F117D
:103E500080F820210321022202443B2B28BF3B2370
:103E600082F81F3100F21F1001225DF8044BFFF7AA
:103E70003DBE0221F0E700BF037F90F8292103F047
:103E8000010363F05D03DBB243774AB102798277C5
:103E900043F00803437702211D300022FFF726BEBE
:103EA00001211D300022FFF721BE00BF90F8243110
:103EB0001BB1002380F82431704783680279197898
:103EC00009071ED412BBC22380F8292143770121A0
:103ED00010B5002204461D30FFF708FE0023012222
:103EE000227784F8243184F8253184F82331A4F82A
:103EF0002831A380C4F84031C4F83431C4F83831D3
:103F000010BD5B7803F00F03934200D0704701218E
:103F1000CA2280F82911837742770221D8E700BFAF
:103F200070B5B84C844282B001D002B070BD042993
:103F3000FBD8DFE801F08F7132190300117801F02E
:103F4000F701F22916BF002301210021A36184F8A3
:103F50002411137803F0F603A3F11203B3FA83F3E9
:103F60005B0984F82331E0E7A569002DDDD194F8E1
:103F70002631002BD9D0D4F83431D4F84021D4F8EC
:103F800030010095D4F82C610521B047C4F84051A8
:103F900084F8225184F82651C7E7C4E90223002B94
:103FA000C3D0002AC1D0117801F0F0009028BCD015
:103FB000D028BAD08E075AD594F82801002800F0EE
:103FC0008580480640F1868001F0F703C22B00F09F
:103FD000BA80F22BA9D194F82431002BA5D00E077A
:103FE000237940F10081517801F00F0199429CD171
:103FF000012384F82931137813F0080F14BF02232A
:104000000123E118D25C91F81F319A4200F014812B
:10401000002384F8243188E7D4F82C5100230122AE
:10402000227784F8243184F8253184F82331A4F8E8
:104030002831A380C4F84031C4F83431C4F8383191
:10404000002D3FF472AFD4F8300100931A460221DC
:10405000A8476AE7D4F82C51002D3FF466AF00233F
:10406000D4F8300100931A460121A8475DE7E02902
:104070007FF45BAF94F82831002B7FF456AF012317
:10408000237784F8283153785F491B0951F823308E
:10409000023B2361537803F00F031A1C18BF01225F
:1040A0000F2B237184F8292147D1002384F8243170
:1040B00084F8253184F82331A4F82831A380C4F88A
:1040C0004031C4F83431C4F838312EE7E0297FF4A8
:1040D0002CAFD4E701F0E60002283AD0A2287FF402
:1040E00024AF0D07207972D5517801F00F01884275
:1040F0007FF41BAF012184F82911127812F0080F08
:1041000014BF022101218B427FF40FAF02F00101A5
:1041100012F01002237F6CD18B4279D1A369002B5E
:1041200040F09380616900293FF4FFAE1A4637489A
:1041300002B0BDE87040FFF7D9BC324802B0BDE81C
:104140007040FFF733BE2F4802B0BDE87040FFF764
:10415000ADBE94F8240100287FF45AAF0E072079F1
:104160003BD5517801F00F0188427FF4DEAE01218A
:1041700084F82911117894F8230111F0080F14BF65
:1041800002250125002853D1480704D5505D6179E7
:10419000884208BF0135217F81F001012177107825
:1041A0004140C9073FF5C1AE10F0100653D00121C0
:1041B0005B1B2A440091D4F82C51D4F8300106211D
:1041C000A847104802B0BDE87040FFF755BE002870
:1041D0007FF4ABAE84F829018FE700287FF4A5AE09
:1041E00084F82901C6E7002B7FF49FAE84F82931BB
:1041F00001E78B42E5D1A2699AB9616900293FF4D0
:1042000094AE94E70C1F0020B84E0000291F002038
:104210001F4883F00103237702B0BDE87040FFF729
:1042200041BD012311461B4884F8243100227FE759
:10423000002384F8233178E694F82531EBB914484B
:1042400002B0BDE87040FFF7F1BD194601231148E7
:1042500084F824316CE70E48FFF7E8FDD4E9022327
:1042600001215B1B2A4484F822110096D4F82C51BA
:10427000D4F830010621A84757E6002261690648B4
:10428000FFF734FC002384F8253184F824314CE610
:104290000C1F00202B200020291F00207F2805D87C
:1042A000034B185C034B5B5C184070470020704761
:1042B000044F0000844F0000A0F16103192B98BF48
:1042C00020387047A0F14103192B98BF2030704768
:1042D0007F2805D8034B185C034B5B5C1840704784
:1042E00000207047044F0000844F0000A0F16103DC
:1042F000192B98BF20387047A0F14103192B98BFA4
:10430000203070477F299ABF017001206FF02E0086
:1043100070475AB10A787F2A0AD800B1026000219A
:1043200019605960501A18BF01207047002070476B
:104330006FF02E007047000008B5034B5B689B6868
:104340001B68984708BD00BF3000002008B5092150
:10435000FFF7F2FF08BD7AB370B414460F2A15D9DF
:1043600002460B4640EA010515F0030F01D0013C5F
:104370000EE0194610460432043306680D68AE425A
:1043800004D110461946043C042CF2D8013C0ED04E
:104390000A460346044411461846013301320678A2
:1043A0000D78AE4203D118461146A342F3D10078EE
:1043B0000B78C01A70BC704700207047844640EAF2
:1043C000010313F0030F18D18446202A0BD32DE9E3
:1043D000F007B1E8F807A0E8F807A2F12002202AC8
:1043E000F7D2BDE8F007042A07D351F8043B40F8A0
:1043F000043BA2F10402042AF7D2002A05D011F8E6
:10440000013B00F8013B013AF9D160467047844610
:10441000002A2DD010F0030F04D000F8011B013A40
:1044200026D0F7E7C9B241EA012141EA0141202A39
:1044300012D3A2F120022DE9F0030B460C460D46E3
:104440000E460F4688468946A0E8FA03203AFBD27A
:10445000BDE8F00320320BD0042A05D340F8041B3A
:10446000043A05D0042AF9D200F8011B013AFBD125
:1044700060467047024610F0030F16D111F0030F8B
:1044800013D12DE9F0004FF001374FF0803351F890
:10449000044BA4EB070525EA04051D4002D142F8B0
:1044A000044BF4E7A1F10401F0BC11F8013B02F860
:1044B000013B002BF9D1704700F1010110F0030F0F
:1044C00011D010F8012B002A23D010F0030F0AD0CE
:1044D00010F8012B002A1CD010F0030F03D010F8A5
:1044E000012B002A15D02DE970004FF001324FF05A
:1044F000803350F8044BA4EB020525EA04051D4067
:1045000000D1F6E7A0F1040070BC10F8012B002ADE
:08451000FBD1A0EB0100704794
:104518004E4D000000000000544D00000000000057
:10452800604D000000000000644D00000000000025
:104538006A4D0000000000006F4D00000000000000
:10454800C545000000000303484D000000000000BE
:08455800C44C00000000030345
:104560009845000000000000A44500000000002065
:1045700088000020500100205801002090000020F9
:04458000180000001F
:104584000000000000000000000000000338FDD817
:1045940070470000D503000041040000D10300006F
:1045A4007274745F6C6F675F6261636B656E6400E5
:1045B4004261636B656E647320666C7573686564D1
:1045C40000617070000000007C0500207F00000086
:1045D400FC0500201B5B306D002573001B5B313B29
:1045E40033316D0025734C6F67732064726F707084
:1045F4006564202825642925730D0A003C25733E33
:104604002025733A20002025303278002020200015
:104614007C002563001B5B313B33306D001B5B3139
:104624003B33326D001B5B313B33336D001B5B311D
:104634003B33346D001B5B313B33356D001B5B3109
:104644003B33366D001B5B313B33376D0077617252
:104654006E696E6700696E666F00646562756700F7
:10466400D845000019460000E0450000214600003E
:10467400294600003146000039460000414600004A
:104684004946000000000000924900005146000025
:10469400594600005E46000011121314466174610D
:1046A4006C206572726F72203078257800537973AC
:1046B40074656D207265736574000000FFFFFFFF71
:1046C400FFFFFFFFFFFFFFFFFFFFFFFF00000000F2
:1046D400000000000000D6010601000048415244D9
:1046E400204641554C542061742030782530385888
:1046F40000202052303A20203078253038582020AD
:1047040052313A2020307825303858202052323A1D
:104714002020307825303858202052333A20203059
:1047240078253038580020205231323A203078250C
:1047340030385820204C523A2020307825303858D0
:1047440020205053523A2030782530385800537482
:1047540061636B2076696F6C6174696F6E3A207364
:104764007461636B20706F696E746572206F757409
:104774007369646520737461636B20617265612E73
:104784000043617573653A204275734661756C74B4
:10479400206F6E206120766563746F72207461628D
:1047A4006C65207265616420647572696E6720654A
:1047B4007863657074696F6E2070726F636573736C
:1047C400696E672E0043617573653A2025732E0068
:1047D4004D656D4D616E616765204661756C742031
:1047E400416464726573733A203078253038580018
:1047F400427573204661756C7420416464726573FC
:10480400733A203078253038580054686520707227
:104814006F636573736F722068617320617474656C
:104824006D7074656420746F206578656375746554
:1048340020616E20756E646566696E656420696EBC
:10484400737472756374696F6E0054686520707256
:104854006F636573736F7220617474656D707465D2
:10486400642061206C6F6164206F722073746F72B6
:10487400652061742061206C6F636174696F6E20C0
:104884007468617420646F6573206E6F7420706542
:10489400726D697420746865206F706572617469E3
:1048A4006F6E00556E737461636B20666F72206166
:1048B4006E20657863657074696F6E2072657475B7
:1048C400726E2068617320636175736564206F6E16
:1048D40065206F72206D6F72652061636365737309
:1048E4002076696F6C6174696F6E730053746163D1
:1048F4006B696E6720666F7220616E2065786365F0
:104904007074696F6E20656E7472792068617320AB
:10491400636175736564206F6E65206F72206D6FBF
:104924007265206163636573732076696F6C61746B
:10493400696F6E730041204D656D4D616E616765F1
:10494400206661756C74206F636375727265642090
:10495400647572696E6720666C6F6174696E672D29
:10496400706F696E74206C617A79207374617465F8
:1049740020707265736572766174696F6E00496E3A
:10498400737472756374696F6E20627573206572D7
:10499400726F720044617461206275732065727273
:1049A4006F72202850432076616C756520737461A2
:1049B400636B656420666F72207468652065786334
:1049C400657074696F6E2072657475726E20706F95
:1049D400696E747320746F2074686520696E7374D3
:1049E40072756374696F6E20746861742063617595
:1049F40073656420746865206661756C742900446D
:104A040061746120627573206572726F72202872FE
:104A1400657475726E206164647265737320696E67
:104A24002074686520737461636B206672616D65C0
:104A3400206973206E6F742072656C6174656420E4
:104A4400746F2074686520696E7374727563746919
:104A54006F6E20746861742063617573656420747B
:104A64006865206572726F722900556E7374616394
:104A74006B20666F7220616E20657863657074695F
:104A84006F6E2072657475726E2068617320636145
:104A940075736564206F6E65206F72206D6F72652B
:104AA400204275734661756C747300537461636B53
:104AB400696E6720666F7220616E20657863657029
:104AC40074696F6E20656E747279206861732063F7
:104AD4006175736564206F6E65206F72206D6F72EF
:104AE40065204275734661756C747300412062756C
:104AF40073206661756C74206F636375727265648C
:104B040020647572696E6720666C6F6174696E6784
:104B14002D706F696E74206C617A7920737461747E
:104B24006520707265736572766174696F6E005486
:104B340068652070726F636573736F722068617348
:104B440020617474656D7074656420746F20657879
:104B5400656375746520616E20696E737472756324
:104B640074696F6E2074686174206D616B65732065
:104B7400696C6C6567616C20757365206F66207461
:104B840068652045505352005468652070726F6305
:104B94006573736F722068617320617474656D70DE
:104BA40074656420616E20696C6C6567616C206C4F
:104BB4006F6164206F66204558435F5245545552D7
:104BC4004E20746F207468652050432C206173203C
:104BD4006120726573756C74206F6620616E206944
:104BE4006E76616C696420636F6E746578742C20D2
:104BF4006F7220616E20696E76616C69642045581D
:104C0400435F52455455524E2076616C756500548D
:104C140068652070726F636573736F722068617367
:104C240020617474656D7074656420746F206163B1
:104C340063657373206120636F70726F6365737350
:104C44006F72005468652070726F636573736F725E
:104C540020686173206D61646520616E20756E61EA
:104C64006C69676E6564206D656D6F727920616330
:104C740063657373005468652070726F6365737342
:104C84006F7220686173206578656375746564204C
:104C9400616E2053444956206F7220554449562072
:104CA400696E737472756374696F6E207769746862
:104CB40020612064697669736F72206F662030000A
:104CC400686172646661756C740000000E480000CF
:104CD4004E48000000000000A7480000F048000013
:104CE4003949000000000000000000008249000073
:104CF40098490000034A00006E4A0000AF4A0000D1
:104D0400F04A000000000000000000000E4800000F
:104D1400334B00008C4B0000134C000000000000DB
:104D2400000000000000000000000000474C0000EC
:104D3400794C00003031323334353637383941421A
:104D440043444546636C6F636B00434C4F434B00D5
:104D54004E4643540000404040404080505253006F
:104D640054494D4552005541525400554152544501
:104D7400004E464320546167206861732062656574
:104D84006E2073656C65637465642E2055415254BE
:104D9400207472616E736D697373696F6E206361E1
:104DA4006E2073746172742E2E2E004E464320665C
:104DB40069656C64206C6F73742E20446174612087
:104DC40066726F6D20554152542077696C6C206275
:104DD40065206469736361726465642E2E2E004ECF
:104DE4004643205258204649464F20627566666500
:104DF40072206F766572666C6F77004E464320555D
:104E040041525420546167206578616D706C65204F
:104E1400737461727465642E004E464320545820A6
:104E24004649464F20627566666572206F766572E4
:104E3400666C6F77000000000800000006000000A8
:104E440005000000070000000000000000E0D7019A
:104E54005465726D696E616C005254540053454739
:104E6400474552006A820000900000006B00000079
:104E7400000F2000F800F80406E104000000000020
:104E84000000000000A4040007D2760000850101A0
:104E94000000000000A4000C02E1030000A4000CC8
:104EA40002E10400580400001D3800000001000065
:104EB400EC1D00201000000018000000200000007D
:104EC40028000000300000004000000060000000E6
:104ED400800000000001000000000000000000004D
:104EE40000000000000000000000000000000000BE
:104EF4000000000043000000504F534958000000D8
:104F04002020202020202020206828282828202035
:104F1400202020202020202020202020202020208D
:104F24004810101010101010101010101010101045
:104F340084848484848484848484101010101010E5
:104F4400108181818181810101010101010101013E
:104F540001010101010101010101011010101010F2
:104F6400108282828282820202020202020202020F
:104F740002020202020202020202021010101020B7
:104F840000070320041702010857104080000000A6
:104F9400F84E0000FC4F00001051000053756E00E5
:104FA4004D6F6E0054756500576564005468750054
:104FB4004672690053617400000000004A616E008B
:104FC400466562004D617200417072004D61790066
:104FD4004A756E004A756C00417567005365700030
:104FE4004F6374004E6F7600446563000000000058
:104FF400414D00504D00000034510000305100007C
:105004003051000030510000305100003051000098
:105014003051000030510000305100003051000088
:10502400FFFFFFFFFFFFFFFFFFFFFFFFFFFF00008A
:1050340070500000A04F0000AC500000C04F0000B2
:10504400F44F000054500000045100006050000070
:10505400256D2F25642F257900000000256120256A
:1050640062202565202554202559000053756E645F
:105074006179004D6F6E6461790054756573646184
:1050840079005765646E657364617900546875725C
:10509400736461790046726964617900536174755F
:1050A40072646179000000004A616E756172790072
:1050B4004665627275617279004D61726368004180
:1050C4007072696C004D6179004A756E65004A75AD
:1050D4006C79004175677573740053657074656D00
:1050E400626572004F63746F626572004E6F76651D
:1050F4006D62657200446563656D626572000000EF
:1051040025483A254D3A2553000000009D420000F1
:10511400B9420000C5420000D1420000ED42000047
:10512400F9420000054300001343000000000000A2
:025134002E004B
:1051380000000000FF000000000000000020004008
:1051480000000000002000400000000000B0014006
:1051580000060000000000000090D00304010000D9
:10516800944F0000944F0000944F0000944F0000AB
:04517800944F000050
:040000030000037581
:00000001FF
