:020000040002F8
:1060000098800020C1630200C9630200CB630200D4
:10601000CD630200CF630200D163020000000000E4
:10602000000000000000000000000000D363020038
:10603000D563020000000000D7630200D9630200AC
:10604000F1660200DB630200D96A0200DB63020032
:10605000DB630200DB6302008D650200DB6302008C
:10606000DB630200DB630200DB630200DB63020030
:10607000DB630200DB630200DB630200DB63020020
:10608000DB63020049670200DB630200DB6302009E
:10609000DB630200DB630200B9670200DB6302001E
:1060A000DB630200DB630200DB630200DB630200F0
:1060B000DB630200DB630200000000000000000060
:1060C000DB630200DB630200DB630200DB630200D0
:1060D000DB630200DB630200DB6302000000000000
:1060E00000000000000000000000000000000000B0
:1060F00000000000000000000000000000000000A0
:10610000000000000000000000000000000000008F
:10611000000000000000000000000000000000007F
:10612000000000000000000000000000000000006F
:10613000000000000000000000000000000000005F
:10614000000000000000000000000000000000004F
:10615000000000000000000000000000000000003F
:10616000000000000000000000000000000000002F
:10617000000000000000000000000000000000001F
:10618000000000000000000000000000000000000F
:1061900000000000000000000000000000000000FF
:1061A00000000000000000000000000000000000EF
:1061B00000000000000000000000000000000000DF
:1061C00000000000000000000000000000000000CF
:1061D00000000000000000000000000000000000BF
:1061E00000000000000000000000000000000000AF
:1061F000000000000000000000000000000000009F
:10620000DFF80CD000F084F9004800479D930200AD
:106210009880002030B450E8012F93B2C489234401
:106220008489A34228BF1B1B0489A34202BFBFF37A
:106230002F8F002007E0C3EA020340E80134002C5E
:10624000E9D14FF001000A6030BC704750E8012FDF
:10625000C2EA024240E801210029F7D1704730B478
:1062600050E8022F1FFAA2F3C488A34202BFBFF373
:106270002F8F00200DE0C48923448489A34228BFC6
:106280001B1BC2EA034340E80234002CE8D14FF064
:1062900001000A6030BC704750E8022FC2EA224277
:1062A00040E802210029F7D17047034653E8022F46
:1062B000D988B2EB324F4FF0000017BF92B241EADB
:1062C000014142EA014104E05A68B2EB324F08BF93
:1062D000012043E80212002AE8D1704730B4044696
:1062E00054E8000F0D4644E80053002BF8D1156028
:1062F00030BC704730B4044654E8000F40EA010552
:1063000044E80053002BF7D1156030BC704730B41F
:10631000044654E8000F00EA010544E80053002B4E
:10632000F7D1156030BC704730B4044654E8000F14
:1063300080EA010544E80053002BF7D1156030BC1A
:10634000704730B4044654E8000F00EB010544E800
:106350000053002BF7D1156030BC704730B40446B1
:1063600054E8000FA0EB010544E80053002BF7D1DF
:10637000156030BC704770B404464FF0000054E81C
:10638000006F0D68AE4207BF44E80023012044E8D7
:1063900000630E60002B1CBF0020F0E770BC70474C
:1063A00030B4044654E8000F88422CBF451A054615
:1063B00044E80053002BF5D1156030BC7047000055
:1063C0000648804706480047FEE7FEE7FEE7FEE78F
:1063D000FEE7FEE7FEE7FEE7FEE7FEE7BD67020039
:1063E000016202002DE9F05F0546002092469B46BF
:1063F00088460646814640241BE0284641464746DB
:10640000224600F074F853465A46C01A914110D300
:1064100011461846224600F016F82D1A67EB0108BF
:106420004F4622460120002100F00DF817EB00092D
:106430004E41201EA4F10104DFDC484631462A46C5
:106440004346BDE8F09F202A04DB203A00FA02F11F
:10645000002070479140C2F1200320FA03F3194352
:1064600090407047004870472CDA020040EA010370
:106470009B0703D009E008C9121F08C0042AFAD2FA
:1064800003E011F8013B00F8013B521EF9D27047BE
:10649000D2B201E000F8012B491EFBD27047002266
:1064A000F6E710B513460A4604461946FFF7F0FF13
:1064B000204610BD421C10F8011B0029FBD1801A98
:1064C000704730B504460020034600E05B1C934251
:1064D00003D2E05CCD5C401BF8D030BD034611F820
:1064E000012B00F8012B002AF9D118467047202A09
:1064F00004DB203A21FA02F00021704721FA02F36E
:10650000D040C2F120029140084319467047000074
:10651000064C074D06E0E06840F0010394E80700F0
:1065200098471034AC42F6D3FFF76EFE10E5020038
:1065300030E5020070B58C1810F8015B15F0070308
:1065400001D110F8013B2A1106D110F8012B03E00C
:1065500010F8016B01F8016B5B1EF9D12B0705D414
:106560000023521E0DD401F8013BFAE710F8013B5D
:10657000CB1A921C03E013F8015B01F8015B521E79
:10658000F9D5A142D8D3002070BD00002DE9F04715
:1065900000268AB0DFF85091B0464FF48075012490
:1065A00037460696284603F0E1FE38B1D9F80403D1
:1065B000204203D0284603F0CFFE26432D1D640061
:1065C0007F1CADB2082FEDD34FF4BE74204603F00C
:1065D000CDFE48B1204603F0BFFE46F0004606AAB5
:1065E0000121002003F0A4FE404D16F0FF0F15D04E
:1065F0000127002437420DD009EB8401D1F81005A2
:10660000D1F81015C0F3042055F82420C1F301413E
:1066100002B190477F00641C082CEBD3002E5FDA98
:106620004FF0FF30CDF8108054E0281910F8507F5B
:1066300090F9000027F0C008401C3BD007A9404655
:1066400003F0B9F810B34FEA9719404601F08EFFF6
:1066500055F820701FB1B9F1030F03D006E0B9F16E
:10666000030F27D104A9404603F0ADF84FF0A04135
:1066700001EB8800D0F8000706A9C0F3014A4046A4
:1066800003F099F818B1BAF1020F03D012E0BAF191
:10669000030F0FD1B9F1030F08D1BAF1020F1DD0CA
:1066A0000221404603F028FE761CF6B217B1494697
:1066B0004046B847641C042CB7D3002E10D06A465D
:1066C0000121002003F034FE06990098884207D08B
:1066D00006900498002634460790A6E70321E0E7D9
:1066E0000AB0BDE8F087000000600040D43600200A
:1066F00070B54FF48076304603F0F2FB114CB505CF
:1067000060B1304603F0F3FB0120C5F8080360795F
:1067100020B9012060712168002088474FF48276FB
:10672000304603F0DDFB00280AD0304603F0DFFBE3
:106730000220C5F808032168BDE870400120084721
:1067400070BD00005C30002002490248091F096842
:1067500000680847CC30002000F0C4B970B50E4680
:10676000144900EB400001EBC0051446E86A1835F7
:1067700020B101280FD0022805D113E0284600F0EF
:10678000E5F9A04201D2002411E022463146284614
:1067900000F014FA0BE0284600F0D8F9A042F4D239
:1067A0000446F2E73146284600F0DBF9044620466D
:1067B00070BD00000C3E002004F07ABCF0B5B54876
:1067C0000023021D0178101D01254FF08054062979
:1067D0000BD11678360708D10678C6F30316032EB8
:1067E00006D0042E04D0052E02D0062907D00EE0D4
:1067F000B4F82463A84FC6F304263E6002E016787E
:10680000360704D10678C6F30316032E02D00629F4
:1068100004D00FE0A24FA14E7E670EE01678360737
:1068200008D10678C6F30316032E06D0042E04D032
:10683000052E02D0062907D00EE0D4F84462994F05
:10684000C6F342363E6002E01678360704D1067879
:10685000C6F30316032E02D0062906D011E0924E8D
:10686000376827F0807737600EE01678360708D152
:106870000678C6F30316032E06D0042E04D0052E88
:1068800002D006290AD011E04FF08046C6F80C313C
:10689000C6F81031834E361F336002E01678360793
:1068A00004D10678C6F30316032E02D0062905D0BC
:1068B0000CE07C4F032664373E600AE0167836070A
:1068C00004D10678C6F30316032E02D006290DD094
:1068D00014E0764F05263E60744E78363560734E70
:1068E000083633603F263F1D3E6002E016783607CB
:1068F00004D10678C6F30316052E02D0062957D018
:1069000062E06B4E36686B4F3E60694E361D3668EE
:106910003F1D3E60664E083636683F1D3E60644E41
:106920000C3636683F1D3E60614E103636683F1D9E
:106930003E605F4E143636683F1D3E605C4E183632
:1069400036685C4F20373E60594E1C3636683F1D16
:106950003E60574E203636683F1D3E60544E24360A
:1069600036683F1D3E60524E283636683F1D3E60F9
:106970004F4E2C3636683F1D3E604D4E30363668E1
:106980004C4F40373E604A4E343636683F1D3E60BD
:10699000474E383636683F1D3E60454E3C363668B9
:1069A0003F1D3E60424E403636683F1D3E6002E06D
:1069B0001678360708D10678C6F30316032E06D0DC
:1069C000042E04D0052E02D0062907D019E0D4F8F1
:1069D0005812394A01F04F01116002E0117809079D
:1069E0000FD10078C0F30310032803D0042801D08E
:1069F000052806D131480168C90702D06FF00101AE
:106A00000160D4F83001062808D1D4F834010628F2
:106A100004D12B48016841F4806101602248743838
:106A2000016841F470010160BFF34F8FBFF36F8FB6
:106A30004FF01021D1F80002002803DBD1F8040246
:106A4000002822DA1F4A15601F480468002CFCD079
:106A50001524C1F800420568002DFCD0C1F804429D
:106A600001680029FCD0136001680029FCD0BFF345
:106A70004F8F0D48F0380168144A01F4E06111436A
:106A80000160BFF34F8F00BFFDE712491048086057
:106A9000F0BD0000E00F00F0403501400DF0ADBA50
:106AA00000C007403C050040FCED00E010560040EF
:106AB0000404001020C50040E40E00400004004023
:106AC0003C17004004E5014000E401400400FA05E1
:106AD0000090D003403100200148006800470000CA
:106AE0006430002010B5124C02202061606111A0BA
:106AF000A06104F17800E0614FF400702062002092
:106B0000A06260620BA1A164E06204F51E71E16401
:106B10001021A065C4E91410E06509A1E01DFFF78C
:106B2000DDFC08A12046FFF7D9FC2020A07110BD94
:106B30000C3E00205465726D696E616C00000000AF
:106B40005254540053454747455200000269C168FA
:106B50008A4203D88068401A104400E0501A401E50
:106B600070472DE9F047C4681746894606464FF03E
:106B700000083069A04201D9051B02E0B168201A63
:106B80000D1AB0686D1E001BA84200D80546BD4214
:106B900000D33D4670682A4620444946FFF766FC0C
:106BA000B0687F1B2C44A844A944A04200D1002413
:106BB000F460002FDDD14046BDE8F0872DE9F041BB
:106BC00004468846D4E90207C51BE168606816469A
:106BD0000844B54206D94146FFF748FCB819E060C1
:106BE000BDE8F0812A464146FFF740FC761B08EBE2
:106BF000050132466068FFF739FCE660F0E7000007
:106C00000FB4054B10B503A9044A029800F02AF806
:106C100010BC5DF814FB0000EF8D0200DC3000209A
:106C200002E008C8121F08C1002AFAD17047704755
:106C3000002001E001C1121F002AFBD170470000B3
:106C40000121202803DA81400548014003E0402863
:106C500002DA2038814009B10120704700207047D6
:106C6000FC06FFBD2DE9FF4F8DB00F4605460026FF
:106C700006E025280BD0DDE90F1290476D1C761C2D
:106C800028780028F5D111B03046BDE8F08F0024F7
:106C9000A246A1460122EC4900E0044315F8013F59
:106CA000203B02FA03F00842F7D128782A2810D0B6
:106CB0006FF02F022878A0F13001092914D80AEBCF
:106CC0008A0102EB410144F0020400EB010A6D1C51
:106CD000F0E701CF5FEA000A03D544F40054CAF19B
:106CE000000A44F002046D1C28782E2817D115F8EC
:106CF000010F44F004042A280ED06FF02F022878E8
:106D0000A0F1300109290AD809EB890102EB410100
:106D100000EB01096D1CF2E757F8049B6D1C287805
:106D20006C280FD006DC4C2817D068280DD06A28B4
:106D300014D104E0742810D07A280FD10DE044F467
:106D400000140AE044F4801401E044F4401469782B
:106D5000814202D104F580146D1C6D1C2A786E2AC4
:106D60001FD00CDC632A31D004DC002A8BD0582AD7
:106D700011D1A3E0642A68D0692A0CD165E0732A96
:106D80002ED004DC6F2A73D0702A04D19BE0752AC0
:106D90006FD0782A6ED01046DDE90F129047761C2E
:106DA00050E1C4F30250022806D0032809D0042879
:106DB00001CF09D0066045E101CFF117C0E90061BC
:106DC00040E101CF06803DE106703BE117F8040B7E
:106DD0008DF8000000208DF80100EB46012003E053
:106DE00057F804BB4FF0FF3061074FF0000102D4A9
:106DF0000DE008F10101884649450FDA8045F8DBCE
:106E00001BF808100029F4D108E008F101018846B8
:106E10008142FADB1BF808100029F6D1DDE90F23C7
:106E2000AAEB08008146214600F036F9304400EB19
:106E3000080604E0DDE90F121BF8010B9047B8F1DA
:106E40000108F7D221464846F7E00A21C4F302536D
:106E50004FF0000B0891022B04D001CFC117032B78
:106E600009D00AE0FF1D27F00707F7E8020108E054
:106E700032E01FE020E000B2C117042B01D140B284
:106E8000C117031E71F1000307DA4FF0000CD0EBBD
:106E90000C006CEB01012D2302E0230504D52B230C
:106EA0008DF82430012303E0E30701D02023F7E726
:106EB000984658E00A2110E010210EE010204FF013
:106EC000000B08900CE010214FF0000B44F004047C
:106ED0004FF00809089103E008214FF0000B0891DA
:106EE000C4F30253022B04D001CF0021032B06D0A0
:106EF00006E0FF1D27F00707F7E8020103E080B274
:106F0000042B00D1C0B24FF0000823072BD5702A04
:106F100007D0DDF820C08CF0100C5CEA0B0C05D01B
:106F20000EE040238DF82430012308E050EA0103ED
:106F300006D030238DF824308DF825200223984682
:106F4000DDF820C08CF0080C5CEA0B0C0BD150EA89
:106F5000010301D1630706D530238DF824304FF0AB
:106F60000108A9F10109582A04D038A20B9208AAF5
:106F70000A920BE03AA2F9E75B46089AFFF732FA69
:106F80000B9B9B5C0A9A521E0A92137050EA0102F4
:106F9000F2D10A98ADEB000000F1200B600702D59A
:106FA00024F4803401E04FF00109D94502DDA9EB5A
:106FB0000B0000E0002000EB0B0141440890AAEB1D
:106FC000010AE00306D4DDE90F232146504600F014
:106FD00063F806444FF0000908E009A911F8090018
:106FE000DDE90F12904709F10109761CC145F4DB78
:106FF000E0030CD5DDE90F232146504600F04CF8A4
:10700000064404E0DDE90F1230209047761C089911
:10701000481E08900029F5DC08E00A980A990078D3
:10702000491C0A91DDE90F129047761CBBF1000163
:10703000ABF1010BF1DC21465046DDE90F2300F0F6
:1070400019F806446D1C1BE6092801003031323363
:107050003435363738396162636465660000000094
:10706000303132333435363738394142434445467E
:10707000000000002DE9F041044600251E46174699
:10708000880404D405E039462020B0476D1C641EF6
:10709000F9D52846BDE8F0812DE9F04104460025E8
:1070A0001E469046C80301D5302700E020278804FB
:1070B00004D505E041463846B0476D1C641EF9D53D
:1070C0002846BDE8F08110B501220221002001F020
:1070D00039F808B1072810D107220221012001F058
:1070E00031F808B1072808D100210A22084601F02A
:1070F00029F808B1072800D1002010BD022000F0B7
:107100003DBF000070B50024064D06E0686801210F
:1071100010F8340004F0D2F8641C28788442F5D3C7
:10712000002070BD70300020F8B516460C460546AC
:107130000A2A01D20720F8BD04F0BAF918B904F000
:1071400081F90028F7D1134F102113487D603C705E
:10715000BE60FFF7A4F90020C7E904000F4E0DE060
:1071600005EBC4003168009181788DF8011000783A
:107170000B4A694604F0F4F80028DCD1641EE4B23E
:10718000EED2BDE8F84005480021064A001D00F097
:107190008BB8000070300020A037002024D70200F8
:1071A000A590020029880200054672B603F0D4FBC0
:1071B00003F0ACF90028FBD1114812492A46401AC5
:1071C000C408012000EB04400FA103F011FB134899
:1071D0000068C00700D000BE022000EB044010A1F0
:1071E00003F002FBBFF34F8F0C48E4380168104AEC
:1071F00001F4E06111430160BFF34F8F00BFFDE771
:10720000B8E5020040E50200466174616C206572D9
:10721000726F72203078257800000000F0ED00E0F9
:1072200053797374656D2072657365740000000096
:107230000400FA050EB500210091CDE901106A465F
:1072400044F20100FFF7B0FF0EBD10B58268C368BD
:10725000934203D001F0B8FD002010BD052010BD01
:1072600029B112B1531E134203D0092070470E20DA
:1072700070470160838000218160C16008467047CB
:1072800010B58268C3689A1A83889A4203D801F0BD
:10729000A5FD002010BD042010BD0000014801F034
:1072A00014BC0000903000203AB10068012942610E
:1072B00000D00021016100207047072070470000C6
:1072C00038B5114808235822416800910F490068D9
:1072D00002F0BEF9002815D10D4A69460D4801F0AB
:1072E000F9FB04000ED101210A4801F06AFC0123D8
:1072F000094A1946074801F0C0FB06490120083930
:107300000870204638BD00002CD70200C03700208E
:10731000C1C9020090300020FFFF7F0070B5044615
:10732000007F0D4608B1002070BDA26101F0A0FEF3
:10733000401941F10001C4E90201206900B1256151
:107340002146BDE87040002005F048BE01460020FF
:107350000877012005F042BE70B50A4E01460A4882
:10736000B578FFF772FF04464DB10020B070711C74
:107370000122C81D02F02CFE08B1FFF75BFF20467A
:1073800070BD0000AC30002018380020F0B5244E4D
:1073900089B01F460D00044672603FD0A888296856
:1073A00082B22048FFF75CFF002835D1A889A96880
:1073B00082B21C481030FFF753FF00282CD1202246
:1073C00019496846FFF752F860690690207C00B1C1
:1073D00001208DF814008DF81C70607C00B10E2027
:1073E0008DF81500E0680290A06803902068019075
:1073F000606800900A480D4A6946083002F0B4FD02
:10740000002809D1B0702068401C05D00449012231
:10741000491CC81D02F0DCFD09B0F0BD0720FBE7E8
:10742000AC3000201838002040D70200A9D102005B
:1074300010B501461048FFF723FF040019D10F488B
:107440000F4A0178515C19B1001D04F0C1FA02E045
:107450000C3004F097F960B9084907480839FFF77C
:10746000F4FE30B9054901220839044802F0C0FD94
:107470000446204610BD000028380020B43000200B
:107480005030002030B5EFF3108172B60D4A946889
:10749000012324B10370002900D162B630BD93608E
:1074A0004FF0E023D3F88051074C25401560C3F816
:1074B0008041D3F8844154605A17C3F884210022D4
:1074C0000270E8E738380020FC06FFBD0B498A68E7
:1074D000002A11D000280FD1EFF3108072B60B688C
:1074E0004FF0E022C2F800314B68C2F804310022AC
:1074F0008A60002800D162B670470000383800204A
:107500002DE9F041064608680C46411C4FF0A047A3
:107510004FF0010506D005FA00F1C7F808152068FC
:1075200002F0D6FE6068411C02D0002102F0BEFECF
:107530003168A069C1F82405607D227D316810435F
:10754000C1F86C05D4E900123068C0F81425C0F801
:107550000C15207D012815D1A068411C02D0002106
:1075600002F0A4FEE068411C05D08540C7F808552C
:10757000E06802F0ADFED4E902123068C0F80825D8
:10758000C0F81015BDE8F0812DE9F0410646086805
:107590000C46411C4FF0A0474FF0010506D005FAFC
:1075A00000F1C7F80815206802F09CFE6068411CD5
:1075B00002D0002102F083FE3168A069C1F82405E1
:1075C000607D217D32680843C2F86C05D4E9001261
:1075D0003068C0F80C15C0F81425207D012815D19D
:1075E000A068411C02D0002102F069FEE068411C45
:1075F00005D08540C7F80855E06802F073FED4E96D
:1076000002123068C0F80825C0F81015BDE8F081F6
:1076100070B5C8B1C2B10024158803E0065D641CD2
:107620003444A4B2A54203D8061976789E4201D00C
:107630008C42F3D38C4207D2005DA31C401E9BB248
:1076400080B21C188C4201D9002070BD138070BD1F
:107650002DE9F0418AB006460020ADF8140013462B
:10766000102088468DF804000D4606AA01A9184688
:1076700064DFA6B398BB9DF80400022804D0042858
:1076800007D0102839D10DE003208DF8100002201A
:1076900003E005208DF8100004208DF8110000246F
:1076A00004AF0FE007208DF810000620F5E73B5DE2
:1076B00005AA41463046FFF7ABFF641CE4B205461D
:1076C000022C04D2BDF814000028F0D003E0BDF86D
:1076D0001400002812D080B2064400240BE00CE015
:1076E00030199DF8042006A9FEF7EBFE48B19DF87D
:1076F0000400204484B2AC42F2D300200AB0BDE8BA
:10770000F0810120FAE7000070B540B10C4D2978F6
:1077100039B1044605F008F828B1002070BD0E20EC
:1077200070BD082070BDE868062807D205492268A8
:1077300001EB8001401C0A60E860EEE7042070BDA8
:1077400040300020A836002010B558B103684BB176
:1077500042683AB1044900200124C8600C70C1E9B4
:10776000013210BD0E2010BD40300020002827D06F
:10777000002925D0134A1278002A21D00A46018810
:10778000112911D0302907D0322909D0332917D136
:10779000011D104604F020BB011D104604F098BCEA
:1077A000011D104604F024B98088B2F8CA1288423C
:1077B00006D1002082F8C8024FF6FF70A2F8CA0274
:1077C000704700004030002048B1084A137843B1A8
:1077D000D26832B190F8C8222AB1112070470E2029
:1077E00070470820704701F0DDB8000040300020ED
:1077F0002DE9FF410288011D04461D2A2ED017DC09
:10780000102A52D0494B4A4D0320EB1ADB0800EBFB
:107810000340112A62D0132A68D01B2A7DD109792E
:1078200002297AD104B043A1BDE8F04102F0DCBFE7
:107830001F2A61D03D493E4B0420591AC90800EB6C
:107840000140212A5DD03B2A69D0562A65D141A149
:1078500002F0CAFFA088132176DF38E091F91760A3
:10786000D1F80640D1F80A5016F15A0F55DD088CB0
:1078700001F060FE0746C5F30721EAB2C5F30740F1
:10788000CDE90021CDE90206230EC4F30742C4F37B
:10789000072136A0FFF7B4F9032000F06FFB04B016
:1078A0003846BDE8F04101F0A9BAA18800223B4862
:1078B00000F044F908B1FFF7BDFC072000F064FCBC
:1078C00008B1FFF7B7FCA1883548FFF77DFF002816
:1078D00023D004B0BDE8F041FFF7ACBC0B790A88B7
:1078E00004B030A1BDE8F04102F089BF0023A088B8
:1078F0001A4685217FDFEAE731F8040B75DFE6E7FA
:107900000BE034A102F070FF00200090A0886946CF
:107910008FDF002801D0FFF78DFCBDE8FF8132A189
:1079200002F062FFA088132176DFD0E740E5020075
:10793000B8E50200436F6E6E656374696F6E205226
:107940006571756573742074696D6564206F7574F5
:107950002E00000047415454205365727665722012
:1079600054696D656F75742E000000005B414444DE
:10797000523A253032583A253032583A253032586A
:107980003A253032583A253032583A253032585D4F
:10799000727373693A25640D0A00000040340020B8
:1079A0002C2A0020446973636F6E6E65637465648E
:1079B0002E20636F6E6E5F68616E646C653A203076
:1079C0007825782C20726561736F6E3A20307825A7
:1079D0007800000050485920757064617465207209
:1079E0006571756573742E004741545420436C696A
:1079F000656E742054696D656F75742E000000000B
:107A000010B51A4C0188606810290ED011292BD1AD
:107A1000401E606028D1FFF756FB002824D0216863
:107A2000002921D0BDE810400847D0B9002101222B
:107A3000084600F087FB08B107280FD10722022172
:107A4000012000F07FFB08B1072807D104220221A2
:107A5000002000F077FB20B1072802D0216801B197
:107A600088476068401C606010BD0000383000200E
:107A700070B506461A481B4A0D46801AC008097898
:107A8000032202EB004459B1012922D0022926D158
:107A9000204615A102F0A8FEBDE8704005F0BAB876
:107AA000204615A102F0A0FE698805F10E023046BD
:107AB00000F044F808B1FFF7BDFB304600F066F96E
:107AC00008B1FFF7B7FB2046BDE870400FA102F0F8
:107AD0008BBEA989A868BDE8704000F08DB970BD63
:107AE000B8E5020040E50200446973636F6E6E659D
:107AF000637465642E000000446973636F76657279
:107B00007920636F6D706C6574652E00436F6E6EC7
:107B1000656374656420746F2064657669636520AD
:107B200077697468204E6F726469632055415254BE
:107B300020536572766963652E00000050B1418064
:107B40002AB15388C3801388838092880281406958
:107B500001F0D6BE0E20704730B5144B0D46040020
:107B60000FCB85B08DE80F001ED0EDB1A868D8B15D
:107B70002146684662DF002814D120788DF8120073
:107B80000120ADF810004FF6FF7060802868E060BB
:107B9000686820610020A0802081A868606104A836
:107BA000FFF7B2FD05B030BD0E20FBE708D702009D
:107BB00030B5024685B008002DD0002A2BD0418870
:107BC0004FF6FF74A14226D09388994223D115889D
:107BD000112D22D0392D1ED1818800291BD0538927
:107BE0008B4218D1C168002915D001218DF80010F1
:107BF00002F110010291D189ADF80C10C2686946FA
:107C000090470C480C49401AC008042101EB004081
:107C10000AA102F0E9FD05B030BD8B42FBD1C1687D
:107C20000029F8D002218DF800104480C26869460E
:107C30009047F0E760E5020040E50200436C6965AB
:107C40006E742073656E64696E6720646174612E62
:107C50000000000030B585B00C460546142168468A
:107C6000FEF71DFC207804F10E01002830D1A08819
:107C700001282DD1A0792A78904229D1002217E03D
:107C800002EBC20031F81030022B02D0032B0ED1D0
:107C900005E001EB40000089ADF8120007E001EBC0
:107CA00040000389ADF80E304089ADF81000521C39
:107CB000207A9042E4D8E868002809D06088ADF8BE
:107CC000020000208DF80000EA68694628469047C7
:107CD00005B030BD70B588B015460E46040012D010
:107CE00020216846FEF7DBFB19481A49401AC008F4
:107CF000022101EB0040F42D07D917A102F074FD19
:107D0000072008B070BD0E20FBE76288A2F57F4314
:107D1000FF3B18D0154ACDE9022401208DF8000060
:107D20002289ADF812208DF81010ADF816500022FF
:107D3000ADF8142006968DF81100628869466069D6
:107D400001F03AFEDDE70AA102F04EFD0820D8E777
:107D500060E5020040E50200436F6E74656E7420BA
:107D6000746F6F206C6F6E672E0000004D8E0200E6
:107D7000436F6E6E656374696F6E2068616E646CCC
:107D80006520696E76616C69642E000010B58AB05A
:107D900058B34188A1F57F42FF3A28D0C18831B35A
:107DA000044620216846FEF77AFB01218DF8201059
:107DB00000208DF821000F4ACDE902248DF8001033
:107DC000E288ADF812200222ADF81620ADF81400BA
:107DD0008DF8101008A88DF8111006906288694679
:107DE000606901F0E9FD0AB010BD0E20FBE7082034
:107DF000F9E700004D8E02002DE9F0410E460546E0
:107E000022482349401AC708042000EB07400446D3
:107E100020A102F0E9FC20463246294602F090FCFF
:107E20000024012000EB07480FE0285DFFF700FB6E
:107E3000070009D0112FF8D04046224619A102F0C0
:107E4000D7FC3846FFF7F6F9641CB442EDD3A81905
:107E500010F8010C0D2804D10A20FFF7E9FA1128C7
:107E6000FAD0324629461948FFF734FF04000BD0F8
:107E7000112CF6D04046224615A102F0B9FC20464E
:107E8000BDE8F041FFF7D6B9BDE8F081B8E50200E2
:107E900040E50200526563656976696E672064613A
:107EA00074612E006170705F756172745F707574BB
:107EB000206661696C656420666F7220696E646516
:107EC00078203078253034782E00000040340020AF
:107ED0004661696C65642073656E64696E67204EE7
:107EE0005553206D6573736167652E204572726FFF
:107EF0007220307825782E20000000000149085CAF
:107F0000704700002CD602000649095C4FF0A040E3
:107F1000D0F81005C84010F0010000D0012080F01A
:107F2000010070472CD602002DE9FC410646C0072F
:107F30004FF000050ED0104F00240122385D00954F
:107F400000231146019502F069F9641C042CF4D356
:107F500000F046F8B0070DD5074E0024361D00226C
:107F6000305D032300951146019502F057F9641C1A
:107F7000042CF4D3BDE8FC8128D6020007490B5C31
:107F80004FF0A041D1F804250120984020EA0203D7
:107F9000C1F808351040C1F80C05704728D602001A
:107FA0000249085C012102F0B8B9000028D602009D
:107FB0000249085C002102F0B0B9000028D6020096
:107FC0000649095C4FF0A040D0F80405C84010F005
:107FD000010000D0012080F00100704728D6020087
:107FE00010B500242046FFF7DBFF641C042CF9D3F6
:107FF00010BD10B500242046FFF7DAFF641C042CE6
:10800000F9D310BD10B50246064B4FF0FF300021EA
:108010005C5C944201D1084610BD491C0429F7D389
:1080200010BD00002CD6020070B50C4E0C004FF0B5
:10803000000530600BD0012000F06AF808B1022082
:1080400004E0002000F064F800B10B20207070689C
:1080500010B9FFF738F80546284670BD38300020C3
:1080600010B5002000F0CAF908B1062806D1012099
:1080700000F0C4F908B1062800D1002010BD0000AE
:108080002DE9F0470D468146FFF7BCFF0446042862
:1080900036D2DFF874801B481C4EA8F10C0725B3BC
:1080A000012D0ED0022D2BD104EB44003044457835
:1080B000002D25D0B968002922D02846BDE8F04718
:1080C000084704EB4401755C0E44717849B10E4ACF
:1080D0004FF48041093A8068FFF720F908B987F822
:1080E0000390B17808F80410E2E78068FFF72EF9F2
:1080F00004EB4401314418F804008D78A842D7D02D
:10810000BDE8F08730D602003430002078360020F9
:10811000042801D2FFF7F8BE00207047042804D0DD
:108120000A280CD1002002F02DBD054813214088FB
:1081300076DF082803D0002801D0FFF77BB870470E
:108140004034002070B50023042810D20D4D00EB00
:108150004004012A02D101290CD00022094E00EB73
:108160004000304461B1012906D0022906D007231E
:10817000184670BD0E30C2B22A55F9E74270F7E7D3
:108180008270F5E778360020044A01460020127913
:10819000D20702D0084600F04DB8704728300020C2
:1081A00070B506461E480024C0E90161B00720D51D
:1081B0000025012211462846FFF7C4FF6D1C044626
:1081C000042D02D2002CF4D013E094B940F23332E3
:1081D00004211448FEF7A8FF04000AD1FEF792FF1D
:1081E000040006D10F48104A0021001FFFF75CF879
:1081F0000446F00712D00120FFF796FE74B9094833
:108200000A4A00210C38FFF74FF8040006D1054850
:10821000074A01210838FFF747F80446204670BD99
:10822000283000203CD6020001850200D5920200D1
:10823000FD7002002DE9F05F6E4C05460026607867
:10824000B34618B184F801B001F02CF86A4F4FF42E
:108250007A694FF4C87A4FF00108182D69D2DFE827
:1082600005F00C1313384754696E727B727BC5841A
:1082700084848484B3B6B9BCC5C501F013F83868EA
:10828000FFF764F806465CE00020FFF799FE00283F
:108290004FF0000008D0FFF783FE022D02D14FF40B
:1082A000E16008E0484606E0FFF782FE022D01D1BA
:1082B000C82000E05046410CC0034FF47A72801889
:1082C00041F10001257052000023FEF78BF80146B2
:1082D0002AE00020FFF774FE00284FF0000004D0D1
:1082E000FFF75EFE4FF44870E5E7FFF761FEDFE75A
:1082F0000020FFF765FE00284FF0000002D0FFF7D6
:108300004FFECFE7FFF754FED4E70020FFF758FEFB
:1083100000284FF0000002D0FFF742FE01E0FFF717
:1083200047FE257040F6CD4100223868FEF7F6FF83
:10833000064646E00020FFF721FE257008E00020F9
:1083400051E025703DE084F801800120FFF716FE22
:10835000002240F26661E8E784F801800120FFF71F
:108360000DFE00224FF40051DFE77868FEF7EEFFC4
:108370000646D5F1110000D02EB10220FFF710FE05
:1083800084F802B01DE0012816D980B2C821484304
:10839000C117C90341EA5041C0034FF47A728018F3
:1083A00041F1000152000023FEF71CF801460022B3
:1083B0007868FEF7B3FF06460220FFF7F9FD84F860
:1083C00002803046BDE8F09F00F06CFFB9E700F096
:1083D00069FFB4E700F066FF04E000F063FF0020EF
:1083E000FFF7E6FD0120FFF7E3FDAAE7FFF701FE37
:1083F000A7E700002830002030D60200012105F058
:10840000DFB800002DE9F8430546861C00208DF8F2
:10841000000090460F464FF001096846FFF732F81A
:108420001B4C20683860D4E90001401AA16804F2AE
:108430001C47081A0EE00121384601F04EF900F001
:108440005FFF0146384601F048F9D4E90001401ABF
:10845000A168081A401C8642EDD8B8F1000F03D07D
:10846000052065F3891002E0062065F39F50A2689D
:108470002168114004EB8101C8602068304420600D
:108480009DF80000FFF722F84846BDE8F883000099
:10849000E839002070B50D4604460A2902D10D21A5
:1084A000FFF7F8FFA0682268411CA1601554D4E9C9
:1084B0000101814204D32046BDE8704001F0B5BD02
:1084C00070BD0000034803C8814201D101207047FC
:1084D00000207047E8390020034630B507480021E6
:1084E0000478426806E000BF02EBC10005789D42B7
:1084F00003D0491CA142F7DB002030BD70300020C2
:1085000000780221FFF7BCBD05494FF0FF32082873
:1085100041F8202002D3084480F84820704700002A
:10852000D4360020F0B54FF0FF3512B100230826F5
:1085300001E008230C260C4C05E000BF54F8237022
:108540007F1C04D05B1CB342F8D32846F0BD26182C
:108550005DB286F8305044F82310002AF5D1E118B6
:1085600081F84800F1E70000D436002002490844B1
:1085700090F9300070470000D436002030B589B043
:108580000D46044620216846FDF789FF94F8C6028F
:10859000002300EB8001C1EB801094F8C51204EBBE
:1085A000400041B1491EC9B201EBC10100EB4101DC
:1085B000498A491C00E0C188008961F30F0360F318
:1085C0001F4303208DF800000548CDE9020405484B
:1085D00004932A466946806801F0EEF909B030BD7F
:1085E000558902004030002070B5084C050009D0C4
:1085F00010342168002907D008682060496828469F
:108600008847F6E70834F4E770BD0000C036002064
:10861000054A012120B1012805D19170FFF7E4BF7F
:1086200051700020FAE77047C036002010B5D0E93D
:108630000234D1E90220D11AA04101D3012010BD9A
:10864000002010BD10B502460020138806E05468D3
:1086500034F810408C4203D0401C80B28342F6D8DC
:1086600010BD0000F0B50C4606461E481E4987B0F6
:10867000401AC708042000EB0740334622461BA1DE
:1086800002F0BDF8002004900590ADF81040019074
:108690000290ADF8124001AA04A9304690DF05000F
:1086A0001DD002F0A9FD0346012000EB074004465F
:1086B00032461A4902F0A3F8BDF8042012B9BDF8F9
:1086C000060028B1BDF80630204615A102F097F843
:1086D000BDF808201AB12046214902F089F807B0F8
:1086E0002846F0BD48E5020040E50200557064618F
:1086F00074696E672064617461206C656E6774686C
:1087000020746F202575206F6E20636F6E6E656319
:1087100074696F6E20307825782E000004DC02002A
:10872000546865207265717565737465642054586A
:108730002F5258207061636B6574206C656E67748E
:108740006820697320746F6F206C6F6E6720627988
:108750002025752F2575206F63746574732E0000B6
:1087600050DC020001460148FFF774BA4034002093
:108770002DE9F04389B00F46054691462021684611
:10878000FDF78DFE95F8C60295F8C54200EB800115
:10879000C1EB801005EB400604EBC40006EB400182
:1087A0003279601C0A31904232D108AB002228464F
:1087B00000F046FD78B310E0401EA04201D1002039
:1087C00004E004EBC40006EB40001C308046024687
:1087D00008AB284600F034FD90B10020387004202A
:1087E0008DF8000008984A46CDE903500C480290E5
:1087F0000C486946806801F0DFF809B0BDE8F083F5
:1088000095F8C5024146401C641C85F8C502E4B2D7
:108810003079A042D0D8012038700020EDE7000068
:10882000558902004030002070B500240F4D10E043
:10883000686800EBC406307802F0FAFD717801290F
:1088400001D0012100E000214140307800F042FADF
:10885000641C28788442EBDBD5E90401084303D08B
:10886000BDE8704004F0D6BB70BD00007030002041
:1088700030B59FB00C4605467C216846FDF70FFEDB
:10888000ADF8024003208DF80000044801954168CE
:10889000002901D0684688471FB030BD4030002015
:1088A0002DE9F041044690F8C602884600EB8001AD
:1088B000C1EB801004EB40061746304603F034FF4E
:1088C000050042D0D4F8CC0206283ED204EBC010FA
:1088D0007622A0F8D272D4F8CC02314604EBC01054
:1088E00000F53570FDF7C2FD0026B8F1000F06D087
:1088F000D4F8CC0204EBC01080F8D06206E0D4F8C3
:10890000CC12022004EBC11181F8D002D4F8CC02C1
:1089100004EBC010C0F84C53D4F8CC020C4D401CF2
:10892000C4F8CC02E96888420FD12746002407E04A
:1089300007EBC41101F53470D1F84C138847641C5F
:10894000E8688442F4D3C7F8CC62BDE8F081000047
:1089500040300020F0B515469FB0002281F8C822B3
:10896000074691F8C6020C4600EB8002C2EB80106D
:1089700001EB400003F0D8FE060009D07C22084934
:108980006846FDF773FDADF8025068460197B047A1
:108990001FB029462046BDE8F040FFF769BF000040
:1089A0005CD60200F0B50D4689B004464FF4BA61BA
:1089B000FDF775FD20216846FDF771FD1B4E294628
:1089C000B06800F09DFF00282DD1A4F8CA52C4F869
:1089D000CC0284F8C70284F8C60284F8C5021448A1
:1089E00015492B460068206012482288401AC008AA
:1089F000042101EB0040114901F001FF0220012791
:108A00008DF80000ADF810702068CDF812000C4809
:108A1000CDE902042A466946B06800F0CDFF00287F
:108A200001D184F8C87209B0F0BD000040300020C8
:108A3000A836002040E5020040E5020074DB020099
:108A40005589020010B50021024800F051FE80F364
:108A5000100010BD043E00204FF480328A400168AF
:108A6000C1F848230068C0F8082370474FF4A0728B
:108A700002EB810189B200F09DB92DE9F041054674
:108A80000E464FF4A07000EB860081B228684FF4C8
:108A90008034B440984622F07F47C0F808432868E5
:108AA000C0F84843286802F058F9286800EB8600AF
:108AB000C0F840752868C0F84443B8F1000F02D0F0
:108AC0002868C0F80443BDE8F0810068D0F80405C8
:108AD0007047000070B54379224C44F82320427956
:108AE000241D04EBC202204B1579204A9A1AD308A0
:108AF0002DB10824022000EB03401DA12EE00268E6
:108B00000D88C2F8085590F904208978002A4FEAA8
:108B1000411106DA02F00F0202F1E02282F8141D80
:108B200003E002F1E02282F8001490F9041001221F
:108B300001F01F0502FA05F54909890001F1E0215C
:108B4000C1F80051417904EBC1010A71417944F83F
:108B500031000320002400EB03400EA101F044FE8D
:108B6000204670BDC8300020A0E5020040E50200AC
:108B700052544320696E7374616E636520616C7238
:108B80006561647920696E697469616C697A65648C
:108B90002E0000005254433A20696E697469616C7A
:108BA000697A65642E00000090F90400012100F04C
:108BB0001F0291404009800000F1E020C0F800123F
:108BC00070470A46022100F07BB84FF4827100F032
:108BD000F1B800680121016070470068012141601F
:108BE00070472DE9F05F07460C464FF4A07000EB8C
:108BF00084001FFA80FA38684FF48036A6409B46FE
:108C000022F07F45C0F848633868C0F808633868C8
:108C1000D0F8048500EB8402D2F84095C2F8408574
:108C20005146386802F099F8A9EB080020F07F401F
:108C3000012806D1102002F039FB5146386802F0B5
:108C40008CF83868D0F80485C0F84463A5EB0801B7
:108C500021F07F413868012900EB840010D0C0F872
:108C600040553868D0F804156FF07F4C6A1A521ED0
:108C700022F07F42ACEB0B03934217D362B118E0B2
:108C80006D1CC0F84055102002F010FB3868D0F879
:108C9000040540450AD10CE000EB84006D1CC0F8CF
:108CA00040553868D0F80405884202D00D20BDE850
:108CB000F09F01223146384600F002F80020F6E726
:108CC0000368C3F84413002A02D00068C0F80413F4
:108CD000704700002DE9F84F0E463449804601EBFD
:108CE0005001C007097801D00F0901E001F00F071A
:108CF0004FF00009424601204946FDF7A4FBDFF88A
:108D0000B0A004460D46052F4ED2DFE807F003164B
:108D10001B282C00002E47D00121404604F098F873
:108D20008DF800906846FEF7ADFB5046D0E904127E
:108D30000C431543CAE9044532E00EB1022114E0A8
:108D4000002112E04EB10321404604F081F8404674
:108D5000BDE8F84F012104F023BC012105E0002EFD
:108D600022D1042101E02EB103214046BDE8F84F95
:108D700004F06EB80021404604F06AF80021404635
:108D800004F00EFC8DF800906846FEF77BFB504621
:108D9000E243D0E904341A4024EA0501CAE9042177
:108DA0009DF80000FEF792FBBDE8F88FA037002089
:108DB0007030002010B5006842581AB101F0CDFFA4
:108DC000012010BD002010BD826883881A4003680E
:108DD0009A5C0A708168491C81607047C268838808
:108DE0001A4003689954C168491CC160704710B5A6
:108DF0000446C0B2FEF71CFB204610BD10B500288B
:108E000021D0114B0022001F196803E0814203D8D2
:108E10000A4649680029F9D152B11368841A9C4264
:108E200004D1006818441060104602E0506000E071
:108E3000186039B102680B1A934203D10B681A44C7
:108E400002604968416010BD4431002070B505469C
:108E50000C4609480949401AC008042101EB0040AA
:108E600007A101F0C5FC2169002903D02846BDE80F
:108E70007040084770BD000060E5020040E5020058
:108E800041204741545420436C69656E74206572DB
:108E9000726F7220686173206F63637572726564AC
:108EA000206F6E20636F6E6E5F68616E646C653AF2
:108EB000203058255800000070B508880D46A0F5F0
:108EC0002061773916D10C480C49401AC10803209B
:108ED00000EB01440AA1204601F086FCA88810A1FD
:108EE000C01E82B20D48134602802046BDE8704085
:108EF00001F085BC70BD0000B8E5020040E502004D
:108F0000415454204D54552065786368616E6765FF
:108F100020636F6D706C657465642E00282A0020D4
:108F2000426C65204E5553206D61782064617461F8
:108F3000206C656E6774682073657420746F2030D0
:108F4000782558282564290010B50949094800F0FA
:108F500050FC08B1FEF76EF9F721064800F03DFC21
:108F6000002803D0BDE81040FEF764B910BD000032
:108F7000B98E02005834002070B50C4601F110057E
:108F8000C98A102901D9092070BD01F056FD606021
:108F900088B1EA880023A96801F0B5FD07480849AF
:108FA0006268401AC008042101EB004005A101F0ED
:108FB0001FFC002070BD042070BD000050E50200C1
:108FC00040E50200506F696E74657220746F206115
:108FD0006C6C6F6361746564206D656D6F72792070
:108FE000626C6F636B3A2025702E000070B50C46E2
:108FF00001F1100589690988102901D9092070BD7E
:10900000891C01F01AFD6060C0B100230222A9682A
:1090100001F079FDA868E96802230288606801F020
:1090200072FD074807496268401AC008042101EB35
:10903000004005A101F0DCFB002070BD042070BDE4
:1090400050E5020040E50200506F696E74657220C1
:10905000746F20616C6C6F6361746564206D656D05
:109060006F727920626C6F636B3A2025702E00005E
:1090700010B50B48FFF729FD094A083AD2E9043434
:10908000C018D2E9063244F10001C31A71EB0202A2
:1090900004D24FF08072801841F1000110BD000031
:1090A0009030002010B5C0B2FFF716FA04460078E1
:1090B00002F0BEF901466078012801D0012000E0ED
:1090C000002090EA010F08D00449D1E904010843C7
:1090D00003D1BDE8104003F09DBF10BD70300020EB
:1090E0002DE9FC5F0E008346DDE90C47C6F1000068
:1090F00098469246814600D40846012503E000BF09
:1091000090FBFAF06D1C5045FADAA84500D94546A7
:1091100024B1002E01DB780700D5641EB80702D504
:10912000B8F1000F0AD0F80708D13CB1A54205D22A
:1091300020215846641EFFF7ADF9F6E7002E02DA4B
:109140004E462D2102E0780703D52B215846FFF724
:10915000A1F907F0030002280BD1B8F1000F08D1E4
:109160003CB1A54205D230215846641EFFF792F962
:10917000F6E7CDE90047434652463146584604F0EB
:10918000B5F9BDE8FC9F000070B50D4604460068C7
:109190004FF4887102F050F84FF49071206802F09B
:1091A0004BF84FF49271206802F046F84FF4A27128
:1091B000206802F041F84FF4AC71206802F03CF8EE
:1091C00020681149C0F804132068690740F307308C
:1091D000090E002806DA00F00F0000F1E02080F808
:1091E000141D03E000F1E02080F800142068012144
:1091F00040F3073000F01F0291404009800000F169
:10920000E020C0F8001170BD1003420002460020AB
:109210001268530713D502F00300012802D0022878
:109220000CD105E0C2F383100B68801C184404E0E5
:109230000223086803EB9252104408600120704733
:1092400010B509892AB1D088491C814218D1002063
:1092500010BD90F8C62202EB8204C4EB821200EB30
:10926000420212899142F2D0491C198090F8C6122C
:1092700001EB8102C2EB811100EB4100008902E0A9
:109280001980D088401E5880012010BD007DC0F399
:10929000C100012803D0032801D00020704701201D
:1092A000704700000A4810B5807860B1002401E0E2
:1092B000022C06D02046FEF773FE641C042CF7D364
:1092C00010BD0324F6E7BDE81040FEF789BE00009C
:1092D0002830002003480179C90702D00078FEF742
:1092E000A9BF704728300020F72101801721418055
:1092F000002101714171FB2181711B21C1717047F6
:109300002DE9FF410026234800F0E4F92148001F21
:10931000074600F0DFF9204C60680090A56800E087
:1093200000986946284004EB80000C30FFF76EFF80
:109330000028F5D101AA009901EA050304EB830393
:10934000491CDB6842F82030401C00910228F2D30F
:10935000019800F0030001280BD0022810D10198D9
:10936000032101EB90500099BDF80A6001EB9000D9
:1093700005E00198BDF80A60C0F38310084400902E
:10938000384600F0A4F908B10098606004B0304697
:10939000BDE8F081003E0020E83900208AB04FF49B
:1093A0008041002001F0A2FA08B1FDF743FF01F06F
:1093B0009FF8FDF785FF08B1FDF73CFF18223E49F5
:1093C0006846FDF753F83D4806903D494FF48070DC
:1093D000CDE90701099007233A4A06A96846FDF737
:1093E000D5FF08B1FDF726FF37490120FEF7D8FE6B
:1093F00008B1FDF71FFF69460020FEF715FE08B112
:10940000FDF718FF324D3148CDE9000500246846CC
:10941000FEF79AF908B1FDF70DFF01F07DFB08B1E9
:10942000FDF708FF01F00AFE08B1FDF703FF6946EA
:109430000120009401F0A2FC08B1FDF7FBFE684694
:1094400001F034FD08B1FDF7F5FEFFF77DFD214881
:1094500000902148CDE9010569462048FEF77CFBD4
:1094600008B1FDF7E7FE0120019403948DF8040094
:109470008DF80C00194800940294194A69462C3062
:1094800000F0BBFB08B1FDF7D5FE16A0FDF7B8FB59
:109490001D481E49401AC008032101EB00401CA1D1
:1094A00001F0A2F903F0B6FB01F030F80028FBD17F
:1094B00001F046FBF8E7000010D602004032002021
:1094C0004033002081D002001D8102006587020028
:1094D000FC2F0020717A0200EDB902004034002018
:1094E00075CB0200424C4520554152542063656EB5
:1094F0007472616C206578616D706C652073746145
:10950000727465642E0D0A00B8E5020040E50200A1
:10951000424C4520554152542063656E7472616C13
:10952000206578616D706C65207374617274656418
:109530002E000000F0B50B30154D20F0070100247F
:10954000144A0FE003688B420BD38B4205D95E1A95
:1095500043184768C3E9006700E04368136002C02E
:1095600004E0021D10680028ECD12046002802D13A
:10957000286808B10020F0BD064A07481060074A75
:10958000121A22F00702C0E9002401202860D7E760
:1095900048310020443100209C4000209860002089
:1095A0002DE9F047C5881E1DB6FBF5F78946B6FBC9
:1095B000F5F1044605FB176C407916686843DDF841
:1095C00020A0F718001F874200D9C61A166001E0D4
:1095D0002468491E0029FBD1A5EB0C078846B74239
:1095E00016D818E004EB0C00001D09EB0803BAF1D3
:1095F000000F3A4602D00146184600E01946FCF733
:1096000035FF2468F61B4FF0000CB844B54201D971
:10961000374600E02F46002EE4D1BDE8F087000079
:1096200030B5024651B101F07FF90021074C08E046
:1096300034F821301568AB4202D11160002030BDF2
:10964000491C8142F4D3052030BD00000000000019
:1096500010B531B1B2FBF3F403FB14241CB10920A3
:1096600010BD0E2010BD016000214160816082812B
:10967000C381084610BD70B50C460546FCF7CAFD0F
:10968000002802D021882868084470BD10B50A88D7
:1096900049888A4203D1FCF7FFFD012010BD00205C
:1096A00010BD70B50C460546FCF7D9FD002802D068
:1096B00061882868084470BD10B50A8849888A42C4
:1096C00003D1FCF7C3FD012010BD002010BD002117
:1096D00000F009B8012100F010B808B56A46FCF79F
:1096E00030FE009808BD08B56A46FCF710FE08BDBC
:1096F00008B56A46FCF7F2FD08BD08B56A46FCF7F6
:10970000F9FD009808BD08B56A46FCF727FE0098E9
:1097100008BD38B5044600258DF800506846FDF7B1
:10972000B1FE21686268086890420ED9401E086048
:109730000178238AE26801FB0325227A2168101A46
:10974000C0B20A79824200D208719DF80000FDF78C
:10975000BDFE284638BD38B5054600208DF800000E
:109760000C466846FDF78EFEE868298A201AB0FB91
:10977000F1F12A681068431C136001709DF8000025
:10978000FDF7A4FE38BD10B530B1017A4268036818
:10979000891AC9B21A6006E00E2010BD03681A6863
:1097A000541C1C601170491EC9B2F7D20068002118
:1097B0000171084610BDC20800F007030120895C52
:1097C00098400840704710B5C20800F00703885C55
:1097D00001249C402043885410BD28B1A1F11702F8
:1097E000E12A03D3072070470E20704741800020F4
:1097F000704710B560B10161F72120F8021B20F815
:10980000021BFB2100F8021BFFF76EFD002010BDBC
:109810000E2010BD70B585880C46002D4FD10188F3
:1098200024291FD006DC102909D011290CD02329A6
:1098300021D11CE03A290BD055291CD10DE001465D
:10984000204602F07DF916E0A01DFFF74DFD12E065
:109850000146204602F0E6FB0DE00146204602F0FC
:109860003BFB08E00146204602F0EEF903E001462A
:10987000204602F073FAA07A002820D0E18828461A
:10988000A5DF0F490F4A0126891ACD0858B11128C2
:1098900015D001F0B1FC024606EB0540BDE8704072
:1098A00009A100F0A5BF0023A372E6720420E2889C
:1098B00000EB0540BDE87040104900F0A0BF70BD4E
:1098C00048E5020040E5020073645F626C655F6713
:1098D000617474635F65786368616E67655F6D74FA
:1098E000755F72657175657374282920726574756A
:1098F000726E65642025732E00000000BCDB020040
:109900002DE9F041884604004FF0000519D002F01F
:109910009FFE41462046FEF795FE218881422AD1CE
:1099200019481A490427401AC00807EB004042466C
:1099300017A100F05DFF002005464FF6FF76218855
:1099400009E00E20BDE8F081626832F81020B242D2
:1099500006D1401C80B28142F6D8206901F0BAF8E5
:10996000002022880BE0636833F81030B34204D142
:10997000626822F810802846E4E7401C80B28242E8
:10998000F1D83846DEE7000050E5020040E502006D
:109990005265676973746572696E6720636F6E6E76
:1099A000656374696F6E2068616E646C653A20301F
:1099B00078253034580000002DE9F0470C46054664
:1099C0002D482E499246401AC108042000EB014060
:1099D0004FF0000806462AA100F006FF002D48D0EF
:1099E000002C46D0284602F033FE51462846FEF7AA
:1099F00029FE2178062902D22988814202D1072036
:109A0000BDE8F087A96800EB800701EB870001F053
:109A10001EF930B15146204602F0F0FE08B1404632
:109A2000EEE72178DFF87C9059F821202AB12869E7
:109A3000F8B1214690470028E2D1A868214600EB02
:109A4000870001F023F95FEA00080BD0217859F86C
:109A5000210038B1606801F020F8304612A1626838
:109A600000F0C6FEA868514600EB870002F0AAFC91
:109A7000D5E70E20C4E7000050E5020040E50200F3
:109A8000416464696E67206974656D20746F207429
:109A9000686520726571756573742071756575658B
:109AA00000000000F0D60200506F696E74657220ED
:109AB000746F206672656564206D656D6F727920C4
:109AC000626C6F636B3A2025702E0000F8B50500BC
:109AD0000C4620D0002C1ED02888112806D0A0F1DA
:109AE00030011F2902D950381F2814D8AE882046CB
:109AF0003146FEF7A7FDADF80000218881420AD06B
:109B00002988112908D0A16800EB800001EB8000B2
:109B1000314602F057FCF8BD62684FF6FF7122F83B
:109B200010106946E06801F0B1F8F8BD2DE9F04188
:109B3000044600F1140600F10A07857C007A86B01D
:109B400001F10208002825D08BDF14216846FCF7BC
:109B5000A6FC2B463A46314640468CDF05460F4868
:109B60000F49401AC108042000EB01460DA1304600
:109B700000F03AFE06208DF8000030462A460CA17F
:109B8000019500F035FE002D04D0616A002901D056
:109B90006846884706B0BDE8F081000058E502003D
:109BA00040E50200436F6E6E656374696E67000086
:109BB000436F6E6E656374696F6E20737461747544
:109BC000733A2025640000004FF4C8710182062119
:109BD0004181182181810021C1817047017DA0222E
:109BE000C2825022028321F018010022428341F0F8
:109BF0000401017501214175704770B50D460400DF
:109C000010D00026266066606262EDB1287920726D
:109C1000287BA074296839B10E2204F11400FCF7E6
:109C200025FC04E00E2070BD2046FFF7D7FFA86892
:109C300030B10168C4F80A104068C4F80E0009E0A9
:109C40002046FFF7C1FF05E0FFF7C8FF2046FFF7FA
:109C5000BBFF267204F12800A0641F20A4F84C006A
:109C6000002070BD2DE9F04F044689B000208846E1
:109C70000746069014216846FCF711FC04F1140015
:109C800004902046FFF702FB010004F14800059014
:109C900011D002208DF80000CDF80480616A68467A
:109CA0008847002005998ADF41462046FFF73EFF9E
:109CB00009B0BDE8F08FA079002107916179834652
:109CC00021B301210691824694F804900026B8F849
:109CD0001C003546089012E004EB8502D8F8180005
:109CE0000899FDF7B5FC28B1761CF6B2BAF1000F61
:109CF0000DD002E0BAF1000F06D16D1CEDB24D455A
:109D0000EAD3BAF1000F02D04E4501D009E046B1C6
:109D10009DF8080040F004008DF8080001207F1C29
:109D20000790CDF80480BBF1000F02D0069887425F
:109D300003D0079830EA0B0007D000208DF8000010
:109D400041462046FFF7F2FE02E003208DF80000B6
:109D5000616A09B168468847002005998ADFA7E74C
:109D6000F0B50D46014601F108020C1D2846098890
:109D7000143585B010293ED01B291FD01D2917D0BE
:109D800020294BD1064614216846241DFCF787FB89
:109D9000706A002842D005208DF8000004952068E4
:109DA000019060680290207A8DF80C00716A33E0AF
:109DB00005B01146BDE8F040FFF754BF0646142138
:109DC0006846241DFCF76BFB2078012826D1144837
:109DD00014490427401AC00807EB004012A100F004
:109DE00003FD706A002819D08DF800700495207862
:109DF0008DF80400DAE7064614216846FCF74FFBAD
:109E000007208DF80000201D01902088ADF8080083
:109E10000495716A002901D06846884705B0F0BDF5
:109E200058E5020040E50200424C455F4741505F63
:109E30005343414E5F54494D454F55540000000077
:109E400030B585B0040025D014216846FCF727FB07
:109E50008BDF2046FFF71AFA012528B1616A19B194
:109E60008DF800506846884704F1480104F1140059
:109E70008ADF04460C480D49401AC108082C0BD053
:109E800054B105EB0140224609A100F0B1FC204687
:109E900005B030BD0E20FBE7042000EB01400DA112
:109EA00000F0A2FC0020F3E758E5020040E50200C4
:109EB00073645F626C655F6761705F7363616E5F3F
:109EC00073746172742072657475726E656420308B
:109ED000782578005363616E6E696E67000000003C
:109EE00000F180400068002800D00120704708B5CC
:109EF00000F18040002101600068009008BD000072
:109F000070B50B4C207808B185250FE00020A060CB
:109F100060602061E060074801F0AAF9054601F0A1
:109F2000D9F808B901F08EF901202070284670BDDB
:109F3000C03600201186020038B500258DF800508B
:109F40006846FDF79FFA074CE068401EE060E06855
:109F500010B901F09DF9A5709DF80000FDF7B6FA63
:109F600038BD0000C0360020F0B50546047815481D
:109F700089B0164640F82420124A0869121DA2F141
:109F8000080742F82400487F385520226846FCF72D
:109F90006DFA04942878385C48B10EB10A4A00E0A2
:109FA00000226946281D01F005FC09B0F0BD0EB184
:109FB000064A00E00022694605F10C0001F0B0FA03
:109FC000F3E7000054300020A9D302004DD2020074
:109FD00030B40378054CE35C1BB130BC001D01F0CC
:109FE0001FBC30BC0C3001F003BB0000503000201F
:109FF00030B40378054CE35C1BB130BC001D01F0AC
:10A0000091BC30BC0C3001F069BB00005030002026
:10A010000FB408B50399002904D004AA00926A4637
:10A0200000F00FF801B05DF814FB10B5826804462B
:10A03000002A05D0D4E90403216898470020A060D5
:10A0400010BD2DE9FC4791460C00804676D014F8EF
:10A05000011B39B125290ED04046FEF71BFA2078A6
:10A060000028F4D198F80C00002867D04046BDE8DD
:10A07000FC47FFF7DABF0020012221782B291BD0F3
:10A080002D2902D0302908D102E040F0010001E082
:10A0900040F00200641C002AEFD100252A290ED0CE
:10A0A0002178A1F130020A2A11D205EB850201EBD9
:10A0B0004205641C303DF1E740F00400EAE7D9F8BE
:10A0C00000100B1DC9F800300968641C0D4421788C
:10A0D00000232E290BD114F8011FA1F130020A2A06
:10A0E00005D203EB830201EB4203303BF3E76C291B
:10A0F0000DD068290BD0692921D00BDC252918D077
:10A10000582931D063290ED0642915D117E014F8ED
:10A11000011FECE7702969D0732932D075291BD053
:10A12000782909D120E0D9F80000011DC9F80010F4
:10A1300001784046FEF7AEF9641C90E76CE0D9F870
:10A1400000100A1DC9F800200968CDE900500A2254
:10A150004046FEF7C5FFEFE7D9F800100A1DC9F821
:10A16000002009680A2206E0D9F800100A1DC9F883
:10A17000002009681022CDE90050404603F0B6F9EE
:10A18000DAE7D9F8001000270A1DC9F800200E6888
:10A19000C00705D112E04046761C7F1CFEF77AF915
:10A1A00031780029F7D104E0202140466D1EFEF7EA
:10A1B00071F9BD42C0D9002DF6D1BDE74EB1304690
:10A1C000FCF778F9074604E0202140466D1EFEF7B3
:10A1D00061F9BD4206D9002DF6D103E04046761C58
:10A1E000FEF758F931780029F8D1A5E7D9F8000031
:10A1F000011DC9F80010056830214046FEF74AF9F4
:10A2000078214046FEF746F908200021CDE90001FB
:10A21000034610222946B0E7BDE8FC8770B541EA45
:10A220004201DDE904564FF0A04441EA830141EACE
:10A23000052104EB800041EA0641C0F8001770BD1B
:10A2400070B541EA4201DDE904564FF0A04441EA0D
:10A25000830141EA052104EB800041EA0641C0F890
:10A26000001770BD70B541EA4201DDE904564FF0B8
:10A27000A04441EA830141EA052104EB800041EA60
:10A280000641C0F8001770BD70B541EA4201DDE932
:10A2900004564FF0A04441EA830141EA052104EB52
:10A2A000800041EA0641C0F8001770BD1CB50022CD
:10A2B0000B46009211460192FFF7D4FF1CBD1CB55E
:10A2C00000220B46009211460192FFF7DDFF1CBDF4
:10A2D0001CB5002100910B46012201911146FFF7A8
:10A2E000C1FF1CBD1CB5002100910B46012201914C
:10A2F0001146FFF7C9FF1CBD4FF0A04202EB8000E2
:10A30000D0F8002722F44032C0F80027D0F8002708
:10A3100042EA0141C0F80017704701224FF0A04304
:10A32000824011B1C3F808257047C3F80C25704767
:10A3300018B5084B6C4601441B68009306E000BF4B
:10A3400054F82030D3F81035401C08C28142F7D8A9
:10A3500018BD000018D70200034908B508440021C1
:10A3600001600068009008BD00600040024940584C
:10A37000012800D0002070470060004030B5154A29
:10A3800001460020D2F8104423460AE0DB681D791C
:10A39000854205D1401C0A28F6DB4FF0FF3030BD66
:10A3A0001B68002BF2D1431CF9D0CB681871D2F88E
:10A3B000103443B1DB68CC681B682360D2F81024EA
:10A3C000D268116030BDC2F81014C96800220A605A
:10A3D00030BD0000E83900207047FCF7BDB9704778
:10A3E00008B5034A00924023024A00F005F808BD70
:10A3F000E9CC020050380020F0B595B01C46154657
:10A400000F4608461A9E00F061FB182109A8FCF7C8
:10A4100046F80E96CDE909540023082203A93846D0
:10A4200000F069FB05980690BDF81000ADF81C001F
:10A43000BDF81200ADF81E0000208DF82100039831
:10A44000082600F00300012802D0022818D032E0CC
:10A4500003983346850AC0F3C2008DF820000398A4
:10A460000FA9C0F38314A200384600F044FB09A8EA
:10A47000009006AB22460FA9284600F083FA1AE0A6
:10A480000398840DC0F3C2008DF82000082C01D27F
:10A49000254600E0082533462A460FA9384600F035
:10A4A0002AFB2E44641B09AB06AA29460FA800F01C
:10A4B000C5F9002CEAD1384600F00EFB15B0F0BD0E
:10A4C0000A4A012902EBC00007D0022907D003295C
:10A4D00007D0042907D000207047022070470420CD
:10A4E00070470079704740797047000040E50200EE
:10A4F00010B5FFF772FF04210348FFF73FFF024941
:10A500000120C968487110BD30E502002DE9F04F07
:10A510008DB0FDF7D7FF18B100200DB0BDE8F08F6A
:10A520007E4C4FF0000BC4F818B4BFF34F8F606837
:10A530000290A568D846284004EB80000CE000BFDC
:10A54000D4F8180470B921680298814201D861607A
:10A55000E2E7284004EB80000C3002A9FEF756FE2B
:10A560000028EDD1002005AA029901EA050304EBB9
:10A570008303491CDB6842F82030401C029102280A
:10A58000F2D3059800F00300022802D001284DD034
:10A59000AAE005985022810D8946B2EB905F00D861
:10A5A00050210E4666F39F50059008315C4800F03C
:10A5B00044FA070078D000F089FA4346082205A93A
:10A5C000384600F0A0FA029908F1080A2940681AF2
:10A5D0008000001D864222D9504D0C3530B1C2B2E8
:10A5E00004EB8101301A90460C3104E02946F2B2A6
:10A5F000002590462846C6B25346384600F083FAF6
:10A600000AEB080325B132462946384600F07BFAAA
:10A61000029909F1030001EB900002903BE004EB8A
:10A6200081015346324638460C31EFE70598C0F3B6
:10A630008310062800D30620059960F38911C1F321
:10A640008310801C05918100354800F0F6F9070061
:10A650004AD000F03BFA4346082205A9384600F0EC
:10A6600052FA08F1080800260FE00298434600EA73
:10A670000501401C04EB81010290042238460C3194
:10A6800000F041FA08F10408761C0598C0F3831025
:10A69000B042EAD847B1D4F81054D4F8180478B1CD
:10A6A000384600F019FA34E01EE0E86840790128E5
:10A6B00004D12A682846394612689047E868056838
:10A6C000002DF2D1384600F007FA8DF800B0684648
:10A6D000FCF7D8FED4F8180408B9029860609DF819
:10A6E0000000FCF7F3FE14E0D4F8104405E0216804
:10A6F000204689688847E0680468002CF7D109483B
:10A700000949401AC008022101EB004007A100F0EE
:10A710006BF8FDF7D7FE80F00100FEE6E839002077
:10A72000ECE50200B8E5020040E502004261636B1F
:10A73000656E647320666C75736865640000000064
:10A740002DE9F84F8146DFF89C80D01C15468A46DB
:10A75000800800226946D8F80860FDF753FEB8B3B8
:10A76000009CA01C0090D8F808103040091A8F00F7
:10A770003F1DBD4208EB800002D82A46514608E042
:10A780003A4651460C30FBF771FE1648EA1B0AEBBD
:10A7900007010C30FBF76AFE4FEA1947FEF752F942
:10A7A00047EA0042601C304008EB8000344008EB70
:10A7B0008401C260C8684FF6C07269F3C500904357
:10A7C00065F39F5020F00300801C20F00400C86057
:10A7D00098F8200402E000BFFFF798FE0028FBD1A4
:10A7E000BDE8F88FE839002000231A4602F048BB84
:10A7F00008B5012300926A4602F042FB08BD1CB571
:10A80000CDE9002302236A4602F03AFB1CBD3EB5A7
:10A81000069C8DE81C0003236A4602F031FB3EBD16
:10A82000F0B587B00DF1300C9CE8F0008DE8FC002D
:10A8300006236A4602F024FB07B0F0BD2DE9F0477D
:10A840000E4680461C469246082940D894F80C9043
:10A85000002020731946104601F05CFD0025B5422A
:10A8600006D218F805201BA12046FFF7D1FB03E014
:10A870001AA12046FFF7CCFB6D1C082DEFD318A1C1
:10A880002046FFF7C5FB0025B54212D218F8057027
:10A890007E2F08D8FBF7E6FD0068C05D10F03E0F84
:10A8A00001D03A4600E02E220EA12046FFF7B0FB71
:10A8B00003E00DA12046FFF7ABFB6D1C082DE3D391
:10A8C00001222146504601F007FD84F80C90BDE8B6
:10A8D000F087000020253032780000002020200082
:10A8E0007C00000025630000200000000B4810B52C
:10A8F000FF218160002101604160C0F81814C0F898
:10A90000141480F82014064800F0E4F8002803D15D
:10A91000044800F014FA002010BD0000E8390020BF
:10A92000ECE50200F8D8020002480349401AC008CA
:10A9300070470000D8E5020040E5020013B5684604
:10A94000FEF76EFE08B100201CBD0248009950F8C9
:10A9500031001CBD40E5020070B509480125D0F862
:10A96000104480F8205407E0E068457121682046D3
:10A9700049688847E0680468002CF5D170BD000084
:10A98000E83900202DE9FF4781460C9D00200C4648
:10A990002F7B2873984616462946184601F0BAFCC4
:10A9A000072E42D2DFE806F004090F161F2A3600F0
:10A9B00049462846FFF72CFB37E0494628462268DF
:10A9C000FFF726FB31E0D4E9002349462846FFF78C
:10A9D0001FFB2AE0A0680090D4E9002349462846DE
:10A9E000FFF716FB21E0D4E90201CDE90001D4E92B
:10A9F000002349462846FFF70BFB16E004F1080048
:10AA000007C88DE80700D4E9002349462846FFF728
:10AA1000FFFA0AE004F108000FC88DE80F00D4E93E
:10AA2000002349462846FFF7F3FA0022294640460C
:10AA300001F052FC2F73BDE8FF872DE9F041058A34
:10AA400080462D1F4819C01CB0FBF5F0C6B2404629
:10AA5000FEF75FFE041E19D00020207101206071F6
:10AA6000E58000272546761EC4F800800BE04046AE
:10AA7000FEF74FFE60B16179491C6171286005469F
:10AA80007F1CC0F80080B742F1D32046BDE8F081BA
:10AA9000204600F002F80020F8E72DE9F041457962
:10AAA00001466B1E002201E00968521C9A42FBD34A
:10AAB0000F680146002605E038460C68FEF74BFE9D
:10AAC0002146761CAE42F7D3BDE8F0810121001D7E
:10AAD000FEF703BEFEF757BE10B504460121001D68
:10AAE000FEF711FE10F0FF0F04D12046BDE8104024
:10AAF000FFF7D3BF10BD1CB501920122009201AA3D
:10AB0000FEF74EFD1CBD1CB501920022009201AA69
:10AB1000FEF746FD1CBD0000064910B50020487038
:10AB2000091D0860BFF35F8F0349044800F0F6FA7F
:10AB3000002010BDD430002090D7020044380020FF
:10AB400008B500208DF800006846FCF79BFCF1EE8C
:10AB5000100A20F09F00E1EE100ABFF35F8F084952
:10AB60004020C1F880029DF80000FCF7AFFC00F027
:10AB7000B1FA08B141DF08BD20BF40BF20BF08BD0A
:10AB800004E000E070B504460C480121FEF7B0FD7A
:10AB9000BFF35F8F0025002809D10120074E042C48
:10ABA00008D0311F4A781AB1BFF35F8F356070BD8E
:10ABB0000C70487002F0D0F8F6E70000D8300020A2
:10ABC0002DE9F8430446002790460E468DF80070A4
:10ABD0006846FCF757FC204600F039F838B10527E5
:10ABE0009DF80000FCF772FC3846BDE8F883206849
:10ABF0000568B8F1000F05D10168204600F03FF864
:10AC000021680860E268012A0CD0022A0ED0042ACA
:10AC100011D06068082A13D005FB02013046FBF70B
:10AC200025FCDDE76068405D3070D9E7606830F88A
:10AC300015003080D4E7606850F825003060CFE719
:10AC400000EBC501D1E90001C6E90001C8E70168D0
:10AC500008684968884201D1012070470020704788
:10AC600001680A6849688068884201D9491C00E087
:10AC70000021914201D10120704700207047806877
:10AC8000884201D9481C7047002070472DE9F843DD
:10AC900004464FF000080E468DF800806846FCF729
:10ACA000F1FB2046FFF7DCFF07000AD0207C40B113
:10ACB0004FF004089DF80000FCF708FC4046BDE892
:10ACC000F8832068456841682046FFF7D8FF21686F
:10ACD000486037B1206801682046FFF7D0FF21683F
:10ACE0000860E268012A14D0022A16D0042A19D07A
:10ACF000082A1CD06068314605FB0200FBF7B6FB52
:10AD0000204601F099FC21688A688242D2D288608C
:10AD1000D0E7616830784855F2E76168308821F8FB
:10AD20001500EDE76168306841F82500E8E7D6E9ED
:10AD30000001626802EBC502C2E90001E0E7826837
:10AD40000021916082681161826851618268D160DE
:10AD50008268516080680160704708B500224250E7
:10AD60004058009008BD000020B103490968016007
:10AD7000002070470E2070477CD902002DE9FE4369
:10AD800007460E460846FFF7EFFF00287CD1002556
:10AD90000095019506208DF800704FF00108ADF880
:10ADA000040002958DF8028069462020326869DF30
:10ADB0003649374A891AC908012202EB014430B1E9
:10ADC00000F01AFA024620463249FFF711FD0095BD
:10ADD0008DF801508DF80280019502958DF8038061
:10ADE00069464020326869DF30B100F005FA02465A
:10ADF00020462949FFF7FCFC00958DF80070F720EC
:10AE0000ADF802000195029569462320326869DF9A
:10AE100030B100F0F1F9024620462049FFF7E8FC86
:10AE20000095019502958DF80080694601203268F1
:10AE300069DF30B100F0E0F9024620461849FFF71B
:10AE4000D7FC4FF4B0600090019502956946A120AF
:10AE5000326869DF30B100F0CFF90246204611496F
:10AE6000FFF7C6FC0095019502958DF800506946E4
:10AE7000A020326869DF30B100F0BEF902462046FA
:10AE80000949FFF7B5FC0020BDE8FE83C8E50200D4
:10AE900040E5020064E30200ACE30200F8E30200D4
:10AEA000C4E2020010E3020070E202002DE9F0416A
:10AEB0000546076860DF804619491A482A68081A5B
:10AEC000C608BA4219D9022000EB064416A1204652
:10AED000FFF78AFC20463A461FA12B68FFF78FFC3C
:10AEE0004FF08050D0F80C012968800200F100502A
:10AEF000421A204625A1FFF77BFCB8F100004FF075
:10AF000001040AD000F078F9024604EB06402AA1B9
:10AF1000FFF76EFC4046BDE8F0812F480470F9E76A
:10AF2000C8E5020040E50200496E73756666696314
:10AF300069656E742052414D20616C6C6F63617461
:10AF4000656420666F722074686520536F66744470
:10AF500065766963652E00004368616E67652074DD
:10AF600068652052414D207374617274206C6F6368
:10AF70006174696F6E2066726F6D2030782578205D
:10AF8000746F20307825782E000000004D617869BC
:10AF90006D756D2052414D2073697A6520666F7220
:10AFA000206170706C69636174696F6E20697320D1
:10AFB000307825782E00000073645F626C655F65F1
:10AFC0006E61626C6528292072657475726E6564A5
:10AFD0002025732E000000003F31002030B51548B9
:10AFE000ADF5017D0078002821D04FF4FA7500BF3F
:10AFF000ADF8005280A9684661DF38B1052816D047
:10B000000DF5017DBDE83040FCF714B96C460A49E6
:10B010007DA800F083F806E0D0E9002120469047A3
:10B020007DA800F092F87F980028E1D0F4E70DF5B4
:10B03000017D30BD3F31002080D902007CB5194C24
:10B04000207808B108207CBD0120A070002001F00C
:10B050001DFE112819D0002001F030FE12480026F4
:10B06000006801908DF800606846FCF70BFA0F4904
:10B0700001A810DF05000AD0002020709DF8000014
:10B08000FCF724FA2DB128467CBD00207CBD0120B0
:10B09000F3E7A670667001F0A9FE012001F00EFE34
:10B0A000F3E700003C31002014D90200A97102002E
:10B0B0000EB50749684600F031F805E0D0E9001008
:10B0C0008847684600F041F802980028F6D10EBD86
:10B0D00030D9020001480078704700003C31002060
:10B0E0001FB568464BDF30B1052814D004B0BDE869
:10B0F0001040FCF79FB8084901A800F00FF806E0DF
:10B10000D0E900210098904701A800F01EF80398AC
:10B110000028E6D0F4E71FBD9CD902000160096851
:10B120004160AFF3008010B5D0E900215368994227
:10B1300001D1002104E0D1E90034A34202D0194634
:10B14000816010BD08314160F0E7816800290BD0B3
:10B15000026892680A44826041684B689A4203D14F
:10B1600008314160FFF7DFBF704770B50D460646F6
:10B17000446804E0B2682946904718B12468206802
:10B180000028F7D120682860256070BD40680068FD
:10B19000704741680868002801D002680A6070475B
:10B1A00002460020526806E08B4203D10868106016
:10B1B000012070471A461368002BF5D17047000034
:10B1C0000C4A10B502F594730EE0991AC91001EB00
:10B1D000D171491002EBC1010C68844201D90B46C0
:10B1E00002E005D201F108029A42EED3002010BD20
:10B1F000486810BDB0D7020000B5FFF7E1FF002896
:10B2000000D1014800BD00009CD702004058002832
:10B2100000D00120704708B50022425040580090ED
:10B2200008BDD0F80403084000D001207047405802
:10B23000002800D00120704708B500224250405835
:10B24000009008BD08480068012110F0010F06D1E8
:10B250004FF0E020C02280F80024C0F8001103491C
:10B26000012008607047000000E100E01805004080
:10B270000649024600200B790BB1852070470A6011
:10B2800001220A7100224A71704700005C300020E0
:10B2900004490120086004480168C1F30041002905
:10B2A000FAD170470C00004018040040002802D07A
:10B2B000014980010847704761D702002DE9F0413C
:10B2C0008846054600F0F0FF234E002828461AD095
:10B2D000FDF74CF9304490F848008009032802D06B
:10B2E00001280ED007E04FF0A040D0F81005E8404C
:10B2F00010F0010F05D003212846BDE8F041FEF70C
:10B30000FBBF0221F8E700F0DBFF002822D028462F
:10B31000FDF72CF904464FF4807000EB84000F4FCA
:10B3200081B207EB8400D0F8102542F00102C0F88A
:10B3300010250846FFF710F8B8F1000F0AD028468C
:10B34000FDF714F956F82000002803D00120A04092
:10B35000C7F80403BDE8F081D43600200060004047
:10B360002DE9FC41DFF8BC80044608EB040000270F
:10B3700090F930001346C0170E46401C01D0082734
:10B380004CE0B0781946C0F340022046FDF7CAF8F9
:10B390000546401C41D0B078410719D4C0070AD0F7
:10B3A0004FF0A04000EB8401D1F8000720F002002C
:10B3B000C1F8000707E000217378204600910A4693
:10B3C0000191FEF73DFF174920465431FEF7FBF986
:10B3D000B078800718D51448317800EB8500D0F894
:10B3E0001025124B1A40C0F810254FF4F8524FF4B4
:10B3F000403302EA042203EA01410A43D0F810155F
:10B400000A43C0F8102509E008EB0500327810F86F
:10B41000481F41EA8211017000E004273846BDE868
:10B42000FC810000D436002000600040FFE0FCFFFB
:10B430004FF0A041D1F81015C14011F0010000D02B
:10B440000120704770B5174D95F8580008B10820D5
:10B4500070BD0020411E2A18401CC0B282F8301076
:10B460002028F8D300242046FDF74EF8641CE4B2EF
:10B470000C2CF8D300240C49C0206C6581F8000422
:10B4800001264020891FC1F800014FF4BE70FEF76D
:10B4900063FF0649F007C1F8040385F858602046A9
:10B4A00070BD0000D436002006E000E000600040DF
:10B4B000034890F85800002800D001207047000091
:10B4C000D43600200121B1EB507F01D1012070471B
:10B4D0000020704738B50D4600F068FF040014D016
:10B4E00000208DF800006846FBF7CCFF207928B1DA
:10B4F0009DF80000FBF7EAFF112038BD0120256010
:10B5000020719DF80000FBF7E1FF002038BD00002E
:10B510000149024801F0B2BE30370020002000404F
:10B520002DE9F0410546007916460F4600EB400133
:10B530002C4A01EBC00102EB810494F82A1011B1EE
:10B540000820BDE8F081284951F820102868FFF74D
:10B55000C1FF08B11120F4E739462846FBF7D0FFB8
:10B5600066603869206030004FF001062DD03F7FC3
:10B570004FF48E712868FFF74EFE4FF4A2712868D1
:10B58000FFF749FE28681949C0F8041328684FEAF4
:10B59000471140F30730002806DA00F00F0000F1F1
:10B5A000E02080F8141D03E000F1E02080F8001492
:10B5B000286840F3073000F01F0106FA01F1400946
:10B5C000800000F1E020C0F8001128680421C0F8D4
:10B5D00000150020A061E06184F8290044F8140FF0
:10B5E000A675AEE7303700201CD7020080000200AD
:10B5F0002DE9F05F054600794FF4017600EB40033A
:10B6000003EBC000344B03EB80040020636813B1EC
:10B610002B68C3F80863A3694FF000096BB1E069B8
:10B6200038B1606810B12868C0F804631120BDE823
:10B63000F09FE2610120216105E0C4F82490A2613D
:10B64000E160C4F81C9094F82910014302D1284607
:10B6500001F07FFA60680028286803D0C0F804630E
:10B660000020E4E74FF4A2763146FFF7D4FDB2465E
:10B670004FF4927B59462868FFF7C8FD06464FF401
:10B6800084712868FFF7C2FD804651462868FFF79D
:10B69000BDFD074648EA07003043EBD056EA0700F5
:10B6A00007D12146286801F025FAA169606A814224
:10B6B000E0D8C4F818900EB10320B8E70FB10F20FE
:10B6C000B5E794F8291001200029296801D0086005
:10B6D000C6E74860C4E70000303700202DE9F05F7E
:10B6E000054600790B4600EB400101EBC000244900
:10B6F00001EB8004284600F045F810B11120BDE8A8
:10B70000F09F62614FF00009C4F82090A36084F8B4
:10B7100028904FF48E784E4641462868FFF77BFD0F
:10B7200028684FF0010AC0F808A02146286801F0F7
:10B730007DFC606808BBD5F800B067690FE000BF0A
:10B7400094F8280008B10F2615E041465846FFF747
:10B750005DFD0028F4D02146584601F067FC206AC0
:10B76000B842F2D3574641462868FFF74FFD0028FC
:10B77000F9D02868C760C4F814903046BFE70000CD
:10B7800030370020007900EB400101EBC000044994
:10B7900001EB80004069002800D0012070470000C4
:10B7A000303700200149024801F016BE5C37002006
:10B7B000002000402DE9F0410546164600790F466D
:10B7C000154A00EBC00102EB810494F8201011B17E
:10B7D0000820BDE8F081114951F820102868FFF7D2
:10B7E00079FE08B11120F4E739462846FBF7CCFE74
:10B7F0006660386920601EB1397F2846FDF7C4FCB9
:10B8000028680821C0F800150020A061E06160618F
:10B81000012184F82010DCE75C37002020D70200EB
:10B820002DE9F05F044600790E4600EBC001DFF819
:10B83000F0A017460AEB81053046FFF743FEB0B192
:10B8400068684FF000084FF4047910B12168C1F81E
:10B850000893A8694FF0000B80B1E86948B16868A7
:10B8600010B12068C0F804931120BDE8F09F1020AB
:10B87000FBE7EF614FF001082E6102E0EE60C5E9E1
:10B88000067B00254FF488712068FFF7D5FC4FF444
:10B89000A2712068FFF7D0FC2068C0F83465C0F8BA
:10B8A00038752068B8F1000F12D0D0F8001241F0BE
:10B8B0002001C0F800122079D04600EBC0010AEB4D
:10B8C0008100406838B12068C0F804932846CCE76E
:10B8D00001210160EFE74FF4887A4FF4A2795146D5
:10B8E0002068FFF7A4FC074649462068FFF79FFC45
:10B8F00006464FF492712068FFF799FC014647EA2B
:10B9000006000843EBD0227902EBC20308EB830266
:10B91000C2F818B001B10325002ED7D00F25D5E706
:10B920005C3700202DE9F04704460E460079274990
:10B9300000EBC00001EB800517463046FFF7C2FD63
:10B9400030B1204600F044F820B11120BDE8F08766
:10B950001020FBE76F61AE604FF490774FF0000866
:10B9600039462068FFF768FC4FF4AC763146206812
:10B97000FFF762FC2068AA686969C0F84425C0F82E
:10B98000481520684FF00109C0F808906868D0B9E0
:10B99000BA4651462068FFF74AFC07463146206800
:10B9A000FFF745FC0743F4D010B14FF00F0808E053
:10B9B0002068C0F80C9031462068FFF738FC00285A
:10B9C000F9D0002068614046C0E700005C370020E5
:10B9D0000079054900EBC00001EB800040690028B8
:10B9E00000D00120704700005C370020FBF722BC2C
:10B9F0002DE9F84F05460C460888B5F8CA1288426A
:10BA00007BD195F8C602628800EB8001C1EB801003
:10BA100005EB4006454946484FF0000B081A4FEA2F
:10BA2000D009EABB3079E288A71D8246D1B250FA2C
:10BA300082F2062A02D8084430710DE006203071E7
:10BA4000022101EB0940328880463A49FEF7D0FED8
:10BA500040463949FEF7C8FE50460022D8461BE052
:10BA600000EBC00102EB820307EB430306EB41014D
:10BA7000D3F802C0C1F80AC0D3F806C0C1F80EC09E
:10BA80005B894B82A1F81480A1F81680A1F8188078
:10BA9000401CA1F81A80521C31798142E0D800E0A4
:10BAA0001FE095F8C61200EBC00001EB8102C2EB6B
:10BAB000811105EB410136F810000989884210D246
:10BAC000307906280DD085F8C50221882846FCF774
:10BAD00055FD002811D022882946BDE8F84FFCF713
